:1000000000000320D10100002D3B0100E93A01006E
:10001000E93A0100E93A0100E93A0100E93A010050
:10002000E93A0100E93A0100E93A01002D3B0100FB
:100030002D3B0100E93A01007D2D0100812D0100D9
:100040002D3B01002D3B01002D3B01002D3B01000C
:100050002D3B01002D3B01002D3B01002D3B0100FC
:100060002D3B01002D3B01002D3B01002D3B0100EC
:100070002D3B01002D3B01002D3B01002D3B0100DC
:100080002D3B01002D3B01002D3B01002D3B0100CC
:100090002D3B01002D3B01002D3B01002D3B0100BC
:1000A0009DA30000A9A300002D3B01002D3B0100F2
:1000B0002D3B01002D3B01002D3B0100ED4A0100CD
:1000C0002D3B01002D3B01002D3B01002D3B01008C
:1000D0002D3B01002D3B01002D3B01002D3B01007C
:1000E0002D3B01002D3B01002D3B01002D3B01006C
:1000F0002D3B01002D3B01002D3B01002D3B01005C
:10010000C52E0100E12E0100FD2E0100192F010076
:100110002D3B0100454E01002D3B01002D3B010010
:100120002D3B01002D3B01002D3B01002D3B01002B
:100130002D3B01002D3B01002D3B01002D3B01001B
:10014000452B01002D3B01002D3B01002D3B010003
:100150002D3B01002D3B01002D3B01002D3B0100FB
:100160002D3B01002D3B0100B5A300002D3B0100FC
:100170002D3B01002D3B01002D3B01002D3B0100DB
:100180002D3B01002D3B01002D3B01002D3B0100CB
:100190002D3B01002D3B01002D3B01002D3B0100BB
:1001A0002D3B01002D3B01002D3B0100C1A30000B0
:1001B0002D3B01002D3B01002D3B01002D3B01009B
:1001C0002D3B01002D3B01002D3B01002D3B01008B
:1001D0005F4B4CF2205210B5DA814DF62812DA81CD
:1001E00000BF00BF13F0A6FC5A4B4FF030621A63F9
:1001F000594A9A63594ADA634FF0E0234FF4700288
:10020000C3F8882D03F5E823554A1A60554B9A78B0
:10021000110703D59A7842F008029A70524B53485E
:10022000AA221A70524BDA1C121AC11E22F00302C3
:10023000994288BF00224F4913F082FB4E4B4F4832
:10024000DA1C121AC11E22F00302994288BF002252
:10025000002120F055FE4A494A484FF4E87213F055
:100260006FFB494B494A802103F8011B9342FBD1A4
:100270004FF0E023434AC3F8082D454B8A221A70F9
:10028000A3F5805324225A70A0221A709A799207FB
:10029000FCD59A79D406FCD43E4A937903F00C033A
:1002A000082BFAD1304B60225A70DA78802AFCD1C0
:1002B000384B01221A715D225A719A799006FCD549
:1002C0009A795106FCD5234A33495164002191643F
:1002D000202119702F498B7903F00C030C2BFAD1D4
:1002E0002E4B53602E4A136913F4807303D153616C
:1002F0004FF4A85313614FF0E0232A4A5A610022B9
:100300009A6107221A61284AC3F8202D62B613F0B9
:1003100079FE234B5B69DA0705D5244813F066FEA6
:10032000234B244ADA61244B1B785B0609D5204C09
:10033000204BE2699A4204D11C4813F057FE002377
:10034000E36113F0FDFB21F091F913F0F1FAFEE700
:100350000020054000800440823F04000100002B83
:100360000300008500D0074000E007403007FF1F72
:100370006814FF1F40BB02006030FF1F6814FF1F9E
:10038000000000000002FF1F00E400E064E400E061
:10039000005006400040064000000602C010070062
:1003A00000D003401FBF020000002020BEB8D5656A
:1003B00000E00340A5C3945A00F00740FFFFFFFF91
:1003C000FFFFFFFFFFFFFFFFFFFFFFFFFFFFFFFF3D
:1003D000FFFFFFFFFFFFFFFFFFFFFFFFFFFFFFFF2D
:1003E000FFFFFFFFFFFFFFFFFFFFFFFFFFFFFFFF1D
:1003F000FFFFFFFFFFFFFFFFFFFFFFFFFFFFFFFF0D
:10040000FFFFFFFFFFFFFFFFFFFFFFFFDEF9FFFF23
:100410000548064B1B1AD90F01EBA301491002D066
:10042000034B03B1184770476814FF1F6814FF1F80
:100430000000000008B5054B1BB105490548AFF3A6
:100440000080BDE80840FFF7E3BF00BF00000000E8
:100450006814FF1F68B8020000207047704700BF93
:10046000C1657047C06D704700207047007A7047C3
:10047000407A704741720846704700BF007C704761
:100480000429A8BF04210129B8BF01214161084600
:10049000704700BF40697047C0F8101408467047A5
:1004A000D0F81004704700BF10B5044B044640F864
:1004B000183B12F055FF204610BD00BF80740200AB
:1004C00010B5044B044640F8183B12F049FF204693
:1004D00010BD00BF8074020010B5044B044640F804
:1004E000183B12F03DFF204610BD00BF8074020093
:1004F00010B5044B044640F8183B12F031FF20467B
:1005000010BD00BF8074020038B50546074B45F8A2
:10051000643B0446803012F023FF04F1700012F0B7
:100520001FFF284612F01CFF204638BD048402003D
:1005300010B5044682B00846019121F001FB236802
:1005400001999B690246204602B0BDE81040184759
:1005500010B51831044612F0C9FE204610BD00BF88
:1005600015F00EB915F0D0B810B504460C4B236049
:1005700000F5886007F00AFC04F24C4012F0F0FE2F
:10058000D4F82C04074B236020B1D4F83414091A92
:1005900013F05CFB04F5836012F0E2FE204610BD10
:1005A00084760200AC86020030B5134B8BB00D464A
:1005B0000446197801A812F0B5FE01A907A812F0A7
:1005C00095FE297A04A812F0ADFE04A907A812F03E
:1005D000EDFF297C13F010F80146204612F086FE4C
:1005E00004A812F0BDFE07A812F0BAFE01A812F08E
:1005F000B7FE20460BB030BD3507FF1F70B50C4667
:100600008EB0002979D03E490BA8154612F034FE71
:1006100020460BA907F08CFA04460BA812F0A0FEA6
:10062000002C6AD0374905A812F026FE294602A8F8
:1006300012F05CFE344902A812F0C0FF014608A87F
:1006400012F054FE042631490BA812F015FE0BAB34
:1006500008AA05A90096204607F0D4F90BA812F0C5
:100660007FFE08A812F07CFE02A812F079FE05A811
:1006700012F076FE264905A812F0FEFD244908A8CE
:1006800012F0FAFD23490BA812F0F6FD0BAB08AAF5
:1006900005A90096204607F0B5F90BA812F060FEF8
:1006A00008A812F05DFE05A812F05AFE1A4905A826
:1006B00012F0E2FD294602A812F018FE174902A81E
:1006C00012F07CFF014608A812F010FE10490BA89A
:1006D00012F0D2FD0BAB08AA05A90096204607F040
:1006E00091F90BA812F03CFE08A812F039FE02A8FE
:1006F00012F036FE05A812F033FE20460EB070BD93
:10070000E46C0200F46C0200C4B50200FC6C020050
:1007100020930200086D0200146D02007C9002001C
:1007200015F018B990F88C3170B5044653B10368D0
:100730005B6A0D4698472368294620469B6ABDE8B8
:10074000704018470368BDE870405B6A184700BFF7
:1007500090F86C3170B50446A0F120066BB150F8EA
:10076000203C30465B6A0D46984754F8203C2946A9
:1007700030469B6ABDE87040184750F8203C304630
:100780005B6ABDE87040184790F88C3170B504463C
:1007900063B10368DB6A0D46164698472368324604
:1007A000294620461B6BBDE8704018470368BDE82A
:1007B0007040DB6A184700BF90F86C312DE9F041BA
:1007C0000446A0F120067BB150F8203C3046DB6A9D
:1007D0000F461546984754F8203C2A46394630467D
:1007E0001B6BBDE8F041184750F8203C3046DB6AEF
:1007F000BDE8F041184700BF70B590F8643084B090
:1008000004469BB90D4609B104B070BD03680F4999
:10081000DE6C01A812F030FD01232A46204601A912
:10082000B04701A812F09CFD04B070BD03680749F1
:10083000DD6C01A812F020FD01231A46204601A913
:10084000A84701A812F08CFD04B070BDFC6C02003A
:1008500010B103685B6B18472A2070470268017467
:10086000536C034A934201D108467047184700BFB2
:100870007D04000010B50446806A074A0368DB68FF
:10088000934207D115F066F8E06A0368BDE81040AE
:10089000DB6818479847F7E72107000010B50446C2
:1008A0008068074A0368DB68934207D115F052F865
:1008B000E0680368BDE81040DB6818479847F7E731
:1008C00021070000806A044A03681B69934201D132
:1008D00014F056BF184700BF61050000806A044A43
:1008E00003685B69934201D114F00EBF184700BF43
:1008F000650500002DE9F0470546C06C002800F0B2
:10090000A58095F86030B3B905F114000EF080F8B9
:10091000002385F86030AB68D3F88C040022C3F85C
:100920008024C3F88424002800F09F800368BDE879
:10093000F0479B6818470021C7690CF037FAD5EDDE
:100940001A7A534C5349D5F86C90D5F86480FDEE73
:10095000E77A0422204617EE906A12F0F1FF4E4922
:10096000042204F1080012F0EBFF4C49042204F1C8
:100970000C0012F0E5FF4A49042204F1240012F0B1
:10098000DFFF4FF0000C84F811C084F812C084F827
:1009900013C084F815C084F823C04FF0100C84F8FD
:1009A00010C084F822C04FF0010C84F814C0C6F3C4
:1009B000072C7100267684F819C0C6F3074C360E52
:1009C0004FEA4902A7EB0803E676B3FBF2F3C1F363
:1009D000072609FB03F35B0021776677C1F307461F
:1009E000090E84F82020E177C2F30722C3F3072120
:1009F00084F8212084F8283003F1240284F8291097
:100A0000C3F307411B0E84F82B30E86C84F8169072
:100A1000C2F30723C9F3072922716371C2F30743A5
:100A2000120E84F8179084F81AC0A67784F82A105A
:100A3000A371E271D8B1424621460CF089FBEB6C00
:100A4000F3B1394618460CF0B1F95DE7286D00287E
:100A50003FF461AF95F86030002B3FF455AF0022B2
:100A60000023076909F052FE69E7BDE8F087286DA9
:100A700000283FF449AF424621460AF0DBFCDEE79E
:100A8000286D00283FF440AF3A4609F03FFE3BE7AF
:100A90008814FF1F1C6D0200246D02002C6D0200E3
:100AA000346D020010B5064B03600446FFF722FFC9
:100AB000044BE36004F114000DF0AAFF204610BDC2
:100AC00010750200F874020010B5084B036004466C
:100AD000FFF710FF064BE36004F114000DF098FFE0
:100AE0002046702113F0B2F8204610BD10750200A8
:100AF000F874020010B50446D0F88C000B4B23604C
:100B000010B1042113F0A2F8606F10B1022113F0AC
:100B10009DF8074B23602046FFF7ECFE054BE36092
:100B200004F114000DF074FF204610BD5075020052
:100B300010750200F874020010B50446D0F88C005D
:100B40000D4B236010B1042113F080F8606F10B1D9
:100B5000022113F07BF8094B23602046FFF7CAFE01
:100B6000074BE36004F114000DF052FF2046902182
:100B700013F06CF8204610BD50750200107502008D
:100B8000F874020000B5036C83B08DF8071043B110
:100B900001220DF1070118460CF0DAFA03B05DF8F6
:100BA00004FB406C0028F9D001220DF107010AF086
:100BB00041FC03B05DF804FB38B51F4B1F4941678A
:100BC000044603F130020360426203F077F9A56E38
:100BD00005B32B681A4A5B69934229D1D5F88C007A
:100BE000184B2B6010B1042113F030F8686F10B16E
:100BF000022113F02BF8144B2B602846FFF77AFEE6
:100C0000124BEB6005F114000DF002FF9021284615
:100C100013F01CF80E4B636204F13C0012F0A0FBD1
:100C200020460C4B40F8183B12F09AFB204638BD8A
:100C300028469847EEE700BFA47902003C7A0200FC
:100C4000390B00005075020010750200F8740200A4
:100C50008074020098750200036814495A6E8A4233
:100C600022D170B590F86450114984B004466DB932
:100C700001A8DE6C12F000FB01232A46204601A9E0
:100C8000B04701A812F06CFB04B070BD01A8DD6C88
:100C900012F0F2FA01231A46204601A9A84701A83A
:100CA00012F05EFB04B070BD00211047F907000090
:100CB000FC6C0200F0B503680E469A691B49DF6DB3
:100CC0008A428DB004462CD1194B06A8197812F02F
:100CD00029FB06A903A812F009FB217A09A812F042
:100CE00021FB09A903A812F061FC217C12F084FC0D
:100CF0006D460146284612F0F9FA09A812F030FBB9
:100D000003A812F02DFB06A812F02AFB2A46314652
:100D10002046B8470446284612F022FB20460DB074
:100D2000F0BD6D46014628469047EFE7A905000053
:100D30003507FF1F70B50368264A9B6993428CB044
:100D4000054640D1244B06A8197812F0EBFA09ACFD
:100D500006A903A812F0CAFA297A204612F0E2FA8C
:100D6000214603A812F022FC297C12F045FC6E46B5
:100D70000146304612F0BAFA204612F0F1FA03A802
:100D800012F0EEFA06A812F0EBFA1449204612F01F
:100D900091FA3146204612F009FC0146104812F043
:100DA00041F90F4812F06CF9204612F0D9FA3721B8
:100DB0000C4814F017FD0A4812F062F9304612F0A0
:100DC000CFFA0CB070BD6E4601463046984709AC6C
:100DD000DBE700BFA90500003507FF1F3C6D0200DF
:100DE000F40CFF1F506D0200F0B58DB0002945D006
:100DF0000D460446294909A812F03EFA284609A9D9
:100E000006F012FF054609A812F0AAFA002D35D007
:100E1000236823499A6D8A4239D1DF6D214A9B6943
:100E200093422FD1204B06A8197812F07BFA06A91D
:100E300003A812F05BFA217A09A812F073FA09A943
:100E400003A812F0B3FB217C12F0D6FB6E460146DC
:100E5000304612F04BFA09A812F082FA03A812F0F9
:100E60007FFA06A812F07CFA324629462046B84797
:100E7000304612F075FA28460DB0F0BD0025284620
:100E80000DB0F0BD6E46214630469847ECE7294646
:100E90002046904728460DB0F0BD00BF886D020087
:100EA000B50C0000A90500003507FF1FF8B5C36C9D
:100EB00004460D4617466BB190F8541079B93E467A
:100EC0003A46294618460CF043F994F85430C3B911
:100ED0003046F8BD006D60B394F854301BB313F086
:100EE00081F9E36CA0653E46002BE9D1206D002816
:100EF000EBD03A4629460AF09DFA94F85430002B7C
:100F0000E6D007210C4814F06DFC13F06BF9A16DCD
:100F10000023411A0A22094812F0C0F8074812F0CB
:100F2000AFF83046F8BD3A4629463E460AF082FA06
:100F3000E3E70646CCE700BF906D0200F40CFF1F0C
:100F400010B5C36C82B004468DF8071073B190F8E9
:100F500054208AB901220DF1070118460CF0F8F867
:100F600094F85430D3B9012002B010BD006D0028B0
:100F7000FAD094F8543043B113F034F9E36CA0651F
:100F8000002BE7D1206D0028EAD001220DF10701E6
:100F90000AF050FA94F85430002BE4D007210948A5
:100FA00014F020FC13F01EF9A16D0023411A0A224F
:100FB000054812F073F8044812F062F8012002B0FC
:100FC00010BD00BF906D0200F40CFF1F03682F4A94
:100FD0001B6E934249D1F0B50D468DB000294BD020
:100FE0002B49044609A812F047F9284609A906F03A
:100FF0001BFE054609A812F0B3F9002D3CD023686A
:1010000024499A6D8A4231D1DF6D234A9B6993420C
:1010100036D1224B06A8197812F084F906A903A844
:1010200012F064F9217A09A812F07CF909A903A841
:1010300012F0BCFA217C12F0DFFA6E46014630460F
:1010400012F054F909A812F08BF903A812F088F9EC
:1010500006A812F085F9324629462046B8473046A0
:1010600012F07EF928460DB0F0BD184729462046FB
:10107000904728460DB0F0BD002528460DB0F0BDC4
:101080006E46214630469847E5E700BFE90D00006F
:10109000886D0200B50C0000A90500003507FF1F90
:1010A000F0B5224E33688B4285BF00233360CB1AE4
:1010B0000B469A4287B00C46054601D907B0F0BDF1
:1010C0001B4903A812F0D8F8E86E03F04BFA01218F
:1010D000684612F0ADF9694603A812F067FA0146B6
:1010E000144811F09FFF134811F0CAFF684612F030
:1010F00037F903A812F034F92B680F491F6D03A8C4
:1011000012F0BAF8E86E03F02DFA0121684612F0E9
:101110008FF96A4603A92846B847684612F020F9B5
:1011200003A812F01DF9346007B0F0BD8014FF1F52
:10113000986D0200F40CFF1F086D02002DE9F043CA
:101140006D4C6E4EDFF8EC91DFF8EC818BB005460C
:1011500027216B4814F046FB204611F091FF132124
:10116000684814F03FFB204611F08AFF17216648BB
:1011700014F038FB204611F083FF2521634814F05A
:1011800031FB204611F07CFF3721614814F02AFB27
:10119000204611F075FF37215E4814F023FB2046EE
:1011A00011F06EFF5C4907A812F066F80A2296F863
:1011B000841004A812F010F904A907A812F0F6F997
:1011C000564912F0FBF90146204611F02BFF20464C
:1011D00011F056FF04A812F0C3F807A812F0C0F8E7
:1011E0004F4904A812F048F80A22D5F8381401A88B
:1011F00012F0F2F801A904A812F0D8F9494612F049
:10120000DDF996ED200A0746012107A812F010F932
:1012100007A9384612F0CAF9414612F0CFF9014643
:10122000204611F0FFFE204611F02AFF07A812F019
:1012300097F801A812F094F804A812F091F839492F
:1012400004A812F019F80A22D5F83C1401A812F0EB
:10125000C3F801A904A812F0A9F9494612F0AEF9A1
:1012600096ED200A0746012107A812F0E1F807A928
:10127000384612F09BF9414612F0A0F9014620468B
:1012800011F0D0FE204611F0FBFE07A812F068F81E
:1012900001A812F065F804A812F062F8224907A824
:1012A00011F0EAFF96ED1F0A04A8012112F0C0F820
:1012B00004A907A812F07AF91C4912F07FF9014637
:1012C000204611F0AFFE204611F0DAFE04A812F01D
:1012D00047F807A812F044F82321154814F082FAC1
:1012E000204611F0CDFE284605F074F820460BB0DC
:1012F000BDE8F04311F0C4BEF40CFF1F0417FF1F3C
:10130000C46D0200EC6D0200006E0200186E020057
:10131000406E0200786E0200B06E0200F06C0200B7
:10132000F06E0200386F02006C6F0200A46F0200C2
:10133000AC6F0200246F0200306F0200027A8A4212
:1013400025D170B5432B84B0044625D0632B20D122
:101350002C21264814F046FA254811F091FE236806
:1013600024495A6E01258A4284F8645033D12249B7
:10137000DE6C01A811F080FF2B462A4601A9204609
:10138000B04701A811F0ECFF284604B070BD002062
:101390007047002004B070BD3821184814F022FABC
:1013A000134811F06DFE236812495A6E00258A42D7
:1013B00084F8645014D11049DE6C01A811F05CFF70
:1013C00001232A46204601A9B04701A811F0C8FF11
:1013D000012004B070BD2046002190472846D9E77F
:1013E0002046294690470120D4E700BFD06F020075
:1013F000F40CFF1FF9070000FC6C020000700200F3
:1014000003682DE9F0411B6A234EB3423FD1C36C00
:1014100004460F46154673B390F854205AB92E4629
:101420002A46394618460BF093FE94F854307BB99F
:101430003046BDE8F08112F0D5FEE36CA0652E4683
:10144000002BEDD1206DE8B994F85430002BEFD08B
:101450000721124814F0C6F912F0C4FEA16D002352
:10146000411A0A220E4811F019FE0D4811F008FE2B
:101470003046BDE8F081006D60B194F85430002B27
:10148000D9D12E462A46394609F0D4FFCDE7BDE82A
:10149000F04118470646CBE7AD0E0000906D020004
:1014A000F40CFF1F036870B51B6A5500214A934274
:1014B00039D1C36C04460E4653B390F854204AB950
:1014C0002A46314618460BF043FE94F854306BB967
:1014D000284670BD12F086FEE36CA065002BEFD1AC
:1014E000206DD8B994F85430002BF1D00721124860
:1014F00014F078F912F076FEA16D0023411A0A2249
:101500000E4811F0CBFD0D4811F0BAFD284670BD14
:10151000006D60B194F85430002BDBD12A4631467F
:1015200009F088FFD1E72A46BDE870401847054614
:10153000CEE700BFAD0E0000906D0200F40CFF1F5F
:10154000036870B51B6A9500214A934239D1C36C78
:1015500004460E4653B390F854204AB92A46314601
:1015600018460BF0F5FD94F854306BB9284670BD61
:1015700012F038FEE36CA065002BEFD1206DD8B9D6
:1015800094F85430002BF1D00721124814F02AF9B6
:1015900012F028FEA16D0023411A0A220E4811F014
:1015A0007DFD0D4811F06CFD284670BD006D60B1E9
:1015B00094F85430002BDBD12A46314609F03AFF2B
:1015C000D1E72A46BDE8704018470546CEE700BF80
:1015D000AD0E0000906D0200F40CFF1FF0B5036823
:1015E000274FDE6EBE4287B044D1264E1346326886
:1015F00091423BBF002232608A1A0A469342044657
:101600000D4601D907B0F0BD1F49684611F034FE00
:10161000E06E02F0A7FF012103A811F009FF03A962
:10162000684611F0C3FF0146184811F0FBFC17484B
:1016300011F026FD03A811F093FE684611F090FE0C
:10164000236813491F6D684611F016FEE06E02F024
:1016500089FF012103A811F0EBFE03AA6946204689
:10166000B84703A811F07CFE684611F079FE35609A
:1016700007B0F0BD334607B0BDE8F040184700BFE3
:10168000A11000008014FF1F986D0200F40CFF1FD2
:10169000086D02002DE9F04F2DED028B446F83B0F1
:1016A00007460E4691469846B4B1836FC26F09FB58
:1016B00008F5934203EB050421DAA242C0F2AA80A6
:1016C000D0F884108C4280F29580B8F1000F40F37E
:1016D000BB804FF0000A25E0D0F880305E4890FBD8
:1016E000F3F00428B8BF0420C7F88400400012F0CB
:1016F000A9FA09FB08F5FC67BC6778672C46D7F8A0
:1017000084309C42E1DBBB6FFA6F4FF0000AC7F8F0
:10171000883000239A42BB6701DD95426DDCB8F149
:10172000000F1BDD4FEA890B6FF060439FED4B8A82
:10173000994528BF4FF0FF3B351F002402E00134DC
:10174000A0450BDD55F8043F002BF8D1D7F88C00ED
:1017500000283FD00134A0452860F3DCB9F1000F28
:101760002EDD331F9FED3E7A019303EB88050020A9
:101770006FF0004BB8F1000F1FDDBE6F7B6FDDF81F
:1017800004E006EB0B01840003EB41015EF8042F3B
:1017900002EB040CDCED007A67EE877AAE45FDEED5
:1017A000E77A17EE902A0FFA82FC21F802CFEDD1EA
:1017B0004644711EBE6723F811C001308145D9DC53
:1017C000BAF1000F01D0BB6FFB6703B0BDEC028B19
:1017D000BDE8F08F584612F035FAB9F1010358BF51
:1017E000024604D4013B591CA2EC018AFAD1C7F885
:1017F0008C00AFE74FF0000A89E73B21194813F04E
:10180000F1FF194811F03CFCB8F1000F15DD4FF065
:10181000010A87E73B21134813F0E4FF124811F057
:101820002FFCD7F884309C4204DBBB6FFA6F4FF07B
:10183000010A6CE7B8F1000FE9DCB9F1000FC8BF8D
:101840004FF0010A8DDCBEE7B9F1000FC8BF4FF0C1
:10185000000A86DCB9E700BFF04902000000000082
:1018600000FEFF463C700200F40CFF1F416F026F48
:101870002DE9F843002900F002810446D000A56F4D
:10188000E76FBD4236DAD4F88830DD1B002D64DD09
:10189000A842A8BF284682420646DCBF90FBF2F071
:1018A00002FB00F62268D2F82090764A914501EBBF
:1018B00047054FEA460840F08880E06C002868D071
:1018C00094F85430002B40F0B380294642460BF088
:1018D0003FFC94F85430002B40F09980E76FD4F827
:1018E00088303E449E420ABF0023E667E3674046D5
:1018F000BDE8F883ED1BAA422ADCA842A8BF28460F
:1019000090FBF2F602FB06F66EB323685D4A1B6A93
:10191000934201EB47074FEA460840F0A180E06C94
:1019200000285BD094F85430002B40F08D8039466D
:1019300042460BF00DFC94F85430002B34D1B8F132
:10194000000F4ED0E36F3344E3674046BDE8F883B1
:101950004FF000084046BDE8F88300239846E3674F
:101960004046BDE8F8832F21474813F03BFF294646
:10197000464811F07DFB0221454813F033FF314604
:10198000424811F075FB414811F07AFB616FE76F37
:10199000BBE7206D00B394F85430002B48D12946A2
:1019A000424609F047FD94E707213A4813F01AFF31
:1019B00012F018FCA16D0023411A0A22334811F0DD
:1019C0006DFB324811F05CFBB9E7424629462046E0
:1019D000C847E76FD4F88830804682E7206D00283A
:1019E00044D135212C4813F0FDFE3146274811F033
:1019F0003FFB0221264813F0F5FE0021234811F099
:101A000037FB224811F03CFB4FF000089AE7072112
:101A1000204813F0E7FE12F0E5FBA16D0023411A08
:101A20000A221A4811F03AFB184811F029FB55E731
:101A300012F0D8FBA065E06C00287FF446AF206D63
:101A400000283FF446AFAAE712F0CCFBA065E06C9B
:101A500000287FF46CAF206D00283FF46CAF09E0E4
:101A60004246394620469847804668E794F8543005
:101A7000002BE9D13946424609F0DCFC5BE74FF028
:101A8000FF3867E7AD0E000078700200F40CFF1F0E
:101A9000A8700200906D0200AC70020070B50C4698
:101AA00059B10546084620F04BF82B6802462146FE
:101AB00028465B68BDE870401847084670BD00BF07
:101AC0002DE9F04104464FF0FF38C4F80C804FF088
:101AD0002A08C4F810804FF00808C4F830804FF08E
:101AE0002708C4F838804FF00A08C4F840804FF047
:101AF0002208C4F844804FF01F08C4F848804FF013
:101B00003808C4F84C804FF02108754AC4F8548056
:101B10004FF01408A261A267C4F8608080224FF4DD
:101B2000165892B000258E46E2676E496E4AC4F898
:101B300074804FF02C08002301206C4EA160656179
:101B400023216B4DC4F858804FF0240C4FF005084A
:101B500020772371636284F85C306066C4F880305B
:101B6000C4F88430C4F8883084F88C312265256745
:101B70006163E666C4F83CC0C4F86880CDE906221B
:101B8000CDE908220A920C924FF4E13204911192AD
:101B9000DEF80010574A8DF82C3007270D9010956D
:101BA0004B1E02F154050091152022600F210622E0
:101BB000C4F89071CDF80CC00E970F962562019075
:101BC00002910592092B1DD8DFE803F0515B3F3FDE
:101BD000627705052424232127220A202223CDE928
:101BE0000403019102921F2138222120CDE906121F
:101BF00014234FF416512C2209900C9305231191B4
:101C00000A920E932046694605F0FEFB204612B06C
:101C1000BDE8F0811A2011210F22102301900291BA
:101C200009200E21039204930522022305900691B8
:101C300001202421079209934FF4165216238DF8A0
:101C40002C000C9111920A93DCE723200A21222216
:101C50001F230190049121201421059206934FF433
:101C60001652052308900C9111920E93CAE71E4B51
:101C70000E9302200121002208908DF82C100D9265
:101C8000C0E7194B0E930221002208910D92B9E78B
:101C90000A2204921F222A202221069221221423A2
:101CA0000190059140204FF41651089205220293AD
:101CB00007900C9311910E92A4E7232127220A206A
:101CC0002223CDE90403019102921F213822212011
:101CD000CDE9061214234FF416512C2208908CE7FC
:101CE00000442C475007FF1FF1D8FFFFF40CFF1FE3
:101CF000C40CFF1F8C7402002DE9F0414FF0FF333C
:101D000000254B4A83600223044602604361C5609C
:101D1000056182B00E461830464911F0ADFA464AC8
:101D2000464B636204F15401136861634FF48071A0
:101D300004F1240704F1580825636565A185002B8B
:101D400073D01A465B69002BFBD1576100253C4BD1
:101D50003C496362A563A56284F82E5004F13C00FF
:101D600011F08AFA384B394A19681368C4F8508060
:101D700004208B42E564A565E5652566656684F803
:101D8000480004DA324941F8237001331360314BC3
:101D90002360002103F130002F4A60624FF0FF33CF
:101DA000A166E2662167204600934FF4007302F0BB
:101DB000A7F8D6ED007A9FED297AF4EEC77AF1EE16
:101DC00010FA08DD9FED267AF4EEC77AF1EE10FAEC
:101DD00048BFDFED247AA36E0BB1C3ED1A7A252339
:101DE0006FF01F0000217822A067C4F8801084F8EB
:101DF0008420C4F888301C494A2204F18C0011F078
:101E00009FFD1A491A4B0A7884F87C20501C0870F0
:101E100003F1500003F15C016062204684F87D20EC
:101E20002360616702B0BDE8F08117608EE700BFF4
:101E300098750200E4700200C42AFF1F7474020047
:101E400080740200F4700200247B02005420FF1F03
:101E5000741EFF1FA4790200F40CFF1F00542C47CE
:101E600000562C4700442C47307602003407FF1FF1
:101E7000E0790200F0B50D46044685B00D216430CE
:101E8000EF6A04F1800611F04DFA0D2104F17000A3
:101E900011F048FA0021E767304611F0EDF94FF4F0
:101EA0007A63C4F88C300723C4F890304FF0FF33C6
:101EB000C4F894303823C4F898302223C4F89C30F6
:101EC000164901A811F0D8F901A9304611F0D4FA49
:101ED00001A811F045FA6A6CE86CC4F89800002378
:101EE000C4F89C206FF01F017820252284F8A030D0
:101EF0006160E3602074626109494A2204F11800BC
:101F000011F01EFD074A084913782372581C1070FF
:101F100020466372216005B0F0BD00BF209302002F
:101F2000307602003407FF1F04840200F0B58DB044
:101F300000F58865424909A811F09EF909A92846CB
:101F400005F072FE064609A811F00AFA3D4909A8F3
:101F500011F092F909A9304605F0EAFD044609A8F6
:101F600011F0FEF9384903A811F086F9374906A89F
:101F70000C2711F081F9364909A811F07DF909AB58
:101F800006AA0DEB07010097204605F03BFD09A8C6
:101F900011F0E6F906A811F0E3F90DEB070011F0D6
:101FA000DFF92C490DEB070011F066F92A4906A864
:101FB00011F062F9294909A811F05EF909AB06AAE6
:101FC0000DEB07010097204605F01CFD09A811F054
:101FD000C7F906A811F0C4F90DEB070011F0C0F91C
:101FE0001F490DEB070011F047F91E4906A811F033
:101FF00043F91D4909A811F03FF909AB06AA0DEBF9
:1020000007010097204605F0FDFC09A811F0A8F98A
:1020100006A811F0A5F90DEB070011F0A1F9314662
:10202000124801F0D3FA124909A811F025F909A9BB
:10203000284605F019FE09A811F092F90DB0F0BD7F
:102040000071020010710200207102004CAA02000F
:102050002C710200387102004471020048710200C4
:10206000547102003CA60200647102000C15FF1FAF
:102070007071020070B5044684B049B12D4B1D6FDC
:10208000012D34D0022D52D0002D40D004B070BDAF
:1020900003680D4601A828491E6911F0EDF82A468B
:1020A000012301A92046B04701A811F059F923687E
:1020B00022491E6901A811F0DFF82A46012301A96F
:1020C0002046B04701A811F04BF923681C491E694E
:1020D00001A811F0D1F801232A4601A92046B047F2
:1020E00001A811F03DF9134B1D6F012DCAD12368D2
:1020F00012491E6901A811F0BFF82B462A4601A912
:102100002046B04701A811F02BF904B070BD236838
:1021100009491D6901A811F0AFF801231A462046AC
:1021200001A9A84701A811F01BF904B070BD2368EC
:102130000349EEE70417FF1F2C71020048710200EB
:102140006471020038B504460D46FFF793FF294637
:102150002046BDE8384004F07DB900BF10B5D0F886
:102160004434D0F848241344002B84B0044622DDC4
:1021700001A804F5886105F09FFD01A9134810F03E
:1021800051FF124810F07CFFD4F8100401A903F0AD
:1021900097FD23680E4ADB6993420FD12046002148
:1021A000FFF768FF0021204604F054F901A811F060
:1021B000D7F804B010BDFFF7B9FED9E700212046DB
:1021C000984701A811F0CCF804B010BDF40CFF1F23
:1021D0004521000010B5214C2067032812D8DFE804
:1021E00000F03622021200211D4805F0F9FF0221FD
:1021F0001B4806F02BF99FED1B0A194806F090F8D2
:1022000084ED1D0A10BD0221154806F01FF90121B9
:10221000134805F0E5FF9FED130A114806F080F81A
:1022200084ED1D0A10BD00210D4805F0D9FF0321E2
:102230000B4806F00BF90121094805F0EDF99FED77
:10224000090A074806F06CF884ED1D0A10BD00214C
:10225000034805F0C5FF0121CAE700BF0417FF1FAF
:102260008C17FF1F000000002DE9F0418AB013F029
:1022700087FA002830D1844802F024FC00280FDCC3
:10228000824C8349204602F01FF9824B1B78002BB9
:102290007BD0814C94F864302BBB0AB0BDE8F08150
:1022A000002107A810F0E8FF7748002207A903F0F3
:1022B000B1FE051E0CDD794E0024214607A811F061
:1022C000F5F901340178304604F096FAA542F4D1CC
:1022D00007A811F045F8D3E713F016FAC1B26F481A
:1022E00004F08AFAC7E76E4E6E4F33680293029D80
:1022F0003B689D423BBF00233B60EB1A2B4640F6F8
:10230000B83293425BD83368674E0393039D3368BA
:102310009D4250D3EB1A40F6B7329342BDD9634980
:1023200004A810F0A9FFE06E02F01CF9012107A833
:1023300011F07EF807A904A811F038F901465C48AD
:1023400010F070FE5A4810F09BFE07A811F008F834
:1023500004A811F005F8574904A810F08DFFE06EAD
:1023600002F000F9012107A811F062F807AA04A9F8
:10237000494804F0BDFB07A810F0F2FF04A810F0D4
:10238000EFFF35600AB0BDE8F081454D3E48296851
:102390000191019941F2883203F0C2FFA2682B68D3
:1023A0000093A2F10102B2FA82F200994248520966
:1023B00005F016F96DE7002333602B46ABE7A06EFE
:1023C0003E4903680C225B689847E06ED4F8688049
:1023D00002F0C8F810EE100A1BF00AFE41EC100BD8
:1023E0004046012110F064FEA06E354903680222C8
:1023F0005B689847E06ED4F8688002F0D9F810EE78
:10240000100A1BF0F5FD41EC100B4046012110F0C5
:102410004FFEA06E2B49036803225B689847A06EAD
:102420002949036812225B689847284BA06E1978E7
:102430000A22002310F032FEA06E25490368012213
:102440005B689847234BA06E19780A22002310F08E
:1024500025FEA06E204903680E225B689847002085
:10246000D4F868801FF02EF907AB0146591A404690
:1024700010F0FEFDA06E10F003FE94F864303D6095
:10248000002B7FF440AF08E75016FF1F0C15FF1F0D
:102490009016FF1F501EFF1F0417FF1F7019FF1F0C
:1024A0004C2BFF1F8414FF1F8014FF1F986D020028
:1024B000F40CFF1F086D02008C17FF1F80710200D3
:1024C0009071020094710200987102006820FF1F51
:1024D000AC7102006A20FF1FB071020010B59FEDC1
:1024E000327AB4EEC70AF1EE10FA2DED048B06DC59
:1024F0009FED2E7AB4EEC70AF1EE10FA3CD82C4CC0
:102500002C4BD4ED0F8A83ED1F7AF6EE007A68EE3D
:10251000A77AF0EE479AF4EEE79AF1EE10FAD8BFF8
:10252000F0EE697AD4E91A0150EA010302D094F876
:10253000783073B9C4ED127A94ED0E7A67EE877A2B
:10254000B0EE690A87EEA87ABDEC048B84ED147AAC
:1025500010BD94ED129A37EEC98A1CF061F907EEAE
:10256000900A88EE277A00220023C4E91C23F0EEAB
:10257000497A84ED187ADFE70E4B0D4C83ED1F0A84
:10258000B5EEC00AF1EE10FAD4ED0F8A04D5DFEDF6
:102590000A7AF0EE409AC5E7F6EE007A68EEA77A7E
:1025A000F0EE409AB7E700BF0000FA4600007A411B
:1025B000C81DFF1F0417FF1F0000000070B5A1F128
:1025C0003E0386B00446392B3BD8DFE813F06E009B
:1025D0003A003A0076003A003A003A003A004400E5
:1025E0003A003A003A003F008100BD003A003A004C
:1025F0003A003A003A003A003A003A003A003A000B
:10260000C0003A003A003A003A003A003A003A0074
:102610003A003A00E4003A003A003A00F0000301C0
:102620003A000E013A003F00120139013A003A0027
:102630003A003A003A0077013C013A003A003A0089
:10264000590106B0BDE8704003F020BFFFF786FDDA
:10265000012006B070BDA94CDFEDA97A94ED1F0AE8
:1026600020EE270AFFF73AFFA64903A810F004FE60
:1026700094ED1F0A0121684610F0DAFE694603A8AE
:1026800010F094FFA04910F099FF01469F4810F008
:10269000C9FC9E4810F0F4FC684610F061FE03A8E7
:1026A00010F05EFE012006B070BD4221984813F084
:1026B00099F8964810F0E4FCCAE7964B9648002239
:1026C00012215A6413F08EF8904810F0D9FCBFE73D
:1026D000D0F83834894C5B4207EE903A94ED207A7A
:1026E000F8EEE77A002377EE877AF5EEC07AF1EE1E
:1026F00010FA40F1F380DFED890AC4ED207A67EE2D
:10270000A00AB2EE040A13F051FCB5EE400AF1EE55
:1027100010FAF0EE407A00F1EB80B1EEE70A804B60
:10272000804903A883ED150A10F0A6FD94ED200A58
:102730006846012110F07CFE694603A810F036FFC0
:10274000794910F03BFFA0E7D0F83C34C2E72721DD
:1027500076486A4D13F046F86C4810F091FC01265B
:10276000002173482E6705F03BFD0321704805F0FA
:102770006DFE6F48314604F04FFF6D489FED6D0AC6
:1027800005F0CEFD2046002185ED1D0AFFF772FC05
:10279000012006B070BD5F4B67494FF07E525A640E
:1027A00003A810F069FD554B93ED200AC0E72921DD
:1027B0006248524D13F016F8544810F061FC02269E
:1027C00000215B482E6705F00BFD3146584805F0A7
:1027D0003DFED2E7494CDFED5A7A94ED1F0A20EE18
:1027E000270AFFF77BFE57493FE703689B68984736
:1027F0002EE700F58763D3ED007A404CF8EEE77AD8
:1028000094ED207A77EE877A0023F5EEC07AF1EE28
:1028100010FA68D5DFED410AC4ED207A67EEA00A10
:10282000B2EE040A13F0C2FBB5EE400AF1EE10FA64
:10283000F0EE407A5FD4B1EEE70A394B424970E7D7
:1028400000F23C43D7E7414903A810F015FD404989
:10285000684610F04BFD694603A810F0A7FE01463C
:102860002A4810F0DFFB294810F00AFC684610F0F7
:1028700077FD03A810F074FD364801F019FBE7E678
:10288000222135481D4E12F0ADFF00251F4810F0E3
:10289000F7FB29462648356705F0A2FC01212448AC
:1028A00005F0D4FD22489FED230A05F039FD2946A5
:1028B000204686ED1D0AFFF7DDFBC9E6254800F03E
:1028C0002BFF264903A810F0D7FC2149684610F0D9
:1028D0000DFD694603A810F069FED6E6C4F8803005
:1028E000F7EE007A19E7C4F88030F7EE007AA2E735
:1028F00013F0BAFB13E713F0B7FB9EE70417FF1FB3
:10290000F52F4B3FD4720200D0720200F40CFF1F6F
:1029100034730200B814FF1F64720200CDCCCC3DAA
:10292000C81DFF1F947202005C720200E471020075
:102930008C17FF1F00000000387202000C720200AA
:102940001845A13FB07202007872020014730200B1
:102950002415FF1F0C15FF1FC0710200F472020046
:1029600070B56E4C6E4D616F6E4E88B03220019125
:1029700011F05AFC0199204604F074FE002384F8FB
:102980008C3140F2DC5011F04FFC2121664812F0EE
:1029900029FF664810F074FB654905A810F06CFC2F
:1029A00095ED000A022102A810F042FD02A905A837
:1029B00010F0FCFD01465D4810F034FB5B4810F060
:1029C0005FFB02A810F0CCFC05A810F0C9FC594927
:1029D00005A810F051FC0A22696802A810F0FCFC5E
:1029E00002A905A810F0E2FD0146504810F01AFBBC
:1029F0004E4810F045FB02A810F0B2FC05A810F0FC
:102A0000AFFC294664204C4D02F046F8204606F003
:102A1000C5F9286FFFF7DEFB95ED1E0A204605F08D
:102A20000FFFD5ED207AF5EEC07A0023F1EE10FA13
:102A30007364B364F364336566D5DFED400AB2EEC8
:102A4000040A67EEA00A13F0B1FAB5EE400AF1EEFF
:102A500010FAF0EE407A5CD4B1EEE77A384B95ED9F
:102A60001F0A83ED157AFFF739FD95F884309FED45
:102A7000357A002BF7EE007A08BFF0EE477AFA209D
:102A8000C6ED117A11F0D0FBD4F890112E482F4CDE
:102A9000012203F011F9FA2011F0C6FB2C4804F1D1
:102AA000740103F0E1FF2B4AA36EE2660222626129
:102AB00003B1DA66284905A810F0DEFB0A22616935
:102AC00002A810F089FC02A905A810F06FFD2349A7
:102AD00010F074FD0146154810F0A4FA134810F0E8
:102AE000CFFA02A810F03CFC05A810F039FC102128
:102AF0001B4812F077FE0D4810F0C2FA144808B0D7
:102B0000BDE87040FEF71ABBC5F88030F7EE007ADA
:102B1000A2E713F0A9FAB0EE407A9FE78C17FF1FE7
:102B2000E415FF1FB814FF1F78730200F40CFF1F99
:102B30009C730200B07302000417FF1FCDCCCC3D84
:102B4000C81DFF1F000000005016FF1F0C15FF1FBF
:102B50007019FF1FAC17FF1FD0730200E47302004F
:102B6000F073020008B50446D0F88C040D46FDF75A
:102B70006FFEB0B9D4F8803413B1DB793BB1FEE716
:102B8000D4F884341BB193F84434002BF7D12B686C
:102B900016495B68102228469847284610F070FABC
:102BA000EDE713492846FEF779FFD4F88C04FDF7CA
:102BB0004FFE002301461022284610F06FFA0D49FF
:102BC0002846FEF76BFFD4F88C0460B103689B6B5A
:102BD0009847C1B200231022284610F05FFA284619
:102BE00010F04EFACBE70146F4E700BF1474020080
:102BF00004740200107402002DE9F04F2DED028BD9
:102C0000B84FB94EB94B3B6085B008238022B84815
:102C1000039303A97A60FEF753FF3346DFF860B3EE
:102C200043F830BBDFF85C9333614FF4807333813A
:102C30000023F3603363D9F80030002B00F03E82AC
:102C40001A465B69002BFBD156610024A94B336007
:102C5000A949AA4874617460B47210F00DFBA84BC6
:102C6000DFF824831B6801931A46D8F8003086F8F1
:102C700024409342F462B46205DAA24A42F8236027
:102C80000133C8F80030A04B336023219F48A04C8B
:102C900012F0A8FD9F4810F0F3F99F4B3A681A60B4
:102CA0009E4B7A6890481A6006F080FA9C4A9D49CB
:102CB0008D4813F0A9FE2346002243F830BB236160
:102CC000D9F80030E26022634FF480722281002B39
:102CD00000F0FD811A465B69002BFBD15461002591
:102CE000844B23608449904865616560A57210F04B
:102CF000C3FA8E4AE2620122D8F8003084F8242018
:102D0000019AA5629A42E56705DD7E4A42F82340B2
:102D10000133C8F80030DFED867ADFED866AC4ED56
:102D2000147A94ED147A97ED008A834B636327EE4F
:102D3000267A28EE270A87EE086A804B804AA3632A
:102D40004FF0000A7F4BA36400200021C4E91C015E
:102D50002260A4F844A080EE260A84F878A0C4F883
:102D600080A0794DC4ED137AC4ED167AC4ED187ABB
:102D700084ED146A13F068FA10EE100A1BF096FD49
:102D80007A682264C4E91A01654A7049604884ED92
:102D90000F8A13F039FE2B464FF4807243F830BB94
:102DA0002B61D9F80030C5F80CA0C5F830A02A81F5
:102DB000002B00F089811A465B69002BFBD155611D
:102DC0004FF0000A4B4B2B604B496148C5F814A0EB
:102DD000C5F804A085F80AA010F04EFA5D4AEA6230
:102DE0000422D8F8003085F82420019AC5F828A0DC
:102DF0009A42C5F834A0C5F838A0C5F83CA0C5F87B
:102E000040A005DD3F4A42F823500133C8F80030A6
:102E10004FF07E536B64AB64EB642B654E4B404AC2
:102E20002B604E494848DFF854A113F0EDFD2D49C1
:102E30004B48FEF761FF3A4A4A49494813F0E4FD1E
:102E40005246002142F830BBCAF81020D9F80020C1
:102E5000CAF80C10CAF830104FF48071AAF80810A4
:102E6000002A00F02E8111465269002AFBD1C1F8D8
:102E700014A04FF000091F4B1F49CAF800303A4810
:102E8000CAF81490CAF804908AF80A9010F0F4F97D
:102E9000D8F80020019B3549CAF82C1093424FF016
:102EA0000201CAF82890CAF83490CAF838908AF813
:102EB000241005DD134941F822A00132C8F8002092
:102EC0002B4A396811602B4A796811604FF001086C
:102ED000294ACAF8002029488AF83C8006F0A2FC5A
:102EE0000F4A53E0E415FF1F9016FF1F0080BB47F9
:102EF0008C17FF1F80740200F4700200A816FF1FD9
:102F0000247B0200741EFF1FD09002002874020070
:102F1000C81DFF1FF40CFF1F3C07FF1F4007FF1FCA
:102F20003007FF1FF1040000E01DFF1F441EFF1FBC
:102F300000000000A6552C47DB0F4940DB0FC940BD
:102F4000D89102000000DC43B814FF1FD904000030
:102F5000D014FF1FEC14FF1FD8760200C10400003C
:102F60000C15FF1FB90B0000DC16FF1FF816FF1F22
:102F70004807FF1F4C07FF1FCC910200C416FF1F1C
:102F800074740200C42AFF1F5420FF1F5149524885
:102F900013F03AFD5148C0E9004500240481C460A3
:102FA00001F0F6FB4E48C0E9005A0481C46001F00C
:102FB000EFFB4C484FF48073C0E9005A0381C460B2
:102FC00001F0E6FB4848494D06600481C460456055
:102FD00001F0DEFB464840F20113038106604560C4
:102FE000C46001F0D5FB43494348444E444DFEF7CD
:102FF00041FF444A4449404813F006FD434B3360C7
:10300000434BC6F81034672386F814342146C6F8BB
:10301000084406F5836010F02FF93E4B3360062319
:10302000C6F838342146C6F82844C6F82C44C6F8F9
:103030003044C6F83444C6F83C84C6F84044C6F868
:103040004444C6F8484406F24C4010F015F92D4AA5
:103050003149304613F0D8FC304BAB66304B2B6017
:103060006FF01F036B6078232B7425236B612D4950
:1030700085F864404A22EF66EC6005F1180010F014
:103080005FFC294A13782B7231466B722846434401
:10309000137003F00DFD254A2A60022224492A6795
:1030A000244AE96700236B67AB67C5F8802085F881
:1030B000844005B0BDEC028BBDE8F08FC9F800601C
:1030C000C3E5C9F800A0D4E6C9F8005078E6C9F80D
:1030D000004004E6A9040000C416FF1F6019FF1F8A
:1030E0002019FF1F3019FF1F4019FF1F3015FF1F48
:1030F0005019FF1F8C17FF1FEC15FF1F7019FF1FC2
:103100000417FF1F3007FF1F09050000AC860200EF
:103110005016FF1F8476020069050000AC17FF1FE0
:10312000F0860200307602003407FF1FC0750200EF
:1031300000007A44000090C170B58468002104F555
:103140009266FF23054684F8B83484F8C4143046E8
:103150000DF0FEFAC4F88C6430460CF0FBFD40B96B
:103160000123D4F88C141A4620460BF075FD00B1EB
:1031700070BDEC6D0849AD682046FEF78FFC2368F2
:1031800006495B6816222046984720460FF078FFD4
:1031900021462846FFF7E6FC4C74020054740200F6
:1031A000704700BF002070472DE9F843002A39D04E
:1031B00007460D46164601F02BFA804690B307F1FC
:1031C0004404043D54374FF00009012255F8043FF0
:1031D0007BB1BAB1DA685868716894ED000A12F0F0
:1031E00055FD2B685A69DB68F3607261002209F1B2
:1031F00001090434A742E9D1404601F04FFA48469C
:10320000BDE8F883DA68D8F80410586894ED000A2D
:1032100012F03CFD7268F368D8F80410104612F002
:10322000E1FDE3E74FF0FF39E9E700BF2DE9F8439F
:10323000074600242146384601F084FA054620B9A5
:103240000134042CF6D1BDE8F8834168EA6807EB45
:10325000840393ED110A084612F018FD032C04F1C3
:10326000010827D0123407EB84044146384601F0A8
:103270005BFA08F101080646B8B101F0C9F994ED0E
:10328000000AC26841688146706812F0FFFC6A68F3
:10329000D9F80C30D9F80410104612F0A3FD4846B6
:1032A00001F0FCF9304601F0F9F9B8F1040F04F12E
:1032B0000404DAD138462946002201F011FA2846E2
:1032C000BDE8F84301F0EAB90429A8BF04210129A7
:1032D000836EB8BF0121416103B1D96608467047CA
:1032E0000368DB6B184700BF0346743853F8743C1F
:1032F000DB6B184703685B6C184700BF2DE9F04390
:103300004269002A87B0054630DD002400F1240818
:10331000264602AF2146404601F006FA6A6947F8A0
:103320002400002804F1010418BF0126A242F1DCA8
:1033300056B1002A1ADD00243E46A14656F8041B69
:10334000F9B10134A242F9DCAB68012B12D0002A9A
:1033500009DD002457F8040B013410B101F09EF987
:103360006A69A242F6DC07B0BDE8F083AB68012BC6
:10337000F9D102AF2B6839465B6A284698476A69DB
:10338000E5E7019101F044F90199804608B96A69BD
:10339000D7E7C268002A4FEA820202DD40681DF0CA
:1033A000AFFDC8F814906A6946F8048CC9E700BFFD
:1033B000A0F12400FFF7A2BF70B50C468EB0002923
:1033C0007AD03F490BA815460FF074FF20460BA991
:1033D00004F0AEFB04460BA80FF0C2FF002C6BD02C
:1033E000384905A80FF048FF294602A80FF07EFFD4
:1033F000354902A810F0E2F8014608A80FF076FF60
:10340000062632490BA80FF037FF0BAB08AA05A917
:103410000096204604F0F6FA0BA80FF0A1FF08A8CA
:103420000FF09EFF02A80FF09BFF05A80FF098FF7A
:10343000274905A80FF020FF294602A80FF056FFE4
:10344000244902A810F0BAF8014608A80FF04EFF70
:1034500021490BA80FF010FF0BAB08AA05A9009695
:10346000204604F0CFFA0BA80FF07AFF08A80FF05F
:1034700077FF02A80FF074FF05A80FF071FF16493F
:1034800005A80FF0F9FE144908A80FF0F5FE13493E
:103490000BA80FF0F1FE0C2308AA05A90093204603
:1034A0000BAB04F0AFFA0BA80FF05AFF08A80FF00F
:1034B00057FF05A80FF054FF20460EB070BD00BFA7
:1034C000E0760200F46C0200BCAA0200F87602006A
:1034D000146D02003C6E020020930200047702008B
:1034E00030B50C4685B091B10A49054601A80FF0E8
:1034F000C3FE204601A904F097FB044601A80FF083
:103500002FFF24B12B6821465B6B28469847204645
:1035100005B030BD0C7702002DE9F0418668436F9D
:1035200086B0012E044603AD2DD02249DE6C00F199
:10353000740728460FF0A0FE3846012300222946D2
:10354000B04728460FF00CFF636F1B49D3F850803B
:1035500028460FF091FE2368184A9B68934223D1B6
:103560006E4604F1180130460FF0C0FE324629467F
:103570003846C04730460FF0F3FE28460FF0F0FE05
:1035800006B0BDE8F08100F174070A49D3F84C8019
:1035900028460FF071FE3846334632462946C0476A
:1035A00028460FF0DDFECFE76E46214630469847AD
:1035B000DCE700BFF8760200047702005105000046
:1035C0000346743853F8743C5B6C1847F0B5426F8F
:1035D000034692690E461E49044653F8740B8A420C
:1035E000876B8DB02ED11B4B06A819780FF09AFE71
:1035F00006A903A80FF07AFE94F87C1009A80FF032
:1036000091FE09A903A80FF0D1FF94F884100FF0E0
:10361000F3FF6D46014628460FF068FE09A80FF03B
:103620009FFE03A80FF09CFE06A80FF099FE2A4605
:1036300031462046B847044628460FF091FE204602
:103640000DB0F0BD6D46194628469047EFE700BF24
:10365000A90500003507FF1F30B5436F274A9B6956
:1036600093428DB043D1264B0446197806A80FF03B
:1036700059FE09AD06A903A80FF038FE94F87C1096
:1036800028460FF04FFE294603A80FF08FFF94F84D
:1036900084100FF0B1FF6C46014620460FF026FE65
:1036A00028460FF05DFE03A80FF05AFE06A80FF0A3
:1036B00057FE144928460FF0FDFD214628460FF01D
:1036C00075FF014610480FF0ADFC0F480FF0D8FC15
:1036D00028460FF045FE22210C4812F083F80A48D4
:1036E0000FF0CEFC20460FF03BFE0DB030BD6C4617
:1036F00000F174012046984709ADDAE7A9050000FA
:103700003507FF1F1C770200F40CFF1F38770200FB
:10371000A0F17400FFF7A0BF2DE9F04F87687B1C74
:1037200093B005466FD0002F5CD12C6940F2E53391
:103730009C4253DC394EDFF8ECA0DFF8EC906FF0E0
:1037400063080DE063466A4604A8CDF810C009F08E
:10375000C7F800283CD02C6940F2E5339C423DDCA0
:1037600096E80F00EE46AEE8070001348AFB04CB72
:10377000E217C2EB6B1208FB02F021188EF8003042
:103780003032AB6E8DF8052089FB012ECA17C2EBD3
:10379000AE026FF009019B682C6101FB02440444F6
:1037A000D3F88014303230344FF0000C8DF80620FE
:1037B0008DF807400029C5D1D3F884240B463AB1CF
:1037C000109104A811466A4607F042FA0028C2D1B7
:1037D0002B6869465B69284698470746384613B008
:1037E000BDE8F08FEC6E9CB123680D495B68342214
:1037F0002046984720460FF043FC4FF0FF373846ED
:1038000013B0BDE8F08F0368DB689847AF688AE7BC
:103810004FF0FF37384613B0BDE8F08F94770200C1
:103820005C7702001F85EB51676666662DE9F04FF5
:103830002DED028B83B000AF6B46151E08EE103ADB
:10384000786065D005F1070323F00703ADEB030DA6
:1038500068465DDD0C1F4FF00009AB003B6004EBD8
:1038600085062346A646EA466A46C8464FF0010C3E
:103870004C4608E09E4282F800C0CC6808F101087E
:1038800002F1010208D053F8041F0029F2D19E4230
:10389000117002F10102F6D1A1467446B8F1000F91
:1038A00036D0A84563DBDFF82881F3464FF0000AE5
:1038B0005BF8043F43B1D8F800205B69991A0129ED
:1038C00000D072BBC8F800300AF1010A554508F172
:1038D0000408EDD13A68D31D23F00703ADEB030DC7
:1038E0006D46002128461DF00BFB2B4654F8042F93
:1038F0000AB152681A60B44203F10403F6D17B683E
:10390000986E28B102685346946B29464A46A047F0
:1039100018EE103A0C379D46BD46BDEC028BBDE853
:10392000F08F1421234811F05DFF514622480FF01B
:103930009FFB1721214811F055FFDBF800301E488E
:1039400059690A2200230FF0A9FB10211C4811F02D
:1039500049FF0023D8F8001017480A220FF09EFBF9
:1039600015480FF08DFBDBF800305B69AAE72B21CF
:10397000441E1448104E11F035FF41460E480FF01A
:1039800077FB0421104811F02DFF29460A480FF05B
:103990006FFB0E480B2111F025FF013D554414F833
:1039A000011F30460FF064FBA542F8D102480FF02A
:1039B00067FBADE7DC770200F40CFF1FF477020031
:1039C0000C780200A4770200187B0200D077020076
:1039D000541EFF1F2DE9F04F8668731C93B00546F7
:1039E0000F4600F0E780002E40F0EB80D5F86880AD
:1039F000B8F1000F00F0FB80D8F80830D3F880143D
:103A0000002900F0098104AC33463A46204604966A
:103A100008F066FF002840F00E819F4B196831B115
:103A200040F202633A4608F114000BF005F8D8F8AA
:103A30004CB0BBF1000F00F0D580D8ED1A7A974C4E
:103A40009749D8F86CA0FDEEE77A4FF0010388F8AB
:103A500060300422D8F864300193204617EE909A23
:103A60000FF06EFF8F49042204F108000FF068FF89
:103A70008D49042204F10C000FF062FF8B490422EF
:103A800004F124000FF05CFF4FF0000C4FF0010335
:103A900084F811C084F812C084F813C084F815C0EB
:103AA00084F823C04FF0100C237584F810C0019BDC
:103AB00084F822C0C9F3072C4FEA490084F819C0E2
:103AC000C9F3074C4FEA4A015A4284F81AC0B2FBC4
:103AD000F1F2C0F3072C0AFB02F25200207784F8BF
:103AE0001DC0C0F3074C000E84F82010E077C1F32E
:103AF0000721C2F3072084F8211084F8282002F15E
:103B0000240184F82900C2F30740120E84F82B2008
:103B1000C1F3072284F816A084F81890CAF3072A84
:103B200021714FEA19696271C1F30742090E84F8E5
:103B300017A084F81B9084F81EC084F82A00A27194
:103B4000E171BBF1000F00F089801A46214658460A
:103B500009F0FEFAE86E90B1036855495B681622D9
:103B60009847EC6E47B138461DF0EAFF23680246DD
:103B70005B6839462046984720460FF081FAAB6EC5
:103B80000022DA679A674B4B1B680393039B2B67F2
:103B90000122AA60394604A80FF06EFB04A905F1C2
:103BA00018000FF069FC04A80FF0DAFB304613B0E0
:103BB000BDE8F08F0368DB689847AE68002E3FF4DD
:103BC00015AFEC6E44B123683B495B683422204654
:103BD000984720460FF054FA4FF0FF36304613B0A6
:103BE000BDE8F08FD8F85030002B7FF426AFE86E98
:103BF0000028F1D0036831495B6825229847EC6EB4
:103C0000002FE6D038461DF09BFF236802465B6814
:103C1000394620469847DCE7D3F8841400293FF45E
:103C2000FCAE04AC33463A462046109607F010F836
:103C300000283FF4F2AED8F80830D3F88014B9B1B8
:103C4000002304933A460123204608F049FE002849
:103C50003FF4E3AE204609F0FDFEDEE6D8F8500062
:103C600000283FF477AF1A46214607F0E3FB71E7DF
:103C7000D3F88434002B3FF4D0AE10913A46194665
:103C80002046012306F0E4FF00283FF4C6AE20469C
:103C900007F042F8C1E600BF1025FF1F8814FF1F80
:103CA0001C6D0200246D02002C6D0200346D0200B8
:103CB000207802004C2BFF1F5C770200387802004E
:103CC00038B505460C4649B108461DF039FF2B684A
:103CD000024621465B6828469847044628460FF06E
:103CE000CFF9204438BD00BF90F860302DE9F0478F
:103CF000054643B905F114000AF08AFE002085F854
:103D00006000BDE8F087C06C002800F09580C769AE
:103D10000021B84609F04AF8D5ED1A7A504C5149BD
:103D2000D5F86CA0D5F86490FDEEE77A0422204621
:103D300017EE906A0FF004FE4B49042204F10800CC
:103D40000FF0FEFD4949042204F10C000FF0F8FDCC
:103D50004749042204F124000FF0F2FD4FF0000C5B
:103D600084F811C084F812C084F813C084F815C018
:103D700084F823C04FF0100C84F810C084F822C0DF
:103D80004FF0010C84F814C0C6F3072C710026769E
:103D900084F819C0C6F3074C360E4FEA4A02A7EB67
:103DA0000903E676B3FBF2F3C1F307260AFB03F33C
:103DB0005B0021776677C1F30746090E84F820205F
:103DC000E177C2F30722C3F3072184F8212084F8A6
:103DD000283003F1240284F82910C3F307411B0E95
:103DE00084F82B30E86C84F816A0C2F30723CAF3DA
:103DF000072A22716371C2F30743120E84F817A0D9
:103E000084F81AC0A67784F82A10A371E27150B121
:103E10004A46214609F09CF9EB6CB3B13946184685
:103E200008F0C4FF66E7286D00283FF463AF4A46F8
:103E3000214607F0FFFAEFE7286D70B1076900220D
:103E4000002306F063FCB84666E7286D00283FF4BF
:103E500051AF424606F05AFC4CE7804607465BE706
:103E60008814FF1F1C6D0200246D02002C6D0200DF
:103E7000346D020030B50446806E85B008B1FFF79E
:103E800033FF00250949A56001A80FF0F5F901A944
:103E900004F118000FF0F0FA01A80FF061FAA36E18
:103EA0000BB1DD679D6705B030BD00BFE470020057
:103EB0008368012B00D07047FFF7DCBF03680F4A0F
:103EC0009B69934210B5044612D18368012B11D02F
:103ED0006368D3F88C040022C3F88024C3F88424D8
:103EE00010B103689B6898474FF0FF33A36010BD83
:103EF0009847EDE7FFF7BEFFEAE700BFB13E0000DD
:103F00002DE9F8431E46036890469B69474A934251
:103F100005460F4660D18368012B5FD0AC6EEF6021
:103F20002CB1B4FA84F040094042BDE8F8836C68D3
:103F3000002C56D090200FF083FE3D4B03600027ED
:103F40003C4BC360044647600761C764076580F85F
:103F50005470D5F8049010F045F9374B23600223D4
:103F6000C4F88030354BC4F88430002EC4F8883053
:103F7000334BA366B8BF03362C236366B6106B6958
:103F8000E3667600089BA065022EB8BF0226002BD0
:103F9000C4F8089084F86070C4F85C806767A7670D
:103FA000E7672667AC66BCDB26489842A8BF184680
:103FB00040100428B8BF0420C4F8840040000FF06B
:103FC00041FE00236067E367A367AC6EB4FA84F038
:103FD00040094042BDE8F88398479FE7FFF74AFF52
:103FE0009CE74FF499600FF02BFE4FF4996207465F
:103FF00021461CF085FF144BC7F89034134BC7F8CB
:10400000A434292387F8A934114BC7F88044C7F892
:10401000844487F8984487F8AD4487F8B44487F817
:10402000C4446F60C7F89C3484E700BFB13E000011
:1040300010750200C076020050750200F8240100DD
:1040400000442C47F0490200E093020003200038AE
:10405000709302002DE9F04F8668731C93B00446FC
:1040600000F0B280002E40F09E805F4DDFF884812A
:104070005E4FDFF88491B44637E00DF1100A00235B
:1040800001466A465046049308F02AFC38B3E06EB5
:10409000B0B1036818225B6849469847D4F86CB001
:1040A000BBF1000F0CD068461DF04AFDDBF8003074
:1040B00002465B6869465846984758460EF0E0FF4E
:1040C000A36E9B68D3F88014002950D0002304937A
:1040D0006A460123504608F003FC00287FD1D4F83B
:1040E00010C040F2E5339C4557DC95E80F00EE46E2
:1040F000AEE807000CF1010C88FB0C214FEAEC72D2
:10410000C2EB61128EF800306FF0630303FB02F123
:104110000CEB010302F1300087FB03E2DB17C3EB7A
:10412000A2038DF80500A06EC4F810C003F13002A0
:10413000D0F808E08DF806206FF0090202FB03C2F8
:104140000A44DEF8800430328DF80720002894D12C
:10415000DEF884140029C4D00DF1100A1090034633
:104160006A46504606F074FD002890D1B7E7D3F8B0
:104170008434002BB3D010916A461946504601236F
:1041800006F066FD0028AAD0504606F0C5FDD4F81A
:1041900010C040F2E5339C45A7DD00233046236183
:1041A00013B0BDE8F08FE46E9CB1236810495B68E2
:1041B00034222046984720460EF062FF4FF0FF362B
:1041C000304613B0BDE8F08F0368DB689847A668F7
:1041D00048E74FF0FF36304613B0BDE8F08F504649
:1041E00009F038FC7BE700BF9477020067666666DB
:1041F0007C7802001F85EB516078020090F87C20EB
:104200008A4209D1722B10B5044635D0732B05D0E4
:10421000642B18D0002010BD0020704727212448AF
:1042200011F0E0FA23480EF02BFF236822499A6927
:104230008A422DD1A268012A35D020465B6C00212C
:104240009847012010BD2D211C4811F0CBFA1948C8
:104250000EF016FF2368184A9B6993421CD1A3688D
:10426000012B1CD02046FFF7F5FE236820465B6C2F
:1042700000219847012010BD2821114811F0B2FA01
:104280000C480EF0FDFE236820461B699847ECE7BA
:10429000204690472368D0E720469847E2E720462B
:1042A000FFF7E8FDDEE72046FFF7E4FD2368C4E7FB
:1042B000E0780200F40CFF1FB13E00000879020014
:1042C000B4780200A0F17400FFF798BF2DE9F8431D
:1042D00004462DED028B0FF085FFA66E002E00F038
:1042E000998033680546DB6B3046984706460FF0E9
:1042F00079FF002EA0EB050440F38780494F4A4D1B
:104300003A682B68B242B8BF324642F21071A342FB
:10431000B8BF23468C423A602B6076D9DFF82091F3
:10432000DFF82081D9F8001040489FED418A914282
:10433000B8BF1146D8F80020C9F800109A42B8BF9B
:104340001A461B21C8F8002011F04CFA31463948B2
:104350000EF08EFE0221384811F044FA39683548D3
:104360000EF086FE0221344811F03CFAD9F8001014
:1043700030480EF07DFE02212F4811F033FA0C2157
:104380002E4811F02FFA07EE904AF8EE677AC7EE42
:10439000887A17EE900A19F02BFE41EC100B0121E0
:1043A00024480EF085FE0221234811F01BFAD5EDBA
:1043B000007AF8EEE77AC7EE887A17EE900A19F0DD
:1043C00017FE41EC100B01211A480EF071FE02217C
:1043D000194811F007FAD8ED007AF8EEE77AC7EE3F
:1043E000887A17EE900A19F003FE41EC100B0121B8
:1043F00010480EF05DFE02210F4811F0F3F90D4850
:104400000EF03EFE00233B602B60BDEC028B30467D
:10441000BDE8F8830FF0E6FEBDEC028B3046BDE848
:10442000F88300BF681EFF1F641EFF1F387902005B
:1044300000007A44F40CFF1FA870020054790200B7
:10444000701EFF1F6C1EFF1F10B5194C2DED028B47
:10445000236882B0A3B1174B026F1B680193019BC5
:10446000DFED156A9FED157A9B1A07EE903AF8EE8C
:10447000677A87EEA68AB4EEC78AF1EE10FA05DCF9
:104480000023236002B0BDEC028B10BD35210C4827
:1044900011F0A8F918EE100A19F0AAFD41EC100B62
:1044A000022108480EF004FE06480EF0E9FDE7E799
:1044B000C020FF1F4C2BFF1F00007A44CDCCCC3D09
:1044C00064790200F40CFF1F70B505460E46FFF735
:1044D000FDFE041E03DD31462846FFF7B5FF2046EA
:1044E00070BD00BFF8B583685A1C00D0F8BD856E5A
:1044F0000446EDB12A68184992698A4229D1AE680A
:10450000002106F5926786F8B83486F8C414384658
:104510000CF01EF9C6F88C7438460BF01BFC50B931
:104520000123D6F88C141A4630460AF095FB10B1D8
:104530000023A360F8BDEC6D0849AD682046FDF787
:10454000ADFA07492046FFF7BBFB21462846FEF798
:1045500009FB28469047EBE7393100004C74020014
:1045600054740200D0ED007ADFED0D6A90ED017A0F
:104570000C4BDFED0D5A1B8886EEA76AB8EEC77AA2
:10458000DFED0A6A27EE067A07EE903A87EE260AF2
:10459000F8EEE77A77EEA57A87EE800A704700BFDB
:1045A00050A92B4BC82AFF1F000000000000C84282
:1045B000D0ED007ADFED0D6A90ED017A0C4BDFED66
:1045C0000D5A1B8886EEA76AB8EEC77ADFED0A6A35
:1045D00027EE067A07EE903A87EE260AF8EEE77A9B
:1045E00077EEA57A87EE800A704700BF50A92B4B63
:1045F000CC2AFF1F000000000000C84210B504468E
:10460000006818B1A168091A0FF020FB204610BD00
:1046100072B61E4B186820B9586808B320220433BC
:1046200000E00022B0FA80FC4FF0004121FA0CF1CA
:1046300020EA0100164918600B780133DBB20B70D9
:1046400062B614491F3208681349A2EB0C0250F8F5
:104650002200012202700A789A4238BF0B7070471C
:10466000986840B9D86848B9186950B9586958B1BC
:10467000A0221433D6E740220833D3E760220C335C
:10468000D0E780221033CDE762B670476C20FF1F61
:104690006820FF1F5C20FF1F6A20FF1F38B142788F
:1046A00072B60378012B03D9013B037062B67047E1
:1046B0004FEA521C08480949D24302F01F024FF04A
:1046C0000043D34050F82C2013430A7840F82C3094
:1046D000531E0B70EAE700BF6C20FF1F6820FF1F0E
:1046E000836A13B91DE0DB68E3B1187A9042FAD10E
:1046F00010B4586893F809C0C06A50F82C4054B1FF
:10470000DB682BB1187A9042F3D0DB68002BF9D12B
:104710005DF8044B704740F82C10087801300870A1
:10472000EEE77047704700BF90F824308B4206D9FF
:10473000C36A002253F8210043F82120704700206B
:10474000704700BF38B590F824308B421DD9C36A3A
:1047500053F82140002243F82120B4B12378012BE3
:1047600001D8204638BDFFF753FF054628B18268BF
:104770006168406892000FF0E3F863696B61237829
:10478000013B23702C46204638BD0024204638BD0E
:104790004368427A93F824309A420DD872B6016881
:1047A0008B6A53B11A46DB68002BFBD1D06042689C
:1047B00001230B72137262B670478862F7E700BF7D
:1047C0002DE9F84FD0E900890F4692466FF060411D
:1047D000A9EB0802B1EBA20F58D09310012B1A4697
:1047E00038BF01229C1806464CD2A7EB0805A34609
:1047F000002C3DD1DAF800304BF80530002D26DCD6
:10480000A9EB07090435B9F1000F5D4415DC4D44EF
:10481000B8F1000F05D1C6F800B07560B460BDE80E
:10482000F88FB168A1EB080140460FF00FFAC6F807
:1048300000B07560B460BDE8F88F284639464A4636
:104840000FF07EF84D44B8F1000FE4D0E9E72A46B6
:10485000A9EB0709414658461CF0D6FA0435B9F1D0
:10486000000F5D44E9DCB1684D44A1EB0801DBE7D2
:104870008C4228BF0C46A40020460FF0E1F9834685
:104880000444B7E7034CA7EB0805F5E7024812F02C
:10489000E9F800BFFCFFFF7F947A0200002800F0D7
:1048A000B8802DE9F04F00245A4EDFF87CB18BB070
:1048B00089460746A0460BE052F82450D9F8043048
:1048C000AA689A424FEA840A40DA0134A74237D0F4
:1048D000D6E900239B1AB4EBA30FEDD318200FF0F9
:1048E000AFF9D9F80430802105468B426FF0604261
:1048F0001846B8BF08469342A860E960B4BF80007C
:104900004FF0FF30C5F810B00FF09CF97168B36834
:10491000D9F800C0D9F80420EA6099426860C5F867
:1049200010C007956FD041F8045B716051F8043CEA
:104930005B68002BC9D10134A74208F10108C7D137
:10494000B8F1000F2FD10BB0BDE8F08F686810B13F
:1049500004210FF07BF9284618210FF077F9182071
:104960000FF06EF98023C360D9F80430C0F810B09E
:104970000546802B6FF060421846B8BF80209342F6
:10498000A8600DDA80000FF05DF9D9F800302B61D6
:104990003368D9F804206860EA6043F80A5094E765
:1049A0004FF0FF30EFE71C4904A80EF065FC0A2227
:1049B000414601A80EF010FD01A904A80EF0F6FD75
:1049C00016490EF0FBFD0A220446394607A80EF0F0
:1049D00019FD07A920460EF0E9FD11490EF0EEFD84
:1049E000014610480EF01EFB0E480EF049FB07A8CA
:1049F0000EF0B6FC01A80EF0B3FC04A80EF0B0FC5B
:104A00000BB0BDE8F08F07AA3046FFF7D9FE7168FA
:104A10008CE770475C20FF1FB07A0200FC7A02002E
:104A2000207B0200F40CFF1FA6552C47C02870B550
:104A30000546064628BFC02572B6154C2846FFF726
:104A40002DFF002121606160A160E1602161616151
:104A5000DEB10A468C46012001E054F82C1002F029
:104A60001F0300FA03F301320B43954244F82C3044
:104A70004FEA521CF1D8074A12680023043A52F850
:104A8000041F4B7001339D42F9D862B670BD00BF60
:104A90006C20FF1F5C20FF1F002801DBFFF7C6BF53
:104AA000704700BF0448054A05490023036043607E
:104AB000836011F0A9BF00BF5C20FF1F3007FF1FFC
:104AC000FD450000806903681B69184710B51C315B
:104AD00004460EF00BFC204610BD00BF2DE9F0414E
:104AE00005468AB02349244E04A80EF0C5FB29468A
:104AF000A8690EF097FAA8690368DB6898473368DD
:104B00000193019F05F10C0817E0A86903681B6970
:104B1000984700280ADDA86903685B699847C1B215
:104B200004A80EF033FD33680293029F33680393A9
:104B3000AB6A039A3B44934218D3414604A80EF053
:104B400095FD01280446E0D10C4907A80EF094FB1E
:104B500007A904A80EF076FD07A80EF001FC04A832
:104B60000EF0FEFB20460AB0BDE8F0814FF0FF34A6
:104B7000F5E700BF209302004C2BFF1F287B0200AB
:104B80002DE9F0410D4686B0002939D01E4E33681C
:104B90000193019F044600F10C0812E0A06903682C
:104BA0001B699847002807DDA06903685B6998477F
:104BB000C1B228460EF0EAFC414628460EF056FDEA
:104BC00058B933680293A36A029A3B449342E5D8EA
:104BD0004FF0FF3006B0BDE8F081AA68636929464E
:104BE000D31A03A800220EF0C7FD03A928460EF031
:104BF00043FC03A80EF0B4FB012006B0BDE8F08131
:104C0000084606B0BDE8F0814C2BFF1F2DE9F04FA0
:104C10003D4EDFF804918FB004460D4605A83B4990
:104C20000EF02AFB33680393002DD8BFA56A039BBF
:104C3000364904F11C0840461D4404F10C070EF0EF
:104C400031FC17E0A06903681B69984700280CDD58
:104C5000A06903685B699847C1B205A801910EF08D
:104C600095FC019940460EF091FC394605A80EF0DE
:104C7000FDFC68B933680493049BAB42E2D34FF068
:104C8000FF3A05A80EF06CFB50460FB0BDE8F08F60
:104C900005A80EF0B7FD494608A80EF0EDFA08A9E0
:104CA00005A80EF0CFFC28B108A80EF059FB4FF074
:104CB000010AE6E716490BA80EF0DEFA0BA905A8D3
:104CC0000EF0C0FC82460BA8BAF1000F18D10EF00E
:104CD00047FB08A80EF044FB0E490BA80EF0CCFAD7
:104CE0000BA905A80EF0AEFC83460BA80EF038FB0E
:104CF000BBF1000FC5D1054905A80EF0D3FBB9E7FC
:104D00000BA80EF02DFBCFE74C2BFF1F20930200CA
:104D1000307B0200387B02002C7B020030B587B06C
:104D200004460191FFF7DAFE0199A56903A80EF088
:104D3000DDFA214603A80EF039FC014628460EF0A4
:104D400071F903A80EF00CFBA0690368DB689847B3
:104D50004FF0FF31204607B0BDE83040FFF756BFA7
:104D600030B58BB0044601AD01B3134928460EF0AF
:104D700083FA124904A80EF07FFA294604A80EF01F
:104D800015FC014607A80EF0B1FA07A92046FFF767
:104D9000C5FF044607A80EF0E3FA04A80EF0E0FAF7
:104DA00028460EF0DDFA20460BB030BD04492846F7
:104DB0000EF062FADDE700BF407B0200447B020098
:104DC000708D020030B58BB0044601AD01B31349BC
:104DD00028460EF051FA124904A80EF04DFA294661
:104DE00004A80EF0E3FB014607A80EF07FFA07A91E
:104DF0002046FFF793FF044607A80EF0B1FA04A877
:104E00000EF0AEFA28460EF0ABFA20460BB030BDDD
:104E1000044928460EF030FADDE700BF407B02006F
:104E2000547B0200708D020030B58BB0054601AC9A
:104E300031B3164920460EF01FFA154904A80EF0AA
:104E40001BFA214604A80EF0B1FB12490EF0B6FB86
:104E500021460EF0ABFB014607A80EF047FA07A962
:104E60002846FFF75BFF054607A80EF079FA04A86D
:104E70000EF076FA20460EF073FA28460BB030BDDD
:104E8000054920460EF0F8F9D7E700BF407B020045
:104E9000647B020094A60200708D020030B5C36AE4
:104EA000052B8BB004460D462EDD036B0D2B03DC6A
:104EB000002420460BB030BD204904A80EF0DCF9D8
:104EC0000A22216B01A80EF087FA01A904A80EF0AE
:104ED0006DFB1B490EF072FB29460EF067FB014685
:104EE00007A80EF003FA07A92046FFF717FF0446AC
:104EF00007A80EF035FA01A80EF032FA04A80EF059
:104F00002FFA20460BB030BD0C4904A80EF0B4F9BE
:104F1000294604A80EF04AFB014607A80EF0E6F960
:104F200007A92046FFF7FAFE044607A80EF018FA74
:104F300004A80EF015FA20460BB030BD707B0200BD
:104F400094A6020070B584B00E460446144901A828
:104F50000EF092F901A92046FFF7E0FE054601A8F0
:104F60000EF0FEF916B9284604B070BD18210D48A0
:104F700010F038FC04F11C0101A80EF0B7F901A9EA
:104F800009480EF04FF801A80EF0EAF9E36A062B83
:104F9000E9DD05480EF074F8284604B070BD00BF86
:104FA000787B0200807B0200F40CFF1F10B584B0F8
:104FB0000446074901A80EF05FF901A92046FFF752
:104FC000ADFE044601A80EF0CBF9204604B010BD9A
:104FD0009C7B020010B584B00446074901A80EF07E
:104FE0004BF901A92046FFF799FE044601A80EF0EF
:104FF000B7F9204604B010BDA47B020070B586B09E
:105000000E4604461049684615460EF035F93146FD
:1050100068460EF0CBFA0D490EF0D0FA29460EF094
:10502000C5FA014603A80EF061F903A92046FFF76F
:1050300075FE044603A80EF093F968460EF090F949
:10504000204606B070BD00BFAC7B0200347F02007A
:1050500070B584B00E460446144901A80EF00CF950
:1050600001A92046FFF75AFE054601A80EF078F97F
:1050700016B9284604B070BD19210D4810F0B2FBD6
:1050800004F11C0101A80EF031F901A909480DF045
:10509000C9FF01A80EF064F9E36A062BE9DD0548B3
:1050A0000DF0EEFF284604B070BD00BFB47B0200D7
:1050B000BC7B0200F40CFF1F10B5052984B0044628
:1050C00010DC05230B49C36201A80EF0D5F801A935
:1050D00004F10C000EF0D0F901A80EF041F9E06ADD
:1050E00004B010BD07290B46A8BF0723C3620249BD
:1050F00001A8EAE7D87B0200DC7B020038B550EA61
:10510000010327D4C4B220460D4601210FF02EF82A
:10511000EDB2204601210EF0F1FF284601210FF0EB
:1051200025F8002128460EF0E9FF14200FF07CF846
:10513000012128460EF0E2FF4FF4C8700FF074F81A
:10514000204600210EF0DAFF204600210FF00EF875
:10515000002038BD4FF0FF3038BD00BFF0B587B03C
:1051600004460E4603A855490EF086F803A92046CA
:10517000FFF7D4FD054603A80EF0F2F8002D03DC7E
:105180000024204607B0F0BD04F11C0168460EF073
:10519000ADF8002E69D14A4903A80EF06DF803A9B5
:1051A00068460EF0ABFA054603A80EF0D9F80135B3
:1051B0007DD0E36A052B20DC424903A80EF05CF8A1
:1051C00003A968460EF09AFA054603A80EF0C8F83F
:1051D0003D4903A80EF050F803A968460EF08EFA78
:1051E000044603A80EF0BCF8002D60DAE40F684610
:1051F0000EF0B6F8204607B0F0BD344903A80EF013
:105200003BF803A968460EF079FA044603A80EF0AD
:10521000A7F82F4903A80EF02FF803A968460EF04F
:105220006DFA074603A80EF09BF82A4903A80EF072
:1052300023F803A968460EF061FA064603A80EF0AB
:105240008FF8254903A80EF017F803A968460EF059
:1052500055FA3C400546344003A80EF081F804EAB4
:105260000500441C18BF0124C1E721211B4810F090
:10527000B9FA1B4869460DF0D5FEE36A062B18DC27
:105280000F4903A80DF0F8FF03A968460EF036FA9F
:10529000054603A80EF064F801358AD12221114891
:1052A00010F0A0FA0E480DF0EBFE00249FE700245A
:1052B0009DE70B480DF0E4FEE2E700BF787B0200BB
:1052C000307C0200747C02007C7C0200287C02009E
:1052D0003C7C0200507C0200647C0200E07B020007
:1052E000F40CFF1F047C0200704700BF90F808C058
:1052F0008C4503D102681946936D1847002070470A
:1053000070B50368304A9B6993428CB0054655D10D
:105310002E4B06A819780EF005F809AC06A903A8CB
:105320000DF0E4FF297A20460DF0FCFF214603A88A
:105330000EF03CF9297C0EF05FF96E4601463046CE
:105340000DF0D4FF20460EF00BF803A80EF008F87D
:1053500006A80EF005F81E4920460DF0ABFF3146B9
:1053600020460EF023F901461A480DF05BFE19485D
:105370000DF086FE20460DF0F3FF1E21164810F0BA
:1053800031FA14480DF07CFE2D21144810F02AFA51
:1053900010480DF075FE3F21114810F023FA0D481A
:1053A0000DF06EFE2B210F4810F01CFA09480DF08D
:1053B00067FE30460DF0D4FF0CB070BD6E4601465E
:1053C0003046984709ACC6E7A90500003507FF1F1E
:1053D000887C0200F40CFF1F987C0200B87C02005D
:1053E000E87C0200287D0200762977D8602910B574
:1053F000044611D9613915290CD8DFE801F0320BC8
:105400000B400B0B0B0B0B0B0B0B0B0B0B0B0B0BB7
:10541000530B0B24002010BD412951D04429F9D150
:105420002D212F4810F0DEF92E480DF029FED4F87A
:105430009030062B4FF0000104F164002EDCFFF7E2
:10544000C1FC012010BD3021274810F0CBF92548C0
:105450000DF016FE012104F16400FFF7F9FD0120B3
:1054600010BD2221214810F0BDF91E480DF008FEA4
:10547000012104F16400FFF773FC012010BD2A2113
:105480001B4810F0AFF917480DF0FAFDD4F8903032
:10549000062B4FF0010104F16400D0DDFFF7C4FCDE
:1054A000012010BD2121134810F09CF90D480DF08A
:1054B000E7FD012104F16400FFF744FD012010BD68
:1054C00025210D4810F08EF906480DF0D9FD002178
:1054D00004F16400FFF744FC012010BD0020704778
:1054E000CC7D0200F40CFF1F207E0200547D0200E0
:1054F000A07D0200FC7D0200787D020010B504460C
:10550000806982B003680191DB689847A0690368ED
:105510005B6A9847A06901990368DB699847642032
:1055200002B0BDE810400EF07FBE00BF70B504466B
:105530000D46002605E0A06903685B6901269847CF
:105540005DB9A06903681B6998470028F3D11DB1B4
:1055500016B1E36A062B05DC70BDC0B210F0C8F9C5
:105560002E46EEE7BDE8704001480DF089BD00BF52
:10557000F40CFF1F38B50546A1B90C464FF416517F
:10558000FFF7BCFFA96B686BFFF7B8FD002830DBA5
:105590004FF4FA600EF048FE28462146FFF7C6FF9A
:1055A000204638BD3D21184810F01CF917480DF071
:1055B00067FD4FF416512846FFF7A0FFA96B686BF3
:1055C000FFF79CFD002814DB4FF4FA600EF02CFE70
:1055D00028460121FFF7AAFF30210D4810F002F9FB
:1055E0000A480DF04DFD01212846FFF7ABFC0020D5
:1055F00038BD4521074810F0F5F804480DF040FD8E
:105600004FF0FF3038BD00BF547E0200F40CFF1F86
:10561000DC7E0200947E0200F0B5C36A87B0062BE0
:1056200004460E4603AD50DD2F49A76928460DF00C
:1056300023FE0A22314668460DF0CEFE6946284612
:105640000DF0B4FF29490DF0B9FF21460DF0AEFF72
:10565000014638460DF0E6FC68460DF081FE28460E
:105660000DF07EFE20463146FFF748FF4FF4FA70FA
:105670000EF0DAFD03E0A06903685B699847A06952
:1056800003681B6998470028F5D11949A66928467F
:105690000DF0F2FD214628460DF088FF0146304608
:1056A0000DF0C0FC28460DF05BFE64200EF0BCFD42
:1056B00003E0A06903685B699847A06903681B69F8
:1056C00098470028F5D107B0F0BD0A49A7692846D8
:1056D0000DF0D2FD31460A2268460DF07DFE694686
:1056E00028460DF063FFB0E7107F0200247F020020
:1056F000787B02002C7F0200F0B5044687B00E468E
:1057000003E0A06903685B699847A06903681B69A7
:10571000984705460028F4D1012E00F0FE81A069CB
:10572000C049036801225B6898474FF4C8700EF0C7
:105730007BFDA069BC49036803225B68984794F825
:105740003C30002B4FD0B94903A80DF095FD0A223B
:105750004FF4E13168460DF03FFE694603A80DF0B5
:1057600025FFB3490DF02AFF0146B2480DF05AFC5F
:10577000B0480DF085FC68460DF0F2FD03A80DF071
:10578000EFFD4FF4E1312046FFF746FFE36A062BB9
:1057900033DC2046FFF71EFC0128074640F0FB8063
:1057A0002046FFF703FC0128044619D0A24903A8AC
:1057B0000DF080FD0A22214668460DF00DFE694677
:1057C00003A80DF0F3FE01469A480DF02BFC994812
:1057D0000DF056FC68460DF0C3FD03A80DF0C0FDAA
:1057E000204607B0F0BD282194480FF0FBFF9148F8
:1057F0000DF046FCE36A062BCBDD6E4603AD904907
:1058000030460DF039FD8F4928460DF035FD2A460A
:1058100031462046FFF7F2FB074628460DF0A0FD73
:1058200030460DF09DFD012FB3D0874928460DF07D
:1058300041FD0A22394630460DF0CEFD314628465C
:105840000DF0B4FE01467B480DF0ECFB79480DF0FD
:1058500017FC30460DF084FD28460DF081FD7B4994
:1058600028460DF009FD0A224FF4E13130460DF0D3
:10587000B3FD314628460DF099FE01466D480DF006
:10588000D1FB6C480DF0FCFB30460DF069FD28465D
:105890000DF066FD20464FF4E131FFF72FFE642046
:1058A0000EF0C2FCA06921460DF0BCFB64200EF096
:1058B000BBFC03E0A06903685B699847A0690368C3
:1058C0001B6998470028F5D15D4930460DF0D4FC9E
:1058D0005C4928460DF0D0FC2A4631462046FFF7A9
:1058E0008DFB074628460DF03BFD30460DF038FD98
:1058F000012F3FF44EAF544928460DF0DBFC0A223D
:10590000394630460DF068FD314628460DF04EFE12
:10591000014648480DF086FB46480DF0B1FB304685
:105920000DF01EFD28460DF01BFD494928460DF0DF
:10593000A3FC0A224FF4165130460DF04DFD3146BE
:1059400028460DF033FE01463A480DF06BFB39480E
:105950000DF096FB30460DF003FD28460DF000FDDE
:1059600020464FF41651FFF7C9FD64200EF05CFC91
:10597000A06921460DF056FB64200EF055FC03E0B3
:10598000A06903685B699847A06903681B69984729
:105990000028F5D1FDE603AD6E462E4928460DF0F0
:1059A00089FC0A22394630460DF016FD314628465C
:1059B0000DF0FCFD01461F480DF034FB1D480DF0B5
:1059C0005FFB30460DF0CCFC28460DF0C9FC1F49AA
:1059D00028460DF051FC0A224FF4E13130460DF01B
:1059E000FBFC314628460DF0E1FD014611480DF063
:1059F00019FB10480DF044FB30460DF0B1FC284671
:105A00000DF0AEFC20464FF4E131FFF777FD642046
:105A10000EF00AFCA06921460DF004FB64200EF094
:105A200003FC1DE06C7F0200707F0200747F0200A7
:105A300040850200F40CFF1FA08002009C7F020042
:105A4000C87F0200D87F0200DC7F02000C800200C9
:105A50003C80020074800200A06903685B6998477B
:105A6000A06903681B6998470028F5D12046FFF715
:105A7000B1FA012807463FF493AE2E4928460DF0AF
:105A800019FC0A22394630460DF0A6FC314628465C
:105A90000DF08CFD014628480DF0C4FA26480DF0A3
:105AA000EFFA30460DF05CFC28460DF059FC234916
:105AB00028460DF0E1FB0A224FF4165130460DF056
:105AC0008BFC314628460DF071FD01461A480DF059
:105AD000A9FA19480DF0D4FA30460DF041FC2846D9
