:1000000000000320D10100007D2F0100392F0100E5
:10001000392F0100392F0100392F0100392F01003C
:10002000392F0100392F0100392F01007D2F0100E8
:100030007D2F0100392F0100092201000D2201004E
:100040007D2F01007D2F01007D2F01007D2F0100FC
:100050007D2F01007D2F01007D2F01007D2F0100EC
:100060007D2F01007D2F01007D2F01007D2F0100DC
:100070007D2F01007D2F01007D2F01007D2F0100CC
:100080007D2F01007D2F01007D2F01007D2F0100BC
:100090007D2F01007D2F01007D2F01007D2F0100AC
:1000A00029980000359800007D2F01007D2F010068
:1000B0007D2F01007D2F01007D2F01003D3F0100BC
:1000C0007D2F01007D2F01007D2F01007D2F01007C
:1000D0007D2F01007D2F01007D2F01007D2F01006C
:1000E0007D2F01007D2F01007D2F01007D2F01005C
:1000F0007D2F01007D2F01007D2F01007D2F01004C
:10010000512301006D23010089230100A523010073
:100110007D2F0100954201007D2F01007D2F010000
:100120007D2F01007D2F01007D2F01007D2F01001B
:100130007D2F01007D2F01007D2F01007D2F01000B
:10014000D11F01007D2F01007D2F01007D2F0100B7
:100150007D2F01007D2F01007D2F01007D2F0100EB
:100160007D2F01007D2F0100419800007D2F0100AF
:100170007D2F01007D2F01007D2F01007D2F0100CB
:100180007D2F01007D2F01007D2F01007D2F0100BB
:100190007D2F01007D2F01007D2F01007D2F0100AB
:1001A0007D2F01007D2F01007D2F01004D98000063
:1001B0007D2F01007D2F01007D2F01007D2F01008B
:1001C0007D2F01007D2F01007D2F01007D2F01007B
:1001D0005F4B4CF2205210B5DA814DF62812DA81CD
:1001E00000BF00BF12F0CEFE5A4B4FF030621A63D0
:1001F000594A9A63594ADA634FF0E0234FF4700288
:10020000C3F8882D03F5E823554A1A60554B9A78B0
:10021000110703D59A7842F008029A70524B53485E
:10022000AA221A70524BDA1C121AC11E22F00302C3
:10023000994288BF00224F4912F0AAFD4E4B4F4809
:10024000DA1C121AC11E22F00302994288BF002252
:10025000002121F017FC4A494A484FF4E87212F095
:1002600097FD494B494A802103F8011B9342FBD17A
:100270004FF0E023434AC3F8082D454B8A221A70F9
:10028000A3F5805324225A70A0221A709A799207FB
:10029000FCD59A79D406FCD43E4A937903F00C033A
:1002A000082BFAD1304B60225A70DA78802AFCD1C0
:1002B000384B01221A715D225A719A799006FCD549
:1002C0009A795106FCD5234A33495164002191643F
:1002D000202119702F498B7903F00C030C2BFAD1D4
:1002E0002E4B53602E4A136913F4807303D153616C
:1002F0004FF4A85313614FF0E0232A4A5A610022B9
:100300009A6107221A61284AC3F8202D62B613F0B9
:10031000A1F8234B5B69DA0705D5244813F08EF862
:10032000234B244ADA61244B1B785B0609D5204C09
:10033000204BE2699A4204D11C4813F07FF8002355
:10034000E36112F025FE21F0D9FC12F019FDFEE761
:100350000020054000800440823F04000100002B83
:100360000300008500D0074000E007403007FF1F72
:100370006814FF1FC0BE02004C30FF1F6814FF1F2F
:10038000000000000002FF1F00E400E064E400E061
:10039000005006400040064000000602C010070062
:1003A00000D003401FBF0200000020200A3815665D
:1003B00000E00340A5C3945A00F00740FFFFFFFF91
:1003C000FFFFFFFFFFFFFFFFFFFFFFFFFFFFFFFF3D
:1003D000FFFFFFFFFFFFFFFFFFFFFFFFFFFFFFFF2D
:1003E000FFFFFFFFFFFFFFFFFFFFFFFFFFFFFFFF1D
:1003F000FFFFFFFFFFFFFFFFFFFFFFFFFFFFFFFF0D
:10040000FFFFFFFFFFFFFFFFFFFFFFFFDEF9FFFF23
:100410000548064B1B1AD90F01EBA301491002D066
:10042000034B03B1184770476814FF1F6814FF1F80
:100430000000000008B5054B1BB105490548AFF3A6
:100440000080BDE80840FFF7E3BF00BF00000000E8
:100450006814FF1FE8BB020000207047704700BF10
:10046000C1657047C06D704700207047007A7047C3
:10047000407A704741720846704700BF007C704761
:100480000429A8BF04210129B8BF01214161084600
:10049000704700BF40697047C0F8101408467047A5
:1004A000D0F81004704700BF10B5044B044640F864
:1004B000183B12F0D1F9204610BD00BF4C7C020061
:1004C00010B5044B044640F8183B12F0C5F920461D
:1004D00010BD00BF4C7C020010B5044B044640F830
:1004E000183B12F0B9F9204610BD00BF4C7C020049
:1004F00010B5044B044640F8183B12F0ADF9204605
:1005000010BD00BF4C7C020038B50546074B45F8CE
:10051000643B0446803012F09FF904F1700012F041
:100520009BF9284612F098F9204638BDA4850200B0
:1005300010B5044682B00846019121F041FE2368BF
:1005400001999B690246204602B0BDE81040184759
:1005500010B51831044612F045F9204610BD00BF11
:1005600014F036BB14F0F8BA10B504460C4B2360F7
:1005700000F5886006F050FE04F24C4012F06CF971
:10058000D4F82C04074B236020B1D4F83414091A92
:1005900012F084FD04F5836012F05EF9204610BD70
:1005A000547E02004C88020030B5134B8BB00D46D0
:1005B0000446197801A812F031F901A907A812F030
:1005C00011F9297A04A812F029F904A907A812F050
:1005D00069FA297C12F07CFA0146204612F002F9F1
:1005E00004A812F039F907A812F036F901A812F0A0
:1005F00033F920460BB030BD3507FF1F70B50C46F0
:100600008EB0002979D03E490BA8154612F0B0F8FB
:1006100020460BA906F0D2FC04460BA812F01CF9E8
:10062000002C6AD0374905A812F0A2F8294602A882
:1006300012F0D8F8344902A812F03CFA014608A892
:1006400012F0D0F8042631490BA812F091F80BAB48
:1006500008AA05A90096204606F01AFC0BA812F07D
:10066000FBF808A812F0F8F802A812F0F5F805A8AF
:1006700012F0F2F8264905A812F07AF8244908A8E1
:1006800012F076F823490BA812F072F80BAB08AA07
:1006900005A90096204606F0FBFB0BA812F0DCF83B
:1006A00008A812F0D9F805A812F0D6F81A4905A83A
:1006B00012F05EF8294602A812F094F8174902A831
:1006C00012F0F8F9014608A812F08CF810490BA8AE
:1006D00012F04EF80BAB08AA05A90096204606F0CA
:1006E000D7FB0BA812F0B8F808A812F0B5F802A8CA
:1006F00012F0B2F805A812F0AFF820460EB070BDA7
:100700003C7302004C73020044B9020054730200AF
:10071000C0940200607302006C7302001C9202001D
:1007200010B54FF6FE702DED028B144611F0ECFF64
:1007300007EE900A2368DFED188AF8EE677A012B3E
:1007400087EEA88A20D0022B15D14FF6FE7011F04B
:10075000DBFF07EE900AB8EE677AF6EE006AC7EEA6
:10076000287A38EE668A77EEE67A38EE088A77EEEF
:10077000A77A27EE888ADFED087A88EE270ABDEC93
:10078000028B30EE000A10BDF6EE007A38EE678A72
:1007900038EE088AEFE700BF00FE7F4714F002BB87
:1007A00090F88C3170B5044653B103685B6A0D460E
:1007B00098472368294620469B6ABDE87040184741
:1007C0000368BDE870405B6A184700BF90F86C3161
:1007D00070B50446A0F120066BB150F8203C3046BD
:1007E0005B6A0D46984754F8203C294630469B6A80
:1007F000BDE87040184750F8203C30465B6ABDE8C1
:100800007040184790F88C3170B5044663B10368A6
:10081000DB6A0D461646984723683246294620462D
:100820001B6BBDE8704018470368BDE87040DB6A89
:10083000184700BF90F86C312DE9F0410446A0F153
:1008400020067BB150F8203C3046DB6A0F46154647
:10085000984754F8203C2A46394630461B6BBDE881
:10086000F041184750F8203C3046DB6ABDE8F041C3
:10087000184700BF70B590F8643084B004469BB947
:100880000D4609B104B070BD03680F49DE6C01A8C4
:1008900011F06EFF01232A46204601A9B04701A8A6
:1008A00011F0DAFF04B070BD03680749DD6C01A8E0
:1008B00011F05EFF01231A46204601A9A84701A8AE
:1008C00011F0CAFF04B070BD5473020010B1036888
:1008D0005B6B18472A20704702680174536C034A07
:1008E000934201D108467047184700BF7D040000BD
:1008F00010B50446806A074A0368DB68934207D153
:1009000014F050FAE06A0368BDE81040DB6818474D
:100910009847F7E79D07000010B504468068074A2E
:100920000368DB68934207D114F03CFAE06803687F
:10093000BDE81040DB6818479847F7E79D070000BF
:10094000806A044A03681B69934201D114F040B9DC
:10095000184700BF61050000806A044A03685B69AC
:10096000934201D114F0F8B8184700BF65050000A4
:100970002DE9F0470546C06C002800F0A58095F8E9
:100980006030B3B905F114000DF088FA002385F842
:100990006030AB68D3F88C040022C3F88024C3F81D
:1009A0008424002800F09F800368BDE8F0479B681E
:1009B00018470021C7690BF03FFCD5ED1A7A534C5C
:1009C0005349D5F86C90D5F86480FDEEE77A04229F
:1009D000204617EE906A12F0DBF94E49042204F12A
:1009E000080012F0D5F94C49042204F10C0012F071
:1009F000CFF94A49042204F1240012F0C9F94FF05A
:100A0000000C84F811C084F812C084F813C084F874
:100A100015C084F823C04FF0100C84F810C084F87F
:100A200022C04FF0010C84F814C0C6F3072C7100EB
:100A3000267684F819C0C6F3074C360E4FEA4902F1
:100A4000A7EB0803E676B3FBF2F3C1F3072609FB35
:100A500003F35B0021776677C1F30746090E84F83C
:100A60002020E177C2F30722C3F3072184F8212075
:100A700084F8283003F1240284F82910C3F30741D5
:100A80001B0E84F82B30E86C84F81690C2F3072311
:100A9000C9F3072922716371C2F30743120E84F868
:100AA000179084F81AC0A67784F82A10A371E2710F
:100AB000D8B1424621460BF091FDEB6CF3B13946BB
:100AC00018460BF0B9FB5DE7286D00283FF461AFD5
:100AD00095F86030002B3FF455AF002200230769E2
:100AE00009F05AF869E7BDE8F087286D00283FF45F
:100AF00049AF4246214609F0E3FEDEE7286D0028B3
:100B00003FF440AF3A4609F047F83BE78814FF1F2F
:100B1000747302007C730200847302008C73020001
:100B200010B5064B03600446FFF722FF044BE36059
:100B300004F114000DF0B2F9204610BDDC7C020077
:100B4000C47C020010B5084B03600446FFF710FF99
:100B5000064BE36004F114000DF0A0F9204670216B
:100B600012F09CFA204610BDDC7C0200C47C02001E
:100B700010B50446D0F88C000B4B236010B1042153
:100B800012F08CFA606F10B1022112F087FA074B55
:100B900023602046FFF7ECFE054BE36004F11400F0
:100BA0000DF07CF9204610BD1C7D0200DC7C0200AB
:100BB000C47C020010B50446D0F88C000D4B2360B5
:100BC00010B1042112F06AFA606F10B1022112F024
:100BD00065FA094B23602046FFF7CAFE074BE36026
:100BE00004F114000DF05AF92046942112F056FA3F
:100BF000204610BD1C7D0200DC7C0200C47C02008B
:100C000000B5036C83B08DF8071043B101220DF1DC
:100C1000070118460BF0E2FC03B05DF804FB406CE2
:100C20000028F9D001220DF1070109F049FE03B0B7
:100C30005DF804FB38B51F4B1F494167044603F1BB
:100C400030020360426203F06BFBA56E05B32B68B4
:100C50001A4A5B69934229D1D5F88C00184B2B6056
:100C600010B1042112F01AFA686F10B1022112F0CB
:100C700015FA144B2B602846FFF77AFE124BEB60F7
:100C800005F114000DF00AF99421284612F006FA35
:100C90000E4B636204F13C0011F0DEFD20460C4B6C
:100CA00040F8183B11F0D8FD204638BD284698473B
:100CB000EEE700BF30810200C8810200B50B0000E2
:100CC0001C7D0200DC7C0200C47C02004C7C020023
:100CD000687D0200036814495A6E8A4222D170B5B9
:100CE00090F86450114984B004466DB901A8DE6CD7
:100CF00011F03EFD01232A46204601A9B04701A874
:100D000011F0AAFD04B070BD01A8DD6C11F030FD3A
:100D100001231A46204601A9A84701A811F09CFD0D
:100D200004B070BD00211047750800005473020024
:100D3000F0B503680E469A691B49DF6D8A428DB093
:100D400004462CD1194B06A8197811F067FD06A9A5
:100D500003A811F047FD217A09A811F05FFD09A948
:100D600003A811F09FFE217C11F0B2FE6D460146F2
:100D7000284611F037FD09A811F06EFD03A811F007
:100D80006BFD06A811F068FD2A4631462046B8479B
:100D90000446284611F060FD20460DB0F0BD6D46BA
:100DA000014628469047EFE7A90500003507FF1FD9
:100DB000F0B58DB0002945D00D460446294909A853
:100DC00011F0D6FC284609A906F074F9054609A8D1
:100DD00011F042FD002D35D0236823499A6D8A42D7
:100DE00039D1DF6D214A9B6993422FD1204B06A850
:100DF000197811F013FD06A903A811F0F3FC217A6C
:100E000009A811F00BFD09A903A811F04BFE217CE4
:100E100011F05EFE6E460146304611F0E3FC09A873
:100E200011F01AFD03A811F017FD06A811F014FD2A
:100E3000324629462046B847304611F00DFD284677
:100E40000DB0F0BD002528460DB0F0BD6E46214620
:100E500030469847ECE729462046904728460DB093
:100E6000F0BD00BF94730200310D0000A905000021
:100E70003507FF1F10B5C36C82B004468DF807100C
:100E800073B190F854208AB901220DF10701184678
:100E90000BF0A4FB94F85430D3B9012002B010BD7C
:100EA000006D0028FAD094F8543043B112F0C2FB20
:100EB000E36CA065002BE7D1206D0028EAD0012269
:100EC0000DF1070109F0FCFC94F85430002BE4D03C
:100ED0000721094813F0AEFE12F0ACFBA16D002310
:100EE000411A0A22054811F01FFB044811F00EFBBD
:100EF000012002B010BD00BF9C730200F40CFF1F64
:100F0000F8B5C36C04460D4617466BB190F8541003
:100F100079B93E463A46294618460BF05FFB94F8ED
:100F20005430C3B93046F8BD006D60B394F8543006
:100F30001BB312F07FFBE36CA0653E46002BE9D1AA
:100F4000206D0028EBD03A46294609F0B9FC94F808
:100F50005430002BE6D007210C4813F06BFE12F042
:100F600069FBA16D0023411A0A22094811F0DCFA3D
:100F7000074811F0CBFA3046F8BD3A4629463E46BE
:100F800009F09EFCE3E70646CCE700BF9C73020035
:100F9000F40CFF1F70B50368264A9B6993428CB01E
:100FA000054640D1244B06A8197811F037FC09AC4E
:100FB00006A903A811F016FC297A204611F02EFC90
:100FC000214603A811F06EFD297C11F081FD6E46CB
:100FD0000146304611F006FC204611F03DFC03A806
:100FE00011F03AFC06A811F037FC1449204611F024
:100FF000DDFB3146204611F055FD0146104811F049
:1010000057FA0F4811F082FA204611F025FC3721DB
:101010000C4813F00FFE0A4811F078FA304611F030
:101020001BFC0CB070BD6E4601463046984709ACBB
:10103000DBE700BFA90500003507FF1FA47302000E
:10104000F40CFF1FB873020003682F4A1B6E934213
:1010500049D1F0B50D468DB000294BD02B4904463F
:1010600009A811F085FB284609A906F023F80546D2
:1010700009A811F0F1FB002D3CD0236824499A6D9A
:101080008A4231D1DF6D234A9B69934236D1224B8C
:1010900006A8197811F0C2FB06A903A811F0A2FB5B
:1010A000217A09A811F0BAFB09A903A811F0FAFCEA
:1010B000217C11F00DFD6E460146304611F092FB89
:1010C00009A811F0C9FB03A811F0C6FB06A811F08E
:1010D000C3FB324629462046B847304611F0BCFBD8
:1010E00028460DB0F0BD18472946204690472846AF
:1010F0000DB0F0BD002528460DB0F0BD6E4621466E
:1011000030469847E5E700BFB10D00009473020038
:10111000310D0000A90500003507FF1FF0B5224E74
:1011200033688B4285BF00233360CB1A0B469A424B
:1011300087B00C46054601D907B0F0BD1B4903A88E
:1011400011F016FBE86E03F03DFC0121684611F03A
:10115000EBFB694603A811F0A5FC0146144811F009
:10116000A7F9134811F0D2F9684611F075FB03A8EE
:1011700011F072FB2B680F491F6D03A811F0F8FAEC
:10118000E86E03F01FFC0121684611F0CDFB6A46B2
:1011900003A92846B847684611F05EFB03A811F082
:1011A0005BFB346007B0F0BD8014FF1FF0730200DA
:1011B000F40CFF1F60730200027A8A4225D170B5D9
:1011C000432B84B0044625D0632B20D12C21264804
:1011D00013F030FD254811F099F9236824495A6E1F
:1011E00001258A4284F8645033D12249DE6C01A87B
:1011F00011F0BEFA2B462A4601A92046B04701A8A5
:1012000011F02AFB284604B070BD00207047002072
:1012100004B070BD3821184813F00CFD134811F0CC
:1012200075F9236812495A6E00258A4284F8645081
:1012300014D11049DE6C01A811F09AFA01232A4654
:10124000204601A9B04701A811F006FB012004B017
:1012500070BD2046002190472846D9E72046294600
:1012600090470120D4E700BF1C740200F40CFF1F5C
:1012700075080000547302004C7402002DE9F0431D
:10128000B14CB24DB24FDFF814938BB00646272114
:10129000B04813F0CFFC204611F038F91321AE48C6
:1012A00013F0C8FC204611F031F91721AB4813F0B8
:1012B000C1FC204611F02AF92D21A94813F0BAFCEF
:1012C000204611F023F92621A64813F0B3FC20464E
:1012D00011F01CF93821A44813F0ACFC204611F0A1
:1012E00015F93821A14813F0A5FC204611F00EF99C
:1012F0009F4907A811F03CFA0A2295F8841004A827
:1013000011F0E6FA04A907A811F0CCFB994911F0F5
:10131000D1FB0146204611F0CBF8204611F0F6F83B
:1013200004A811F099FA07A811F096FA924904A8B6
:1013300011F01EFA0A22D6F8381401A811F0C8FAE2
:1013400001A904A811F0AEFB394611F0B3FB95EDED
:10135000200A8046012107A811F0E6FA07A94046B5
:1013600011F0A0FB494611F0A5FB0146204611F003
:101370009FF8204611F0CAF807A811F06DFA01A8ED
:1013800011F06AFA04A811F067FA7C4904A811F078
:10139000EFF90A22D6F83C1401A811F099FA01A934
:1013A00004A811F07FFB394611F084FB95ED200A6B
:1013B0008046012107A811F0B7FA07A9404611F0AD
:1013C00071FB494611F076FB0146204611F070F89A
:1013D000204611F09BF807A811F03EFA01A811F081
:1013E0003BFA04A811F038FA6549DFF8B49107A870
:1013F00011F0BEF995ED1F0A012104A811F094FA2D
:1014000004A907A811F04EFB5E4911F053FB0146F9
:10141000204611F04DF8204611F078F804A811F09C
:101420001BFA07A811F018FA574904A811F0A0F9FF
:101430000A22D6F8381401A811F04AFA01A904A822
:1014400011F030FB394611F035FB95ED1E0A804650
:10145000012107A811F068FA07A9404611F022FB04
:10146000494611F027FB0146204611F021F820469D
:1014700011F04CF807A811F0EFF901A811F0ECF900
:1014800004A811F0E9F9414904A811F071F90A2200
:10149000D6F83C1401A811F01BFA01A904A811F018
:1014A00001FB394611F006FB95ED1E0A07460121A6
:1014B00007A811F039FA07A9384611F0F3FA49469E
:1014C00011F0F8FA0146204610F0F2FF204611F024
:1014D0001DF807A811F0C0F901A811F0BDF904A882
:1014E00011F0BAF921212A4813F0A4FB204611F08B
:1014F0000DF8304604F0B4F9204611F007F82549FC
:1015000007A811F035F9D5ED1E7A95ED200A0121D5
:1015100030EE270A04A811F007FA04A907A811F071
:10152000C1FA1D4911F0C6FA0146204610F0C0FF6D
:10153000204610F0EBFF04A811F08EF907A811F077
:101540008BF90BB0BDE8F083F40CFF1F0417FF1FED
:101550002076020088740200B0740200C474020095
:10156000DC7402000C750200347502007075020014
:10157000AC75020048730200EC750200347602007C
:1015800068760200A0760200A8760200E4760200E7
:10159000187702003C770200687702002C76020080
:1015A000DC76020003682DE9F0411B6A234EB3424A
:1015B0003FD1C36C04460F46154673B390F85420D0
:1015C0005AB92E462A46394618460BF007F894F8C1
:1015D00054307BB93046BDE8F08112F02BF8E36C53
:1015E000A0652E46002BEDD1206DE8B994F854305B
:1015F000002BEFD00721124813F01CFB12F01AF851
:10160000A16D0023411A0A220E4810F08DFF0D48EB
:1016100010F07CFF3046BDE8F081006D60B194F8B9
:101620005430002BD9D12E462A46394609F048F9C4
:10163000CDE7BDE8F04118470646CBE7010F0000B3
:101640009C730200F40CFF1F036870B51B6A9500C1
:10165000214A934239D1C36C04460E4653B390F8E5
:1016600054204AB92A46314618460AF0B7FF94F882
:1016700054306BB9284670BD11F0DCFFE36CA065F7
:10168000002BEFD1206DD8B994F85430002BF1D055
:101690000721124813F0CEFA11F0CCFFA16D002300
:1016A000411A0A220E4810F03FFF0D4810F02EFF9D
:1016B000284670BD006D60B194F85430002BDBD12A
:1016C0002A46314609F0FCF8D1E72A46BDE87040C9
:1016D00018470546CEE700BF010F00009C730200CB
:1016E000F40CFF1F036870B51B6A5500214A934232
:1016F00039D1C36C04460E4653B390F854204AB90E
:101700002A46314618460AF069FF94F854306BB9FE
:10171000284670BD11F08EFFE36CA065002BEFD161
:10172000206DD8B994F85430002BF1D0072112481D
:1017300013F080FA11F07EFFA16D0023411A0A22F6
:101740000E4810F0F1FE0D4810F0E0FE284670BD86
:10175000006D60B194F85430002BDBD12A4631463D
:1017600009F0AEF8D1E72A46BDE8704018470546B3
:10177000CEE700BF010F00009C730200F40CFF1FB6
:10178000F0B50368274FDE6EBE4287B044D1264EC7
:101790001346326891423BBF002232608A1A0A46E1
:1017A000934204460D4601D907B0F0BD1F49684673
:1017B00010F0DEFFE06E03F005F9012103A811F03F
:1017C000B3F803A9684611F06DF90146184810F006
:1017D0006FFE174810F09AFE03A811F03DF8684616
:1017E00011F03AF8236813491F6D684610F0C0FFE6
:1017F000E06E03F0E7F8012103A811F095F803AAC1
:1018000069462046B84703A811F026F8684611F04B
:1018100023F8356007B0F0BD334607B0BDE8F040AF
:10182000184700BF1D1100008014FF1FF073020055
:10183000F40CFF1F607302002DE9F04F2DED068BB5
:10184000466F85B004460F4693461D46AEB1836F82
:10185000C26F0BFB05F8934203EB080620DAB24295
:10186000C0F2F680D0F884108E4280F2E280002D23
:1018700040F306810023019325E0D0F880308648AC
:1018800090FBF3F00428B8BF0420C4F884004000A3
:1018900011F000FC0BFB05F8E667A667606746469B
:1018A000D4F88430B342E2DC0021A36FE26F0191EF
:1018B000C4F8883000239A42A36702DD904500F304
:1018C000BB80002D1EDD4FEA8B096FF060439B4506
:1018D00028BF4FF0FF394FF0000AA7F10408002697
:1018E00002E00136B5420DDD58F8043F002BF8D177
:1018F000D4F88C00002800F08C800136B542C8F87E
:101900000000F1DCBBF1000F74DDDFED649A9FEDA8
:10191000649A9FED64AADFF89891DFF898814FF000
:10192000000A00239D420393C8BF4FEA8A0613DCD6
:101930005CE0B4EECA8AF1EE10FA98BF484600F2B5
:10194000A580A16F039B4A1C0133A267626FAB4263
:1019500022F81100039349DA57F82330D4F8902085
:101960003344002A93ED008A2FDD23681B6C434526
:1019700049D14FF6FE7010F0C7FE07EE900AD4F87A
:101980009030F8EE677A012BC7EEA98A27D0022B98
:1019900015D14FF6FE7010F0B7FE07EE900AB8EEC4
:1019A000677AF6EE006AC7EE297A78EEE68A77EE75
:1019B000E67A78EEA88A77EEA77A67EEA88A88EEAC
:1019C000A90A30EE000A38EE008A28EE098AB4EE41
:1019D000C98AF1EE10FAACDD47F6FF70B1E7F6EE1A
:1019E000007A78EEE78A78EEA88AE8E70AF1010A39
:1019F000D34596DC019B0BB1A36FE36705B0BDEC4B
:101A0000068BBDE8F08F04F1900203A920469847A9
:101A1000D9E7484611F03EFBBBF1010358BF02462F
:101A200004D4013B591C42F804ABFAD1C4F88C0031
:101A300063E7002101913BE73B211B4813F0FAF8D3
:101A40001A4810F063FD002D14DD012301933AE7DD
:101A50003B21154813F0EEF8144810F057FDD4F868
:101A600084309E4204DB0121A36FE26F01911FE7E6
:101A7000002DEADCBBF1000FBEDD0123019344E73A
:101A8000BBF1000FBADD002301933EE7BDEEC88A2B
:101A900018EE103A18B254E7F049020000FE7F47F2
:101AA00000FEFF4600FEFFC670770200F40CFF1F29
:101AB0000180FFFF21070000416F026F2DE9F8430D
:101AC000002900F002810446D000A56FE76FBD42F7
:101AD00036DAD4F88830DD1B002D64DDA842A8BFBB
:101AE000284682420646DCBF90FBF2F002FB00F67D
:101AF0002268D2F82090764A914501EB47054FEADB
:101B0000460840F08880E06C002868D094F8543093
:101B1000002B40F0B380294642460AF05FFD94F85E
:101B20005430002B40F09980E76FD4F888303E4461
:101B30009E420ABF0023E667E3674046BDE8F8839C
:101B4000ED1BAA422ADCA842A8BF284690FBF2F669
:101B500002FB06F66EB323685D4A1B6A934201EBF3
:101B600047074FEA460840F0A180E06C00285BD0B0
:101B700094F85430002B40F08D80394642460AF0EC
:101B80002DFD94F85430002B34D1B8F1000F4ED015
:101B9000E36F3344E3674046BDE8F8834FF0000845
:101BA0004046BDE8F88300239846E3674046BDE819
:101BB000F8832F21474813F03DF82946464810F096
:101BC0009DFC0221454813F035F83146424810F09B
:101BD00095FC414810F09AFC616FE76FBBE7206D00
:101BE00000B394F85430002B48D12946424608F0FF
:101BF00067FE94E707213A4813F01CF811F01AFD2C
:101C0000A16D0023411A0A22334810F08DFC32489E
:101C100010F07CFCB9E7424629462046C847E76FEA
:101C2000D4F88830804682E7206D002844D13521E1
:101C30002C4812F0FFFF3146274810F05FFC0221CC
:101C4000264812F0F7FF0021234810F057FC2248E5
:101C500010F05CFC4FF000089AE70721204812F0D2
:101C6000E9FF11F0E7FCA16D0023411A0A221A488E
:101C700010F05AFC184810F049FC55E711F0DAFC56
:101C8000A065E06C00287FF446AF206D00283FF48B
:101C900046AFAAE711F0CEFCA065E06C00287FF407
:101CA0006CAF206D00283FF46CAF09E04246394626
:101CB00020469847804668E794F85430002BE9D1D5
:101CC0003946424608F0FCFD5BE74FF0FF3867E716
:101CD000010F0000AC770200F40CFF1FDC7702005C
:101CE0009C730200E077020070B50C4659B10546BE
:101CF000084620F065FA2B680246214628465B68B4
:101D0000BDE870401847084670BD00BF2DE9F0419E
:101D100004464FF0FF38C4F80C804FF02A08C4F88E
:101D200010804FF00808C4F830804FF02708C4F83E
:101D300038804FF00A08C4F840804FF02208C4F8F9
:101D400044804FF01F08C4F848804FF03808C4F8AA
:101D50004C804FF02108804AC4F854804FF014089A
:101D6000A261A267C4F8608080224FF4165892B036
:101D700000258E46E2677949794AC4F874804FF0AD
:101D80002C0800230120774EA16065612321764D48
:101D9000C4F858804FF0240C4FF0050820772371C9
:101DA000636284F85C306066C4F88030C4F88430C4
:101DB000C4F8883084F88C31226525676163E66653
:101DC000C4F83CC0C4F86880CDE90622CDE90822F9
:101DD0000A920C924FF4E13204911192DEF8001055
:101DE000624A8DF82C3007270D9010954B1E02F19A
:101DF00054050091152022600F210622C4F890712D
:101E0000CDF80CC00E970F962562019002910592B5
:101E10000A2B1ED8DFE803F066984040708506065E
:101E200025255200232127220A202223CDE904035D
:101E3000019102921F2138222120CDE9061214239C
:101E40004FF416512C2209900C93052311910A92FC
:101E50000E932046694604F01DFD204612B0BDE8F1
:101E6000F0811A2011210F221023019002910920E4
:101E70000E2103920493052202230590069101206E
:101E80002421079209934FF4165216238DF82C0043
:101E90000C9111920A93DCE723200A2122221F23AE
:101EA0000190049121201421059206934FF41652BB
:101EB000052308900C9111920E93CAE71122029209
:101EC000102228200F2104920122254B019003911A
:101ED000092024218DF82C20162205900C910A92BD
:101EE0000E93B6E71E4B0E930220012100220890AC
:101EF0008DF82C100D92ACE70A2204921F222A20A2
:101F000022210692212214230190059140204FF4B2
:101F1000165108920522029307900C9311910E928C
:101F200097E7232127220A202223CDE904030191E8
:101F300002921F2138222120CDE9061214234FF4EA
:101F400016512C2208907FE7054B0E9302210022A8
:101F500008910D927DE700BF00442C475007FF1FFA
:101F6000F1D8FFFFF40CFF1FC40CFF1F587C0200C8
:101F70002DE9F0414FF0FF3300254B4A83600223E7
:101F8000044602604361C560056182B00E461830A8
:101F9000464910F0EDFB464A464B636204F154019A
:101FA000136861634FF4807104F1240704F1580849
:101FB00025636565A185002B73D01A465B69002BEC
:101FC000FBD1576100253C4B3C496362A563A56288
:101FD00084F82E5004F13C0010F0CAFB384B394A0B
:101FE00019681368C4F8508004208B42E564A56525
:101FF000E5652566656684F8480004DA324941F8EB
:10200000237001331360314B2360002103F1300052
:102010002F4A60624FF0FF33A166E26621672046D7
:1020200000934FF4007302F09DF9D6ED007A9FED16
:10203000297AF4EEC77AF1EE10FA08DD9FED267AE0
:10204000F4EEC77AF1EE10FA48BFDFED247AA36E02
:102050000BB1C3ED1A7A25236FF01F0000217822FF
:10206000A067C4F8801084F88420C4F888301C4924
:102070004A2204F18C0010F08BFE1A491A4B0A78A0
:1020800084F87C20501C087003F1500003F15C01BF
:102090006062204684F87D202360616702B0BDE85D
:1020A000F08117608EE700BF687D0200187802009B
:1020B000B02AFF1F407C02004C7C020028780200FE
:1020C000B08202004420FF1F641EFF1F3081020007
:1020D000F40CFF1F00542C4700562C4700442C479B
:1020E000007E02003407FF1F6C810200F0B50D4630
:1020F000044685B00D216430EF6A04F1800610F0CB
:102100008DFB0D2104F1700010F088FB0021E767C2
:10211000304610F02DFB4FF47A63C4F88C3007235F
:10212000C4F890304FF0FF33C4F894303823C4F82B
:1021300098302223C4F89C30164901A810F018FBEF
:1021400001A9304610F014FC01A810F085FB6A6C60
:10215000E86CC4F898000023C4F89C206FF01F01BD
:102160007820252284F8A0306160E36020746261E9
:1021700009494A2204F1180010F00AFE074A0849EA
:1021800013782372581C107020466372216005B0CA
:10219000F0BD00BFC0940200007E02003407FF1FA4
:1021A000A4850200F0B58DB000F58865424909A804
:1021B00010F0DEFA09A9284604F07CFF064609A8BB
:1021C00010F04AFB3D4909A810F0D2FA09A930469F
:1021D00004F0F4FE044609A810F03EFB384903A8B9
:1021E00010F0C6FA374906A80C2710F0C1FA364994
:1021F00009A810F0BDFA09AB06AA0DEB070100977C
:10220000204604F045FE09A810F026FB06A810F0B1
:1022100023FB0DEB070010F01FFB2C490DEB070013
:1022200010F0A6FA2A4906A810F0A2FA294909A82E
:1022300010F09EFA09AB06AA0DEB070100972046A5
:1022400004F026FE09A810F007FB06A810F004FB16
:102250000DEB070010F000FB1F490DEB070010F01D
:1022600087FA1E4906A810F083FA1D4909A810F044
:102270007FFA09AB06AA0DEB07010097204604F090
:1022800007FE09A810F0E8FA06A810F0E5FA0DEB31
:10229000070010F0E1FA3146124801F00DFC124936
:1022A00009A810F065FA09A9284604F023FF09A837
:1022B00010F0D2FA0DB0F0BD34780200447802007C
:1022C00054780200CCAD0200607802006C78020005
:1022D000787802007C78020088780200B8A90200B1
:1022E000987802000C15FF1FA478020070B5044610
:1022F00084B049B12D4B1D6F012D34D0022D52D029
:10230000002D40D004B070BD03680D4601A82849D7
:102310001E6910F02DFA2A46012301A92046B04774
:1023200001A810F099FA236822491E6901A810F04B
:102330001FFA2A46012301A92046B04701A810F040
:102340008BFA23681C491E6901A810F011FA0123B9
:102350002A4601A92046B04701A810F07DFA134B88
:102360001D6F012DCAD1236812491E6901A810F002
:10237000FFF92B462A4601A92046B04701A810F0D4
:102380006BFA04B070BD236809491D6901A810F0FB
:10239000EFF901231A46204601A9A84701A810F029
:1023A0005BFA04B070BD23680349EEE70417FF1F12
:1023B000607802007C7802009878020038B5044604
:1023C0000D46FFF793FF29462046BDE8384003F04D
:1023D00087BA00BF10B5D0F84434D0F8482413446D
:1023E000002B84B0044622DD01A804F5886104F0C6
:1023F000A9FE01A9134810F05BF8124810F086F806
:10240000D4F8100401A903F0EDF823680E4ADB6943
:1024100093420FD120460021FFF768FF002120469C
:1024200003F05EFA01A810F017FA04B010BDFFF730
:10243000B9FED9E700212046984701A810F00CFA10
:1024400004B010BDF40CFF1FBD23000010B5214CDB
:102450002067032812D8DFE800F03622021200219C
:102460001D4805F003F902211B4805F035FA9FEDE0
:102470001B0A194805F09AF984ED1D0A10BD0221C6
:10248000154805F029FA0121134805F0EFF89FEDF2
:10249000130A114805F08AF984ED1D0A10BD0021C8
:1024A0000D4805F0E3F803210B4805F015FA01216A
:1024B000094804F0F7FA9FED090A074805F076F994
:1024C00084ED1D0A10BD0021034805F0CFF801215D
:1024D000CAE700BF0417FF1F8C17FF1F0000000092
:1024E0002DE9F0418AB012F073FB78B96F4C704956
:1024F000204602F019FA6F4B1B78002B5FD06E4C10
:1025000094F864304BB90AB0BDE8F08112F024FBB6
:10251000C1B26A4803F0B6FBE8E7694E694F336819
:102520000293029D3B689D423BBF00233B60EB1A38
:102530002B4640F6B832934253D83368624E039329
:10254000039D33689D4248D3EB1A40F6B73293425D
:10255000D9D95E4904A810F00BF9E06E02F032FA06
:10256000012107A810F0E0F907A904A810F09AFAD1
:10257000014657480FF09CFF55480FF0C7FF07A8CA
:1025800010F06AF904A810F067F9524904A810F095
:10259000EFF8E06E02F016FA012107A810F0C4F976
:1025A00007AA04A9444803F0E9FC07A810F054F96D
:1025B00004A810F051F935600AB0BDE8F081A268B6
:1025C0003F4B45481B680193A2F10102B2FA82F227
:1025D0000199520904F04AFA91E7002333602B462F
:1025E000B3E7A06E3D4903680C225B689847E06E34
:1025F000D4F8688002F0E6F910EE100A1CF06EFACA
:1026000041EC100B404601210FF09AFFA06E3449B7
:10261000036802225B689847E06ED4F8688002F095
:10262000F7F910EE100A1CF059FA41EC100B404675
:1026300001210FF085FFA06E2A49036803225B6821
:102640009847A06E2849036812225B689847274B79
:10265000A06E19780A2200230FF066FFA06E2449AD
:10266000036801225B689847224BA06E19780A2202
:1026700000230FF059FFA06E1F4903680E225B680C
:1026800098470020D4F868801FF064FB07AB014630
:10269000591A40460FF032FFA06E0FF037FF94F842
:1026A00064303D60002B7FF448AF2CE70C15FF1F12
:1026B0009016FF1F501EFF1F0417FF1F7019FF1FEA
:1026C000382BFF1F8414FF1F8014FF1FF0730200BC
:1026D000F40CFF1F607302008C17FF1FB478020018
:1026E000C4780200C8780200CC7802005820FF1F8E
:1026F000E07802005A20FF1FE478020010B59FED39
:10270000327AB4EEC70AF1EE10FA2DED048B06DC36
:102710009FED2E7AB4EEC70AF1EE10FA3CD82C4C9D
:102720002C4BD4ED0F8A83ED1F7AF6EE007A68EE1B
:10273000A77AF0EE479AF4EEE79AF1EE10FAD8BFD6
:10274000F0EE697AD4E91A0150EA010302D094F854
:10275000783073B9C4ED127A94ED0E7A67EE877A09
:10276000B0EE690A87EEA87ABDEC048B84ED147A8A
:1027700010BD94ED129A37EEC98A1CF017FE07EED1
:10278000900A88EE277A00220023C4E91C23F0EE89
:10279000497A84ED187ADFE70E4B0D4C83ED1F0A62
:1027A000B5EEC00AF1EE10FAD4ED0F8A04D5DFEDD4
:1027B0000A7AF0EE409AC5E7F6EE007A68EEA77A5C
:1027C000F0EE409AB7E700BF0000FA4600007A41F9
:1027D000C81DFF1F0417FF1F0000000030B5714D1A
:1027E000714C696F89B03220019110F045FF019959
:1027F000284604F07DF9002385F88C3140F2DC5046
:1028000010F03AFF2121694812F014FA68480FF0DD
:102810007DFE684905A80FF0ABFF94ED000A022188
:1028200002A810F081F802A905A810F03BF90146B2
:102830005F480FF03DFE5E480FF068FE02A810F002
:102840000BF805A810F008F85B4905A80FF090FFF9
:102850000A22616802A810F03BF802A905A810F04E
:1028600021F9014652480FF023FE51480FF04EFE69
:1028700002A80FF0F1FF05A80FF0EEFF214664203B
:102880004E4C02F039FB284605F0CEFC206FFFF7D6
:10289000DDFD94ED200AD4ED1E7A70EE277AB8EEB5
:1028A000087AF4EE477AF1EE10FAC8BFF0EE477AF4
:1028B00037EEC00A284605F009FAD4ED207A404DDB
:1028C00084ED1E0AF5EEC07A0023F1EE10FA6B6477
:1028D000AB64EB642B655AD5DFED3A0AB2EE040A1D
:1028E00067EEA00A12F00CFEB5EE400AF1EE10FA07
:1028F000F0EE407A50D4B1EEE77A334B94ED1F0AF4
:1029000083ED157AFFF7FAFE94F884309FED2F7A65
:102910002F4C3048002BF7EE007A08BFF0EE477AD4
:1029200004F17401C5ED117A03F0E4FA2A4AA36EAA
:10293000E2660222626103B1DA66284905A80FF057
:1029400017FF0A22616902A80FF0C2FF02A905A8B9
:1029500010F0A8F8224910F0ADF8014614480FF025
:10296000A7FD13480FF0D2FD02A80FF075FF05A8D0
:102970000FF072FF10211B4812F05CF90C480FF0A9
:10298000C5FD144809B0BDE83040FEF777BCC4F877
:102990008030F7EE007AAEE712F010FEB0EE407A2B
:1029A000ABE700BF8C17FF1FE415FF1FF478020090
:1029B000F40CFF1F187902002C7902000417FF1F86
:1029C000B814FF1FCDCCCC3DC81DFF1F0000000078
:1029D0000C15FF1F7019FF1FAC17FF1F4C79020069
:1029E000607902006C7902002DE9F04F2DED068B25
:1029F00083B03F4B019310EE100AB0EE408A1CF0FA
:102A00006DF839A3D3E900231CF0C0F8DFED398A53
:102A1000394B00221CF0E4F928EE288ADFED377AE2
:102A20004FF0000A4FF0000B88EE279A2EA7D7E947
:102A30000067D046D94654465D4641EC1A0B9FEDDF
:102A4000308A03E012F0E4FC5BEC10AB53EC1A2B81
:102A5000204629461BF0E4FE32463B4604460D461E
:102A60001CF024FB844632463B4620462946BCF1F6
:102A7000000F03D01BF0D2FE04460D46B0EE480A0C
:102A800012F0BEFA38EE098A10EE100AB4EEE88AA7
:102A9000F1EE10FAC8BF38EE688A1CF01FF8024643
:102AA0000B46504659461BF0B9FE02460B461CF039
:102AB0006DF80B460246494640461BF0B1FE019BAD
:102AC000013B45EC104B804689460193BAD10A4B35
:102AD00000221CF085F91CF051FB00EE100A03B037
:102AE000BDEC068BBDE8F08F00000060FB210940C3
:102AF00000770100DB0F49400070F7400080BB47C2
:102B00000000000070B52DED028BA1F13E038AB0EC
:102B10000446392B3BD8DFE813F0D7003A003A00DF
:102B2000CC0074003A003A003A00480049023A00EA
:102B30003A004100DF004C023A003A003A003A0005
:102B40003A003A003A003A003A003A009B013A0053
:102B50003A003A003A003A003A003A003A003A00A5
:102B60001B0145013A003A002701B201240220026C
:102B70003A004100F90128023A003A003A003A00CE
:102B80003A0064014F0274013A003A002B020AB085
:102B9000BDEC028BBDE8704002F0BEBEFFF71AFC30
:102BA00001200AB0BDEC028B70BDBA4CDFEDBA7AE1
:102BB00094ED1F0A20EE270AFFF7A0FDB74907A8EA
:102BC0000FF0D6FD94ED1F0A012104A80FF0ACFE12
:102BD00004A907A80FF066FFB1490FF06BFF01468B
:102BE000B0480FF065FCAF480FF090FC04A80FF060
:102BF00033FE07A80FF030FE01200AB0BDEC028BB7
:102C000070BDD0F83834A34DA74895ED1E7A95EDE8
:102C1000200A5B4207EE903AF8EEE77A77EE877A81
:102C2000B8EE087A77EE807AF4EE477AF1EE10FA91
:102C3000C8BFF0EE477A37EEC00A05F047F89B4967
:102C400085ED1E0A04A80FF093FD95ED1E0A01A85C
:102C500001210FF069FE01A904A80FF023FF944998
:102C60000FF028FFD5ED1E7A95ED200A044630EED0
:102C7000270A07A801210FF057FE07A920460FF0E9
:102C800011FF8C490FF016FF014686480FF010FC2B
:102C900084480FF03BFC07A80FF0DEFD01A80FF001
:102CA000DBFD04A80FF0D8FD01200AB0BDEC028BBB
:102CB00070BD814B8148002212215A6411F0BAFF85
:102CC00078480FF023FC6BE742217D4811F0B2FFFA
:102CD00074480FF01BFC63E7D0F838346D4D5B424D
:102CE00007EE903A95ED207AF8EEE77A002377EE3A
:102CF000877AF5EEC07AF1EE10FA40F17F81DFEDD0
:102D0000710AC5ED207A67EEA00AB2EE040A12F04D
:102D1000F7FBB5EE400AF1EE10FAF0EE407A00F162
:102D20007581B1EEE70A684B684907A883ED150A7B
:102D30000FF01EFD95ED200A04A801210FF0F4FD0F
:102D400004A907A80FF0AEFE5A490FF0B3FE46E7FC
:102D5000594B5F494FF07E525A6407A80FF008FDA7
:102D60004C4B93ED200AE7E729215A48494D11F0D1
:102D700061FF4C480FF0CAFB022600214A482E672B
:102D800004F074FC4848314604F0A6FD46489FED27
:102D9000520A04F00BFD0021204685ED1D0AFFF7C5
:102DA000A5FAFDE63B4D00F58763D3ED007A95ED7E
:102DB0001E7A95ED200A3C48F8EEE77A77EE877A9E
:102DC000B8EE087A77EE807AF4EE477AF1EE10FAF0
:102DD000C8BFF0EE477A37EEC00A04F077FF3F49EC
:102DE0002EE73F4800F098FF3E4907A80FF0C0FCCF
:102DF0003D4904A80FF0F6FC04A907A80FF052FE05
:102E0000EDE63721394811F015FF26480FF07EFB1B
:102E10009FED370AFFF7E8FD364907A8B0EE408A74
:102E20000FF0A6FC9FED340A88EE000A12F038FB82
:102E300004A80221F3EE047A20EE270A0FF074FDB5
:102E400004A907A80FF02EFE2C490FF033FEC6E6AA
:102E500027212B480F4D11F0EDFE12480FF056FBC5
:102E60000126002110482E6704F000FC03210E48C3
:102E700004F032FD31460C4803F014FE86E7054CA1
:102E8000DFED207A94ED1F0A20EE270AFFF736FCCB
:102E90001D4994E60417FF1FF52F4B3FDC7A020013
:102EA000B4790200F40CFF1F8C17FF1F347B020063
:102EB000147B020068770200B814FF1F707A0200CA
:102EC0008C7B0200CDCCCC3DC81DFF1FA07A020038
:102ED0004C7A0200207A020000000000FC7A020016
:102EE0000C15FF1F4C7B02002415FF1F8079020088
:102EF00000007A44B8790200F304B53FD0790200AB
:102F0000F87902001845A13FBC7A020000F58763FA
:102F1000D3ED007A3F4DF8EEE77A95ED207A77EE23
:102F2000877A0023F5EEC07AF1EE10FA61D5DFED75
:102F30003A0AC5ED207A67EEA00AB2EE040A12F052
:102F4000DFFAB5EE400AF1EE10FAF0EE407A5AD40C
:102F5000B1EEE70A314B3249E7E603689B689847D0
:102F60001EE62C4D00F23C431FE700F23C43CFE746
:102F700022212C48274E11F05DFE00252A480FF033
:102F8000C5FA29462948356704F070FB0121274816
:102F900004F0A2FC25489FED260A04F007FC294610
:102FA000204686ED1D0AFFF7A1F9F9E5D0F83C347B
:102FB00029E6D0F83C3491E61E4907A80FF0D8FB6B
:102FC0001D4904A80FF00EFC04A907A80FF06AFD24
:102FD000014615480FF06CFA13480FF097FA04A851
:102FE0000FF03AFC07A80FF037FC144801F090F9F5
:102FF000D6E5C5F88030F7EE007AA9E7C5F880304D
:10300000F7EE007A8DE612F0D9FAA3E712F0D6FABD
:1030100089E600BF0417FF1FCDCCCC3DC81DFF1FA4
:10302000847A0200D4790200F40CFF1F8C17FF1F72
:10303000000000006C7B02002415FF1F0C15FF1F11
:1030400008B50446D0F88C040D46FDF73FFCB0B936
:10305000D4F8803413B1DB793BB1FEE7D4F8843483
:103060001BB193F84434002BF7D12B6816495B68E9
:1030700010222846984728460FF048FAEDE71349F2
:103080002846FEF731FED4F88C04FDF71FFC002320
:103090000146102228460FF047FA0D492846FEF750
:1030A00023FED4F88C0460B103689B6B9847C1B2CF
:1030B0000023102228460FF037FA28460FF026FA90
:1030C000CBE70146F4E700BFE07B0200D07B0200C3
:1030D000DC7B02002DE9F04F2DED028BB84FB94E8D
:1030E000B94B3B6085B008238022B848039303A9FD
:1030F0007A60FEF70BFE3346DFF860B343F830BB6F
:10310000DFF85C9333614FF4807333810023F36005
:103110003363D9F80030002B00F046821A465B6911
:10312000002BFBD156610024A94B3360A949AA4862
:1031300074617460B4720FF01BFBA84BDFF824833A
:103140001B6801931A46D8F8003086F82440934251
:10315000F462B46205DAA24A42F823600133C8F887
:103160000030A04B336023219F48A04C11F062FD3A
:103170009F480FF0CBF99F4B3A681A609E4B7A68D4
:1031800090481A6005F058FA9C4A9D498D4814F001
:10319000B1F92346002243F830BB2361D9F800304F
:1031A000E26022634FF480722281002B00F00582DE
:1031B0001A465B69002BFBD154610025844B2360C8
:1031C0008449904865616560A5720FF0D1FA8E4A16
:1031D000E2620122D8F8003084F82420019AA56226
:1031E0009A42E56705DD7E4A42F823400133C8F87C
:1031F0000030DFED867ADFED866AC4ED147A94ED57
:10320000147A97ED008A834B636327EE267A28EEC3
:10321000270A87EE086A804B804AA3634FF0000AB2
:103220007F4BA36400200021C4E91C012260A4F8A4
:1032300044A080EE260A84F878A0C4F880A0794DD6
:10324000C4ED137AC4ED167AC4ED187A84ED146ACD
:1032500012F036FB10EE100A1CF0EEF87A682264C9
:10326000C4E91A01654A7049604884ED0F8A14F078
:1032700041F92B464FF4807243F830BB2B61D9F8EB
:103280000030C5F80CA0C5F830A02A81002B00F052
:1032900091811A465B69002BFBD155614FF0000A02
:1032A0004B4B2B604B496148C5F814A0C5F804A0EE
:1032B00085F80AA00FF05CFA5D4AEA620422D8F8A9
:1032C000003085F82420019AC5F828A09A42C5F854
:1032D00034A0C5F838A0C5F83CA0C5F840A005DD6D
:1032E0003F4A42F823500133C8F800304FF07E5374
:1032F0006B64AB64EB642B654E4B404A2B604E49CC
:103300004848DFF854A114F0F5F82D494B48FEF772
:103310002FFE3A4A4A49494814F0ECF85246002137
:1033200042F830BBCAF81020D9F80020CAF80C10B7
:10333000CAF830104FF48071AAF80810002A00F083
:10334000368111465269002AFBD1C1F814A04FF012
:1033500000091F4B1F49CAF800303A48CAF81490B8
:10336000CAF804908AF80A900FF002FAD8F8002000
:10337000019B3549CAF82C1093424FF00201CAF85C
:103380002890CAF83490CAF838908AF8241005DDDD
:10339000134941F822A00132C8F800202B4A3968AD
:1033A00011602B4A796811604FF00109294ACAF867
:1033B000002029488AF83C9005F07AFC0F4A53E037
:1033C000E415FF1F9016FF1F0080BB478C17FF1FDF
:1033D0004C7C020028780200A816FF1FB082020071
:1033E000641EFF1F70920200F47B0200C81DFF1FC5
:1033F000F40CFF1F3C07FF1F4007FF1F3007FF1F94
:10340000F1040000E01DFF1F441EFF1F000000002C
:10341000A6552C47DB0F4940DB0FC94078930200CB
:103420000000DC43B814FF1FD9040000D014FF1FB4
:10343000EC14FF1FA87E0200C10400000C15FF1F42
:10344000350C0000DC16FF1FF816FF1F4807FF1F92
:103450004C07FF1F6C930200C416FF1F407C020044
:10346000B02AFF1F4420FF1F5549564814F042F868
:1034700055484FF00008C0E90045A0F80880C0F8A2
:103480000C8001F0B5FB5148C0E9005AA0F8088053
:10349000C0F80C8001F0ACFB4D48C0E9005A4FF475
:1034A0008075C0F80C80058101F0A2FB49480660D8
:1034B000494EA0F80880C0F80C80466001F098FBE7
:1034C0004648C0E900460581C0F80C8001F090FB39
:1034D00043494448444D454CFEF708FE444A45499B
:1034E000404814F007F8444B2B60444BC5F81034A7
:1034F000672385F814344146C5F8088405F58360D0
:103500000FF036F93E4B2B600623C5F838344146A0
:10351000C5F82884C5F82C84C5F83084C5F83484EF
:10352000C5F83C94C5F84084C5F84484C5F848847F
:1035300005F24C400FF01CF92D4A3249284613F091
:10354000D9FF314BA366314B23606FF01F036360DB
:1035500078232374252363612D4984F864804A22EB
:10356000E766C4F80C8004F118000FF011FC294A3A
:10357000137823722946637220464B44137002F07D
:10358000DDFC254A2260022224492267244AE167A1
:1035900000236367A367C4F8802084F8848005B0A3
:1035A000BDEC028BBDE8F08FC9F80060BBE5C9F83F
:1035B00000A0CCE6C9F8005070E6C9F80040FCE570
:1035C000A9040000C416FF1F6019FF1F2019FF1F68
:1035D0003019FF1F4019FF1F3015FF1F5019FF1F23
:1035E0008C17FF1FEC15FF1F7019FF1F0417FF1F1B
:1035F0003007FF1F090500004C8802005016FF1F0E
:10360000547E020069050000AC17FF1F908802007D
:10361000007E02003407FF1F907D020000007A4404
:10362000000040C070B58468002104F59266FF2355
:10363000054684F8B83484F8C41430460CF0CEFA49
:10364000C4F88C6430460BF0CBFD40B90123D4F8AC
:103650008C141A4620460AF045FD00B170BDEC6D91
:103660000849AD682046FEF73FFB236806495B68C2
:1036700016222046984720460EF048FF214628464D
:10368000FFF7DEFC187C0200207C0200704700BFC0
:10369000002070472DE9F843002A39D007460D462F
:1036A000164601F0E5F9804690B307F14404043D65
:1036B00054374FF00009012255F8043F7BB1BAB1ED
:1036C000DA685868716894ED000A11F007FD2B68FC
:1036D0005A69DB68F3607261002209F10109043460
:1036E000A742E9D1404601F009FA4846BDE8F8830F
:1036F000DA68D8F80410586894ED000A11F0EEFC6E
:103700007268F368D8F80410104611F093FDE3E7EF
:103710004FF0FF39E9E700BF2DE9F84307460024E1
:103720002146384601F03EFA054620B90134042C02
:10373000F6D1BDE8F8834168EA6807EB840393EDAE
:10374000110A084611F0CAFC032C04F1010827D025
:10375000123407EB84044146384601F015FA08F1AB
:1037600001080646B8B101F083F994ED000AC26879
:1037700041688146706811F0B1FC6A68D9F80C3074
:10378000D9F80410104611F055FD484601F0B6F97D
:10379000304601F0B3F9B8F1040F04F10404DAD1B2
:1037A00038462946002201F0CBF92846BDE8F84307
:1037B00001F0A4B90429A8BF04210129836EB8BF70
:1037C0000121416103B1D966084670470368DB6B8C
:1037D000184700BF0346743853F8743CDB6B184736
:1037E00003685B6C184700BF2DE9F0434269002A6B
:1037F00087B0054630DD002400F12408264602AFDC
:103800002146404601F0C0F96A6947F824000028C3
:1038100004F1010418BF0126A242F1DC56B1002ACE
:103820001ADD00243E46A14656F8041BF9B10134C6
:10383000A242F9DCAB68012B12D0002A09DD00247A
:1038400057F8040B013410B101F058F96A69A2422B
:10385000F6DC07B0BDE8F083AB68012BF9D102AF0D
:103860002B6839465B6A284698476A69E5E7019103
:1038700001F0FEF80199804608B96A69D7E7C26885
:10388000002A4FEA820202DD40681EF0FBF8C8F809
:1038900014906A6946F8048CC9E700BFA0F12400BF
:1038A000FFF7A2BF70B50C468EB000297AD03F4911
:1038B0000BA815460EF07AFF20460BA903F07EFBFD
:1038C00004460BA80EF0C8FF002C6BD0384905A8A1
:1038D0000EF04EFF294602A80EF084FF354902A8DB
:1038E0000FF0E8F8014608A80EF07CFF06263249E2
:1038F0000BA80EF03DFF0BAB08AA05A900962046C9
:1039000003F0C6FA0BA80EF0A7FF08A80EF0A4FF5C
:1039100002A80EF0A1FF05A80EF09EFF274905A8FA
:103920000EF026FF294602A80EF05CFF244902A8EB
:103930000FF0C0F8014608A80EF054FF21490BA86B
:103940000EF016FF0BAB08AA05A90096204603F05F
:103950009FFA0BA80EF080FF08A80EF07DFF02A8CA
:103960000EF07AFF05A80EF077FF164905A80EF0B5
:10397000FFFE144908A80EF0FBFE13490BA80EF039
:10398000F7FE0C2308AA05A9009320460BAB03F011
:103990007FFA0BA80EF060FF08A80EF05DFF05A8E7
:1039A0000EF05AFF20460EB070BD00BFB07E020080
:1039B0004C7302003CAE0200C87E02006C73020031
:1039C000C0800200C0940200D47E020030B50C46D4
:1039D00085B091B10A49054601A80EF0C9FE2046FE
:1039E00001A903F067FB044601A80EF035FF24B1DE
:1039F0002B6821465B6B28469847204605B030BDB2
:103A0000DC7E02002DE9F0418668436F86B0012E0E
:103A1000044603AD2DD02249DE6C00F17407284620
:103A20000EF0A6FE3846012300222946B04728465C
:103A30000EF012FF636F1B49D3F8508028460EF03A
:103A400097FE2368184A9B68934223D16E4604F17F
:103A5000180130460EF0C6FE324629463846C047A9
:103A600030460EF0F9FE28460EF0F6FE06B0BDE830
:103A7000F08100F174070A49D3F84C8028460EF013
:103A800077FE3846334632462946C04728460EF070
:103A9000E3FECFE76E46214630469847DCE700BF9D
:103AA000C87E0200D47E020051050000034674382F
:103AB00053F8743C5B6C1847F0B5426F034692694B
:103AC0000E461E49044653F8740B8A42876B8DB02C
:103AD0002ED11B4B06A819780EF0A0FE06A903A84C
:103AE0000EF080FE94F87C1009A80EF097FE09A94C
:103AF00003A80EF0D7FF94F884100EF0E9FF6D468E
:103B0000014628460EF06EFE09A80EF0A5FE03A899
:103B10000EF0A2FE06A80EF09FFE2A463146204671
:103B2000B847044628460EF097FE20460DB0F0BD7B
:103B30006D46194628469047EFE700BFA9050000EB
:103B40003507FF1F30B5436F274A9B6993428DB0FD
:103B500043D1264B0446197806A80EF05FFE09AD46
:103B600006A903A80EF03EFE94F87C1028460EF03D
:103B700055FE294603A80EF095FF94F884100EF028
:103B8000A7FF6C46014620460EF02CFE28460EF09C
:103B900063FE03A80EF060FE06A80EF05DFE144959
:103BA00028460EF003FE214628460EF07BFF014614
:103BB00010480EF07DFC0F480EF0A8FC28460EF0D1
:103BC0004BFE22210C4811F035F80A480EF09EFCFD
:103BD00020460EF041FE0DB030BD6C4600F1740180
:103BE0002046984709ADDAE7A90500003507FF1F11
:103BF000EC7E0200F40CFF1F087F0200A0F17400AD
:103C0000FFF7A0BF2DE9F84F2DED028B161E00AF78
:103C1000E9464BD006F1070323F00703ADEB030D94
:103C2000EE4643DD0C1F4FF00008824608EE10EA16
:103C3000B20004EB8605EC462146C346012009E0AC
:103C4000A9428CF80000D3F80C800BF1010B0CF1A9
:103C5000010C09D051F8043F002BF1D1A9428CF896
:103C600000300CF1010CF5D1BBF1000F1ED0B345B3
:103C700022DBD31D23F00703ADEB030DEB46002140
:103C800058461DF0FFFE5B4654F8042F0AB15268F7
:103C90001A60AC4203F10403F6D1DAF8680028B1E7
:103CA00002683346946B59464246A047CD46BD460E
:103CB000BDEC028BBDE8F88F2B211348DFF84C8058
:103CC0000EF1FF3410F0B6FF594610480EF016FC06
:103CD00004210F4810F0AEFF31460C480EF00EFCE8
:103CE0000C480B2110F0A6FF18EE103A751E1D446B
:103CF00014F8011F40460EF001FCA542F8D103481C
:103D00000EF004FCD2E700BF2C7F0200F40CFF1F72
:103D1000A4820200587F02002DE9F04F87687B1CC7
:103D200093B005466FD0002F5CD12C6940F2E5338B
:103D30009C4253DC394EDFF8ECA0DFF8EC906FF0DA
:103D400063080DE063466A4604A8CDF810C008F089
:103D50000DF800283CD02C6940F2E5339C423DDC54
:103D600096E80F00EE46AEE8070001348AFB04CB6C
:103D7000E217C2EB6B1208FB02F021188EF800303C
:103D80003032AB6E8DF8052089FB012ECA17C2EBCD
:103D9000AE026FF009019B682C6101FB02440444F0
:103DA000D3F88014303230344FF0000C8DF80620F8
:103DB0008DF807400029C5D1D3F884240B463AB1C9
:103DC000109104A811466A4606F088F90028C2D16D
:103DD0002B6869465B69284698470746384613B002
:103DE000BDE8F08FEC6E9CB123680D495B6834220E
:103DF0002046984720460EF089FB4FF0FF373846A3
:103E000013B0BDE8F08F0368DB689847AF688AE7B6
:103E10004FF0FF37384613B0BDE8F08F9C7F0200AB
:103E2000647F02001F85EB51676666662DE9F04FDF
:103E30008668731C93B005460F4600F0E980002E9B
:103E400040F0ED80D5F86880B8F1000F00F0FD80FB
:103E5000D8F80830D3F88014002900F00B8104ACA6
:103E600033463A462046049607F080FF002840F08B
:103E7000108172B69F4B196831B140F202633A4625
:103E800008F114000AF01EF862B6D8F84CB0BBF185
:103E9000000F00F0D580D8ED1A7A974C9749D8F8E2
:103EA0006CA0FDEEE77A4FF0010388F86030042241
:103EB000D8F864300193204617EE909A0EF068FF10
:103EC0008F49042204F108000EF062FF8D4904229C
:103ED00004F10C000EF05CFF8B49042204F1240075
:103EE0000EF056FF4FF0000C4FF0010384F811C0A4
:103EF00084F812C084F813C084F815C084F823C075
:103F00004FF0100C237584F810C0019B84F822C078
:103F1000C9F3072C4FEA490084F819C0C9F3074CCC
:103F20004FEA4A015A4284F81AC0B2FBF1F2C0F3D8
:103F3000072C0AFB02F25200207784F81DC0C0F360
:103F4000074C000E84F82010E077C1F30721C2F37C
:103F5000072084F8211084F8282002F1240184F835
:103F60002900C2F30740120E84F82B20C1F3072268
:103F700084F816A084F81890CAF3072A21714FEA32
:103F800019696271C1F30742090E84F817A084F819
:103F90001B9084F81EC084F82A00A271E171BBF165
:103FA000000F00F089801A462146584608F016FB9B
:103FB000E86E90B1036855495B6816229847EC6E2D
:103FC00047B138461EF0FCF8236802465B68394664
:103FD0002046984720460EF099FAAB6E0022DA6729
:103FE0009A674B4B1B680393039B2B670122AA60C4
:103FF000394604A80EF0BCFB04A905F118000EF028
:10400000B7FC04A80EF028FC304613B0BDE8F08FD2
:104010000368DB689847AE68002E3FF413AFEC6E80
:1040200044B123683B495B683422204698472046C8
:104030000EF06CFA4FF0FF36304613B0BDE8F08F4B
:10404000D8F85030002B7FF426AFE86E0028F1D06E
:10405000036831495B6825229847EC6E002FE6D053
:1040600038461EF0ADF8236802465B6839462046A4
:104070009847DCE7D3F8841400293FF4FAAE04AC87
:1040800033463A462046109606F028F800283FF4BA
:10409000F0AED8F80830D3F88014B9B100230493F7
:1040A0003A460123204607F061FE00283FF4E1AEC6
:1040B000204608F015FFDCE6D8F8500000283FF451
:1040C00077AF1A46214606F0FBFB71E7D3F884343C
:1040D000002B3FF4CEAE10913A46194620460123FC
:1040E00005F0FCFF00283FF4C4AE204606F05AF865
:1040F000BFE600BFFC24FF1F8814FF1F747302007B
:104100007C730200847302008C730200AC7F020097
:10411000382BFF1F647F0200C47F020038B50546BC
:104120000C4649B108461EF04BF82B680246214662
:104130005B6828469847044628460EF0E7F9204475
:1041400038BD00BF90F860302DE9F047054643B90F
:1041500005F1140009F0A2FE002085F86000BDE81A
:10416000F087C06C002800F09580C7690021B84630
:1041700008F062F8D5ED1A7A504C5149D5F86CA088
:10418000D5F86490FDEEE77A0422204617EE906A97
:104190000EF0FEFD4B49042204F108000EF0F8FD7C
:1041A0004949042204F10C000EF0F2FD47490422B3
:1041B00004F124000EF0ECFD4FF0000C84F811C067
:1041C00084F812C084F813C084F815C084F823C0A2
:1041D0004FF0100C84F810C084F822C04FF0010C8E
:1041E00084F814C0C6F3072C7100267684F819C031
:1041F000C6F3074C360E4FEA4A02A7EB0903E676F0
:10420000B3FBF2F3C1F307260AFB03F35B0021774C
:104210006677C1F30746090E84F82020E177C2F3E0
:104220000722C3F3072184F8212084F8283003F102
:10423000240284F82910C3F307411B0E84F82B30A5
:10424000E86C84F816A0C2F30723CAF3072A227188
:104250006371C2F30743120E84F817A084F81AC0E2
:10426000A67784F82A10A371E27150B14A4621461C
:1042700008F0B4F9EB6CB3B13946184607F0DCFF2F
:1042800066E7286D00283FF463AF4A46214606F0F2
:1042900017FBEFE7286D70B107690022002305F0D6
:1042A0007BFCB84666E7286D00283FF451AF4246D4
:1042B00005F072FC4CE7804607465BE78814FF1F59
:1042C000747302007C730200847302008C7302001A
:1042D00010B5002384B00446836062B6806E08B1D6
:1042E000FFF730FF094901A80EF042FA01A904F1D5
:1042F00018000EF03DFB01A80EF0AEFAA36E13B14C
:104300000022DA679A6704B010BD00BF1878020077
:1043100072B68368012B00D07047FFF7D9BF00BF8A
:1043200003680F4A9B69934210B5044613D172B6D5
:104330008368012B11D06368D3F88C040022C3F882
:104340008024C3F8842410B103689B6898474FF019
:10435000FF33A36010BD9847EDE7FFF7B9FFEAE729
:10436000114300002DE9F8431E46036890469B69FF
:10437000484A934205460F4663D172B68368012BC3
:1043800061D0AC6EEF602CB1B4FA84F040094042C9
:10439000BDE8F8836C68002C58D094200EF078FEAD
:1043A0003D4B036000273D4BC360044647600761F7
:1043B000C764076580F85470D5F804900FF03AF997
:1043C000374B23600223C4F88030364BC4F8843066
:1043D000002EC4F88830344BA366B8BF03362C23B4
:1043E0006366B6106B69E3667600089BA065022ED3
:1043F000B8BF0226002BC4F8089084F86070C4F897
:104400005C806767A767E767C4F890702667AC664B
:10441000BADB26489842A8BF184640100428B8BF07
:104420000420C4F8840040000EF034FE00236067CE
:10443000E367A367AC6EB4FA84F040094042BDE87C
:10444000F88398479DE7FFF743FF9AE74FF4996099
:104450000EF01EFE4FF49962074621461DF012FB36
:10446000134BC7F89034134BC7F8A434292387F8AB
:10447000A934114BC7F88044C7F8844487F898449E
:1044800087F8AD4487F8B44487F8C4446F60C7F830
:104490009C3482E711430000DC7C0200907E020025
:1044A0001C7D0200F824010000442C47F049020062
:1044B0008095020003200038109502002DE9F04F8E
:1044C0008668731C93B0044600F0B280002E40F062
:1044D0009E805F4DDFF884815E4FDFF88491B446A3
:1044E00037E00DF1100A002301466A465046049356
:1044F00007F03CFC38B3E06EB0B1036818225B688B
:1045000049469847D4F86CB0BBF1000F0CD0684610
:104510001DF056FEDBF8003002465B6869465846DF
:10452000984758460DF0F2FFA36E9B68D3F88014AD
:10453000002950D0002304936A460123504607F017
:1045400015FC00287FD1D4F810C040F2E5339C451B
:1045500057DC95E80F00EE46AEE807000CF1010CC1
:1045600088FB0C214FEAEC72C2EB61128EF800302E
:104570006FF0630303FB02F10CEB010302F1300067
:1045800087FB03E2DB17C3EBA2038DF80500A06EE7
:10459000C4F810C003F13002D0F808E08DF806200E
:1045A0006FF0090202FB03C20A44DEF880043032D5
:1045B0008DF80720002894D1DEF884140029C4D097
:1045C0000DF1100A109003466A46504605F086FD2C
:1045D000002890D1B7E7D3F88434002BB3D01091E2
:1045E0006A4619465046012305F078FD0028AAD0F6
:1045F000504605F0D7FDD4F810C040F2E5339C4595
:10460000A7DD00233046236113B0BDE8F08FE46ED0
:104610009CB1236810495B683422204698472046A5
:104620000DF074FF4FF0FF36304613B0BDE8F08F49
:104630000368DB689847A66848E74FF0FF363046C6
:1046400013B0BDE8F08F504608F04AFC7BE700BF8E
:104650009C7F020067666666088002001F85EB513A
:10466000EC7F020090F87C208A4209D1722B10B5B1
:10467000044632D0732B05D0642B1AD0002010BD15
:10468000002070472721224810F0D4FA21480DF06D
:104690003DFF2368204A9B6993422AD172B6A368E2
:1046A000012B30D0236820465B6C00219847012005
:1046B00010BD2D21194810F0BDFA16480DF026FF47
:1046C0002368154A9B69934216D172B6A368012BE1
:1046D00015D02046FFF7F2FEE4E72821104810F03D
:1046E000A9FA0C480DF012FF236820461B69984771
:1046F000D8E720469847D5E720469847E9E720467F
:10470000FFF7E6FDE5E72046FFF7E2FDCAE700BF59
:104710006C800200F40CFF1F114300009480020023
:1047200040800200A0F17400FFF79CBF2DE9F84320
:1047300004462DED028B0EF07DFFA66E002E00F0DC
:10474000998033680546DB6B3046984706460EF085
:1047500071FF002EA0EB050440F38780494F4A4DBE
:104760003A682B68B242B8BF324642F21071A34297
:10477000B8BF23468C423A602B6076D9DFF820918F
:10478000DFF82081D9F8001040489FED418A91421E
:10479000B8BF1146D8F80020C9F800109A42B8BF37
:1047A0001A461B21C8F8002010F044FA3146394857
:1047B0000DF0A4FE0221384810F03CFA3968354863
:1047C0000DF09CFE0221344810F034FAD9F80010A4
:1047D00030480DF093FE02212F4810F02BFA0C21E7
:1047E0002E4810F027FA07EE904AF8EE677AC7EEE7
:1047F000887A17EE900A1AF071F941EC100B01213A
:1048000024480DF09DFE0221234810F013FAD5ED47
:10481000007AF8EEE77AC7EE887A17EE900A1AF077
:104820005DF941EC100B01211A480DF089FE0221BF
:10483000194810F0FFF9D8ED007AF8EEE77AC7EEE4
:10484000887A17EE900A1AF049F941EC100B012111
:1048500010480DF075FE02210F4810F0EBF90D48DD
:104860000DF054FE00233B602B60BDEC028B304604
:10487000BDE8F8830EF0DEFEBDEC028B3046BDE8ED
:10488000F88300BF581EFF1F541EFF1FC480020084
:1048900000007A44F40CFF1FDC770200E080020085
:1048A000601EFF1F5C1EFF1F10B5194C2DED028B03
:1048B000236882B0A3B1174B026F1B680193019B61
:1048C000DFED156A9FED157A9B1A07EE903AF8EE28
:1048D000677A87EEA68AB4EEC78AF1EE10FA05DC95
:1048E0000023236002B0BDEC028B10BD35210C48C3
:1048F00010F0A0F918EE100A1AF0F0F841EC100BC5
:10490000022108480DF01CFE06480DF0FFFDE7E708
:10491000AC20FF1F382BFF1F00007A44CDCCCC3DCC
:10492000F0800200F40CFF1F70B505460E46FFF73D
:10493000FDFE041E03DD31462846FFF7B5FF204685
:1049400070BD00BFF8B583685A1C00D0F8BD856EF5
:104950000446EDB12A68184992698A4229D1AE68A5
:10496000002106F5926786F8B83486F8C4143846F4
:104970000BF034F9C6F88C7438460AF031FC50B9A3
:104980000123D6F88C141A46304609F0ABFB10B15F
:104990000023A360F8BDEC6D0849AD682046FDF723
:1049A000A3F907492046FFF7B9FB21462846FEF741
:1049B00047FB28469047EBE725360000187C0200AD
:1049C000207C0200D0ED007ADFED0D6A90ED017AD7
:1049D0000C4BDFED0D5A1B8886EEA76AB8EEC77A3E
:1049E000DFED0A6A27EE067A07EE903A87EE260A8E
:1049F000F8EEE77A77EEA57A87EE800A704700BF77
:104A000050A92B4BB42AFF1F000000000000C84231
:104A1000D0ED007ADFED0D6A90ED017A0C4BDFED01
:104A20000D5A1B8886EEA76AB8EEC77ADFED0A6AD0
:104A300027EE067A07EE903A87EE260AF8EEE77A36
:104A400077EEA57A87EE800A704700BF50A92B4BFE
:104A5000B82AFF1F000000000000C84210B504463D
:104A6000006818B1A168091A0EF018FB204610BDA5
:104A700072B61E4B186820B9586808B32022043358
:104A800000E00022B0FA80FC4FF0004121FA0CF166
:104A900020EA0100164918600B780133DBB20B7075
:104AA00062B614491F3208681349A2EB0C0250F891
:104AB0002200012202700A789A4238BF0B707047B8
:104AC000986840B9D86848B9186950B9586958B158
:104AD000A0221433D6E740220833D3E760220C33F8
:104AE000D0E780221033CDE762B670475C20FF1F0D
:104AF0005820FF1F4C20FF1F5A20FF1F38B142785B
:104B000072B60378012B03D9013B037062B670477C
:104B10004FEA521C08480949D24302F01F024FF0E5
:104B20000043D34050F82C2013430A7840F82C302F
:104B3000531E0B70EAE700BF5C20FF1F5820FF1FC9
:104B4000836A13B91DE0DB68E3B1187A9042FAD1A9
:104B500010B4586893F809C0C06A50F82C4054B19A
:104B6000DB682BB1187A9042F3D0DB68002BF9D1C7
:104B70005DF8044B704740F82C100878013008703D
:104B8000EEE77047704700BF90F824308B4206D99B
:104B9000C36A002253F8210043F821207047002007
:104BA000704700BF38B590F824308B421DD9C36AD6
:104BB00053F82140002243F82120B4B12378012B7F
:104BC00001D8204638BDFFF753FF054628B182685B
:104BD0006168406892000EF0DBF863696B612378CE
:104BE000013B23702C46204638BD0024204638BDAA
:104BF0004368427A93F824309A420DD872B601681D
:104C00008B6A53B11A46DB68002BFBD1D060426837
:104C100001230B72137262B670478862F7E700BF18
:104C20002DE9F84FD0E900890F4692466FF06041B8
:104C3000A9EB0802B1EBA20F58D09310012B1A4632
:104C400038BF01229C1806464CD2A7EB0805A346A4
:104C5000002C3DD1DAF800304BF80530002D26DC71
:104C6000A9EB07090435B9F1000F5D4415DC4D448B
:104C7000B8F1000F05D1C6F800B07560B460BDE8AA
:104C8000F88FB168A1EB080140460EF007FAC6F8AC
:104C900000B07560B460BDE8F88F284639464A46D2
:104CA0000EF076F84D44B8F1000FE4D0E9E72A465B
:104CB000A9EB0709414658461CF068FE0435B9F1D6
:104CC000000F5D44E9DCB1684D44A1EB0801DBE76E
:104CD0008C4228BF0C46A40020460EF0D9F983462A
:104CE0000444B7E7034CA7EB0805F5E7024812F0C8
:104CF0002FFC00BFFCFFFF7F20820200002800F095
:104D0000B8802DE9F04F00245A4EDFF87CB18BB00B
:104D100089460746A0460BE052F82450D9F80430E3
:104D2000AA689A424FEA840A40DA0134A74237D08F
:104D3000D6E900239B1AB4EBA30FEDD318200EF095
:104D4000A7F9D9F80430802105468B426FF0604204
:104D50001846B8BF08469342A860E960B4BF800017
:104D60004FF0FF30C5F810B00EF094F97168B368D9
:104D7000D9F800C0D9F80420EA6099426860C5F803
:104D800010C007956FD041F8045B716051F8043C86
:104D90005B68002BC9D10134A74208F10108C7D1D3
:104DA000B8F1000F2FD10BB0BDE8F08F686810B1DB
:104DB00004210EF073F9284618210EF06FF918201F
:104DC0000EF066F98023C360D9F80430C0F810B043
:104DD0000546802B6FF060421846B8BF8020934292
:104DE000A8600DDA80000EF055F9D9F800302B617B
:104DF0003368D9F804206860EA6043F80A5094E701
:104E00004FF0FF30EFE71C4904A80DF0B1FC0A2277
:104E1000414601A80DF05CFD01A904A80DF042FE79
:104E200016490DF047FE0A220446394607A80DF040
:104E300065FD07A920460DF035FE11490DF03AFE3B
:104E4000014610480DF034FB0E480DF05FFB07A83B
:104E50000DF002FD01A80DF0FFFC04A80DF0FCFC14
:104E60000BB0BDE8F08F07AA3046FFF7D9FE716896
:104E70008CE770474C20FF1F3C82020088820200B2
:104E8000AC820200F40CFF1FA6552C47C02870B559
:104E90000546064628BFC02572B6154C2846FFF7C2
:104EA0002DFF002121606160A160E16021616161ED
:104EB000DEB10A468C46012001E054F82C1002F0C5
:104EC0001F0300FA03F301320B43954244F82C30E0
:104ED0004FEA521CF1D8074A12680023043A52F8EC
:104EE000041F4B7001339D42F9D862B670BD00BFFC
:104EF0005C20FF1F4C20FF1F002801DBFFF7C6BF0F
:104F0000704700BF0448054A054900230360436019
:104F1000836012F0EFBA00BF4C20FF1F3007FF1F65
:104F20005D4A00002DE9F04105468AB02349244E30
:104F300004A80DF01DFC2946A8690DF0B9FAA8696E
:104F40000368DB68984733680193019F05F10C08FB
:104F500017E0A86903681B69984700280ADDA8695B
:104F600003685B699847C1B204A80DF08BFD3368F4
:104F70000293029F33680393AB6A039A3B449342C4
:104F800018D3414604A80DF0DDFD01280446E0D108
:104F90000C4907A80DF0ECFB07A904A80DF0BEFD15
:104FA00007A80DF059FC04A80DF056FC20460AB0E5
:104FB000BDE8F0814FF0FF34F5E700BFC094020078
:104FC000382BFF1FB48202002DE9F04F3D4EDFF871
:104FD00004918FB004460D4605A83B490DF0C8FB6F
:104FE00033680393002DD8BFA56A039B364904F1AB
:104FF0001C0840461D4404F10C070DF0CFFC17E0DF
:10500000A06903681B69984700280CDDA069036844
:105010005B699847C1B205A801910DF033FD019974
:1050200040460DF02FFD394605A80DF08BFD68B9FF
:1050300033680493049BAB42E2D34FF0FF3A05A8D8
:105040000DF00AFC50460FB0BDE8F08F05A80DF03A
:1050500007FE494608A80DF08BFB08A905A80DF02E
:105060005DFD28B108A80DF0F7FB4FF0010AE6E757
:1050700016490BA80DF07CFB0BA905A80DF04EFD01
:1050800082460BA8BAF1000F18D10DF0E5FB08A875
:105090000DF0E2FB0E490BA80DF06AFB0BA905A869
:1050A0000DF03CFD83460BA80DF0D6FBBBF1000FC5
:1050B000C5D1054905A80DF071FCB9E70BA80DF0A5
:1050C000CBFBCFE7382BFF1FC0940200BC8202004D
:1050D000C4820200B882020030B587B00446019154
:1050E000FFF720FF0199A56903A80DF07BFB21467E
:1050F00003A80DF0D7FC014628460DF0D9F903A806
:105100000DF0AAFBA0690368DB6898474FF0FF31F8
:10511000204607B0BDE83040FFF756BF30B58BB032
:10512000044601AD01B3134928460DF021FB124995
:1051300004A80DF01DFB294604A80DF0B3FC0146A0
:1051400007A80DF04FFB07A92046FFF7C5FF04464F
:1051500007A80DF081FB04A80DF07EFB28460DF09A
:105160007BFB20460BB030BD044928460DF000FB08
:10517000DDE700BFCC820200D0820200108F020067
:1051800030B58BB0044601AD01B3134928460DF08C
:10519000EFFA124904A80DF0EBFA294604A80DF025
:1051A00081FC014607A80DF01DFB07A92046FFF76B
:1051B00093FF044607A80DF04FFB04A80DF04CFB2D
:1051C00028460DF049FB20460BB030BD0449284667
:1051D0000DF0CEFADDE700BFCC820200E0820200D3
:1051E000108F020030B58BB0054601AC31B31649C3
:1051F00020460DF0BDFA154904A80DF0B9FA214674
:1052000004A80DF04FFC12490DF054FC21460DF09E
:1052100049FC014607A80DF0E5FA07A92846FFF763
:105220005BFF054607A80DF017FB04A80DF014FB63
:1052300020460DF011FB28460BB030BD0549204635
:105240000DF096FAD7E700BFCC820200F082020090
:1052500010AA0200108F020030B5C36A052B8BB074
:1052600004460D462EDD036B0D2B03DC0024204687
:105270000BB030BD204904A80DF07AFA0A22216B48
:1052800001A80DF025FB01A904A80DF00BFC1B499A
:105290000DF010FC29460DF005FC014607A80DF0A5
:1052A000A1FA07A92046FFF717FF044607A80DF04B
:1052B000D3FA01A80DF0D0FA04A80DF0CDFA2046DB
:1052C0000BB030BD0C4904A80DF052FA294604A8D1
:1052D0000DF0E8FB014607A80DF084FA07A9204667
:1052E000FFF7FAFE044607A80DF0B6FA04A80DF081
:1052F000B3FA20460BB030BDFC82020010AA0200B7
:1053000070B584B00E460446144901A80DF030FA79
:1053100001A92046FFF7E0FE054601A80DF09CFA22
:1053200016B9284604B070BD18210D480FF082FC54
:1053300004F11C0101A80DF055FA01A909480DF06E
:10534000B7F801A80DF088FAE36A062BE9DD0548F5
:105350000DF0DCF8284604B070BD00BF04830200E5
:105360000C830200F40CFF1F70B584B00E46044697
:10537000144901A80DF0FCF901A92046FFF7ACFE85
:10538000054601A80DF068FA16B9284604B070BDAC
:1053900019210D480FF04EFC04F11C0101A80DF07D
:1053A00021FA01A909480DF083F801A80DF054FA7B
:1053B000E36A062BE9DD05480DF0A8F8284604B09D
:1053C00070BD00BF2883020030830200F40CFF1F71
:1053D000704700BF90F808C08C4503D10268194699
:1053E000936D18470020704770B50368304A9B6979
:1053F00093428CB0054655D12E4B06A819780DF076
:105400000DFA09AC06A903A80DF0ECF9297A20469B
:105410000DF004FA214603A80DF044FB297C0DF0A1
:1054200057FB6E46014630460DF0DCF920460DF084
:1054300013FA03A80DF010FA06A80DF00DFA1E4994
:1054400020460DF0B3F9314620460DF02BFB014606
:105450001A480DF02DF819480DF058F820460DF0B7
:10546000FBF91E2116480FF0E5FB14480DF04EF82D
:105470002D2114480FF0DEFB10480DF047F83F21B6
:1054800011480FF0D7FB0D480DF040F82B210F48C5
:105490000FF0D0FB09480DF039F830460DF0DCF97B
:1054A0000CB070BD6E4601463046984709ACC6E761
:1054B000A90500003507FF1F4C830200F40CFF1FF5
:1054C0005C8302007C830200AC830200EC83020058
:1054D000762977D8602910B5044611D96139152984
:1054E0000CD8DFE801F0320B0B400B0B0B0B0B0B56
:1054F0000B0B0B0B0B0B0B0B530B0B24002010BDDA
:10550000412951D04429F9D12D212F480FF092FB88
:105510002E480CF0FBFFD4F89030062B4FF0000122
:1055200004F164002EDCFFF72BFE012010BD3021BA
:1055300027480FF07FFB25480CF0E8FF012104F11C
:105540006400FFF711FF012010BD222121480FF058
:1055500071FB1E480CF0DAFF012104F16400FFF733
:10556000DDFD012010BD2A211B480FF063FB174809
:105570000CF0CCFFD4F89030062B4FF0010104F171
:105580006400D0DDFFF72EFE012010BD212113485D
:105590000FF050FB0D480CF0B9FF012104F164003D
:1055A000FFF7AEFE012010BD25210D480FF042FB94
:1055B00006480CF0ABFF002104F16400FFF7AEFDDC
:1055C000012010BD0020704790840200F40CFF1FE2
:1055D000E48402001884020064840200C084020093
:1055E0003C8402002DE9F0439BB0804608A80DF0F2
:1055F000F9F800210BA80DF0BBF87F490BA80DF0BE
:10560000CDF9FF210BA80DF03DFA0A9B43F6FE727F
:10561000934200F2C78048F2010444EA4304C4F311
:1056200007210BA80DF02EFAE1B20BA80DF02AFA13
:1056300006210BA80DF0A6FA03780D2B05D0062144
:105640000BA80DF09FFA0378A3B920210DEB010000
:105650000DF018FA0A9B052148F201040BA844EA50
:1056600043040DF08FFA2312037006210BA80DF0EE
:1056700089FA047000210BA80DF07AFA0121079035
:105680000BA80DF075FA022106900BA80DF070FA28
:10569000032104460BA80DF06BFA042105460BA864
:1056A0000DF066FA052106460BA80DF061FA0621F9
:1056B00007460BA80DF05CFA069B079A4F49049029
:1056C0008DE8F00014A81CF00DF80BA911A80DF03E
:1056D00089F811A94046FFF7BFFD044611A80DF057
:1056E000BBF8012C67D0D8F82C30062B03DDD8F896
:1056F0003030002B63DC0A9C07EE104AB8EE470AF4
:10570000F3EE037A80EE270A10F092F8FDEEC07AED
:1057100017EE909AB9F1000F6CDD002427460EAD0C
:1057200064F00F01C9B228460DF078F804EBC4020A
:1057300004EB420202F1130308A911A80DF04AFA82
:1057400011A928460DF08CF911A80DF085F829460D
:1057500011A80DF047F811A94046FFF77DFD064658
:1057600011A80DF079F8012E0ABF109B4FF0FF33FE
:1057700003F1FF3304201F4401340DF07DFF284660
:105780000DF06AF84C45CBD10A9CA74218BF002403
:105790000BA80DF061F808A80DF05EF820461BB0CC
:1057A000BDE8F083252116480FF044FA15480CF0A7
:1057B000ADFE0024ECE70D9B072B9CD093E70EADCC
:1057C000114911A80CF0D4FF0BA928460DF00AF8D6
:1057D000294611A80DF066F901460A480CF068FE4A
:1057E00008480CF093FE28460DF036F811A80DF08D
:1057F00033F880E70027C8E71885020048850200D3
:1058000020850200F40CFF1F6C850200002B11DDC7
:105810008446043A081D00B5844402EB830E5CF80C
:10582000041F42F8041F7245F9D1013B00EB8300CD
:105830005DF804FB08467047002B0FDD844601F13C
:10584000080010B5844402EB83045CF804EB42F8D2
:1058500004EBA242F9D101EB830010BD084670476A
:1058600038B5D0F83024D0F82C349A4210D0054600
:10587000002453F82400013430B103681B689847B2
:10588000D5F82C34D5F83024D11AB4EBA10FF0D3CD
:1058900038BD00BF2DE9F843D0F82CC4D0F830E46F
:1058A000E64519D006460F469046994600245CF816
:1058B00024504B464246394628463DB12D68AD68D6
:1058C000A84750B9D6F82CC4D6F830E40134AEEB72
:1058D0000C03B4EBA30FEAD30020BDE8F88300BFAC
:1058E000D0F82C34D0F830249A4214D070B5054644
:1058F0000E46002453F82400013438B103683146C1
:10590000DB689847D5F82C34D5F83024D01AB4EB9E
:10591000A00FEFD370BD70472DE9F041D0F82C34C3
:10592000D0F830549D421DD0104F064688460024C2
:1059300004E00134EA1AB4EBA20F13D253F82400A6
:105940000028F6D002685268BA42F2D04146904729
:1059500048B9D6F82C34D6F830540134EA1AB4EBEE
:10596000A20FEBD30020BDE8F08100BF6904000066
:1059700070B586B00E460446194903A815460CF0CA
:10598000F7FE314603A80DF08DF816490DF092F898
:1059900029460DF087F8014668460CF023FF03A85E
:1059A0000CF05AFF104903A80CF0E2FE694603A868
:1059B0000DF078F801460D480CF07AFD0B480CF01C
:1059C000A5FD03A80CF048FFD4F8100410B16946F7
:1059D000FFF708FE68460CF03FFF06B070BD00BF41
:1059E00000860200088602000C860200F40CFF1FED
:1059F00030B5D0F8202485B0044642B900F583655F
:105A00000021284605B0BDE830400DF00DB90E4923
:105A100001A804F583650CF0ABFE294601A80DF042
:105A200041F8014609480CF043FD08480CF06EFDB2
:105A300001A80CF011FFD4F8100410B12946FFF7AB
:105A4000D1FDD4F82024DBE70C860200F40CFF1F04
:105A5000F0B587B0174604460E46684600211D463D
:105A60000CF086FE07B31D4903A80CF081FE3146F9
:105A700003A80DF017F81A490DF01CF80146684606
:105A80000CF0EEFF03A80CF0E7FE694604F5836016
:105A90000CF0E6FF95B1236820469B69984768465D
:105AA0000CF0DAFE07B0F0BD0C4903A80CF060FE64
:105AB000314603A80CF0F6FF0A49DDE71C210A482D
:105AC0000FF0B8F8694609480CF0F2FC07480CF0F2
:105AD0001DFD68460CF0C0FE07B0F0BD2C8602002C
