:1000000000000320D1010000798D0100358D010031
:10001000358D0100358D0100358D0100358D0100D4
:10002000358D0100358D0100358D0100798D010080
:10003000798D0100358D01000DA5010011A501008C
:10004000798D0100798D0100798D0100798D010094
:10005000798D0100798D0100798D0100798D010084
:10006000798D0100798D0100798D0100798D010074
:10007000798D0100798D0100798D0100798D010064
:10008000798D0100798D0100798D0100798D010054
:10009000798D0100798D0100798D0100798D010044
:1000A000ADA30000B9A30000798D0100798D010096
:1000B000798D0100798D0100798D010045BC010029
:1000C000798D0100798D0100798D0100798D010014
:1000D000798D0100798D0100798D0100798D010004
:1000E000798D0100798D0100798D0100798D0100F4
:1000F000798D0100798D0100798D0100798D0100E4
:1001000015A701002DA7010045A701005DA701006B
:10011000798D0100FD960100798D0100798D010036
:10012000798D0100798D0100798D0100798D0100B3
:10013000798D0100798D0100798D0100798D0100A3
:10014000D5A20100798D0100798D0100798D010022
:10015000798D0100798D0100798D0100798D010083
:10016000798D0100798D0100C5A30000798D010012
:10017000798D0100798D0100798D0100798D010063
:10018000798D0100798D0100798D0100798D010053
:10019000798D0100798D0100798D0100798D010043
:1001A000798D0100798D0100798D0100798D010033
:1001B000798D0100798D0100798D0100798D010023
:1001C000798D0100798D0100798D0100798D010013
:1001D0005F4B4CF2205210B5DA814DF62812DA81CD
:1001E00000BF00BF18F0CCFD5A4B4FF030621A63CD
:1001F000594A9A63594ADA634FF0E0234FF4700288
:10020000C3F8882D03F5E823554A1A60554B9A78B0
:10021000110703D59A7842F008029A70524B53485E
:10022000AA221A70524BDA1C121AC11E22F00302C3
:10023000994288BF00224F4918F044FC4E4B4F486A
:10024000DA1C121AC11E22F00302994288BF002252
:10025000002127F03BF84A494A484FF4E87218F069
:1002600031FC494B494A802103F8011B9342FBD1E1
:100270004FF0E023434AC3F8082D454B8A221A70F9
:10028000A3F5805324225A70A0221A709A799207FB
:10029000FCD59A79D406FCD43E4A937903F00C033A
:1002A000082BFAD1304B60225A70DA78802AFCD1C0
:1002B000384B01221A715D225A719A799006FCD549
:1002C0009A795106FCD5234A33495164002191643F
:1002D000202119702F498B7903F00C030C2BFAD1D4
:1002E0002E4B53602E4A136913F4807303D153616C
:1002F0004FF4A85313614FF0E0232A4A5A610022B9
:100300009A6107221A61284AC3F8202D62B618F0B4
:100310009DFF234B5B69DA0705D5244818F08AFF57
:10032000234B244ADA61244B1B785B0609D5204C09
:10033000204BE2699A4204D11C4818F07BFF00234D
:10034000E36118F023FD27F0CDFB1AF0D9FFFEE79B
:100350000020054000800440823F04000100002B83
:100360000300008500D0074000E007407029FF1F10
:10037000E836FF1F2C250300FC53FF1FE836FF1F44
:10038000000000000022FF1F00E400E064E400E041
:10039000005006400040064000000602C010070062
:1003A00000D003401FBF0200000020200ACEC46519
:1003B00000E00340A5C3945A00F00740FFFFFFFF91
:1003C000FFFFFFFFFFFFFFFFFFFFFFFFFFFFFFFF3D
:1003D000FFFFFFFFFFFFFFFFFFFFFFFFFFFFFFFF2D
:1003E000FFFFFFFFFFFFFFFFFFFFFFFFFFFFFFFF1D
:1003F000FFFFFFFFFFFFFFFFFFFFFFFFFFFFFFFF0D
:10040000FFFFFFFFFFFFFFFFFFFFFFFFDEF9FFFF23
:100410000548064B1B1AD90F01EBA301491002D066
:10042000034B03B118477047E836FF1FE836FF1F3C
:100430000000000008B5054B1BB105490548AFF3A6
:100440000080BDE80840FFF7E3BF00BF00000000E8
:10045000E836FF1F5422030000207047704700BF9A
:10046000C1657047C06D704700207047007A7047C3
:10047000407A704741720846704700BF007C704761
:100480000429A8BF04210129B8BF01214161084600
:10049000704700BF40697047C0F8101408467047A5
:1004A000D0F81004704700BF10B5044B044640F864
:1004B000183B1AF087FC204610BD00BF14D902007B
:1004C00010B5044B044640F8183B1AF07BFC20465C
:1004D00010BD00BF14D9020010B5044B044640F80B
:1004E000183B1AF06FFC204610BD00BF14D9020063
:1004F00010B5044B044640F8183B1AF063FC204644
:1005000010BD00BF14D9020038B50546074B45F8A9
:10051000643B044688301AF055FC04F174001AF06C
:1005200051FC28461AF04EFC204638BD14F6020055
:1005300010B5044682B00846019127F041FD2368BA
:1005400001999B690246204602B0BDE81040184759
:1005500010B5183104461AF0F9FB204610BD00BF53
:1005600019F068BD19F02ABD10B504460C4B236084
:1005700000F23C4005F096FF04F589601AF022FC79
:10058000D4F83004074B236020B1D4F83814091A8A
:100590001AF0C4FE04F583601AF014FC204610BD66
:1005A00018DB020008E2020030B5134B8DB00D4697
:1005B0000446197868461AF0E7FB694608A81AF05D
:1005C000C5FB297A04A81AF0DFFB04A908A81AF0D1
:1005D00037FD297C1AF05AFD014620461AF0B6FB79
:1005E00004A81AF0EFFB08A81AF0ECFB68461AF012
:1005F000E9FB20460DB030BD7529FF1F70B50C46D4
:1006000092B0002979D03E490EA815461AF016FC82
:1006100020460EA905F018FE04460EA81AF0D2FBDB
:10062000002C6AD0374906A81AF008FC294602A80F
:100630001AF08CFB344902A81AF00AFD01460AA8F8
:100640001AF084FB042631490EA81AF0F7FB0EAB12
:100650000AAA06A90096204605F060FD0EA81AF029
:10066000B1FB0AA81AF0AEFB02A81AF0ABFB06A871
:100670001AF0A8FB264906A81AF0E0FB24490AA8AC
:100680001AF0DCFB23490EA81AF0D8FB0EAB0AAA1D
:1006900006A90096204605F041FD0EA81AF092FB2F
:1006A0000AA81AF08FFB06A81AF08CFB1A4906A8B4
:1006B0001AF0C4FB294602A81AF048FB174902A801
:1006C0001AF0C6FC01460AA81AF040FB10490EA811
:1006D0001AF0B4FB0EAB0AAA06A90096204605F054
:1006E0001DFD0EA81AF06EFB0AA81AF06BFB02A8FB
:1006F0001AF068FB06A81AF065FB204612B070BD20
:1007000064D1020074D10200A01F03007CD102005A
:1007100094F7020088D1020094D10200D8EB0200C5
:1007200019F072BD90F88C3170B5044653B103686E
:100730005B6A0D4698472368294620469B6ABDE8B8
:10074000704018470368BDE870405B6A184700BFF7
:1007500090F86C3170B50446A0F120066BB150F8EA
:10076000203C30465B6A0D46984754F8203C2946A9
:1007700030469B6ABDE87040184750F8203C304630
:100780005B6ABDE87040184790F88C3170B504463C
:1007900063B10368DB6A0D46164698472368324604
:1007A000294620461B6BBDE8704018470368BDE82A
:1007B0007040DB6A184700BF90F86C312DE9F041BA
:1007C0000446A0F120067BB150F8203C3046DB6A9D
:1007D0000F461546984754F8203C2A46394630467D
:1007E0001B6BBDE8F041184750F8203C3046DB6AEF
:1007F000BDE8F041184700BF70B590F8643084B090
:1008000004469BB90D4609B104B070BD03680F4999
:10081000DE6C68461AF012FB01232A462046694620
:10082000B04768461AF0CEFA04B070BD03680749B5
:10083000DD6C68461AF002FB01231A462046694621
:10084000A84768461AF0BEFA04B070BD7CD1020019
:1008500010B103685B6B18472A2070470268017467
:10086000536C034A934201D108467047184700BFB2
:100870007D04000010B50446806A074A0368DB68FF
:10088000934207D119F0C0FCE06A0368BDE810404C
:10089000DB6818479847F7E72107000010B50446C2
:1008A0008068074A0368DB68934207D119F0ACFC03
:1008B000E0680368BDE81040DB6818479847F7E731
:1008C00021070000806A044A03681B69934201D132
:1008D00019F0B0BB184700BF61050000806A044AE8
:1008E00003685B69934201D119F068BB184700BFE8
:1008F000650500002DE9F0470546C06C002800F0B2
:10090000A58095F86030B3B905F114000EF082F8B7
:10091000002385F86030AB68D3F88C040022C3F85C
:100920008024C3F88424002800F09F800368BDE879
:10093000F0479B6818470021C7690CF039FAD5EDDC
:100940001A7A534C5349D5F86C90D5F86480FDEE73
:10095000E77A0422204617EE906A18F0B3F84E4961
:10096000042204F1080018F0ADF84C49042204F107
:100970000C0018F0A7F84A49042204F1240018F0EA
:10098000A1F84FF0000C84F811C084F812C084F86C
:1009900013C084F815C084F823C04FF0100C84F8FD
:1009A00010C084F822C04FF0010C84F814C0C6F3C4
:1009B000072C7100267684F819C0C6F3074C360E52
:1009C0004FEA4902A7EB0803E676B3FBF2F3C1F363
:1009D000072609FB03F35B0021776677C1F307461F
:1009E000090E84F82020E177C2F30722C3F3072120
:1009F00084F8212084F8283003F1240284F8291097
:100A0000C3F307411B0E84F82B30E86C84F8169072
:100A1000C2F30723C9F3072922716371C2F30743A5
:100A2000120E84F8179084F81AC0A67784F82A105A
:100A3000A371E271D8B1424621460CF08BFBEB6CFE
:100A4000F3B1394618460CF0B3F95DE7286D00287C
:100A50003FF461AF95F86030002B3FF455AF0022B2
:100A60000023076909F054FE69E7BDE8F087286DA7
:100A700000283FF449AF424621460AF0DDFCDEE79C
:100A8000286D00283FF440AF3A4609F041FE3BE7AD
:100A90000837FF1F9CD10200A4D10200ACD1020094
:100AA000B4D1020010B5064B03600446FFF722FFE5
:100AB000044BE36004F114000DF0ACFF204610BDC0
:100AC000A4D902008CD9020010B5084B036004467B
:100AD000FFF710FF064BE36004F114000DF09AFFDE
:100AE000204670211AF01AFC204610BDA4D902003D
:100AF0008CD9020010B50446D0F88C000B4B236053
:100B000010B104211AF00AFC606F10B102211AF032
:100B100005FC074B23602046FFF7ECFE054BE36026
:100B200004F114000DF076FF204610BDE4D9020058
:100B3000A4D902008CD9020010B50446D0F88C006C
:100B40000D4B236010B104211AF0E8FB606F10B167
:100B500002211AF0E3FB094B23602046FFF7CAFE8F
:100B6000074BE36004F114000DF054FF2046902180
:100B70001AF0D4FB204610BDE4D90200A4D902002B
:100B80008CD9020038B51F4B1F49C167044603F1D9
:100B900030020360826203F07BF9256F05B32B6896
:100BA0001A4A5B69934229D1D5F88C00184B2B6007
:100BB00010B104211AF0B2FB686F10B102211AF0D3
:100BC000ADFB144B2B602846FFF794FE124BEB60F5
:100BD00005F114000DF01EFF902128461AF09EFB2F
:100BE0000E4BA36204F140001AF0ECF820460C4BC7
:100BF00040F8183B1AF0E6F8204638BD28469847DA
:100C0000EEE700BF38DE0200D0DE0200390B000044
:100C1000E4D90200A4D902008CD9020014D9020040
:100C20002CDA020000B5036C83B08DF8071043B1D5
:100C300001220DF1070118460CF08CFA03B05DF8A3
:100C400004FB406C0028F9D001220DF107010AF0E5
:100C5000F3FB03B05DF804FB036814495A6E8A4243
:100C600022D170B590F86450114984B004466DB932
:100C70006846DE6C1AF0E2F801232A4620466946EF
:100C8000B04768461AF09EF804B070BD6846DD6C47
:100C90001AF0D4F801231A4620466946A847684648
:100CA0001AF090F804B070BD00211047F907000059
:100CB0007CD10200F0B503680E469A691B49DF6DCE
:100CC0008A4291B004462CD1194B08A819781AF021
:100CD0005BF808A904A81AF039F8217A0CA81AF0D0
:100CE00053F80CA904A81AF0ABF9217C1AF0CEF93C
:100CF0006D46014628461AF029F80CA81AF062F849
:100D000004A81AF05FF808A81AF05CF82A463146E1
:100D10002046B847044628461AF054F8204611B039
:100D2000F0BD6D46014628469047EFE7A905000053
:100D30007529FF1F70B50368264A9B69934290B0DE
:100D4000054640D1244B08A819781AF01DF80CACC0
:100D500008A904A819F0FAFF297A20461AF014F815
:100D6000214604A81AF06CF9297C1AF08FF96E4616
:100D70000146304619F0EAFF20461AF023F804A88D
:100D80001AF020F808A81AF01DF81449204619F0A6
:100D9000BFFF314620461AF053F90146104819F0BA
:100DA00043FD0F4819F06EFD20461AF00BF837216D
:100DB0000C4819F071F90A4819F064FD30461AF030
:100DC00001F810B070BD6E460146304698470CAC35
:100DD000DBE700BFA90500007529FF1FBCD1020099
:100DE0000430FF1FD0D10200F0B5224E33688B4291
:100DF00085BF00233360CB1A0B469A4289B00C465C
:100E0000054601D909B0F0BD1B4904A81AF016F82F
:100E1000E86E03F091FB012168461AF053F8694629
:100E200004A81AF00DF90146144819F0FDFC134806
:100E300019F028FD684619F0C5FF04A819F0C2FF93
:100E40002B680F491F6D04A819F0F8FFE86E03F036
:100E500073FB012168461AF035F86A4604A9284652
:100E6000B847684619F0AEFF04A819F0ABFF34602C
:100E700009B0F0BD0037FF1F08D202000430FF1F89
:100E800088D10200F0B591B0002945D00D46044646
:100E900029490CA819F0D2FF28460CA905F050FAF0
:100EA00005460CA819F08EFF002D35D02368234984
:100EB0009A6D8A4239D1DF6D214A9B6993422FD1C5
:100EC000204B08A8197819F05FFF08A904A819F0A9
:100ED0003DFF217A0CA819F057FF0CA904A81AF0BD
:100EE000AFF8217C1AF0D2F86E460146304619F070
:100EF0002DFF0CA819F066FF04A819F063FF08A8DD
:100F000019F060FF324629462046B847304619F0AE
:100F100059FF284611B0F0BD0025284611B0F0BD9C
:100F20006E46214630469847ECE7294620469047D2
:100F3000284611B0F0BD00BF34D20200B50C00004D
:100F4000A90500007529FF1FF8B5C36C04460D46BE
:100F500017466BB190F8541079B93E463A46294687
:100F600018460CF0F7F894F85430C3B93046F8BD81
:100F7000006D60B394F854301BB318F057FAE36C6B
:100F8000A0653E46002BE9D1206D0028EBD03A4603
:100F900029460AF051FA94F85430002BE6D0072184
:100FA0000C4819F079F818F041FAA16D0023411AA4
:100FB0000A22094819F090FC074819F063FC3046F2
:100FC000F8BD3A4629463E460AF036FAE3E70646B9
:100FD000CCE700BF3CD202000430FF1F10B5C36C49
:100FE00082B004468DF8071073B190F854208AB986
:100FF00001220DF1070118460CF0ACF894F85430BA
:10100000D3B9012002B010BD006D0028FAD094F8C9
:10101000543043B118F00AFAE36CA065002BE7D115
:10102000206D0028EAD001220DF107010AF004FA30
:1010300094F85430002BE4D00721094819F02CF81B
:1010400018F0F4F9A16D0023411A0A22054819F09D
:1010500043FC044819F016FC012002B010BD00BF8B
:101060003CD202000430FF1F70B54F4C4F4E88B089
:10107000272105464E4819F00FF8204619F002FCCA
:1010800013214C4819F008F8204619F0FBFB1721F2
:10109000494819F001F8204619F0F4FB252147488A
:1010A00018F0FAFF204619F0EDFB3721444818F0FC
:1010B000F3FF204619F0E6FB3721424818F0ECFF19
:1010C000204619F0DFFB404904A819F0B7FE0A22B8
:1010D00096F88410684619F0C5FE694604A819F010
:1010E000AFFF3A4919F0B4FF0146204619F09CFBC6
:1010F000204619F0C7FB684619F064FE04A819F0F1
:1011000061FE334904A819F099FE96ED200A0121E9
:10111000684619F0D7FE694604A819F091FF2D49D9
:1011200019F096FF0146204619F07EFB204619F083
:10113000A9FB684619F046FE04A819F043FE2649AB
:1011400004A819F07BFE96ED1F0A6846012119F0EC
:10115000B9FE694604A819F073FF204919F078FF19
:101160000146204619F060FB204619F08BFB6846CB
:1011700019F028FE04A819F025FE2321184818F0BC
:101180008BFF204619F07EFB3021164818F084FFB3
:10119000204619F077FB284603F0A8FC204608B04B
:1011A000BDE8704019F06EBB0430FF1FAC39FF1F63
:1011B00044D202006CD2020080D2020098D2020017
:1011C000C0D20200F8D2020030D3020070D1020077
:1011D00070D30200A8D30200B0D30200E8D302000B
:1011E000F0D3020014D4020003682F4A1B6E93420E
:1011F00049D1F0B50D4691B000294BD02B4904469A
:101200000CA819F01BFE28460CA905F099F8054614
:101210000CA819F0D7FD002D3CD0236824499A6D05
:101220008A4231D1DF6D234A9B69934236D1224BEA
:1012300008A8197819F0A8FD08A904A819F086FDD6
:10124000217A0CA819F0A0FD0CA904A819F0F8FE49
:10125000217C19F01BFF6E460146304619F076FDE1
:101260000CA819F0AFFD04A819F0ACFD08A819F0FE
:10127000A9FD324629462046B847304619F0A2FD5E
:10128000284611B0F0BD1847294620469047284609
:1012900011B0F0BD0025284611B0F0BD6E462146C4
:1012A00030469847E5E700BF850E000034D20200C3
:1012B000B50C0000A90500007529FF1F027A8A42BB
:1012C00025D170B5432B84B0044625D0632B20D1A3
:1012D0002C21264818F0E0FE254819F0D3FA23689F
:1012E00024495A6E01258A4284F8645033D1224938
:1012F000DE6C684619F0A2FD2B462A466946204658
:10130000B047684619F05EFD284604B070BD002065
:101310007047002004B070BD3821184818F0BCFE9A
:10132000134819F0AFFA236812495A6E00258A4211
:1013300084F8645014D11049DE6C684619F07EFDC3
:1013400001232A4620466946B047684619F03AFD0F
:10135000012004B070BD2046002190472846D9E7FF
:101360002046294690470120D4E700BF48D4020018
:101370000430FF1FF90700007CD1020078D402007E
:1013800003682DE9F0411B6A234EB3423FD1C36C81
:1013900004460F46154673B390F854205AB92E46AA
:1013A0002A46394618460BF0D5FE94F854307BB9DE
:1013B0003046BDE8F08118F039F8E36CA0652E46A0
:1013C000002BEDD1206DE8B994F85430002BEFD00C
:1013D0000721124818F060FE18F028F8A16D0023CC
:1013E000411A0A220E4819F077FA0D4819F04AFA04
:1013F0003046BDE8F081006D60B194F85430002BA8
:10140000D9D12E462A4639460AF016F8CDE7BDE86E
:10141000F04118470646CBE7490F00003CD20200D6
:101420000430FF1F036870B51B6A9500214A934280
:1014300039D1C36C04460E4653B390F854204AB9D0
:101440002A46314618460BF085FE94F854306BB9A5
:10145000284670BD17F0EAFFE36CA065002BEFD1C2
:10146000206DD8B994F85430002BF1D007211248E0
:1014700018F012FE17F0DAFFA16D0023411A0A22BC
:101480000E4819F029FA0D4819F0FCF9284670BDEC
:10149000006D60B194F85430002BDBD12A46314600
:1014A00009F0CAFFD1E72A46BDE870401847054653
:1014B000CEE700BF490F00003CD202000430FF1FFE
:1014C000036870B51B6A5500214A934239D1C36C39
:1014D00004460E4653B390F854204AB92A46314682
:1014E00018460BF037FE94F854306BB9284670BD9F
:1014F00017F09CFFE36CA065002BEFD1206DD8B9ED
:1015000094F85430002BF1D00721124818F0C4FD94
:1015100017F08CFFA16D0023411A0A220E4819F022
:10152000DBF90D4819F0AEF9284670BD006D60B1C9
:1015300094F85430002BDBD12A46314609F07CFF69
:10154000D1E72A46BDE8704018470546CEE700BF00
:10155000490F00003CD202000430FF1FF0B50368C1
:10156000274FDE6EBE4289B044D1264E1346326804
:1015700091423BBF002232608A1A0A4693420446D7
:101580000D4601D909B0F0BD1F49684619F056FC57
:10159000E06E02F0D1FF012104A819F093FC04A928
:1015A000684619F04DFD0146184819F03DF91748F5
:1015B00019F068F904A819F005FC684619F002FC56
:1015C000236813491F6D684619F038FCE06E02F07D
:1015D000B3FF012104A819F075FC04AA694620464E
:1015E000B84704A819F0EEFB684619F0EBFB35602C
:1015F00009B0F0BD334609B0BDE8F040184700BF60
:10160000E90D00000037FF1F08D202000430FF1F61
:1016100088D102002DE9F04F2DED028B446F83B08D
:1016200007460E4691469846B4B1836FC26F09FBD8
:1016300008F5934203EB050421DAA242C0F2AA8026
:10164000D0F884108C4280F29580B8F1000F40F3FE
:10165000BB804FF0000A25E0D0F880305E4890FB58
:10166000F3F00428B8BF0420C7F88400400019F044
:1016700051FE09FB08F5FC67BC6778672C46D7F874
:1016800084309C42E1DBBB6FFA6F4FF0000AC7F871
:10169000883000239A42BB6701DD95426DDCB8F1CA
:1016A000000F1BDD4FEA890B6FF060439FED4B8A03
:1016B000994528BF4FF0FF3B351F002402E001345D
:1016C000A0450BDD55F8043F002BF8D1D7F88C006E
:1016D00000283FD00134A0452860F3DCB9F1000FA9
:1016E0002EDD331F9FED3E7A019303EB880500202A
:1016F0006FF0004BB8F1000F1FDDBE6F7B6FDDF8A0
:1017000004E006EB0B01840003EB41015EF8042FBB
:1017100002EB040CDCED007A67EE877AAE45FDEE55
:10172000E77A17EE902A0FFA82FC21F802CFEDD16A
:101730004644711EBE6723F811C001308145D9DCD3
:10174000BAF1000F01D0BB6FFB6703B0BDEC028B99
:10175000BDE8F08F584619F0DDFDB9F1010358BF1F
:10176000024604D4013B591CA2EC018AFAD1C7F805
:101770008C00AFE74FF0000A89E73B21194818F0C9
:101780008BFC194819F07EF8B8F1000F15DD4FF009
:10179000010A87E73B21134818F07EFC124819F034
:1017A00071F8D7F884309C4204DBBB6FFA6F4FF0BE
:1017B000010A6CE7B8F1000FE9DCB9F1000FC8BF0E
:1017C0004FF0010A8DDCBEE7B9F1000FC8BF4FF042
:1017D000000A86DCB9E700BFF04902000000000003
:1017E00000FEFF46B4D402000430FF1F416F026FB9
:1017F0002DE9F843002900F002810446D000A56FCE
:10180000E76FBD4236DAD4F88830DD1B002D64DD89
:10181000A842A8BF284682420646DCBF90FBF2F0F1
:1018200002FB00F62268D2F82090764A914501EB3F
:1018300047054FEA460840F08880E06C002868D0F1
:1018400094F85430002B40F0B380294642460BF008
:1018500081FC94F85430002B40F09980E76FD4F865
:1018600088303E449E420ABF0023E667E367404655
:10187000BDE8F883ED1BAA422ADCA842A8BF28468F
:1018800090FBF2F602FB06F66EB323685D4A1B6A14
:10189000934201EB47074FEA460840F0A180E06C15
:1018A00000285BD094F85430002B40F08D803946EE
:1018B00042460BF04FFC94F85430002B34D1B8F171
:1018C000000F4ED0E36F3344E3674046BDE8F88332
:1018D0004FF000084046BDE8F88300239846E367D0
:1018E0004046BDE8F8832F21474818F0D5FB29462C
:1018F000464818F0BFFF0221454818F0CDFB31469D
:10190000424818F0B7FF414818F0BCFF616FE76F1D
:10191000BBE7206D00B394F85430002B48D1294622
:10192000424609F089FD94E707213A4818F0B4FBD4
:1019300017F07CFDA16D0023411A0A22334818F0EC
:10194000CBFF324818F09EFFB9E7424629462046B1
:10195000C847E76FD4F88830804682E7206D0028BA
:1019600044D135212C4818F097FB3146274818F010
:1019700081FF0221264818F08FFB0021234818F030
:1019800079FF224818F07EFF4FF000089AE7072100
:10199000204818F081FB17F049FDA16D0023411A82
:1019A0000A221A4818F098FF184818F06BFF55E7FC
:1019B00017F03CFDA065E06C00287FF446AF206D79
:1019C00000283FF446AFAAE717F030FDA065E06CB1
:1019D00000287FF46CAF206D00283FF46CAF09E065
:1019E0004246394620469847804668E794F8543086
:1019F000002BE9D13946424609F01EFD5BE74FF066
:101A0000FF3867E7490F0000F0D402000430FF1FE1
:101A100020D502003CD2020024D5020070B50C464D
:101A200059B10546084626F0CBFA2B6802462146F6
:101A300028465B68BDE870401847084670BD00BF87
:101A40002DE9F04104464FF0FF38C4F80C804FF008
:101A50002A08C4F810804FF00808C4F830804FF00E
:101A60002708C4F838804FF00A08C4F840804FF0C7
:101A70002208C4F844804FF01F08C4F848804FF093
:101A80003808C4F84C804FF02108754AC4F85480D7
:101A90004FF01408A261A267C4F8608080224FF45E
:101AA000165892B000258E46E2676E496E4AC4F819
:101AB00074804FF02C08002301206C4EA1606561FA
:101AC00023216B4DC4F858804FF0240C4FF00508CB
:101AD00020772371636284F85C306066C4F88030DC
:101AE000C4F88430C4F8883084F88C3122652567C6
:101AF0006163E666C4F83CC0C4F86880CDE906229C
:101B0000CDE908220A920C924FF4E132049111922D
:101B1000DEF80010574A8DF82C3007270D901095ED
:101B20004B1E02F154050091152022600F21062260
:101B3000C4F89071CDF80CC00E970F9625620190F5
:101B400002910592092B1DD8DFE803F0515B3F3F5E
:101B5000627705052424232127220A202223CDE9A8
:101B60000403019102921F2138222120CDE906129F
:101B700014234FF416512C2209900C930523119134
:101B80000A920E932046694603F0CAFF204612B01F
:101B9000BDE8F0811A2011210F221023019002913B
:101BA00009200E2103920493052202230590069139
:101BB00001202421079209934FF4165216238DF821
:101BC0002C000C9111920A93DCE723200A21222297
:101BD0001F230190049121201421059206934FF4B4
:101BE0001652052308900C9111920E93CAE71E4BD2
:101BF0000E9302200121002208908DF82C100D92E6
:101C0000C0E7194B0E930221002208910D92B9E70B
:101C10000A2204921F222A20222106922122142322
:101C20000190059140204FF416510892052202932D
:101C300007900C9311910E92A4E7232127220A20EA
:101C40002223CDE90403019102921F213822212091
:101C5000CDE9061214234FF416512C2208908CE77C
:101C600000442C479029FF1FF1D8FFFF0430FF1FCD
:101C7000DC2FFF1F20D902002DE9F0414FF0FF3388
:101C800000254B4A83600223044602604361C5601D
:101C9000056182B00E461830464919F0CFF8464A21
:101CA000464BA36204F15C011368A1634FF4807199
:101CB00004F1280704F160086563E5652186002BBF
:101CC00074D01A465B69002BFBD1576100253C4B51
:101CD0003C49A362E563E56284F8325004F14000B8
:101CE00019F0ACF8384B394A19681368C4F85880B1
:101CF00004208B42656525666566A566E56684F801
:101D0000500004DA324941F8237001331360314B3B
:101D10002360002103F130002F4AA0624FF0FF330F
:101D200021676267A167204600934FF4007302F0B9
:101D3000D1F8D6ED007A9FED297AF4EEC77AF1EE6C
:101D400010FA08DD9FED267AF4EEC77AF1EE10FA6C
:101D500048BFDFED247A236F0BB1C3ED1A7A252338
:101D60006FF01F0000217822C4F88000C4F88810AA
:101D700084F88C20C4F890301B494A2204F1940066
:101D800016F0A0FE19491A4B0A7884F88420501CDA
:101D9000087003F1500003F15C01A062204684F852
:101DA00085202360E16702B0BDE8F08117608DE710
:101DB0002CDA02005CD50200D44FFF1F08D90200C4
:101DC00014D902006CD50200B8DF0200FC42FF1FEC
:101DD0001C41FF1F38DE02000430FF1F00542C4757
:101DE00000562C4700442C47C4DA02007429FF1F18
:101DF00074DE0200F0B50D46044685B00D21643056
:101E0000EF6A04F1880618F0BFFF0D2104F1740099
:101E100018F0BAFF0021C4F88470304619F00EF8AB
:101E20004FF47A63C4F898300723C4F89C304FF01D
:101E3000FF33C4F8A0303823C4F8A4302223C4F8F8
:101E4000A8301649684618F0F9FF6946304619F07F
:101E50005DF8684618F0B6FF6A6CE86CC4F8A40038
:101E60000023C4F8A8206FF01F017820252284F8F1
:101E7000AC306160E3602074626109494A2204F178
:101E8000180016F01FFE074A074913782372581CE2
:101E9000107020466372216005B0F0BD94F7020017
:101EA000C4DA02007429FF1F14F60200F0B58FB0E7
:101EB00000F23C453E490AA818F0C0FF0AA928468E
:101EC00004F03EFA06460AA818F07CFF39490AA831
:101ED00018F0B4FF0AA9304604F0B6F904460AA87F
:101EE00018F070FF344902A818F0A8FF334906A87B
:101EF00018F0A4FF0C2732490AA818F09FFF0AAB7C
:101F000006AA02A90097204604F008F90AA818F0CA
:101F100059FF06A818F056FF02A818F053FF2949E8
:101F200002A818F08BFF284906A818F087FF274958
:101F30000AA818F083FF0AAB06AA02A90097204658
:101F400004F0ECF80AA818F03DFF06A818F03AFFD4
:101F500002A818F037FF1E4902A818F06FFF1D49AC
:101F600006A818F06BFF1C490AA818F067FF0AAB17
:101F700006AA02A90097204604F0D0F80AA818F093
:101F800021FF06A818F01EFF02A818F01BFF31461B
:101F9000124801F005FB12490AA818F04FFF0AA9E0
:101FA000284604F0EDF90AA818F00CFF0FB0F0BDB8
:101FB00078D5020088D5020098D5020028140300C5
:101FC000A4D50200B0D50200BCD50200C0D50200E5
:101FD000CCD502001C100300DCD502009437FF1F93
:101FE000E8D5020070B5044684B049B12D4B1D6F91
:101FF000012D34D0022D52D0002D40D004B070BD40
:1020000003680D46684628491E6918F017FF2A46DE
:10201000012369462046B047684618F0D3FE23687E
:1020200022491E69684618F009FF2A4601236946BD
:102030002046B047684618F0C5FE23681C491E6953
:10204000684618F0FBFE01232A4669462046B04741
:10205000684618F0B7FE134B1D6F012DCAD12368D7
:1020600012491E69684618F0E9FE2B462A46694661
:102070002046B047684618F0A5FE04B070BD23683E
:1020800009491D69684618F0D9FE01231A46204601
:102090006946A847684618F095FE04B070BD2368ED
:1020A0000349EEE7AC39FF1FA4D50200C0D50200FA
:1020B000DCD5020038B504460D46FFF793FF2946EC
:1020C0002046BDE8384002F051BD00BF10B5D0F841
:1020D0004034D0F844241344002B84B0044622DD5D
:1020E000684604F23C4104F073F96946134818F05D
:1020F0009BFB124818F0C6FBD4F81004694607F0A1
:10210000BFFA23680E4ADB6993420FD120460021B3
:10211000FFF768FF0021204602F028FD684618F00E
:1021200051FE04B010BDFFF7C1FED9E700212046E3
:102130009847684618F046FE04B010BD0430FF1FF3
:10214000B520000070B5104D104E284614F0E8FB85
:10215000FE21304610F054FC0D4B0E491C682368DC
:102160001B225B6820469847204618F08BFB0A4AE2
:1021700001233146284616F04DF90849084B0860FE
:1021800001221A7070BD00BF482DFF1FD048FF1FED
:10219000F02EFF1FF8D5020084DB02003837FF1F46
:1021A000A839FF1F10B5214C2067032812D8DFE89B
:1021B00000F03622021200211D4804F09DFB02218E
:1021C0001B4804F0DDFC9FED1B0A194804F042FC9B
:1021D00084ED1D0A10BD0221154804F0D1FC012137
:1021E000134804F089FB9FED130A114804F032FCF8
:1021F00084ED1D0A10BD00210D4804F07DFB032174
:102200000B4804F0BDFC0121094803F091FD9FED4E
:10221000090A074804F01EFC84ED1D0A10BD0021C8
:10222000034804F069FB0121CAE700BFAC39FF1F76
:10223000343AFF1F000000002DE9F0418CB017F088
:10224000F9FE002840F0A5808B4806F01BF9002815
:1022500000F38380894C8A49204602F01FF9894B9C
:102260001B7873B1884B1B78002B00F09D80874C46
:10227000874816F0F9F894F86430E3B90CB0BDE87B
:10228000F081844D7C4829680191019941F288329E
:1022900007F026FDA2682B680093A2F101027B4C97
:1022A00000997D48B2FA82F2520903F025FD94F8B4
:1022B0006430002BE2D0774E784F33680293029D52
:1022C0003B689D423BBF00233B60EB1A2B4640F628
:1022D000B83293426BD83368714E0393039D3368D1
:1022E0009D425DD3EB1A40F6B7329342C6D96D4991
:1022F00004A818F0A3FDE06E02F01EF9012108A861
:1023000018F0E0FD08A904A818F09AFE01466648F6
:1023100018F08AFA644818F0B5FA08A818F052FDC7
:1023200004A818F04FFD614904A818F087FDE06E7D
:1023300002F002F9012108A818F0C4FD08AA04A9B6
:10234000524802F061FF08A818F03CFD04A818F0FC
:1023500039FD35600CB0BDE8F081002108A818F007
:102360006DFD4548002208A907F034FB051E0CDD71
:102370004F4E0024214608A818F0E2FE01340178EF
:10238000304602F0C5FDA542F4D108A818F01AFDA8
:1023900060E717F013FEC1B2454802F0B9FD53E7FC
:1023A000002333602B469EE7FFF7CCFE5FE7A06E6D
:1023B000404903680C225B689847E06ED4F8688057
:1023C00002F0BAF810EE100A21F04EFF41EC100BAB
:1023D0004046012118F08CFAA06E374903680222AA
:1023E0005B689847E06ED4F8688002F0CBF810EE96
:1023F000100A21F039FF41EC100B4046012118F082
:1024000077FAA06E2D49036803225B689847A06E97
:102410002B49036812225B6898472A4BA06E1978F3
:102420000A22002318F058FAA06E274903680122F7
:102430005B689847254BA06E19780A22002318F094
:102440004BFAA06E224903680E225B689847002071
:10245000D4F8688025F072FB08AB0146591A404653
:1024600018F008FAA06E18F00DFA94F864303D6088
:10247000002B7FF430AF01E7E038FF1F9437FF1FD8
:102480002C39FF1FF840FF1FA839FF1FAC39FF1F71
:10249000482DFF1FA04EFF1F343AFF1F0437FF1FB8
:1024A0000037FF1F08D202000430FF1F88D102004E
:1024B000183CFF1F14D6020024D6020028D60200C2
:1024C0002CD602001043FF1F40D602001243FF1F0C
:1024D00044D6020010B59FED327AB4EEC70AF1EE91
:1024E00010FA2DED048B06DC9FED2E7AB4EEC70AB0
:1024F000F1EE10FA3CD82C4C2C4BD4ED108A83ED25
:102500001F7AF6EE007A68EEA77AF0EE479AF4EEBC
:10251000E79AF1EE10FAD8BFF0EE697AD4E91A0121
:1025200050EA010302D094F8783073B9C4ED137AFD
:1025300094ED0F7A67EE877AB0EE690A87EEA87A93
:10254000BDEC048B84ED157A10BD94ED139A37EE33
:10255000C98A22F0A1FA07EE900A88EE277A0022B3
:102560000023C4E91C23F0EE497A84ED197ADFE7F1
:102570000E4B0D4C83ED1F0AB5EEC00AF1EE10FABA
:10258000D4ED108A04D5DFED0A7AF0EE409AC5E763
:10259000F6EE007A68EEA77AF0EE409AB7E700BF51
:1025A0000000FA4600007A417040FF1FAC39FF1F5F
:1025B0000000000070B5A1F13E0388B00446392B3D
:1025C0003BD8DFE813F0A5003A003A00B0003A002B
:1025D0003A003A003A0044003A003A003A003F001C
:1025E000BB003A003A003A003A003A003A003A009A
:1025F0003A003A003A003A00D2003A003A003A0073
:102600003A003A003A003A003A003A006E003A00C6
:102610003A003A00850051013A005C013A003F005F
:10262000E9003A003A003A003A003A003A0006015E
:1026300016013A003A003A00330108B0BDE8704094
:1026400002F0B0BAFFF742FD012008B070BDA24C05
:10265000DFEDA27A94ED1F0A20EE270AFFF73AFF7A
:102660009F4904A818F0EAFB94ED1F0A012168466F
:1026700018F028FC694604A818F0E2FC994918F003
:10268000E7FC0146984818F0CFF8974818F0FAF898
:10269000684618F097FB04A818F094FB012008B0D6
:1026A00070BD924B92494FF07E529A6404A818F084
:1026B000C5FB894B93ED200A6846012118F002FC06
:1026C000694604A818F0BCFC8A4918F0C1FCD8E798
:1026D00029218948804D17F0DFFC834818F0D2F893
:1026E0000226002185482E6704F006F9834831460A
:1026F00004F046FA81489FED820A04F0ABF92046C7
:10270000002185ED1D0AFFF76DFC012008B070BDAA
:1027100042217C4817F0C0FC734818F0B3F87A4B9C
:1027200001221A7090E7714B7848002212219A64B6
:1027300017F0B2FC6C4818F0A5F885E7664CD4EDAC
:10274000207AB1EE087A77EEC77A0023F5EEC07AE8
:10275000F1EE10FA00F1AB80C4F88030F7EE007AA9
:10276000B1EEE70A6A4B6B492BE027216A485A4DC4
:1027700017F092FC5C4818F085F8012600215F48AC
:102780002E6704F0B9F803215C4804F0F9F93146EA
:102790005A4803F0CDFAADE74F4CD4ED207AB1EEB4
:1027A000087A77EE877A0023F5EEC07AF1EE10FA18
:1027B00069D4C4F88030F7EE007AB1EEE70A544BE2
:1027C000564904A883ED160A18F038FB94ED200A48
:1027D00072E7534800F08AFF524904A818F02EFB14
:1027E0005149684618F0B2FA694604A818F028FC66
:1027F00047E74E4904A818F021FB4B49684618F0FA
:10280000A5FA694604A818F01BFC0146364818F0E2
:102810000BF8354818F036F8684618F0D3FA04A8D3
:1028200018F0D0FA3E4801F02DFB0DE72221404878
:10283000294E17F031FC00252B4818F023F82946C3
:102840002E48356704F058F801212C4804F098F917
:102850002A489FED2B0A04F0FDF82946204686ED14
:102860001D0AFFF7BFFBEFE61B4CDFED327A94ED5C
:102870001F0A20EE270AFFF72DFE2F49F1E6036815
:102880009B689847E0E6DFED2D0AC4ED207A67EEFD
:10289000A00AB2EE040A19F0EBFCB5EE400AF1EE24
:1028A00010FAF0EE407A88D519F040FD87E7DFEDA9
:1028B000230AC4ED207A67EEA00AB2EE040A19F0EA
:1028C000D7FCB5EE400AF1EE10FAF0EE407A7FF553
:1028D00047AF19F02BFD45E7AC39FF1FF52F4B3FF4
:1028E00068D7020064D702000430FF1F3C37FF1F87
:1028F000CCD60200F0D60200A0D60200343AFF1F68
:1029000000000000C8D70200F840FF1FF8D6020000
:102910007040FF1F28D7020078D602000CD70200B3
:102920009437FF1F88D70200AC37FF1FA8D70200DB
:1029300054D602001845A13F44D70200CDCCCC3D6F
:1029400070B56E4C6E4D616F6E4E8AB03220019143
:1029500016F08EFD0199204603F010FA002384F84A
:102960008C3140F2DC5016F083FD2121664817F0CF
:1029700093FB664817F086FF654906A818F05EFAD3
:1029800095ED000A022102A818F09CFA02A906A8F7
:1029900018F056FB01465D4817F046FF5B4817F0FC
:1029A00071FF02A818F00EFA06A818F00BFA5949A0
:1029B00006A818F043FA0A22696802A818F052FA29
:1029C00002A906A818F03CFB0146504817F02CFF5E
:1029D0004E4817F057FF02A818F0F4F906A818F0AF
:1029E000F1F9294664204C4D02F040F8204604F0ED
:1029F0007DFD286FFFF7D6FB95ED1E0A204604F0FB
:102A0000C7FAD5ED207AF5EEC07A0023F1EE10FA80
:102A1000B364F3643365736566D5DFED400AB2EEE7
:102A2000040A67EEA00A19F023FCB5EE400AF1EEA5
:102A300010FAF0EE407A5CD4B1EEE77A384B95EDBF
:102A40001F0A83ED167AFFF745FD95F884309FED58
:102A5000357A002BF7EE007A08BFF0EE477AFA20BD
:102A6000C6ED127A16F004FDD4F890112E482F4CC2
:102A7000012206F001FEFA2016F0FAFC2C4804F1BF
:102A80007C0102F07DFB2B4A236F626702226261A8
:102A900003B1DA66284906A818F0D0F90A2261695C
:102AA00002A818F0DFF902A906A818F0C9FA23490C
:102AB00018F0CEFA0146154817F0B6FE134817F085
:102AC000E1FE02A818F07EF906A818F07BF91021A3
:102AD0001B4817F0E1FA0D4817F0D4FE14480AB06D
:102AE000BDE87040FEF7C0BAC5F88030F7EE007A56
:102AF000A2E719F01BFCB0EE407A9FE7343AFF1FC3
:102B00007438FF1F3C37FF1F0CD802000430FF1F32
:102B100030D8020044D80200AC39FF1FCDCCCC3DE8
:102B20007040FF1F00000000E038FF1F9437FF1FB8
:102B3000183CFF1F543AFF1F64D8020078D80200E7
:102B400084D8020008B50446D0F88C040D46FDF781
:102B50007FFEB0B9D4F8803413B1DB793BB1FEE726
:102B6000D4F884341BB193F84434002BF7D12B688C
:102B700016495B68102228469847284617F082FEBF
:102B8000EDE713492846FEF749FFD4F88C04FDF71A
:102B90005FFE002301461022284617F09DFE0D49D6
:102BA0002846FEF73BFFD4F88C0460B103689B6BAA
:102BB0009847C1B200231022284617F08DFE284600
:102BC00017F060FECBE70146F4E700BFA8D802008B
:102BD00098D80200A4D802002DE9F04F2DED028B09
:102BE000B84FB94EB94B3B6085B008238022B84836
:102BF000039303A97A60FEF723FF3346DFF864B33B
:102C000043F834BBDFF8609333614FF48073338152
:102C10000023F3607363D9F80030002B00F03A8290
:102C20001A465B69002BFBD156610024A94B336027
:102C3000A949AA4874617460B47218F0FFF8A84BEF
:102C4000DFF828831B6801931A46D8F8003086F80D
:102C5000284093423463F46205DAA24A42F82360C2
:102C60000133C8F80030A04B336023219F48A04CAB
:102C700017F012FA9F4817F005FE9F4B3A681A604A
:102C80009E4B7A6890481A6004F038FE9C4A9D4931
:102C90008D4819F0F5FF2346002243F834BB236129
:102CA000D9F80030E26062634FF480722281002B19
:102CB00000F0F9811A465B69002BFBD154610025B5
:102CC000844B23608449904865616560A57218F063
:102CD000B5F88E4A22630122D8F8003084F8282003
:102CE000019AE5629A42E56705DD7E4A42F8234093
:102CF0000133C8F80030DFED867ADFED866AC4ED77
:102D0000157A94ED157A97ED008A834BA36327EE2D
:102D1000267A28EE270A87EE086A804B804AE3630A
:102D20004FF0000A7F4BE36400200021C4E91C013E
:102D30002260A4F848A080EE260A84F878A0C4F89F
:102D400080A0794DC4ED147AC4ED177AC4ED197AD8
:102D500084ED156A19F0DAFB10EE100A21F0E2FE9C
:102D60007A686264C4E91A01654A7049604884ED72
:102D7000108A19F085FF2B464FF4807243F834BB5C
:102D80002B61D9F80030C5F80CA0C5F834A02A8111
:102D9000002B00F085811A465B69002BFBD1556141
:102DA0004FF0000A4B4B2B604B496148C5F814A00B
:102DB000C5F804A085F80AA018F040F85D4A2A6317
:102DC0000422D8F8003085F82820019AC5F82CA0F4
:102DD0009A42C5F838A0C5F83CA0C5F840A0C5F88F
:102DE00044A005DD3F4A42F823500133C8F80030C3
:102DF0004FF07E53AB64EB642B656B654E4B404AE2
:102E00002B604E494848DFF854A119F039FF2D498D
:102E10004B48FEF731FF3A4A4A49494819F030FF1A
:102E20005246002142F834BBCAF81020D9F80020DD
:102E3000CAF80C10CAF834104FF48071AAF80810C0
:102E4000002A00F02A8111465269002AFBD1C1F8FC
:102E500014A04FF000091F4B1F49CAF800303A4830
:102E6000CAF81490CAF804908AF80A9017F0E6FF9E
:102E7000D8F80020019B3549CAF8301093424FF032
:102E80000201CAF82C90CAF83890CAF83C908AF827
:102E9000281005DD134941F822A00132C8F80020AE
:102EA0002B4A396811602B4A796811602A4ACAF89E
:102EB000002001228AF84020284805F05DF8104AD9
:102EC000274955E07438FF1F2C39FF1F0080BB478E
:102ED000343AFF1F14D902006CD502004439FF1F99
:102EE000B8DF02001C41FF1F2CEC0200BCD802001E
:102EF0007040FF1F0430FF1F7C29FF1F8029FF1F28
:102F00007029FF1FF10400008840FF1FEC40FF1FE5
:102F100000000000A6552C47DB0F4940DB0FC940DD
:102F200034ED02000000DC433C37FF1FD9040000F1
:102F30005437FF1F7437FF1F6CDB0200C104000011
:102F40009437FF1F850B00007C39FF1F9C39FF1F42
:102F50008829FF1F8C29FF1F28ED02006439FF1FFD
:102F6000A904000008D90200D44FFF1FFC42FF1F34
:102F70004E4819F085FE4E48C0E900450024048102
:102F8000C46001F0EFFB4B48C0E9005A0481C46003
:102F900001F0E8FB48484FF48073C0E9005A038110
:102FA000C46001F0DFFB4548454D06604560048183
:102FB000C46001F0D7FB434840F20113038106606F
:102FC0004560C46001F0CEFB3F494048404E414D52
:102FD000FEF710FF404A41493C4819F051FE404B72
:102FE0003360404BC6F810346723214686F814340A
:102FF000C6F8084406F5836017F020FF3A4B3360AB
:103000002146C6F82C44C6F83044C6F83444C6F805
:10301000384406F58960C6F83C44C6F84044C6F812
:10302000444417F00BFF2C4A3049304619F028FE73
:103030002F4BAB662F4B2B606FF01F036B60782319
:103040002B7425236B612C4985F864404A22EF6676
:10305000EC6005F1180015F035FD284A13782B7245
:1030600031466B7228460133137002F0ADF8244AE2
:103070002A60022223492A67234AE96700236B67F3
:10308000AB67C5F8802085F8844005B0BDEC028BA5
:10309000BDE8F08FC9F80060C7E5C9F800A0D8E620
:1030A000C9F800507CE6C9F8004008E66439FF1F03
:1030B000083CFF1FC83BFF1FD83BFF1FE83BFF1F1B
:1030C000BC37FF1FF83BFF1F343AFF1F7C38FF1F40
:1030D000183CFF1FAC39FF1F7029FF1F09050000B6
:1030E00008E20200E038FF1F18DB0200690500005B
:1030F000543AFF1F4CE20200C4DA02007429FF1F99
:1031000054DA020000007A44000090C170B584686F
:10311000002104F59266FF23054684F8B83484F84C
:10312000C41430460DF016FBC4F88C6430460CF025
:1031300013FE40B90123D4F88C141A4620460BF034
:103140008DFD00B170BDEC6D0849AD682046FEF7FD
:1031500065FC236806495B6816222046984720468E
:1031600017F090FB21462846FFF7ECFCE0D8020060
:10317000E8D80200704700BF002070472DE9F843EF
:10318000002A39D007460D46164601F02BFA804634
:1031900090B307F14804043D58374FF0000901226D
:1031A00055F8043F7BB1BAB1DA685868716894ED9C
:1031B000000A18F0CDFE2B685A69DB68F360726173
:1031C000002209F101090434A742E9D1404601F087
:1031D0004FFA4846BDE8F883DA68D8F80410586812
:1031E00094ED000A18F0B4FE7268F368D8F8041081
:1031F000104618F059FFE3E74FF0FF39E9E700BF49
:103200002DE9F843074600242146384601F084FAA8
:10321000054620B90134042CF6D1BDE8F883416895
:10322000EA6807EB840393ED120A084618F090FE53
:10323000032C04F1010827D0133407EB8404414622
:10324000384601F05BFA08F101080646B8B101F012
:10325000C9F994ED000AC26841688146706818F0A7
:1032600077FE6A68D9F80C30D9F80410104618F0C7
:103270001BFF484601F0FCF9304601F0F9F9B8F1BE
:10328000040F04F10404DAD138462946002201F083
:1032900011FA2846BDE8F84301F0EAB90429A8BFAD
:1032A00004210129036FB8BF0121416103B1D9662F
:1032B000084670470368DB6B184700BF03467C383D
:1032C00053F87C3CDB6B184703685B6C184700BF06
:1032D0002DE9F0434269002A87B0054630DD00241D
:1032E00000F12808264602AF2146404601F006FAC2
:1032F0006A6947F82400002804F1010418BF012678
:10330000A242F1DC56B1002A1ADD00243E46A14655
:1033100056F8041BF9B10134A242F9DCAB68012B69
:1033200012D0002A09DD002457F8040B013410B133
:1033300001F09EF96A69A242F6DC07B0BDE8F083AD
:10334000AB68012BF9D102AF2B6839465B6A28467E
:1033500098476A69E5E7019101F044F901998046CF
:1033600008B96A69D7E7C268002A4FEA820202DD1B
:10337000406823F0ABFFC8F814906A6946F8048CE3
:10338000C9E700BFA0F12800FFF7A2BF70B50C4647
:1033900092B000297AD03F490EA8154617F0B8FC24
:1033A00020460EA902F050FF04460EA817F00AFDB1
:1033B000002C6BD0384906A817F040FD294602A81A
:1033C00017F0C4FC354902A817F042FE01460AA8CE
:1033D00017F0BCFC062632490EA817F02FFD0EABE5
:1033E0000AAA06A90096204602F098FE0EA817F039
:1033F000E9FC0AA817F0E6FC02A817F0E3FC06A80F
:1034000017F0E0FC274906A817F018FD294602A886
:1034100017F09CFC244902A817F01AFE01460AA8DE
:1034200017F094FC21490EA817F008FD0EAB0AAA6C
:1034300006A90096204602F071FE0EA817F0C2FC05
:103440000AA817F0BFFC02A817F0BCFC06A817F0EA
:10345000B9FC164906A817F0F1FC14490AA817F0A0
:10346000EDFC13490EA817F0E9FC0C230AAA06A9E3
:10347000009320460EAB02F051FE0EA817F0A2FCFE
:103480000AA817F09FFC06A817F09CFC204612B073
:1034900070BD00BF74DB020074D1020098140300F9
:1034A0008CDB020094D102004800030094F7020074
:1034B00098DB020030B50C4685B091B10A4905464B
:1034C000684617F0BBFC2046694602F039FF044607
:1034D000684617F077FC24B12B6821465B6B2846C1
:1034E0009847204605B030BDA0DB02002DE9F04131
:1034F0008668C36F88B0012E044604AD2DD02249E2
:10350000DE6C00F17C07284617F098FC3846012352
:1035100000222946B047284617F054FCE36F1B49A8
:10352000D3F85080284617F089FC2368184A9B6816
:10353000934223D16E4604F11801304617F006FC81
:10354000324629463846C047304617F03BFC2846ED
:1035500017F038FC08B0BDE8F08100F17C070A499B
:10356000D3F84C80284617F069FC3846334632467B
:103570002946C047284617F025FCCFE76E4621466E
:1035800030469847DCE700BF8CDB020098DB020086
:103590005105000003467C3853F87C3C5B6C1847AF
:1035A000F0B5C26F034692690E461E49044653F8B1
:1035B0007C0B8A42876B91B02ED11B4B08A81978DF
:1035C00017F0E2FB08A904A817F0C0FB94F88410D8
:1035D0000CA817F0D9FB0CA904A817F031FD94F83A
:1035E0008C1017F053FD6D460146284617F0AEFBD0
:1035F0000CA817F0E7FB04A817F0E4FB08A817F0E5
:10360000E1FB2A4631462046B8470446284617F0D3
:10361000D9FB204611B0F0BD6D46194628469047AB
:10362000EFE700BFA90500007529FF1F30B5C36F84
:10363000274A9B69934291B043D1264B044619789F
:1036400008A817F0A1FB0CAD08A904A817F07EFB91
:1036500094F88410284617F097FB294604A817F021
:10366000EFFC94F88C1017F011FD6C4601462046D3
:1036700017F06CFB284617F0A5FB04A817F0A2FB77
:1036800008A817F09FFB1449284617F041FB214674
:10369000284617F0D5FC0146104817F0C5F80F482A
:1036A00017F0F0F8284617F08DFB22210C4816F091
:1036B000F3FC0A4817F0E6F8204617F083FB11B038
:1036C00030BD6C4600F17C01204698470CADDAE72E
:1036D000A90500007529FF1FB0DB02000430FF1FA1
:1036E000CCDB0200A0F17C00FFF7A0BF2DE9F04F7A
:1036F00087687B1C93B005466FD0002F5CD12C6986
:1037000040F2E5339C4253DC394EDFF8ECA0DFF8A1
:10371000EC906FF063080DE063466A4604A8CDF8AC
:1037200010C009F0DFF800283CD02C6940F2E533E6
:103730009C423DDC96E80F00EE46AEE807000134FF
:103740008AFB04CBE217C2EB6B1208FB02F02118D4
:103750008EF8003030322B6F8DF8052089FB012E5A
:10376000CA17C2EBAE026FF009019B682C6101FB26
:1037700002440444D3F88014303230344FF0000C4B
:103780008DF806208DF807400029C5D1D3F8842490
:103790000B463AB1109104A811466A4607F05AFA4E
:1037A0000028C2D12B6869465B69284698470746BE
:1037B000384613B0BDE8F08F6C6F9CB123680D499B
:1037C0005B68342220469847204617F05BF84FF09C
:1037D000FF37384613B0BDE8F08F0368DB689847C1
:1037E000AF688AE74FF0FF37384613B0BDE8F08F77
:1037F00028DC0200F0DB02001F85EB51676666667D
:103800002DE9F04F2DED028B83B000AF6B46151EF6
:1038100008EE103A786065D005F1070323F007033E
:10382000ADEB030D68465DDD0C1F4FF00009AB00EA
:103830003B6004EB85062346A646EA466A46C84630
:103840004FF0010C4C4608E09E4282F800C0CC6864
:1038500008F1010802F1010208D053F8041F002901
:10386000F2D19E42117002F10102F6D1A1467446D6
:10387000B8F1000F36D0A84563DBDFF82881F346A6
:103880004FF0000A5BF8043F43B1D8F800205B69B1
:10389000991A012900D072BBC8F800300AF1010A58
:1038A000554508F10408EDD13A68D31D23F007030C
:1038B000ADEB030D6D460021284623F007FD2B4696
:1038C00054F8042F0AB152681A60B44203F1040399
:1038D000F6D17B68186F28B102685346946B29466D
:1038E0004A46A04718EE103A0C379D46BD46BDEC3F
:1038F000028BBDE8F08F1421234816F0CDFB514612
:10390000224816F0B7FF1721214816F0C5FBDBF857
:1039100000301E4859690A22002316F0DDFF1021ED
:103920001C4816F0B9FB0023D8F8001017480A22EB
:1039300016F0D2FF154816F0A5FFDBF800305B69E2
:10394000AAE72B21441E1448104E16F0A5FB414651
:103950000E4816F08FFF0421104816F09DFB2946F3
:103960000A4816F087FF0E480B2116F095FB013D23
:10397000554414F8011F304616F07CFFA542F8D1DB
:10398000024816F07FFFADE770DC02000430FF1F35
:1039900088DC0200A0DC020038DC0200ACDF0200A0
:1039A00064DC0200FC40FF1F2DE9F04F8668731CA9
:1039B00093B005460F4600F0E780002E40F0EB8004
:1039C000D5F87080B8F1000F00F0FB80D8F808300F
:1039D000D3F88014002900F0098104AC33463A463C
:1039E0002046049608F07EFF002840F00E819F4B91
:1039F000196831B140F202633A4608F114000BF045
:103A00001DF8D8F84CB0BBF1000F00F0D580D8ED10
:103A10001A7A974C9749D8F86CA0FDEEE77A4FF0E8
:103A2000010388F860300422D8F8643001932046FE
:103A300017EE909A15F046F88F49042204F1080019
:103A400015F040F88D49042204F10C0015F03AF805
:103A50008B49042204F1240015F034F84FF0000CD7
:103A60004FF0010384F811C084F812C084F813C029
:103A700084F815C084F823C04FF0100C237584F827
:103A800010C0019B84F822C0C9F3072C4FEA4900FB
:103A900084F819C0C9F3074C4FEA4A015A4284F826
:103AA0001AC0B2FBF1F2C0F3072C0AFB02F252007B
:103AB000207784F81DC0C0F3074C000E84F8201056
:103AC000E077C1F30721C2F3072084F8211084F8BE
:103AD000282002F1240184F82900C2F30740120EC5
:103AE00084F82B20C1F3072284F816A084F81890DC
:103AF000CAF3072A21714FEA19696271C1F30742BB
:103B0000090E84F817A084F81B9084F81EC084F86E
:103B10002A00A271E171BBF1000F00F089801A4602
:103B20002146584609F016FB686F90B10368554965
:103B30005B68162298476C6F47B1384624F040FA0C
:103B4000236802465B68394620469847204616F0AF
:103B500099FE2B6F0022DA679A674B4B1B68039321
:103B6000039BAB670122AA60394604A817F066F9E7
:103B700004A905F1180017F0C9F904A817F022F9F3
:103B8000304613B0BDE8F08F0368DB689847AE6835
:103B9000002E3FF415AF6C6F44B123683B495B685E
:103BA000342220469847204616F06CFE4FF0FF3630
:103BB000304613B0BDE8F08FD8F85030002B7FF4BA
:103BC00026AF686F0028F1D0036831495B68252271
:103BD00098476C6F002FE6D0384624F0F1F923683F
:103BE00002465B68394620469847DCE7D3F88414E0
:103BF00000293FF4FCAE04AC33463A46204610960A
:103C000007F028F800283FF4F2AED8F80830D3F8CF
:103C10008014B9B1002304933A460123204608F0EA
:103C200061FE00283FF4E3AE204609F015FFDEE612
:103C3000D8F8500000283FF477AF1A46214607F025
:103C4000FBFB71E7D3F88434002B3FF4D0AE109126
:103C50003A4619462046012306F0FCFF00283FF4AF
:103C6000C6AE204607F05AF8C1E600BFB847FF1FAE
:103C70000837FF1F9CD10200A4D10200ACD1020082
:103C8000B4D10200B4DC0200A04EFF1FF0DB020042
:103C9000CCDC020038B505460C4649B1084624F094
:103CA0008FF92B68024621465B68284698470446F0
:103CB000284616F0E7FD204438BD00BF90F860307C
:103CC0002DE9F047054643B905F114000AF0A2FEBC
:103CD000002085F86000BDE8F087C06C002800F087
:103CE0009580C7690021B84609F062F8D5ED1A7AC7
:103CF000504C5149D5F86CA0D5F86490FDEEE77AA8
:103D00000422204617EE906A14F0DCFE4B49042290
:103D100004F1080014F0D6FE4949042204F10C0015
:103D200014F0D0FE4749042204F1240014F0CAFE26
:103D30004FF0000C84F811C084F812C084F813C04E
:103D400084F815C084F823C04FF0100C84F810C01C
:103D500084F822C04FF0010C84F814C0C6F3072C7D
:103D60007100267684F819C0C6F3074C360E4FEA68
:103D70004A02A7EB0903E676B3FBF2F3C1F3072689
:103D80000AFB03F35B0021776677C1F30746090E50
:103D900084F82020E177C2F30722C3F3072184F8D7
:103DA000212084F8283003F1240284F82910C3F379
:103DB00007411B0E84F82B30E86C84F816A0C2F380
:103DC0000723CAF3072A22716371C2F30743120E55
:103DD00084F817A084F81AC0A67784F82A10A37173
:103DE000E27150B14A46214609F0B4F9EB6CB3B127
:103DF0003946184608F0DCFF66E7286D00283FF4D6
:103E000063AF4A46214607F017FBEFE7286D70B114
:103E100007690022002306F07BFCB84666E7286DA0
:103E200000283FF451AF424606F072FC4CE7804652
:103E300007465BE70837FF1F9CD10200A4D10200B0
:103E4000ACD10200B4D1020030B50446006F85B099
:103E500008B1FFF733FF00250949A560684616F051
:103E6000EDFF694604F1180017F050F8684616F0A7
:103E7000A9FF236F0BB1DD679D6705B030BD00BFA3
:103E80005CD502008368012B00D07047FFF7DCBFD0
:103E900003680F4A9B69934210B5044612D18368A8
:103EA000012B11D06368D3F88C040022C3F880245E
:103EB000C3F8842410B103689B6898474FF0FF3320
:103EC000A36010BD9847EDE7FFF7BEFFEAE700BF2C
:103ED000853E00002DE9F8431E46036890469B6925
:103EE000474A934205460F4660D18368012B5FD055
:103EF0002C6FEF602CB1B4FA84F040094042BDE869
:103F0000F8836C68002C56D0902017F001FA3D4BD6
:103F1000036000273C4BC360044647600761C764E9
:103F2000076580F85470D5F8049015F07FFA374B88
:103F300023600223C4F88030354BC4F88430002E4F
:103F4000C4F88830334BA366B8BF03362C236366AE
:103F5000B6106B69E3667600089BA065022EB8BFB9
:103F60000226002BC4F8089084F86070C4F85C80C6
:103F70006767A767E76726672C67BCDB2648984218
:103F8000A8BF184640100428B8BF0420C4F8840015
:103F9000400017F0BFF900236067E367A3672C6F49
:103FA000B4FA84F040094042BDE8F88398479FE79F
:103FB000FFF74AFF9CE74FF4996017F0A9F94FF417
:103FC00099620746214623F081F9144BC7F89034D3
:103FD000134BC7F8A434292387F8A934114BC7F829
:103FE0008044C7F8844487F8984487F8AD4487F83C
:103FF000B44487F8C4446F60C7F89C3484E700BFBA
:10400000853E0000A4D9020054DB0200E4D902007E
:10401000F824010000442C47F049020054F8020043
:1040200003200038E4F702002DE9F04F8668731C86
:1040300093B0044600F0B280002E40F09E805F4DA9
:10404000DFF884815E4FDFF88491B44637E00DF1EC
:10405000100A002301466A465046049308F042FCC9
:1040600038B3606FB0B1036818225B68494698475F
:10407000D4F874B0BBF1000F0CD0684623F0A0FF59
:10408000DBF8003002465B68694658469847584658
:1040900016F0F8FB236F9B68D3F88014002950D0EA
:1040A000002304936A460123504608F01BFC0028B5
:1040B0007FD1D4F810C040F2E5339C4557DC95E839
:1040C0000F00EE46AEE807000CF1010C88FB0C2156
:1040D0004FEAEC72C2EB61128EF800306FF06303AE
:1040E00003FB02F10CEB010302F1300087FB03E25A
:1040F000DB17C3EBA2038DF80500206FC4F810C0D6
:1041000003F13002D0F808E08DF806206FF00902C4
:1041100002FB03C20A44DEF8800430328DF8072027
:10412000002894D1DEF884140029C4D00DF1100ABF
:10413000109003466A46504606F08CFD002890D148
:10414000B7E7D3F88434002BB3D010916A461946F0
:104150005046012306F07EFD0028AAD0504606F006
:10416000DDFDD4F810C040F2E5339C45A7DD002307
:104170003046236113B0BDE8F08F646F9CB12368B3
:1041800010495B68342220469847204616F07AFB97
:104190004FF0FF36304613B0BDE8F08F0368DB68A0
:1041A0009847A66848E74FF0FF36304613B0BDE8A1
:1041B000F08F504609F050FC7BE700BF28DC02007E
:1041C0006766666610DD02001F85EB51F4DC0200B5
:1041D00090F884208A4209D1722B10B5044635D05C
:1041E000732B05D0642B18D0002010BD0020704721
:1041F0002721244815F050FF234816F043FB23687D
:1042000022499A698A422DD1A268012A35D02046D6
:104210005B6C00219847012010BD2D211C4815F032
:104220003BFF194816F02EFB2368184A9B699342FE
:104230001CD1A368012B1CD02046FFF7F5FE236894
:1042400020465B6C00219847012010BD28211148B1
:1042500015F022FF0C4816F015FB236820461B6959
:104260009847ECE7204690472368D0E720469847D8
:10427000E2E72046FFF7E8FDDEE72046FFF7E4FD32
:104280002368C4E774DD02000430FF1F853E000090
:104290009CDD020048DD0200A0F17C00FFF798BF22
:1042A0002DE9F84304462DED028B15F0BFF8266F7B
:1042B000002E00F0998033680546DB6B3046984746
:1042C000064615F0B3F8002EA0EB050440F38780F6
:1042D000494F4A4D3A682B68B242B8BF324642F263
:1042E0001071A342B8BF23468C423A602B6076D946
:1042F000DFF82091DFF82081D9F8001040489FEDC9
:10430000418A9142B8BF1146D8F80020C9F8001080
:104310009A42B8BF1A461B21C8F8002015F0BCFE0F
:104320003146394816F0A6FA0221384815F0B4FE95
:104330003968354816F09EFA0221344815F0ACFE73
:10434000D9F80010304816F095FA02212F4815F0E0
:10435000A3FE0C212E4815F09FFE07EE904AF8EEC2
:10436000677AC7EE887A17EE900A1FF07DFF41EC5E
:10437000100B0121244816F0BBFA0221234815F046
:104380008BFED5ED007AF8EEE77AC7EE887A17EE65
:10439000900A1FF069FF41EC100B01211A4816F03A
:1043A000A7FA0221194815F077FED8ED007AF8EE49
:1043B000E77AC7EE887A17EE900A1FF055FF41ECB6
:1043C000100B0121104816F093FA02210F4815F046
:1043D00063FE0D4816F056FA00233B602B60BDECDF
:1043E000028B3046BDE8F88315F020F8BDEC028B57
:1043F0003046BDE8F88300BF1041FF1F0C41FF1F8E
:10440000CCDD020000007A440430FF1F20D50200FA
:10441000E8DD02001841FF1F1441FF1F10B5194CC1
:104420002DED028B236882B0A3B1174B826F1B68FE
:104430000193019BDFED156A9FED157A9B1A07EE3C
:10444000903AF8EE677A87EEA68AB4EEC78AF1EE64
:1044500010FA05DC0023236002B0BDEC028B10BD16
:1044600035210C4815F018FE18EE100A1FF0FCFE5E
:1044700041EC100B0221084816F03AFA064816F0F3
:1044800001FAE7E76443FF1FA04EFF1F00007A44D4
:10449000CDCCCC3DF8DD02000430FF1F70B50546E1
:1044A0000E46FFF7FDFE041E03DD31462846FFF7EA
:1044B000B5FF204670BD00BFF8B583685A1C00D018
:1044C000F8BD056F0446EDB12A68184992698A4221
:1044D00029D1AE68002106F5926786F8B83486F8CF
:1044E000C41438460CF036F9C6F88C7438460BF014
:1044F00033FC50B90123D6F88C141A4630460AF022
:10450000ADFB10B10023A360F8BDEC6D0849AD68A8
:104510002046FDF783FA07492046FFF7BBFB2146FB
:104520002846FEF70FFB28469047EBE70D310000C9
:10453000E0D80200E8D80200D0ED007ADFED0D6A85
:1045400090ED017A0C4BDFED0D5A1B8886EEA76AC1
:10455000B8EEC77ADFED0A6A27EE067A07EE903AE0
:1045600087EE260AF8EEE77A77EEA57A87EE800ADC
:10457000704700BF50A92B4BD84FFF1F0000000011
:104580000000C842D0ED007ADFED0D6A90ED017AAF
:104590000C4BDFED0D5A1B8886EEA76AB8EEC77A82
:1045A000DFED0A6A27EE067A07EE903A87EE260AD2
:1045B000F8EEE77A77EEA57A87EE800A704700BFBB
:1045C00050A92B4BDC4FFF1F000000000000C84229
:1045D00010B50446006818B1A168091A16F09EFECD
:1045E000204610BD72B61E4B186820B9586808B333
:1045F0002022043300E00022B0FA80FC4FF000419A
:1046000021FA0CF120EA0100164918600B780133F9
:10461000DBB20B7062B614491F3208681349A2EB73
:104620000C0250F82200012202700A789A4238BF28
:104630000B707047986840B9D86848B9186950B984
:10464000586958B1A0221433D6E740220833D3E783
:1046500060220C33D0E780221033CDE762B670477A
:104660001443FF1F1043FF1F0443FF1F1243FF1F8C
:1046700038B1427872B60378012B03D9013B03703D
:1046800062B670474FEA521C08480949D24302F00B
:104690001F024FF00043D34050F82C2013430A78F8
:1046A00040F82C30531E0B70EAE700BF1443FF1F85
:1046B0001043FF1FC36A13B91DE0DB68E3B1187A2A
:1046C0009042FAD110B4586893F809C0006B50F8C2
:1046D0002C4054B1DB682BB1187A9042F3D0DB68E0
:1046E000002BF9D15DF8044B704740F82C10087886
:1046F00001300870EEE77047704700BF90F828302F
:104700008B4206D9036B002253F8210043F8212085
:1047100070470020704700BF38B590F828308B42B2
:104720001DD9036B53F82140002243F82120B4B176
:104730002378012B01D8204638BDFFF753FF0546EB
:1047400028B1826861684068920014F0BBF963691F
:104750006B612378013B23702C46204638BD002432
:10476000204638BD4368427A93F828309A420DD8E3
:1047700072B60168CB6A53B11A46DB68002BFBD1D5
:10478000D060426801230B72137262B67047C86230
:10479000F7E700BF2DE9F84FD0E900890F469246B0
:1047A0006FF06041A9EB0802B1EBA20F58D0931053
:1047B000012B1A4638BF01229C1806464CD2A7EBA3
:1047C0000805A346002C3DD1DAF800304BF805303F
:1047D000002D26DCA9EB07090435B9F1000F5D4473
:1047E00015DC4D44B8F1000F05D1C6F800B0756076
:1047F000B460BDE8F88FB168A1EB0801404616F03F
:104800008DFDC6F800B07560B460BDE8F88F28462D
:1048100039464A4614F056F94D44B8F1000FE4D039
:10482000E9E72A46A9EB07094146584622F0D2FC9F
:104830000435B9F1000F5D44E9DCB1684D44A1EBEA
:104840000801DBE78C4228BF0C46A400204616F086
:104850005FFD83460444B7E7034CA7EB0805F5E783
:10486000024818F03BFA00BFFCFFFF7F28DF020080
:10487000002800F0B8802DE9F04F00245A4EDFF8F0
:104880007CB18DB089460746A0460BE052F8245013
:10489000D9F80430AA689A424FEA840A40DA01340F
:1048A000A74237D0D6E900239B1AB4EBA30FEDD370
:1048B000182016F02DFDD9F80430802105468B42D2
:1048C0006FF060421846B8BF08469342A860E9609E
:1048D000B4BF80004FF0FF30C5F810B016F01AFDDD
:1048E0007168B368D9F800C0D9F80420EA60994229
:1048F0006860C5F810C008956FD041F8045B71601E
:1049000051F8043C5B68002BC9D10134A74208F17F
:104910000108C7D1B8F1000F2FD10DB0BDE8F08F5D
:10492000686810B1042116F0F9FC2846182116F029
:10493000F5FC182016F0ECFC8023C360D9F8043095
:10494000C0F810B00546802B6FF060421846B8BF23
:1049500080209342A8600DDA800016F0DBFCD9F8C5
:1049600000302B613368D9F804206860EA6043F8AE
:104970000A5094E74FF0FF30EFE71C4904A816F007
:104980005DFA0A224146684616F06CFA694604A8A8
:1049900016F056FB164916F05BFB0A220446394610
:1049A00008A816F077FA08A9204616F049FB114925
:1049B00016F04EFB0146104815F036FF0E4815F074
:1049C00061FF08A816F0FEF9684616F0FBF904A886
:1049D00016F0F8F90DB0BDE8F08F08AA3046FFF7E1
:1049E000D9FE71688CE770470443FF1F44DF020063
:1049F00090DF0200B4DF02000430FF1FA6552C47F1
:104A0000C02870B50546064628BFC02572B6154CAD
:104A10002846FFF72DFF002121606160A160E16061
:104A200021616161DEB10A468C46012001E054F843
:104A30002C1002F01F0300FA03F301320B439542DE
:104A400044F82C304FEA521CF1D8074A1268002370
:104A5000043A52F8041F4B7001339D42F9D862B6F4
:104A600070BD00BF1443FF1F0443FF1F002801DB7C
:104A7000FFF7C6BF704700BF0448054A0549002339
:104A800003604360836018F0FBB800BF0443FF1F5E
:104A90007029FF1FD1450000002B11DD8446043A28
:104AA000081D00B5844402EB830E5CF8041F42F835
:104AB000041F7245F9D1013B00EB83005DF804FB54
:104AC00008467047002B0FDD844601F1080010B541
:104AD000844402EB83045CF804EB42F804EBA2424A
:104AE000F9D101EB830010BD0846704738B5D0F806
:104AF0003424D0F830349A4210D00546002453F8BC
:104B00002400013430B103681B689847D5F830346D
:104B1000D5F83424D11AB4EBA10FF0D338BD00BFBF
:104B20002DE9F843D0F830C4D0F834E4E64519D084
:104B300006460F469046994600245CF824504B46A2
:104B40004246394628463DB12D68AD68A84750B960
:104B5000D6F830C4D6F834E40134AEEB0C03B4EB31
:104B6000A30FEAD30020BDE8F88300BFD0F83034AB
:104B7000D0F834249A4214D070B505460E4600246D
:104B800053F82400013438B103683146DB68984794
:104B9000D5F83034D5F83424D01AB4EBA00FEFD3C5
:104BA00070BD70472DE9F041D0F83034D0F834545E
:104BB0009D421DD0104F06468846002404E0013473
:104BC000EA1AB4EBA20F13D253F824000028F6D04F
:104BD00002685268BA42F2D04146904748B9D6F8C6
:104BE0003034D6F834540134EA1AB4EBA20FEBD3C4
:104BF0000020BDE8F08100BF6904000070B588B0F6
:104C00000E460446194904A8154616F017F9314610
:104C100004A816F015FA164916F01AFA294616F0E5
:104C20000FFA0146684616F091F804A816F0CAF883
:104C3000104904A816F002F9694604A816F000FA13
:104C400001460D4815F0F0FD0B4815F01BFE04A8B9
:104C500016F0B8F8D4F8100410B1694604F010FD4D
:104C6000684616F0AFF808B070BD00BFBCDF0200A8
:104C7000C4DF0200C8DF02000430FF1F30B5D0F8E7
:104C8000202485B0044642B900F5836500212846FA
:104C900005B0BDE8304016F0E5BA0E49684604F5A7
:104CA000836516F0CBF82946684616F0C9F9014627
:104CB000094815F0B9FD084815F0E4FD684616F0FE
:104CC00081F8D4F8100410B1294604F0D9FCD4F8C6
:104CD0002024DBE7C8DF02000430FF1FF0B589B0F5
:104CE000174604460E46684600211D4616F0A6F8F3
:104CF00007B31D4904A816F0A1F8314604A816F020
:104D00009FF91A4916F0A4F90146684616F076F99B
:104D100004A816F057F8694604F5836016F06EF99A
:104D200095B1236820469B699847684616F04AF873
:104D300009B0F0BD0C4904A816F080F8314604A86B
:104D400016F07EF90A49DDE71C210A4815F0A4F99E
:104D50006946094815F068FD074815F093FD684657
:104D600016F030F809B0F0BDE8DF0200F4DF020011
:104D7000F8DF0200FCDF02000430FF1FF0B506463A
:104D800087B0002102A816F059F8317A00230024D8
:104D900003290094019308BF012511D006F10805ED
:104DA00008E016F03DF915F8011F032904F101038D
:104DB0003FD01C46D6F80834A34202A8F1DC651C9B
:104DC000474902A816F072F958B14648182115F063
:104DD00063F9454815F056FD02A815F0F3FF07B03A
:104DE000F0BD424902A816F061F958B118214048B7
:104DF00015F052F93C4815F045FD02A815F0E2FF08
:104E000007B0F0BD3B4902A816F050F9A0B93A49E5
:104E100002A816F04BF9D8B9D6F82C34002B52D092
:104E2000D6F8082406F10800521B284402A9984726
:104E3000D2E7A51C1C46C3E71821304815F02CF911
:104E4000294815F01FFD02A815F0BCFF07B0F0BD02
:104E500019212B4815F020F9234815F013FDD6F839
:104E600008345B1B032BB7DD06F108070422791910
:104E7000684613F027FE0721224815F00DF9009926
:104E8000194815F0F7FC184815F0FCFCD6F8083462
:104E900005341B1B032B9FDD04220DEB0200391987
:104EA00013F010FE0921184815F0F6F801981FF0CC
:104EB000DBF941EC100B02210B4815F019FD0A48F3
:104EC00015F0E0FC88E71521104815F0E5F802A977
:104ED000054815F0A9FC044815F0D4FC7CE700BF98
:104EE0001CE0020020E002000430FF1F3CE0020052
:104EF00040E002005CE002007CE0020060E00200B2
:104F000084E00200A0E00200A8E00200B4E0020099
:104F1000436870B504460D46052B16D8DFE803F04C
:104F200016232D3949030A290DD00D290BD002294A
:104F30006CD0036884F82A149E6A90F8292490F8AB
:104F400028142B46B0470023636070BD02295DD052
:104F50005F297BD00D29F8D00A29F6D00368BDE877
:104F600070401B6A1847032969D0D0F80C34C21866
:104F700001331172C0F80C3470BDD0F80C34D0F885
:104F80000824934220DAC21801331172C0F80C349D
:104F900070BD0A29D7D00D29D5D0022936D00023DB
:104FA00084F82814042280F8293480F82A344260D6
:104FB00070BD0A29C7D00D29C5D0022926D00523E6
:104FC00084F82914436070BD04292CD044212D4855
:104FD00015F062F80023102204212B4815F07CFC08
:104FE00008212A4815F058F829462748002310229E
:104FF00015F072FC2648092115F04EF8224815F0EC
:1050000041FC00236360C4F80C3470BD3421214896
:1050100015F042F81C4815F035FC012200236260AF
:10502000C4F80C3470BD39211B4815F035F816480A
:1050300015F028FC236820465B6A9847E1E7D0F822
:105040000C24042A05D015482821D5E70323436002
:1050500070BD00F1080100F5816013F033FD0222FC
:1050600000236260C4F80C3432210D4815F014F8A6
:10507000D4F80814044815F0FDFBBDE87040024860
:1050800015F000BCA0E102000430FF1FE8E10200BF
:10509000F4E10200CCE0020064E1020038E1020029
:1050A00004E102002DE9F84FD0E900890F4692464D
:1050B0006FF06041A9EB0802B1EBA20F58D093103A
:1050C000012B1A4638BF01229C1806464CD2A7EB8A
:1050D0000805A346002C3DD1DAF800304BF8053026
:1050E000002D26DCA9EB07090435B9F1000F5D445A
:1050F00015DC4D44B8F1000F05D1C6F800B075605D
:10510000B460BDE8F88FB168A1EB0801404616F025
:1051100005F9C6F800B07560B460BDE8F88F2846A0
:1051200039464A4613F0CEFC4D44B8F1000FE4D0A6
:10513000E9E72A46A9EB07094146584622F04AF812
:105140000435B9F1000F5D44E9DCB1684D44A1EBD1
:105150000801DBE78C4228BF0C46A400204616F06D
:10516000D7F883460444B7E7034CA7EB0805F5E7F7
:10517000024817F0B3FD00BFFCFFFF7F28DF0200ED
:1051800030B583B00C46019179B1D0F83414D0F821
:105190003834994205460BD041F8044BC0F834141A
:1051A00023682946DB6B20469847204603B030BD74
:1051B00001AA00F58660FFF775FF019CF0E700BFCC
:1051C000704700BF00207047C1607047C0687047DB
:1051D000C06810B103689B6918477047F0B5C6688E
:1051E00085B076B11D463368144668461F6915F0D0
:1051F000ADFD30462B4622466946B847684615F055
:10520000E1FD05B0F0BD00BF70B5C56888B09DB1C7
:105210002B68144668465E6915F098FD214604A87F
:1052200015F094FD04AA69462846B04704A815F075
:10523000C9FD684615F0C6FD08B070BD70B50C46D6
:105240008EB061B3114605460AA81E4615F07EFDD4
:1052500020460AA900F0F8FF04460AA815F0B2FD9E
:10526000ECB12B68314602A89E6A15F06FFD1299C9
:1052700006A815F06BFD13990AA815F067FD0AAB97
:1052800002AA21460093284606ABB0470AA815F0AB
:1052900099FD06A815F096FD02A815F093FD20468D
:1052A0000EB070BD70B50C468EB000292ED01146E0
:1052B00005460AA81E4615F049FD20460AA900F039
:1052C000C3FF04460AA815F07DFDFCB12B683146EA
:1052D00002A81E6B15F03AFD129906A815F036FDCE
:1052E00013990AA815F032FD149B01930AAB02AA88
:1052F00021460093284606ABB0470AA815F062FD88
:1053000006A815F05FFD02A815F05CFD20460EB062
:1053100070BD00BF70B58CB004460E46417A08A837
:10532000154615F031FD314608A815F089FE0146F5
:10533000684615F00BFD08A815F044FD2368694682
:1053400004A81E6D15F002FD294608A815F0FEFC04
:1053500008AA04A92046B04708A815F033FD04A800
:1053600015F030FD684615F02DFD0CB070BD00BF86
:10537000F0B58DB004460E46417A04A81F46154686
:1053800015F002FD314604A815F05AFE0A22064621
:10539000394608A815F066FD08A9304615F050FEFC
:1053A0000146684615F0D2FC08A815F00BFD04A8CC
:1053B00015F008FD2368694604A81E6D15F0C6FCAB
:1053C000294608A815F0C2FC08AA04A92046B0473F
:1053D00008A815F0F7FC04A815F0F4FC684615F0D1
:1053E000F1FC0DB0F0BD00BF002900F0BD802DE93B
:1053F000F04F9A46036893469B69604A93429BB07C
:1054000080460F4640F0B1805D4B12AE19780EAD6C
:10541000304615F0B9FC16AC3146284615F096FC1E
:1054200098F80810204615F0AFFC2146284615F0E4
:1054300007FE98F8101015F029FE0DF10809014635
:10544000484615F083FC204615F0BCFC284615F0B4
:10545000B9FC304615F0B6FC98F80910204615F056
:1054600093FC5946204615F0EBFD014606A815F0C1
:105470006DFC204615F0A6FC4249284615F0DEFCDE
:1054800049460AA815F062FC51460AA815F0D8FD55
:105490000146304615F05AFC4FF004083A492046C0
:1054A00015F0CCFC234632462946CDF8008038461C
:1054B00000F034FE204615F085FC304615F082FCE5
:1054C0000AA815F07FFC284615F07CFC2E492846DA
:1054D00015F0B4FC2C49304615F0B0FC06A9204666
:1054E00015F034FC234632462946CDF80080384674
:1054F00000F014FE204615F065FC304615F062FC05
:10550000284615F05FFC2149284615F097FC4946CE
:105510000AA815F01BFC24990AA815F091FD014674
:10552000304615F013FC1849204615F087FC234639
:1055300032462946CDF80080384600F0EFFD20467F
:1055400015F040FC304615F03DFC0AA815F03AFC79
:10555000284615F037FC06A815F034FC484615F02F
:1055600031FC1BB0BDE8F08F70470DF10809014612
:105570004846984712AE0EAD16AC6DE7A90500007F
:105580007529FF1F3CE2020094F7020040E202008E
:105590002DE9F04F2DED028BA5B00390002900F00E
:1055A000328108EE903A036808EE102A9B699B4A04
:1055B00093420646884640F02B81994B1CAC1978E3
:1055C00018AD204615F0E0FB0DF1800A2146284673
:1055D00015F0BCFB317A504615F0D6FB51462846F3
:1055E00015F02EFD317C15F051FD0DF1100B01462B
:1055F000584615F0ABFB504615F0E4FB284615F075
:10560000E1FB204615F0DEFB319B002B40F3F880D8
:10561000039B319A5B699342C0F2F280039B814EF7
:105620001733029300271CAC18AD0DF1800A039BC1
:105630002046597A15F0A8FB18EE101A204615F0EE
:10564000FFFC0A2281463946504615F00BFC5146B4
:10565000484615F0F5FC014608A815F077FB5046C2
:1056600015F0B0FB204615F0ADFB0021584615F0B3
:1056700067FD0178284615F087FB2946504615F04E
:1056800065FB0121584615F05BFD0178204615F0B9
:105690007BFB2146504615F0D3FC029B13F8011FFB
:1056A000029315F0F3FC01460CA815F04FFB2046C1
:1056B00015F088FB504615F085FB0137284615F09C
:1056C00081FB0A22394610A815F0CCFB10A9284608
:1056D00015F03CFB3146204615F0B0FB31465046F4
:1056E00015F0ACFB02225346294600924046224662
:1056F00000F014FD504615F065FB204615F062FBE6
:10570000284615F05FFB4849284615F097FB0CA981
:1057100014A815F01BFB18EE901A14A815F090FCB5
:105720000146204615F012FB4FF003093146504662
:1057300015F084FB534622462946CDF8009040469A
:1057400000F0ECFC504615F03DFB204615F03AFB0E
:1057500014A815F037FB284615F034FB31462846CF
:1057600015F06CFB3146204615F068FB08A9504641
:1057700015F0ECFA04225346294600924046224690
:1057800000F0CCFC504615F01DFB204615F01AFB2E
:10579000284615F017FB2549284615F04FFB0CA9A4
:1057A00014A815F0D3FA309914A815F049FC014655
:1057B000204615F0CBFA3146504615F03FFB5346D4
:1057C00022462946CDF80090404600F0A7FC5046FE
:1057D00015F0F8FA204615F0F5FA14A815F0F2FACB
:1057E000284615F0EFFA10A815F0ECFA0CA815F001
:1057F000E9FA08A815F0E6FA319B9F427FF417AF4B
:10580000584615F0DFFA25B0BDEC028BBDE8F08FED
:105810000DF1100B039958469847F5E6A9050000CD
:105820007529FF1F94F702003CE2020040E20200EB
:10583000084614F0B7BC00BFD0F88030012B10B57B
:10584000044605D0C06A0368BDE810405B6918478C
:10585000D0F88430D0F888209A4206DD5A1C2344C0
:10586000C4F8842093F88C0010BD03689B6C9847A3
:10587000D4F88430D4F888209A42EFDC4FF0FF301F
:1058800010BD00BFD0F88030012B2DE9F041074654
:105890000C4616460ED09AB10E440025F86A14F84C
:1058A000011B03681B689847A6420544F6D12846A9
:1058B000BDE8F08190F84C0013F06EFD012803D094
:1058C00000252846BDE8F0813B683246214638462F
:1058D0005B6CBDE8F04118472DE9F041114B1D7894
:1058E00015F0010519D0DAB1DFF83C8007460C4607
:1058F0008E18002504E014F055FCB44205440CD089
:10590000BA6A14F8010B13681B684345F3D00146CB
:1059100010469847B4420544F2D12846BDE8F081CC
:105920001546FAE7C84FFF1F315800000B4B1B7894
:1059300013F001030BD0826A136810B41B68084C83
:10594000A34206D15DF8044B084614F02BBC184660
:1059500070475DF8044B1046184700BFC84FFF1F43
:105960003158000010B5104C1048542114F094FB2D
:10597000204614F087FF34210D4814F08DFB20469B
:1059800014F080FF35210B4814F086FB204614F0FC
:1059900079FF4D21084814F07FFB204614F072FF78
:1059A0004FF0FF3010BD00BF0430FF1FA4E2020023
:1059B000FCE2020034E302006CE302002DE9F8434C
:1059C0009046002A46D0064601F1FF07B8F1FF0FC6
:1059D000DFF88C90F06A4FF00005A7F1FF041BD9A7
:1059E000036849465B680F229847F06A03680D21F7
:1059F0001B689847F06A14F8011B03681B689847F6
:105A0000BC420544F6D1A8F1FF08FF37B8F1FF0FFB
:105A1000F06AA7F1FF04E3D8036810495B680C2221
:105A2000984700230A224146F06A14F055FFF06AB5
:105A300003680D211B6898470027F06A14F8011BC2
:105A400003681B6898470137B8450544F5DC2846CC
:105A5000BDE8F88315462846BDE8F883CCE302008C
:105A6000BCE30200D0F88030012B70B5044605D0AD
:105A7000C06A0368BDE870401B691847D0F88850B9
:105A8000D0F88430ED1A002D0FDCC06A03681B6962
:105A9000984718B1236820469B6C9847D4F88850E3
:105AA000D4F88430ED1A284670BD1721054814F04B
:105AB000F3FA2946044814F0DDFE034814F0E2FE30
:105AC000284670BDDCE302000430FF1FD0F88030B0
:105AD000012B70B5044605D0C06A0368BDE870406C
