:1000000000000320D1010000D54001009140010013
:100010009140010091400100914001009140010098
:10002000914001009140010091400100D540010044
:10003000D540010091400100B9320100BD320100FC
:10004000D5400100D5400100D5400100D540010058
:10005000D5400100D5400100D5400100D540010048
:10006000D5400100D5400100D5400100D540010038
:10007000D5400100D5400100D5400100D540010028
:10008000D5400100D5400100D5400100D540010018
:10009000D5400100D5400100D5400100D540010008
:1000A000D9A80000E5A80000D5400100D540010016
:1000B000D5400100D5400100D54001009550010018
:1000C000D5400100D5400100D5400100D5400100D8
:1000D000D5400100D5400100D5400100D5400100C8
:1000E000D5400100D5400100D5400100D5400100B8
:1000F000D5400100D5400100D5400100D5400100A8
:10010000013401001D34010039340100553401006F
:10011000D5400100ED530100D5400100D54001005C
:10012000D5400100D5400100D5400100D540010077
:10013000D5400100D5400100D5400100D540010067
:1001400081300100D5400100D5400100D5400100BB
:10015000D5400100D5400100D5400100D540010047
:10016000D5400100D5400100F1A80000D5400100B4
:10017000D5400100D5400100D5400100D540010027
:10018000D5400100D5400100D5400100D540010017
:10019000D5400100D5400100D5400100D540010007
:1001A000D5400100D5400100D5400100FDA8000068
:1001B000D5400100D5400100D5400100D5400100E7
:1001C000D5400100D5400100D5400100D5400100D7
:1001D0005F4B4CF2205210B5DA814DF62812DA81CD
:1001E00000BF00BF13F07AFF5A4B4FF030621A6322
:1001F000594A9A63594ADA634FF0E0234FF4700288
:10020000C3F8882D03F5E823554A1A60554B9A78B0
:10021000110703D59A7842F008029A70524B53485E
:10022000AA221A70524BDA1C121AC11E22F00302C3
:10023000994288BF00224F4913F056FE4E4B4F485B
:10024000DA1C121AC11E22F00302994288BF002252
:10025000002122F0C7FC4A494A484FF4E87213F0E3
:1002600043FE494B494A802103F8011B9342FBD1CD
:100270004FF0E023434AC3F8082D454B8A221A70F9
:10028000A3F5805324225A70A0221A709A799207FB
:10029000FCD59A79D406FCD43E4A937903F00C033A
:1002A000082BFAD1304B60225A70DA78802AFCD1C0
:1002B000384B01221A715D225A719A799006FCD549
:1002C0009A795106FCD5234A33495164002191643F
:1002D000202119702F498B7903F00C030C2BFAD1D4
:1002E0002E4B53602E4A136913F4807303D153616C
:1002F0004FF4A85313614FF0E0232A4A5A610022B9
:100300009A6107221A61284AC3F8202D62B614F0B8
:100310004DF9234B5B69DA0705D5244814F03AF907
:10032000234B244ADA61244B1B785B0609D5204C09
:10033000204BE2699A4204D11C4814F02BF90023A7
:10034000E36113F0D1FE23F003F813F0C5FDFEE7DF
:100350000020054000800440823F04000100002B83
:100360000300008500D0074000E007403007FF1F72
:100370006814FF1F58DB02006430FF1F6814FF1F62
:10038000000000000002FF1F00E400E064E400E061
:10039000005006400040064000000602C010070062
:1003A00000D003401FBF020000002020DC84E8656D
:1003B00000E00340A5C3945A00F00740FFFFFFFF91
:1003C000FFFFFFFFFFFFFFFFFFFFFFFFFFFFFFFF3D
:1003D000FFFFFFFFFFFFFFFFFFFFFFFFFFFFFFFF2D
:1003E000FFFFFFFFFFFFFFFFFFFFFFFFFFFFFFFF1D
:1003F000FFFFFFFFFFFFFFFFFFFFFFFFFFFFFFFF0D
:10040000FFFFFFFFFFFFFFFFFFFFFFFFDEF9FFFF23
:100410000548064B1B1AD90F01EBA301491002D066
:10042000034B03B1184770476814FF1F6814FF1F80
:100430000000000008B5054B1BB105490548AFF3A6
:100440000080BDE80840FFF7E3BF00BF00000000E8
:100450006814FF1F80D8020000207047704700BF5B
:10046000C1657047C06D704700207047007A7047C3
:10047000407A704741720846704700BF007C704761
:100480000429A8BF04210129B8BF01214161084600
:10049000704700BF40697047C0F8101408467047A5
:1004A000D0F81004704700BF10B5044B044640F864
:1004B000183B13F029FA204610BD00BFB492020089
:1004C00010B5044B044640F8183B13F01DFA2046C3
:1004D00010BD00BFB492020010B5044B044640F8B2
:1004E000183B13F011FA204610BD00BFB492020071
:1004F00010B5044B044640F8183B13F005FA2046AB
:1005000010BD00BFB492020038B50546074B45F850
:10051000643B0446803013F0F7F904F1700013F0E7
:10052000F3F9284613F0F0F9204638BD3CA202004A
:1005300010B5044682B00846019123F061F92368A2
:1005400001999B690246204602B0BDE81040184759
:1005500010B51831044613F09DF9204610BD00BFB8
:1005600015F0E2BB15F0A4BB10B504460C4B23609C
:1005700000F5886007F0A8FE04F24C4013F0C4F9BF
:10058000D4F82C04074B236020B1D4F83414091A92
:1005900013F030FE04F5836013F0B6F9204610BD69
:1005A000BC940200E4A4020030B5134B8BB00D469E
:1005B0000446197801A813F089F901A907A813F0D6
:1005C00069F9297A04A813F081F904A907A813F09E
:1005D000C1FA297C13F0E4FA0146204613F05AF9D7
:1005E00004A813F091F907A813F08EF901A813F0ED
:1005F0008BF920460BB030BD3507FF1F70B50C4698
:100600008EB0002979D03E490BA8154613F008F9A1
:1006100020460BA907F02AFD04460BA813F074F935
:10062000002C6AD0374905A813F0FAF8294602A829
:1006300013F030F9344902A813F094FA014608A8DF
:1006400013F028F9042631490BA813F0E9F80BAB95
:1006500008AA05A90096204607F072FC0BA813F023
:1006600053F908A813F050F902A813F04DF905A8A2
:1006700013F04AF9264905A813F0D2F8244908A82E
:1006800013F0CEF823490BA813F0CAF80BAB08AA55
:1006900005A90096204607F053FC0BA813F034F987
:1006A00008A813F031F905A813F02EF91A4905A886
:1006B00013F0B6F8294602A813F0ECF8174902A87F
:1006C00013F050FA014608A813F0E4F810490BA8FB
:1006D00013F0A6F80BAB08AA05A90096204607F070
:1006E0002FFC0BA813F010F908A813F00DF902A8BD
:1006F00013F00AF905A813F007F920460EB070BDF3
:10070000A4890200B4890200D8D50200BC89020085
:1007100058B10200C8890200D4890200B4AE0200B8
:1007200010B54FF6FE702DED048B144613F044F80F
:1007300007EE900A2368DFED348AB8EE677A012B62
:10074000C7EE287A0DD0022B2AD013B3BDEC048B50
:10075000DFED2E6A87EEA60AB2EE047A20EE070AD3
:1007600010BDB6EE007AF4EEC77AF1EE10FA2ED98B
:10077000B7EE000A30EE670A20EE070AB5EE400A2F
:10078000F1EE10FA33D4B1EEC07AF7EE007A77EEDC
:10079000C77AB6EE007A77EEC77A77EEA77AD5E712
:1007A000B6EE009A77EEC97A4FF6FE7037EEA78A5A
:1007B00013F002F807EE900AB8EE677AC7EE287ACF
:1007C00077EEC97A77EEA77A67EE887ABEE727EEEA
:1007D000877AB5EE407AF1EE10FA0DD4F1EEC77AD1
:1007E000B6EE007A77EEC77A77EEA77AAEE715F025
:1007F00091FFB0EE407AC8E7B0EE470A15F08AFFE5
:10080000F0EE407AC5E700BF00FE7F4700FEFF46DE
:1008100015F074BB90F88C3170B5044653B1036881
:100820005B6A0D4698472368294620469B6ABDE8C7
:10083000704018470368BDE870405B6A184700BF06
:1008400090F86C3170B50446A0F120066BB150F8F9
:10085000203C30465B6A0D46984754F8203C2946B8
:1008600030469B6ABDE87040184750F8203C30463F
:100870005B6ABDE87040184790F88C3170B504464B
:1008800063B10368DB6A0D46164698472368324613
:10089000294620461B6BBDE8704018470368BDE839
:1008A0007040DB6A184700BF90F86C312DE9F041C9
:1008B0000446A0F120067BB150F8203C3046DB6AAC
:1008C0000F461546984754F8203C2A46394630468C
:1008D0001B6BBDE8F041184750F8203C3046DB6AFE
:1008E000BDE8F041184700BF70B590F8643084B09F
:1008F00004469BB90D4609B104B070BD03680F49A9
:10090000DE6C01A812F08CFF01232A46204601A9C3
:10091000B04701A812F0F8FF04B070BD03680749A2
:10092000DD6C01A812F07CFF01231A46204601A9C4
:10093000A84701A812F0E8FF04B070BDBC8902000E
:1009400010B103685B6B18472A2070470268017476
:10095000536C034A934201D108467047184700BFC1
:100960007D04000010B50446806A074A0368DB680E
:10097000934207D115F0C2FAE06A0368BDE810405F
:10098000DB6818479847F7E71108000010B50446E0
:100990008068074A0368DB68934207D115F0AEFA16
:1009A000E0680368BDE81040DB6818479847F7E740
:1009B00011080000806A044A03681B69934201D150
:1009C00015F0B2B9184700BF61050000806A044AFB
:1009D00003685B69934201D115F06AB9184700BFFB
:1009E000650500002DE9F0470546C06C002800F0C1
:1009F000A58095F86030B3B905F114000EF0A6FAA1
:100A0000002385F86030AB68D3F88C040022C3F86B
:100A10008024C3F88424002800F09F800368BDE888
:100A2000F0479B6818470021C7690CF05DFCD5EDC5
:100A30001A7A534C5349D5F86C90D5F86480FDEE82
:100A4000E77A0422204617EE906A13F04DFA4E49D9
:100A5000042204F1080013F047FA4C49042204F17F
:100A60000C0013F041FA4A49042204F1240013F067
:100A70003BFA4FF0000C84F811C084F812C084F8DF
:100A800013C084F815C084F823C04FF0100C84F80C
:100A900010C084F822C04FF0010C84F814C0C6F3D3
:100AA000072C7100267684F819C0C6F3074C360E61
:100AB0004FEA4902A7EB0803E676B3FBF2F3C1F372
:100AC000072609FB03F35B0021776677C1F307462E
:100AD000090E84F82020E177C2F30722C3F307212F
:100AE00084F8212084F8283003F1240284F82910A6
:100AF000C3F307411B0E84F82B30E86C84F8169082
:100B0000C2F30723C9F3072922716371C2F30743B4
:100B1000120E84F8179084F81AC0A67784F82A1069
:100B2000A371E271D8B1424621460CF0AFFDEB6CE7
:100B3000F3B1394618460CF0D7FB5DE7286D002865
:100B40003FF461AF95F86030002B3FF455AF0022C1
:100B5000002307690AF078F869E7BDE8F087286D97
:100B600000283FF449AF424621460AF001FFDEE784
:100B7000286D00283FF440AF3A460AF065F83BE79D
:100B80008814FF1FDC890200E4890200EC8902005E
:100B9000F489020010B5064B03600446FFF722FFFC
:100BA000044BE36004F114000EF0D0F9204610BDB0
:100BB000449302002C93020010B5084B03600446D6
:100BC000FFF710FF064BE36004F114000EF0BEF9CE
:100BD0002046702113F00EFB204610BD4493020006
:100BE0002C93020010B50446D0F88C000B4B236008
:100BF00010B1042113F0FEFA606F10B1022113F05E
:100C0000F9FA074B23602046FFF7ECFE054BE36043
:100C100004F114000EF09AF9204610BD84930200EE
:100C2000449302002C93020010B50446D0F88C00C7
:100C30000D4B236010B1042113F0DCFA606F10B18A
:100C4000022113F0D7FA094B23602046FFF7CAFEB2
:100C5000074BE36004F114000EF078F92046902170
:100C600013F0C8FA204610BD84930200449302009A
:100C70002C93020000B5036C83B08DF8071043B1CC
:100C800001220DF1070118460CF000FD03B05DF8DC
:100C900004FB406C0028F9D001220DF107010AF095
:100CA00067FE03B05DF804FB38B51F4B1F49416771
:100CB000044603F130020360426203F09DFBA56E1F
:100CC00005B32B681A4A5B69934229D1D5F88C0089
:100CD000184B2B6010B1042113F08CFA686F10B11F
:100CE000022113F087FA144B2B602846FFF77AFE97
:100CF000124BEB6005F114000EF028F99021284604
:100D000013F078FA0E4B636204F13C0012F0FCFD24
:100D100020460C4B40F8183B12F0F6FD204638BD3B
:100D200028469847EEE700BFDC970200749802005F
:100D3000290C000084930200449302002C930200CB
:100D4000B4920200D0930200036814495A6E8A429A
:100D500022D170B590F86450114984B004466DB941
:100D600001A8DE6C12F05CFD01232A46204601A991
:100D7000B04701A812F0C8FD04B070BD01A8DD6C39
:100D800012F04EFD01231A46204601A9A84701A8EA
:100D900012F0BAFD04B070BD00211047E908000050
:100DA000BC890200F0B503680E469A691B49DF6DE5
:100DB0008A428DB004462CD1194B06A8197812F03E
:100DC00085FD06A903A812F065FD217A09A812F095
:100DD0007DFD09A903A812F0BDFE217C12F0E0FE02
:100DE0006D460146284612F055FD09A812F08CFD0B
:100DF00003A812F089FD06A812F086FD2A463146A6
:100E00002046B8470446284612F07EFD20460DB025
:100E1000F0BD6D46014628469047EFE7A905000062
:100E20003507FF1FF0B58DB0002945D00D460446AB
:100E3000294909A812F0F4FC284609A907F092F9FB
:100E4000054609A812F060FD002D35D0236823491E
:100E50009A6D8A4239D1DF6D214A9B6993422FD125
:100E6000204B06A8197812F031FD06A903A812F04C
:100E700011FD217A09A812F029FD09A903A812F091
:100E800069FE217C12F08CFE6E460146304612F05F
:100E900001FD09A812F038FD03A812F035FD06A8DF
:100EA00012F032FD324629462046B847304612F04D
:100EB0002BFD28460DB0F0BD002528460DB0F0BD35
:100EC0006E46214630469847ECE729462046904733
:100ED00028460DB0F0BD00BFFC890200A50D000042
:100EE000A90500003507FF1F10B5C36C82B004468A
:100EF0008DF8071073B190F854208AB901220DF1D2
:100F0000070118460CF0C2FB94F85430D3B9012005
:100F100002B010BD006D0028FAD094F8543043B1EF
:100F200013F034FCE36CA065002BE7D1206D0028A2
:100F3000EAD001220DF107010AF01AFD94F85430AD
:100F4000002BE4D00721094814F020FF13F01EFC09
:100F5000A16D0023411A0A22054812F03DFB044806
:100F600012F02CFB012002B010BD00BF048A020069
:100F7000F40CFF1FF8B5C36C04460D4617466BB161
:100F800090F8541079B93E463A46294618460CF076
:100F90007DFB94F85430C3B93046F8BD006D60B3A2
:100FA00094F854301BB313F0F1FBE36CA0653E469C
:100FB000002BE9D1206D0028EBD03A4629460AF0F3
:100FC000D7FC94F85430002BE6D007210C4814F0DD
:100FD000DDFE13F0DBFBA16D0023411A0A22094854
:100FE00012F0FAFA074812F0E9FA3046F8BD3A462C
:100FF00029463E460AF0BCFCE3E70646CCE700BFC4
:10100000048A0200F40CFF1F70B50368264A9B692E
:1010100093428CB0054640D1244B06A8197812F0B3
:1010200055FC09AC06A903A812F034FC297A204625
:1010300012F04CFC214603A812F08CFD297C12F022
:10104000AFFD6E460146304612F024FC204612F0F9
:101050005BFC03A812F058FC06A812F055FC1449DA
:10106000204612F0FBFB3146204612F073FD01468C
:10107000104812F075FA0F4812F0A0FA204612F04C
:1010800043FC37210C4814F081FE0A4812F096FA0E
:10109000304612F039FC0CB070BD6E460146304649
:1010A000984709ACDBE700BFA90500003507FF1F23
:1010B0000C8A0200F40CFF1F208A020003682F4AEA
:1010C0001B6E934249D1F0B50D468DB000294BD02F
:1010D0002B49044609A812F0A3FB284609A907F0EA
:1010E00041F8054609A812F00FFC002D3CD02368FA
:1010F00024499A6D8A4231D1DF6D234A9B6993421C
:1011000036D1224B06A8197812F0E0FB06A903A8F5
:1011100012F0C0FB217A09A812F0D8FB09A903A894
:1011200012F018FD217C12F03BFD6E460146304660
:1011300012F0B0FB09A812F0E7FB03A812F0E4FBE1
:1011400006A812F0E1FB324629462046B847304651
:1011500012F0DAFB28460DB0F0BD184729462046AC
:10116000904728460DB0F0BD002528460DB0F0BDD3
:101170006E46214630469847E5E700BF250E000041
:10118000FC890200A50D0000A90500003507FF1F1E
:10119000F0B5224E33688B4285BF00233360CB1AF3
:1011A0000B469A4287B00C46054601D907B0F0BD00
:1011B0001B4903A812F034FBE86E03F071FC012117
:1011C000684612F009FC694603A812F0C3FC014608
:1011D000144812F0C5F9134812F0F0F9684612F0FD
:1011E00093FB03A812F090FB2B680F491F6D03A817
:1011F00012F016FBE86E03F053FC0121684612F072
:10120000EBFB6A4603A92846B847684612F07CFB08
:1012100003A812F079FB346007B0F0BD8014FF1F03
:10122000588A0200F40CFF1FC8890200027A8A4221
:1012300025D170B5432B84B0044625D0632B20D133
:101240002C21264814F0A2FD254812F0B7F9236896
:1012500024495A6E01258A4284F8645033D12249C8
:10126000DE6C01A812F0DCFA2B462A4601A92046C2
:10127000B04701A812F048FB284604B070BD00201A
:101280007047002004B070BD3821184814F07EFD6E
:10129000134812F093F9236812495A6E00258A42C6
:1012A00084F8645014D11049DE6C01A812F0B8FA29
:1012B00001232A46204601A9B04701A812F024FBC9
:1012C000012004B070BD2046002190472846D9E790
:1012D0002046294690470120D4E700BF848A0200B7
:1012E000F40CFF1FE9080000BC890200B48A020068
:1012F0002DE9F043B14CB24DB24FDFF814938BB0EF
:1013000006462721B04814F041FD204612F056F958
:101310001321AE4814F03AFD204612F04FF9172180
:10132000AB4814F033FD204612F048F92D21A948AE
:1013300014F02CFD204612F041F92621A64814F0A5
:1013400025FD204612F03AF93821A44814F01EFD7C
:10135000204612F033F93821A14814F017FD204639
:1013600012F02CF99F4907A812F05AFA0A2295F8B0
:10137000841004A812F004FB04A907A812F0EAFBE9
:10138000994912F0EFFB0146204612F0E9F8204699
:1013900012F014F904A812F0B7FA07A812F0B4FA80
:1013A000924904A812F03CFA0A22D6F8381401A88F
:1013B00012F0E6FA01A904A812F0CCFB394612F0AB
:1013C000D1FB95ED200A8046012107A812F004FB0D
:1013D00007A9404612F0BEFB494612F0C3FB014686
:1013E000204612F0BDF8204612F0E8F807A812F0E7
:1013F0008BFA01A812F088FA04A812F085FA7C4949
:1014000004A812F00DFA0A22D6F83C1401A812F032
:10141000B7FA01A904A812F09DFB394612F0A2FB0D
:1014200095ED200A8046012107A812F0D5FA07A9F8
:10143000404612F08FFB494612F094FB01462046CD
:1014400012F08EF8204612F0B9F807A812F05CFAF4
:1014500001A812F059FA04A812F056FA6549DFF80B
:10146000B49107A812F0DCF995ED1F0A012104A838
:1014700012F0B2FA04A907A812F06CFB5E4912F050
:1014800071FB0146204612F06BF8204612F096F8E8
:1014900004A812F039FA07A812F036FA574904A83E
:1014A00012F0BEF90A22D6F8381401A812F068FA30
:1014B00001A904A812F04EFB394612F053FB95ED3A
:1014C0001E0A8046012107A812F086FA07A94046A5
:1014D00012F040FB494612F045FB0146204612F04F
:1014E0003FF8204612F06AF807A812F00DFA01A89A
:1014F00012F00AFA04A812F007FA414904A812F0FF
:101500008FF90A22D6F83C1401A812F039FA01A981
:1015100004A812F01FFB394612F024FB95ED1E0AB9
:101520000746012107A812F057FA07A9384612F01A
:1015300011FB494612F016FB0146204612F010F846
:10154000204612F03BF807A812F0DEF901A812F0CD
:10155000DBF904A812F0D8F921212A4814F016FC6E
:10156000204612F02BF8304605F0D2F9204612F052
:1015700025F8254907A812F053F9D5ED1E7A95ED07
:10158000200A012130EE270A04A812F025FA04A946
:1015900007A812F0DFFA1D4912F0E4FA01462046CE
:1015A00011F0DEFF204612F009F804A812F0ACF9A1
:1015B00007A812F0A9F90BB0BDE8F083F40CFF1FE7
:1015C0000417FF1F888C0200F08A0200188B0200AB
:1015D0002C8B0200448B0200748B02009C8B020057
:1015E000D88B0200148C0200B0890200548C0200D7
:1015F0009C8C0200D08C0200088D0200108D02002D
:101600004C8D0200808D0200A48D0200D08D02005E
:10161000948C0200448D020003682DE9F0411B6A9E
:10162000234EB3423FD1C36C04460F46154673B3F5
:1016300090F854205AB92E462A46394618460CF0DE
:1016400025F894F854307BB93046BDE8F08113F0AA
:101650009DF8E36CA0652E46002BEDD1206DE8B916
:1016600094F85430002BEFD00721124814F08EFB71
:1016700013F08CF8A16D0023411A0A220E4811F0D4
:10168000ABFF0D4811F09AFF3046BDE8F081006DC8
:1016900060B194F85430002BD9D12E462A463946F1
:1016A0000AF066F9CDE7BDE8F04118470646CBE7FA
:1016B000750F0000048A0200F40CFF1F036870B568
:1016C0001B6A5500214A934239D1C36C04460E4629
:1016D00053B390F854204AB92A46314618460BF0C5
:1016E000D5FF94F854306BB9284670BD13F04EF80E
:1016F000E36CA065002BEFD1206DD8B994F854307D
:10170000002BF1D00721124814F040FB13F03EF8F3
:10171000A16D0023411A0A220E4811F05DFF0D4809
:1017200011F04CFF284670BD006D60B194F8543044
:10173000002BDBD12A4631460AF01AF9D1E72A46B6
:10174000BDE8704018470546CEE700BF750F0000A2
:10175000048A0200F40CFF1F036870B51B6A950031
:10176000214A934239D1C36C04460E4653B390F8D4
:1017700054204AB92A46314618460BF087FF94F8A0
:1017800054306BB9284670BD13F000F8E36CA065C7
:10179000002BEFD1206DD8B994F85430002BF1D044
:1017A0000721124814F0F2FA12F0F0FFA16D0023A5
:1017B000411A0A220E4811F00FFF0D4811F0FEFEEB
:1017C000284670BD006D60B194F85430002BDBD119
:1017D0002A4631460AF0CCF8D1E72A46BDE87040E7
:1017E00018470546CEE700BF750F0000048A0200C7
:1017F000F40CFF1FF0B50368274FDE6EBE4287B0C2
:1018000044D1264E1346326891423BBF00223260DB
:101810008A1A0A46934204460D4601D907B0F0BD24
:101820001F49684611F0FCFFE06E03F039F9012111
:1018300003A812F0D1F803A9684612F08BF901460B
:10184000184811F08DFE174811F0B8FE03A812F0E9
:101850005BF8684612F058F8236813491F6D684614
:1018600011F0DEFFE06E03F01BF9012103A812F076
:10187000B3F803AA69462046B84703A812F044F813
:10188000684612F041F8356007B0F0BD334607B046
:10189000BDE8F040184700BF911100008014FF1F01
:1018A000588A0200F40CFF1FC88902002DE9F04F8E
:1018B000446F83B080468B4692469946B4B1836F9D
:1018C000C26F0AFB09F5934203EB050424DAA24236
:1018D000C0F2C180D0F884108C4280F2AC80B9F1A3
:1018E000000F40F3D380002301932BE0D0F8803029
:1018F000694890FBF3F00428B8BF0420C8F88400BE
:10190000400012F073FC0AFB09F5C8F87C40C8F8E7
:101910007840C8F874002C46D8F88430A342DEDC46
:101920000021D8F87830D8F87C200191C8F88830A8
:1019300000239A42C8F8783001DD95427EDCB9F187
:10194000000F1BDD4FEA8A066FF060439A4528BFFF
:101950004FF0FF360027ABF10405002402E001340C
:10196000A1450BDD55F8043F002BF8D1D8F88C00C9
:10197000002850D00134A1452860F3DCBAF1000FF3
:1019800040DDABF1040B00229FED447ADFED446AA9
:10199000444B0BEB89069446B9F1000F2EDDD8F8C5
:1019A0007820D8F874E002F10045013D4FEA8C0739
:1019B0000EEB4505584650F8041F3944D1ED007A26
:1019C00067EE877A47F6FF74F4EEC77AF1EE10FA05
:1019D0000ADCF4EEE67AF1EE10FA89BFFDEEE77A62
:1019E0001C4617EE901A0CB2B04225F8024FE2D115
:1019F0004A44C8F87820013A2EF812400CF1010C44
:101A0000E245C9DC019B1BB1D8F87830C8F87C30BE
:101A100003B0BDE8F08F304612F0E8FBBAF10103E5
:101A200058BF024604D4013B591C42F8047BFAD14A
:101A3000C8F88C009EE70021019177E73B211A4806
:101A400014F0A4F9194811F0B9FDB9F1000F17DD30
:101A50000123019376E73B21134814F097F91348CB
:101A600011F0ACFDD8F884309C4206DB0121D8F897
:101A70007830D8F87C20019158E7B9F1000FE7DC05
:101A8000BAF1000FC0DD012301937AE7BAF1000F2C
:101A9000BEDD0023019374E7F049020000FEFF461B
:101AA00000FEFFC60180FFFFD88D0200F40CFF1F6F
:101AB000416F026F2DE9F843002900F002810446CE
:101AC000D000A56FE76FBD4236DAD4F88830DD1B51
:101AD000002D64DDA842A8BF284682420646DCBF2E
:101AE00090FBF2F002FB00F62268D2F82090764AD2
:101AF000914501EB47054FEA460840F08880E06CCD
:101B0000002868D094F85430002B40F0B380294668
:101B100042460BF0BBFD94F85430002B40F0998006
:101B2000E76FD4F888303E449E420ABF0023E66740
:101B3000E3674046BDE8F883ED1BAA422ADCA842D1
:101B4000A8BF284690FBF2F602FB06F66EB32368A8
:101B50005D4A1B6A934201EB47074FEA460840F093
:101B6000A180E06C00285BD094F85430002B40F04A
:101B70008D80394642460BF089FD94F85430002B95
:101B800034D1B8F1000F4ED0E36F3344E3674046E1
:101B9000BDE8F8834FF000084046BDE8F883002315
:101BA0009846E3674046BDE8F8832F21474814F084
:101BB000EDF82946464811F0F9FC0221454814F099
:101BC000E5F83146424811F0F1FC414811F0F6FCCD
:101BD000616FE76FBBE7206D00B394F85430002BC2
:101BE00048D12946424609F0C3FE94E707213A4806
:101BF00014F0CCF812F0CAFDA16D0023411A0A229C
:101C0000334811F0E9FC324811F0D8FCB9E74246FC
:101C100029462046C847E76FD4F88830804682E7D7
:101C2000206D002844D135212C4814F0AFF83146FE
:101C3000274811F0BBFC0221264814F0A7F8002128
:101C4000234811F0B3FC224811F0B8FC4FF0000813
:101C50009AE70721204814F099F812F097FDA16D3A
:101C60000023411A0A221A4811F0B6FC184811F054
:101C7000A5FC55E712F08AFDA065E06C00287FF412
:101C800046AF206D00283FF446AFAAE712F07EFD74
:101C9000A065E06C00287FF46CAF206D00283FF455
:101CA0006CAF09E04246394620469847804668E7CF
:101CB00094F85430002BE9D13946424609F058FED9
:101CC0005BE74FF0FF3867E7750F0000148E0200E6
:101CD000F40CFF1F448E0200048A0200488E0200AA
:101CE00070B50C4659B10546084621F089FD2B68B0
:101CF0000246214628465B68BDE870401847084602
:101D000070BD00BF2DE9F04104464FF0FF38C4F824
:101D10000C804FF02A08C4F810804FF00808C4F86F
:101D200030804FF02708C4F838804FF00A08C4F814
:101D300040804FF02208C4F844804FF01F08C4F8D8
:101D400048804FF03808C4F84C804FF02108754A9D
:101D5000C4F854804FF01408A261A267C4F86080F0
:101D600080224FF4165892B000258E46E2676E49E5
:101D70006E4AC4F874804FF02C08002301206C4E8A
:101D8000A160656123216B4DC4F858804FF0240C8D
:101D90004FF0050820772371636284F85C30606639
:101DA000C4F88030C4F88430C4F8883084F88C31AA
:101DB000226525676163E666C4F83CC0C4F86880A4
:101DC000CDE90622CDE908220A920C924FF4E132C5
:101DD00004911192DEF80010574A8DF82C30072735
:101DE0000D9010954B1E02F15405009115202260B4
:101DF0000F210622C4F89071CDF80CC00E970F96F3
:101E00002562019002910592092B1DD8DFE803F0AD
:101E1000515B3F3F627705052424232127220A20B6
:101E20002223CDE90403019102921F2138222120AF
:101E3000CDE9061214234FF416512C2209900C936D
:101E4000052311910A920E932046694605F07AFD0A
:101E5000204612B0BDE8F0811A2011210F22102374
:101E60000190029109200E2103920493052202237E
:101E70000590069101202421079209934FF41652F0
:101E800016238DF82C000C9111920A93DCE7232085
:101E90000A2122221F23019004912120142105925E
:101EA00006934FF41652052308900C9111920E934D
:101EB000CAE71E4B0E9302200121002208908DF8E4
:101EC0002C100D92C0E7194B0E93022100220891AD
:101ED0000D92B9E70A2204921F222A20222106929B
:101EE000212214230190059140204FF416510892AD
:101EF0000522029307900C9311910E92A4E72321DF
:101F000027220A202223CDE90403019102921F21F6
:101F100038222120CDE9061214234FF416512C2229
:101F200008908CE700442C475007FF1FF1D8FFFFB3
:101F3000F40CFF1FC40CFF1FC09202002DE9F041FA
:101F40004FF0FF3300254B4A8360022304460260B2
:101F50004361C560056182B00E461830464911F0F4
:101F60005FFC464A464B636204F1540113686163A7
:101F70004FF4807104F1240704F158082563656566
:101F8000A185002B73D01A465B69002BFBD15761EA
:101F900000253C4B3C496362A563A56284F82E5042
:101FA00004F13C0011F03CFC384B394A19681368C5
:101FB000C4F8508004208B42E564A565E56525667C
:101FC000656684F8480004DA324941F82370013329
:101FD0001360314B2360002103F130002F4A60620F
:101FE0004FF0FF33A166E2662167204600934FF46D
:101FF000007302F023FAD6ED007A9FED297AF4EE11
:10200000C77AF1EE10FA08DD9FED267AF4EEC77A72
:10201000F1EE10FA48BFDFED247AA36E0BB1C3EDE9
:102020001A7A25236FF01F0000217822A067C4F8D8
:10203000801084F88420C4F888301C494A2204F1B6
:102040008C0011F051FF1A491A4B0A7884F87C2051
:10205000501C087003F1500003F15C0160622046DF
:1020600084F87D202360616702B0BDE8F0811760CD
:102070008EE700BFD0930200808E0200C42AFF1FAB
:10208000A8920200B4920200908E02005C990200B5
:102090005420FF1F741EFF1FDC970200F40CFF1F6B
:1020A00000542C4700562C4700442C4768940200EB
:1020B0003407FF1F18980200F0B50D46044685B09E
:1020C0000D216430EF6A04F1800611F0FFFB0D2151
:1020D00004F1700011F0FAFB0021E767304611F0BF
:1020E0009FFB4FF47A63C4F88C300723C4F8903018
:1020F0004FF0FF33C4F894303823C4F898302223CB
:10210000C4F89C30164901A811F08AFB01A9304699
:1021100011F086FC01A811F0F7FB6A6CE86CC4F8BA
:1021200098000023C4F89C206FF01F01782025221E
:1021300084F8A0306160E3602074626109494A223A
:1021400004F1180011F0D0FE074A084913782372F1
:10215000581C107020466372216005B0F0BD00BFAE
:1021600058B10200689402003407FF1F3CA202002D
:10217000F0B58DB000F58865424909A811F050FB13
:1021800009A9284605F0EEFF064609A811F0BCFB98
:102190003D4909A811F044FB09A9304605F066FF46
:1021A000044609A811F0B0FB384903A811F038FB28
:1021B000374906A80C2711F033FB364909A811F05E
:1021C0002FFB09AB06AA0DEB07010097204605F08F
:1021D000B7FE09A811F098FB06A811F095FB0DEBCE
:1021E000070011F091FB2C490DEB070011F018FBD3
:1021F0002A4906A811F014FB294909A811F010FB7F
:1022000009AB06AA0DEB07010097204605F098FEE2
:1022100009A811F079FB06A811F076FB0DEB070079
:1022200011F072FB1F490DEB070011F0F9FA1E497E
:1022300006A811F0F5FA1D4909A811F0F1FA09AB49
:1022400006AA0DEB07010097204605F079FE09A8C4
:1022500011F05AFB06A811F057FB0DEB070011F027
:1022600053FB3146124801F04FFC124909A811F006
:10227000D7FA09A9284605F095FF09A811F044FBF3
:102280000DB0F0BD9C8E0200AC8E0200BC8E020030
:1022900060CA0200C88E0200D48E0200E08E0200E6
:1022A000E48E0200F08E020050C60200008F020091
:1022B0000C15FF1F0C8F020070B5044684B049B1A5
:1022C0002D4B1D6F012D34D0022D52D0002D40D04A
:1022D00004B070BD03680D4601A828491E6911F0BD
:1022E0009FFA2A46012301A92046B04701A811F010
:1022F0000BFB236822491E6901A811F091FA2A46B6
:10230000012301A92046B04701A811F0FDFA236876
:102310001C491E6901A811F083FA01232A4601A96C
:102320002046B04701A811F0EFFA134B1D6F012DA5
:10233000CAD1236812491E6901A811F071FA2B460F
:102340002A4601A92046B04701A811F0DDFA04B0E1
:1023500070BD236809491D6901A811F061FA0123C4
:102360001A46204601A9A84701A811F0CDFA04B0E9
:1023700070BD23680349EEE70417FF1FC88E0200F3
:10238000E48E0200008F020038B504460D46FFF7C8
:1023900093FF29462046BDE8384004F0F9BA00BF53
:1023A00010B5D0F84434D0F848241344002B84B03E
:1023B000044622DD01A804F5886105F01BFF01A990
:1023C000134811F0CDF8124811F0F8F8D4F81004C1
:1023D00001A903F013FF23680E4ADB6993420FD172
:1023E00020460021FFF768FF0021204604F0D0FAC4
:1023F00001A811F089FA04B010BDFFF7B9FED9E7C2
:1024000000212046984701A811F07EFA04B010BDC3
:10241000F40CFF1F8923000010B5214C206703280E
:1024200012D8DFE800F03622021200211D4806F023
:1024300075F902211B4806F0A7FA9FED1B0A1948FF
:1024400006F00CFA84ED1D0A10BD0221154806F0B5
:102450009BFA0121134806F061F99FED130A114818
:1024600006F0FCF984ED1D0A10BD00210D4806F0B0
:1024700055F903210B4806F087FA0121094805F0B8
:1024800069FB9FED090A074806F0E8F984ED1D0A8B
:1024900010BD0021034806F041F90121CAE700BF41
:1024A0000417FF1F8C17FF1F000000002DE9F041EB
:1024B0008AB013F039FC002848D1854802F0A0FD0D
:1024C000002827DC834C8449204602F09BFA834B8A
:1024D0001B7873B9A268824D012A11D12B68019330
:1024E000A2F10102B2FA82F201997E48520905F086
:1024F00015FB7D4C94F864307BBB0AB0BDE8F081DD
:102500002A6800920099724841F2883204F0A6F9D4
:10251000A268E3E7002107A811F082F96C480022C5
:1025200007A904F015F8051E0CDD704E00242146A5
:1025300007A811F08FFB01340178304604F0FAFB54
:10254000A542F4D107A811F0DFF9BBE713F0B0FB07
:10255000C1B2664804F0EEFBAFE7614D644F2B68F3
:102560000293029E3B689E423BBF00233B60F31AEE
:10257000334640F6B832934245D82B685D4E0393FC
:10258000039D33689D423AD3EB1A40F6B73293422B
:10259000B3D9594904A811F043F9E06E02F080FA6A
:1025A000012107A811F018FA07A904A811F0D2FA1E
:1025B0000146524810F0D4FF504810F0FFFF07A822
:1025C00011F0A2F904A811F09FF94D4904A811F0E7
:1025D00027F9E06E02F064FA012107A811F0FCF976
:1025E00007AA04A9404804F021FD07A811F08CF9BE
:1025F00004A811F089F935600AB0BDE8F081002324
:1026000033602B46C1E7A06E3E4903680C225B682D
:102610009847E06ED4F8688002F042FA10EE100A93
:102620001DF008FB41EC100B4046012110F0E0FFCB
:10263000A06E3549036802225B689847E06ED4F8C3
:10264000688002F053FA10EE100A1DF0F3FA41EC24
:10265000100B4046012110F0CBFFA06E2B49036800
:1026600003225B689847A06E2949036812225B68C1
:102670009847284BA06E19780A22002310F0ACFF6F
:10268000A06E2549036801225B689847234BA06E22
:1026900019780A22002310F09FFFA06E20490368DA
:1026A0000E225B6898470020D4F8688020F07CFEFA
:1026B00007AB0146591A404610F078FFA06E10F0A3
:1026C0007DFF94F864303E60002B7FF456AF14E732
:1026D0005016FF1F0C15FF1F9016FF1F501EFF1FE7
:1026E000502BFF1F8C17FF1F0417FF1F7019FF1FB0
:1026F0008414FF1F8014FF1F588A0200F40CFF1F70
:10270000C88902001C8F02002C8F0200308F02004B
:10271000348F02006820FF1F488F02006A20FF1FCD
:102720004C8F020010B59FED327AB4EEC70AF1EE7D
:1027300010FA2DED048B06DC9FED2E7AB4EEC70A5D
:10274000F1EE10FA3CD82C4C2C4BD4ED0F8A83EDD3
:102750001F7AF6EE007A68EEA77AF0EE479AF4EE6A
:10276000E79AF1EE10FAD8BFF0EE697AD4E91A01CF
:1027700050EA010302D094F8783073B9C4ED127AAC
:1027800094ED0E7A67EE877AB0EE690A87EEA87A42
:10279000BDEC048B84ED147A10BD94ED129A37EEE3
:1027A000C98A1DF0AFFE07EE900A88EE277A002254
:1027B0000023C4E91C23F0EE497A84ED187ADFE7A0
:1027C0000E4B0D4C83ED1F0AB5EEC00AF1EE10FA68
:1027D000D4ED0F8A04D5DFED0A7AF0EE409AC5E712
:1027E000F6EE007A68EEA77AF0EE409AB7E700BFFF
:1027F0000000FA4600007A41C81DFF1F0417FF1FA2
:102800000000000070B5774D774C696F774E88B047
:102810003220019111F0DCFF0199284605F0C0F942
:10282000002340F2DC5085F88C3111F0D1FF2121DA
:102830006F4813F0ABFA6F4810F0C0FE6E4905A860
:1028400010F0EEFF94ED000A022102A811F0C4F886
:1028500002A905A811F07EF90146664810F080FE35
:10286000644810F0ABFE02A811F04EF805A811F074
:102870004BF8624905A810F0D3FF0A22616802A84C
:1028800011F07EF802A905A811F064F90146594833
:1028900010F066FE574810F091FE02A811F034F8CF
:1028A00005A811F031F821466420554C02F092FB46
:1028B000284606F011FD206FFFF7AEFD94ED200ACB
:1028C000D4ED1E7A70EE277AB8EE087AF4EE477AE5
:1028D000F1EE10FAC8BFF0EE477A37EEC00A28468C
:1028E00006F04CFAD4ED207A84ED1E0AF5EEC07A9B
:1028F0000023F1EE10FA7364B364F364336566D5B4
:10290000DFED400AB2EE040A67EEA00A13F0A4FE5F
:10291000B5EE400AF1EE10FAF0EE407A5CD4B1EE7A
:10292000E77A394B94ED1F0A83ED157AFFF7FAFE2B
:1029300094F884309FED357A354C002BF7EE007A11
:1029400008BFF0EE477AFA20C6ED117A11F040FF89
:102950000122D5F890112F4803F04CFCFA2011F019
:1029600037FF2D4804F1740104F01CFB2B4AA36EC1
:10297000E2660222626103B1DA66294905A810F015
:102980004FFF0A22616902A810F0FAFF02A905A808
:1029900011F0E0F8234911F0E5F80146154810F070
:1029A000DFFD144810F00AFE02A810F0ADFF05A8E4
:1029B00010F0AAFF10211C4813F0E8F90D4810F0A0
:1029C000FDFD154808B0BDE87040FEF791BCC4F8A5
:1029D0008030F7EE007AA2E713F09CFEB0EE407A6A
:1029E0009FE700BF8C17FF1FE415FF1FB814FF1FE0
:1029F0005C8F0200F40CFF1F808F0200948F020096
:102A00000417FF1FCDCCCC3DC81DFF1F00000000E8
:102A10000C15FF1F5016FF1F7019FF1FAC17FF1F6B
:102A2000B48F0200C88F0200D48F0200FFFFFFFFA7
:102A30002DE9F04F2DED068B83B03F4B019310EE47
:102A4000100AB0EE408A1DF0F5F839A3D3E900234F
:102A50001DF048F9DFED398A394B00221DF06CFA80
:102A600028EE288ADFED377A4FF0000A4FF0000B8E
:102A700088EE279A2EA7D7E90067D046D946544654
:102A80005D4641EC1A0B9FED308A03E013F06CFDBC
:102A90005BEC10AB53EC1A2B204629461CF06CFF64
:102AA00032463B4604460D461DF0ACFB844632469A
:102AB0003B4620462946BCF1000F03D01CF05AFFCC
:102AC00004460D46B0EE480A13F046FB38EE098A7C
:102AD00010EE100AB4EEE88AF1EE10FAC8BF38EE34
:102AE000688A1DF0A7F802460B46504659461CF06E
:102AF00041FF02460B461DF0F5F80B4602464946DB
:102B000040461CF039FF019B013B45EC104B8046D1
:102B100089460193BAD10A4B00221DF00DFA1DF02F
:102B2000D9FB00EE100A03B0BDEC068BBDE8F08FB8
:102B300000000060FB21094000770100DB0F4940E5
:102B40000070F7400080BB470000000070B52DED1D
:102B5000028BA1F13E038AB00446392B3BD8DFE853
:102B600013F0D7003A003A00CC0074003A003A0063
:102B70003A00480049023A003A004100DF004C02A6
:102B80003A003A003A003A003A003A003A003A0075
:102B90003A003A009B013A003A003A003A003A0003
:102BA0003A003A003A003A001B0145013A003A0067
:102BB0002701B201240220023A004100F901280253
:102BC0003A003A003A003A003A0064014F027401B8
:102BD0003A003A002B020AB0BDEC028BBDE870400F
:102BE00003F0F2BEFFF7DCFB01200AB0BDEC028B64
:102BF00070BDBA4CDFEDBA7A94ED1F0A20EE270AB9
:102C0000FFF790FDB74907A810F00AFE94ED1F0AE0
:102C1000012104A810F0E0FE04A907A810F09AFF13
:102C2000B14910F09FFF0146B04810F099FCAF4841
:102C300010F0C4FC04A810F067FE07A810F064FEB2
:102C400001200AB0BDEC028B70BDD0F83834A34D22
:102C5000A74895ED1E7A95ED200A5B4207EE903A63
:102C6000F8EEE77A77EE877AB8EE087A77EE807A30
:102C7000F4EE477AF1EE10FAC8BFF0EE477A37EE7D
:102C8000C00A06F07BF89B4985ED1E0A04A810F0E7
:102C9000C7FD95ED1E0A01A8012110F09DFE01A9B6
:102CA00004A810F057FF944910F05CFFD5ED1E7A90
:102CB00095ED200A044630EE270A07A8012110F0FE
:102CC0008BFE07A9204610F045FF8C4910F04AFF03
:102CD0000146864810F044FC844810F06FFC07A8B9
:102CE00010F012FE01A810F00FFE04A810F00CFE68
:102CF00001200AB0BDEC028B70BD814B81480022DF
:102D000012215A6413F042F8784810F057FC6BE730
:102D100042217D4813F03AF8744810F04FFC63E705
:102D2000D0F838346D4D5B4207EE903A95ED207A3D
:102D3000F8EEE77A002377EE877AF5EEC07AF1EEC7
:102D400010FA40F17F81DFED710AC5ED207A67EE60
:102D5000A00AB2EE040A13F07FFCB5EE400AF1EED1
:102D600010FAF0EE407A00F17581B1EEE70A684B97
:102D7000684907A883ED150A10F052FD95ED200A69
:102D800004A8012110F028FE04A907A810F0E2FE13
:102D90005A4910F0E7FE46E7594B5F494FF07E5223
:102DA0005A6407A810F03CFD4C4B93ED200AE7E76E
:102DB00029215A48494D12F0E9FF4C4810F0FEFB1A
:102DC000022600214A482E6705F0A8FC48483146F3
:102DD00005F0DAFD46489FED520A05F03FFD00215F
:102DE000204685ED1D0AFFF767FAFDE63B4D00F52D
:102DF0008763D3ED007A95ED1E7A95ED200A3C4865
:102E0000F8EEE77A77EE877AB8EE087A77EE807A8E
:102E1000F4EE477AF1EE10FAC8BFF0EE477A37EEDB
:102E2000C00A05F0ABFF3F492EE73F4800F012FF14
:102E30003E4907A810F0F4FC3D4904A810F02AFD13
:102E400004A907A810F086FEEDE63721394812F0F4
:102E50009DFF264810F0B2FB9FED370AFFF7E8FD13
:102E6000364907A8B0EE408A10F0DAFC9FED340A2C
:102E700088EE000A13F0C0FB04A80221F3EE047AE6
:102E800020EE270A10F0A8FD04A907A810F062FEA2
:102E90002C4910F067FEC6E627212B480F4D12F093
:102EA00075FF124810F08AFB0126002110482E679A
:102EB00005F034FC03210E4805F066FD31460C4850
:102EC00004F048FE86E7054CDFED207A94ED1F0AFA
:102ED00020EE270AFFF726FC1D4994E60417FF1F82
:102EE000F52F4B3F449102001C900200F40CFF1F91
:102EF0008C17FF1F9C9102007C910200D08D020074
:102F0000B814FF1FD8900200F4910200CDCCCC3D44
:102F1000C81DFF1F08910200B490020088900200B3
:102F200000000000649102000C15FF1FB491020024
:102F30002415FF1FE88F020000007A442090020051
:102F4000F304B53F38900200609002001845A13F9D
:102F50002491020000F58763D3ED007A3F4DF8EE2F
:102F6000E77A95ED207A77EE877A0023F5EEC07A3E
:102F7000F1EE10FA61D5DFED3A0AC5ED207A67EE81
:102F8000A00AB2EE040A13F067FBB5EE400AF1EEB8
:102F900010FAF0EE407A5AD4B1EEE70A314B3249DA
:102FA000E7E603689B6898471EE62C4D00F23C4319
:102FB0001FE700F23C43CFE722212C48274E12F0B6
:102FC000E5FE00252A4810F0F9FA29462948356718
:102FD00005F0A4FB0121274805F0D6FC25489FED0C
:102FE000260A05F03BFC2946204686ED1D0AFFF720
:102FF00063F9F9E5D0F83C3429E6D0F83C3491E6A1
:103000001E4907A810F00CFC1D4904A810F042FC52
:1030100004A907A810F09EFD0146154810F0A0FA7B
:10302000134810F0CBFA04A810F06EFC07A810F0BB
:103030006BFC144801F0DAF9D6E5C5F88030F7EEFC
:10304000007AA9E7C5F88030F7EE007A8DE613F034
:1030500061FBA3E713F05EFB89E600BF0417FF1FC7
:10306000CDCCCC3DC81DFF1FEC9002003C9002006F
:10307000F40CFF1F8C17FF1F00000000D49102000A
:103080002415FF1F0C15FF1F08B50446D0F88C044B
:103090000D46FDF755FCB0B9D4F8803413B1DB7997
:1030A0003BB1FEE7D4F884341BB193F84434002BD1
:1030B000F7D12B6816495B681022284698472846A6
:1030C00010F07CFAEDE713492846FEF709FED4F824
:1030D0008C04FDF735FC002301461022284610F031
:1030E0007BFA0D492846FEF7FBFDD4F88C0460B14D
:1030F00003689B6B9847C1B200231022284610F04A
:103100006BFA284610F05AFACBE70146F4E700BF05
:103110004892020038920200449202002DE9F04FDA
:103120002DED028BB84FB94EB94B3B6085B00823EB
:103130008022B848039303A97A60FEF7E3FD334683
:10314000DFF860B343F830BBDFF85C9333614FF4D2
:10315000807333810023F3603363D9F80030002B90
:1031600000F047821A465B69002BFBD156610024B0
:10317000A94B3360A949AA4874617460B47210F015
:103180004FFBA84BDFF824831B6801931A46D8F83D
:10319000003086F824409342F462B46205DAA24A11
:1031A00042F823600133C8F80030A04B336023217C
:1031B0009F48A04C12F0EAFD9F4810F0FFF99F4B8A
:1031C0003A681A609E4B7A6890481A6006F08CFA4A
:1031D0009C4A9D498D4815F039FA2346002243F850
:1031E00030BB2361D9F80030E26022634FF4807273
:1031F0002281002B00F006821A465B69002BFBD16E
:1032000054610025844B2360844990486561656062
:10321000A57210F005FB8E4AE2620122D8F8003058
:1032200084F82420019AA5629A42E56705DD7E4A6A
:1032300042F823400133C8F80030DFED867ADFED35
:10324000866AC4ED147A94ED147A97ED008A834B64
:10325000636327EE267A28EE270A87EE086A804BFA
:10326000804AA3634FF0000A7F4BA3640020002133
:10327000C4E91C012260A4F844A080EE260A84F868
:1032800078A0C4F880A0794DC4ED137AC4ED167A05
:10329000C4ED187A84ED146A13F0BEFB10EE100A28
:1032A0001DF076F97A682264C4E91A01654A70490A
:1032B000604884ED0F8A15F0C9F92B464FF48072EF
:1032C00043F830BB2B61D9F80030C5F80CA0C5F825
:1032D00030A02A81002B00F092811A465B69002BF6
:1032E000FBD155614FF0000A4B4B2B604B496148B5
:1032F000C5F814A0C5F804A085F80AA010F090FA4B
:103300005D4AEA620422D8F8003085F82420019A48
:10331000C5F828A09A42C5F834A0C5F838A0C5F869
:103320003CA0C5F840A005DD3F4A42F823500133D8
:10333000C8F800304FF07E536B64AB64EB642B65D0
:103340004E4B404A2B604E494848DFF854A115F0D7
:103350007DF92D494B48FEF7F1FD3A4A4A49494863
:1033600015F074F95246002142F830BBCAF810201B
:10337000D9F80020CAF80C10CAF830104FF4807148
:10338000AAF80810002A00F0378111465269002A75
:10339000FBD1C1F814A04FF000091F4B1F49CAF818
:1033A00000303A48CAF81490CAF804908AF80A9093
:1033B00010F036FAD8F80020019B3549CAF82C10D5
:1033C00093424FF00201CAF82890CAF83490CAF824
:1033D00038908AF8241005DD134941F822A0013203
:1033E000C8F800202B4A396811602B4A79681160AF
:1033F0004FF00109294ACAF8002029488AF83C9070
:1034000006F0AEFC0F4A53E0E415FF1F9016FF1FB5
:103410000080BB478C17FF1FB4920200908E020001
:10342000A816FF1F5C990200741EFF1F08AF020060
:103430005C920200C81DFF1FF40CFF1F3C07FF1F1A
:103440004007FF1F3007FF1FF1040000E01DFF1FB2
:10345000441EFF1F00000000A6552C47DB0F49400B
:10346000DB0FC94010B002000000DC43B814FF1F9E
:10347000D9040000D014FF1FEC14FF1F10950200A8
:10348000C10400000C15FF1FA90C0000DC16FF1F73
:10349000F816FF1F4807FF1F4C07FF1F04B002006C
:1034A000C416FF1FA8920200C42AFF1F5420FF1F4A
:1034B0005649574815F0CAF856484FF00008C0E979
:1034C0000045A0F80880C0F80C8001F0FFFB5248CE
:1034D000C0E9005AA0F80880C0F80C8001F0F6FBA3
:1034E0004E48C0E9005A4FF48075C0F80C80058141
:1034F00001F0ECFB4A4806604A4EA0F80880C0F88C
:103500000C80466001F0E2FB4748C0E900460581B7
:10351000C0F80C8001F0DAFB44494548454D464C63
:10352000FEF7CAFD454A4649414815F08FF8454B1C
:103530002B60454BC5F81034672385F81434414699
:10354000C5F8088405F5836010F06AF93F4B2B60DD
:103550000623C5F838344146C5F82884C5F82C84BC
:10356000C5F83084C5F83484C5F83C94C5F8408467
:10357000C5F84484C5F8488405F24C4010F050F971
:103580002E4A3349284615F061F8324BA366324B78
:1035900023606FF01F036360782323742523636126
:1035A0002E4984F864804A22E766C4F80C8004F14E
:1035B000180010F099FC2A4A137823722946637286
:1035C00020464B44137003F011FD264B2360022369
:1035D0002367254B254AA367254BE26700216167D6
:1035E000C4F8803084F8848005B0BDEC028BBDE85F
:1035F000F08FC9F80060BAE5C9F800A0CBE6C9F8B9
:1036000000506FE6C9F80040FBE500BFA9040000C8
:10361000C416FF1F6019FF1F2019FF1F3019FF1F5D
:103620004019FF1F3015FF1F5019FF1F8C17FF1F78
:10363000EC15FF1F7019FF1F0417FF1F3007FF1F36
:1036400009050000E4A402005016FF1FBC9402000C
:1036500069050000AC17FF1F28A50200689402004E
:103660003407FF1FF8930200000070C100007A4485
:10367000000040C070B58468002104F59266FF2305
:10368000054684F8B83484F8C41430460DF0FEFAC8
:10369000C4F88C6430460CF0FBFD40B90123D4F82B
:1036A0008C141A4620460BF075FD00B170BDEC6D10
:1036B0000849AD682046FEF713FB236806495B689E
:1036C00016222046984720460FF078FF21462846CC
:1036D000FFF7DAFC8092020088920200704700BF78
:1036E000002070472DE9F843002A39D007460D46DF
:1036F000164601F02BFA804690B307F14404043DCE
:1037000054374FF00009012255F8043F7BB1BAB19C
:10371000DA685868716894ED000A12F08BFD2B6826
:103720005A69DB68F3607261002209F1010904340F
:10373000A742E9D1404601F04FFA4846BDE8F88378
:10374000DA68D8F80410586894ED000A12F072FD97
:103750007268F368D8F80410104612F017FEE3E719
:103760004FF0FF39E9E700BF2DE9F8430746002491
:103770002146384601F084FA054620B90134042C6C
:10378000F6D1BDE8F8834168EA6807EB840393ED5E
:10379000110A084612F04EFD032C04F1010827D04F
:1037A000123407EB84044146384601F05BFA08F115
:1037B00001080646B8B101F0C9F994ED000AC268E3
:1037C00041688146706812F035FD6A68D9F80C309E
:1037D000D9F80410104612F0D9FD484601F0FCF962
:1037E000304601F0F9F9B8F1040F04F10404DAD11C
:1037F00038462946002201F011FA2846BDE8F84370
:1038000001F0EAB90429A8BF04210129836EB8BFD9
:103810000121416103B1D966084670470368DB6B3B
:10382000184700BF0346743853F8743CDB6B1847E5
:1038300003685B6C184700BF2DE9F0434269002A1A
:1038400087B0054630DD002400F12408264602AF8B
:103850002146404601F006FA6A6947F8240000282C
:1038600004F1010418BF0126A242F1DC56B1002A7E
:103870001ADD00243E46A14656F8041BF9B1013476
:10388000A242F9DCAB68012B12D0002A09DD00242A
:1038900057F8040B013410B101F09EF96A69A24295
:1038A000F6DC07B0BDE8F083AB68012BF9D102AFBD
:1038B0002B6839465B6A284698476A69E5E70191B3
:1038C00001F044F90199804608B96A69D7E7C268EE
:1038D000002A4FEA820202DD40681FF083F9C8F82F
:1038E00014906A6946F8048CC9E700BFA0F124006F
:1038F000FFF7A2BF70B50C468EB000297AD03F49C1
:103900000BA815460FF0AAFF20460BA904F0AEFB4A
:1039100004460BA80FF0F8FF002C6BD0384905A81F
:103920000FF07EFF294602A80FF0B4FF354902A828
:1039300010F018F9014608A80FF0ACFF062632492E
:103940000BA80FF06DFF0BAB08AA05A90096204647
:1039500004F0F6FA0BA80FF0D7FF08A80FF0D4FF79
:1039600002A80FF0D1FF05A80FF0CEFF274905A848
:103970000FF056FF294602A80FF08CFF244902A839
:1039800010F0F0F8014608A80FF084FF21490BA8B9
:103990000FF046FF0BAB08AA05A90096204604F0DD
:1039A000CFFA0BA80FF0B0FF08A80FF0ADFF02A8E8
:1039B0000FF0AAFF05A80FF0A7FF164905A80FF002
:1039C0002FFF144908A80FF02BFF13490BA80FF085
:1039D00027FF0C2308AA05A9009320460BAB04F08F
:1039E000AFFA0BA80FF090FF08A80FF08DFF05A805
:1039F0000FF08AFF20460EB070BD00BF1895020080
:103A0000B4890200D0CA020030950200D4890200B5
:103A10006C97020058B102003C95020030B50C468C
:103A200085B091B10A49054601A80FF0F9FE20467C
:103A300001A904F097FB044601A80FF065FF24B12B
:103A40002B6821465B6B28469847204605B030BD61
:103A5000449502002DE9F0418668436F86B0012E3F
:103A6000044603AD2DD02249DE6C00F174072846D0
:103A70000FF0D6FE3846012300222946B0472846DB
:103A80000FF042FF636F1B49D3F8508028460FF0B8
:103A9000C7FE2368184A9B68934223D16E4604F1FF
:103AA000180130460FF0F6FE324629463846C04728
:103AB00030460FF029FF28460FF026FF06B0BDE87C
:103AC000F08100F174070A49D3F84C8028460FF0C2
:103AD000A7FE3846334632462946C04728460FF0EF
:103AE00013FFCFE76E46214630469847DCE700BF1C
:103AF000309502003C9502005105000003467438E1
:103B000053F8743C5B6C1847F0B5426F03469269FA
:103B10000E461E49044653F8740B8A42876B8DB0DB
:103B20002ED11B4B06A819780FF0D0FE06A903A8CA
:103B30000FF0B0FE94F87C1009A80FF0C7FE09A999
:103B400003A810F007F894F8841010F029F86D46D7
:103B5000014628460FF09EFE09A80FF0D5FE03A8E7
:103B60000FF0D2FE06A80FF0CFFE2A4631462046BF
:103B7000B847044628460FF0C7FE20460DB0F0BDFA
:103B80006D46194628469047EFE700BFA90500009B
:103B90003507FF1F30B5436F274A9B6993428DB0AD
:103BA00043D1264B0446197806A80FF08FFE09ADC5
:103BB00006A903A80FF06EFE94F87C1028460FF0BB
:103BC00085FE294603A80FF0C5FF94F884100FF076
:103BD000E7FF6C46014620460FF05CFE28460FF0DA
:103BE00093FE03A80FF090FE06A80FF08DFE144977
:103BF00028460FF033FE214628460FF0ABFF014662
:103C000010480FF0ADFC0F480FF0D8FC28460FF01D
:103C10007BFE22210C4812F0B9F80A480FF0CEFCC6
:103C200020460FF071FE0DB030BD6C4600F17401FE
:103C30002046984709ADDAE7A90500003507FF1FC0
:103C400054950200F40CFF1F70950200A0F174005F
:103C5000FFF7A0BF2DE9F04F87687B1C93B00546A6
:103C60006FD0002F5CD12C6940F2E5339C4253DCCD
:103C7000394EDFF8ECA0DFF8EC906FF063080DE050
:103C800063466A4604A8CDF810C009F0C7F80028BA
:103C90003CD02C6940F2E5339C423DDC96E80F00B5
:103CA000EE46AEE8070001348AFB04CBE217C2EB14
:103CB0006B1208FB02F021188EF800303032AB6E28
:103CC0008DF8052089FB012ECA17C2EBAE026FF0FA
:103CD00009019B682C6101FB02440444D3F8801461
:103CE000303230344FF0000C8DF806208DF807404C
:103CF0000029C5D1D3F884240B463AB1109104A809
:103D000011466A4607F042FA0028C2D12B6869467C
:103D10005B69284698470746384613B0BDE8F08FE0
:103D2000EC6E9CB123680D495B68342220469847AD
:103D300020460FF043FC4FF0FF37384613B0BDE884
:103D4000F08F0368DB689847AF688AE74FF0FF376A
:103D5000384613B0BDE8F08FCC9502009495020070
:103D60001F85EB51676666662DE9F04F2DED028BDE
:103D700083B000AF6B46151E08EE103A786065D030
:103D800005F1070323F00703ADEB030D68465DDD86
:103D90000C1F4FF00009AB003B6004EB8506234687
:103DA000A646EA466A46C8464FF0010C4C4608E073
:103DB0009E4282F800C0CC6808F1010802F10102BD
:103DC00008D053F8041F0029F2D19E42117002F16D
:103DD0000102F6D1A1467446B8F1000F36D0A845CD
:103DE00063DBDFF82881F3464FF0000A5BF8043FFD
:103DF00043B1D8F800205B69991A012900D072BB41
:103E0000C8F800300AF1010A554508F10408EDD15F
:103E10003A68D31D23F00703ADEB030D6D46002177
:103E200028461EF0DFFE2B4654F8042F0AB15268D4
:103E30001A60B44203F10403F6D17B68986E28B18E
:103E400002685346946B29464A46A04718EE103A3A
:103E50000C379D46BD46BDEC028BBDE8F08F1421AA
:103E6000234811F093FF514622480FF09FFB172182
:103E7000214811F08BFFDBF800301E4859690A22F7
:103E800000230FF0A9FB10211C4811F07FFF002335
:103E9000D8F8001017480A220FF09EFB15480FF0C3
:103EA0008DFBDBF800305B69AAE72B21441E144828
:103EB000104E11F06BFF41460E480FF077FB0421C6
:103EC000104811F063FF29460A480FF06FFB0E48B7
:103ED0000B2111F05BFF013D554414F8011F3046E2
:103EE0000FF064FBA542F8D102480FF067FBADE785
:103EF00014960200F40CFF1F2C9602004496020058
:103F0000DC9502005099020008960200541EFF1F23
:103F10002DE9F04F8668731C93B005460F4600F0FC
:103F2000E780002E40F0EB80D5F86880B8F1000FF4
:103F300000F0FB80D8F80830D3F88014002900F096
:103F4000098104AC33463A462046049608F066FFE1
:103F5000002840F00E819F4B196831B140F2026396
:103F60003A4608F114000BF005F8D8F84CB0BBF154
:103F7000000F00F0D580D8ED1A7A974C9749D8F801
:103F80006CA0FDEEE77A4FF0010388F86030042260
:103F9000D8F864300193204617EE909A0FF0A4FFF2
:103FA0008F49042204F108000FF09EFF8D4904227E
:103FB00004F10C000FF098FF8B49042204F1240057
:103FC0000FF092FF4FF0000C4FF0010384F811C086
:103FD00084F812C084F813C084F815C084F823C094
:103FE0004FF0100C237584F810C0019B84F822C098
:103FF000C9F3072C4FEA490084F819C0C9F3074CEC
:104000004FEA4A015A4284F81AC0B2FBF1F2C0F3F7
:10401000072C0AFB02F25200207784F81DC0C0F37F
:10402000074C000E84F82010E077C1F30721C2F39B
:10403000072084F8211084F8282002F1240184F854
:104040002900C2F30740120E84F82B20C1F3072287
:1040500084F816A084F81890CAF3072A21714FEA51
:1040600019696271C1F30742090E84F817A084F838
:104070001B9084F81EC084F82A00A271E171BBF184
:10408000000F00F089801A462146584609F0FEFAD2
:10409000E86E90B1036855495B6816229847EC6E4C
:1040A00047B138461FF0ACFB236802465B683946CF
:1040B0002046984720460FF081FAAB6E0022DA675F
:1040C0009A674B4B1B680393039B2B670122AA60E3
:1040D000394604A80FF0A4FB04A905F118000FF05D
:1040E0009FFC04A80FF010FC304613B0BDE8F08F21
:1040F0000368DB689847AE68002E3FF415AFEC6E9E
:1041000044B123683B495B683422204698472046E7
:104110000FF054FA4FF0FF36304613B0BDE8F08F81
:10412000D8F85030002B7FF426AFE86E0028F1D08D
:10413000036831495B6825229847EC6E002FE6D072
:1041400038461FF05DFB236802465B68394620460F
:104150009847DCE7D3F8841400293FF4FCAE04ACA4
:1041600033463A462046109607F010F800283FF4F0
:10417000F2AED8F80830D3F88014B9B10023049314
:104180003A460123204608F049FE00283FF4E3AEFA
:10419000204609F0FDFEDEE6D8F8500000283FF486
:1041A00077AF1A46214607F0E3FB71E7D3F8843472
:1041B000002B3FF4D0AE10913A4619462046012319
:1041C00006F0E4FF00283FF4C6AE204607F042F8B0
:1041D000C1E600BF1025FF1F8814FF1FDC89020005
:1041E000E4890200EC890200F4890200589602007A
:1041F000502BFF1F949502007096020038B50546BB
:104200000C4649B108461FF0FBFA2B6802462146CE
:104210005B6828469847044628460FF0CFF92044AB
:1042200038BD00BF90F860302DE9F047054643B92E
:1042300005F114000AF08AFE002085F86000BDE850
:10424000F087C06C002800F09580C7690021B8464F
:1042500009F04AF8D5ED1A7A504C5149D5F86CA0BE
:10426000D5F86490FDEEE77A0422204617EE906AB6
:104270000FF03AFE4B49042204F108000FF034FE1F
:104280004949042204F10C000FF02EFE4749042294
:1042900004F124000FF028FE4FF0000C84F811C048
:1042A00084F812C084F813C084F815C084F823C0C1
:1042B0004FF0100C84F810C084F822C04FF0010CAD
:1042C00084F814C0C6F3072C7100267684F819C050
:1042D000C6F3074C360E4FEA4A02A7EB0903E6760F
:1042E000B3FBF2F3C1F307260AFB03F35B0021776C
:1042F0006677C1F30746090E84F82020E177C2F300
:104300000722C3F3072184F8212084F8283003F121
:10431000240284F82910C3F307411B0E84F82B30C4
:10432000E86C84F816A0C2F30723CAF3072A2271A7
:104330006371C2F30743120E84F817A084F81AC001
:10434000A67784F82A10A371E27150B14A4621463B
:1043500009F09CF9EB6CB3B13946184608F0C4FF7C
:1043600066E7286D00283FF463AF4A46214607F010
:10437000FFFAEFE7286D70B107690022002306F00D
:1043800063FCB84666E7286D00283FF451AF42460B
:1043900006F05AFC4CE7804607465BE78814FF1F8F
:1043A000DC890200E4890200EC890200F489020041
:1043B00030B50446806E85B008B1FFF733FF0025A5
:1043C0000949A56001A80FF02BFA01A904F1180012
:1043D0000FF026FB01A80FF097FAA36E0BB1DD6773
:1043E0009D6705B030BD00BF808E02008368012B41
:1043F00000D07047FFF7DCBF03680F4A9B69934208
:1044000010B5044612D18368012B11D06368D3F82C
:104410008C040022C3F88024C3F8842410B10368FC
:104420009B6898474FF0FF33A36010BD9847EDE7B6
:10443000FFF7BEFFEAE700BFED4300002DE9F843B8
:104440001E46036890469B69474A934205460F46BD
:1044500060D18368012B5FD0AC6EEF602CB1B4FAF1
:1044600084F040094042BDE8F8836C68002C56D0C7
:1044700090200FF0B9FE3D4B036000273C4BC3601A
:10448000044647600761C764076580F85470D5F833
:10449000049010F07BF9374B23600223C4F880307E
:1044A000354BC4F88430002EC4F88830334BA366F3
:1044B000B8BF03362C236366B6106B69E3667600DB
:1044C000089BA065022EB8BF0226002BC4F80890F6
:1044D00084F86070C4F85C806767A767E767266741
:1044E000AC66BCDB26489842A8BF1846401004289A
:1044F000B8BF0420C4F8840040000FF077FE00230A
:104500006067E367A367AC6EB4FA84F04009404289
:10451000BDE8F88398479FE7FFF74AFF9CE74FF411
:1045200099600FF061FE4FF49962074621461EF034
:1045300059FB144BC7F89034134BC7F8A434292304
:1045400087F8A934114BC7F88044C7F8844487F82A
:10455000984487F8AD4487F8B44487F8C4446F6042
:10456000C7F89C3484E700BFED4300004493020089
:10457000F894020084930200F824010000442C47C0
:10458000F049020018B2020003200038A8B102006E
:104590002DE9F04F8668731C93B0044600F0B2809A
:1045A000002E40F09E805F4DDFF884815E4FDFF883
:1045B0008491B44637E00DF1100A002301466A46A3
:1045C0005046049308F02AFC38B3E06EB0B103689B
:1045D00018225B6849469847D4F86CB0BBF1000FCD
:1045E0000CD068461FF00CF9DBF8003002465B681F
:1045F00069465846984758460EF0E0FFA36E9B6800
:10460000D3F88014002950D0002304936A46012374
:10461000504608F003FC00287FD1D4F810C040F2C7
:10462000E5339C4557DC95E80F00EE46AEE8070001
:104630000CF1010C88FB0C214FEAEC72C2EB611209
:104640008EF800306FF0630303FB02F10CEB010303
:1046500002F1300087FB03E2DB17C3EBA2038DF806
:104660000500A06EC4F810C003F13002D0F808E0D5
:104670008DF806206FF0090202FB03C20A44DEF83F
:10468000800430328DF80720002894D1DEF884149D
:104690000029C4D00DF1100A109003466A46504616
:1046A00006F074FD002890D1B7E7D3F88434002BCE
:1046B000B3D010916A4619465046012306F066FDB4
:1046C0000028AAD0504606F0C5FDD4F810C040F22C
:1046D000E5339C45A7DD00233046236113B0BDE8D8
:1046E000F08FE46E9CB1236810495B683422204649
:1046F000984720460EF062FF4FF0FF36304613B069
:10470000BDE8F08F0368DB689847A66848E74FF07C
:10471000FF36304613B0BDE8F08F504609F038FC44
:104720007BE700BFCC95020067666666B496020020
:104730001F85EB519896020090F87C208A4209D19F
:10474000722B10B5044635D0732B05D0642B18D0CE
:10475000002010BD002070472721244811F016FBCF
:1047600023480EF02BFF236822499A698A422DD1F3
:10477000A268012A35D020465B6C002198470120B1
:1047800010BD2D211C4811F001FB19480EF016FF39
:104790002368184A9B6993421CD1A368012B1CD043
:1047A0002046FFF7F5FE236820465B6C0021984702
:1047B000012010BD2821114811F0E8FA0C480EF034
:1047C000FDFE236820461B699847ECE7204690478A
:1047D0002368D0E720469847E2E72046FFF7E8FD48
:1047E000DEE72046FFF7E4FD2368C4E718970200E0
:1047F000F40CFF1FED43000040970200EC9602000E
:10480000A0F17400FFF798BF2DE9F84304462DEDA1
:10481000028B0FF0BBFFA66E002E00F0998033686C
:104820000546DB6B3046984706460FF0AFFF002E7B
:10483000A0EB050440F38780494F4A4D3A682B6846
:10484000B242B8BF324642F21071A342B8BF23460B
:104850008C423A602B6076D9DFF82091DFF8208116
:10486000D9F8001040489FED418A9142B8BF1146E7
:10487000D8F80020C9F800109A42B8BF1A461B2188
:10488000C8F8002011F082FA314639480EF08EFE49
:104890000221384811F07AFA396835480EF086FE60
:1048A0000221344811F072FAD9F8001030480EF0A5
:1048B0007DFE02212F4811F069FA0C212E4811F0DB
:1048C00065FA07EE904AF8EE677AC7EE887A17EE37
:1048D000900A1BF0AFF941EC100B012124480EF0B7
:1048E00087FE0221234811F051FAD5ED007AF8EE47
:1048F000E77AC7EE887A17EE900A1BF09BF941EC35
:10490000100B01211A480EF073FE0221194811F014
:104910003DFAD8ED007AF8EEE77AC7EE887A17EE1E
:10492000900A1BF087F941EC100B012110480EF0A2
:104930005FFE02210F4811F029FA0D480EF03EFEED
:1049400000233B602B60BDEC028B3046BDE8F88352
:104950000FF01CFFBDEC028B3046BDE8F88300BFB2
:10496000681EFF1F641EFF1F7097020000007A443C
:10497000F40CFF1F448E02008C970200701EFF1F74
:104980006C1EFF1F10B5194C2DED028B236882B0F1
:10499000A3B1174B026F1B680193019BDFED156AF2
:1049A0009FED157A9B1A07EE903AF8EE677A87EE3C
:1049B000A68AB4EEC78AF1EE10FA05DC0023236064
:1049C00002B0BDEC028B10BD35210C4811F0DEF9B0
:1049D00018EE100A1BF02EF941EC100B02210848CA
:1049E0000EF006FE06480EF0E9FDE7E7C020FF1FC7
:1049F000502BFF1F00007A44CDCCCC3D9C97020089
:104A0000F40CFF1F70B505460E46FFF7FDFE041EB1
:104A100003DD31462846FFF7B5FF204670BD00BFD5
:104A2000F8B583685A1C00D0F8BD856E0446EDB118
:104A30002A68184992698A4229D1AE68002106F590
:104A4000926786F8B83486F8C41438460CF01EF91C
:104A5000C6F88C7438460BF01BFC50B90123D6F80D
:104A60008C141A4630460AF095FB10B10023A3605F
:104A7000F8BDEC6D0849AD682046FDF731F90749EE
:104A80002046FFF7BBFB21462846FEF7FDFA2846E5
:104A90009047EBE775360000809202008892020092
:104AA000D0ED007ADFED0D6A90ED017A0C4BDFED71
:104AB0000D5A1B8886EEA76AB8EEC77ADFED0A6A40
:104AC00027EE067A07EE903A87EE260AF8EEE77AA6
:104AD00077EEA57A87EE800A704700BF50A92B4B6E
:104AE000C82AFF1F000000000000C842D0ED007A75
:104AF000DFED0D6A90ED017A0C4BDFED0D5A1B884E
:104B000086EEA76AB8EEC77ADFED0A6A27EE067A64
:104B100007EE903A87EE260AF8EEE77A77EEA57A66
:104B200087EE800A704700BF50A92B4BCC2AFF1F8D
:104B3000000000000000C84210B50446006818B12B
:104B4000A168091A0FF056FB204610BD72B61E4B25
:104B5000186820B9586808B32022043300E0002206
:104B6000B0FA80FC4FF0004121FA0CF120EA01007C
:104B7000164918600B780133DBB20B7062B614492A
:104B80001F3208681349A2EB0C0250F822000122E0
:104B900002700A789A4238BF0B707047986840B923
:104BA000D86848B9186950B9586958B1A022143367
:104BB000D6E740220833D3E760220C33D0E78022C7
:104BC0001033CDE762B670476C20FF1F6820FF1FCF
:104BD0005C20FF1F6A20FF1F38B1427872B603784D
:104BE000012B03D9013B037062B670474FEA521C98
:104BF00008480949D24302F01F024FF00043D34056
:104C000050F82C2013430A7840F82C30531E0B70B8
:104C1000EAE700BF6C20FF1F6820FF1F836A13B9FB
:104C20001DE0DB68E3B1187A9042FAD110B45868FD
:104C300093F809C0C06A50F82C4054B1DB682BB11E
:104C4000187A9042F3D0DB68002BF9D15DF8044B61
:104C5000704740F82C10087801300870EEE7704774
:104C6000704700BF90F824308B4206D9C36A0022F7
:104C700053F8210043F8212070470020704700BFFF
:104C800038B590F824308B421DD9C36A53F82140BF
:104C9000002243F82120B4B12378012B01D820460B
:104CA00038BDFFF753FF054628B182686168406848
:104CB00092000FF019F963696B612378013B23704F
:104CC0002C46204638BD0024204638BD4368427A31
:104CD00093F824309A420DD872B601688B6A53B1AA
:104CE0001A46DB68002BFBD1D060426801230B72AF
:104CF000137262B670478862F7E700BF2DE9F84F7C
:104D0000D0E900890F4692466FF06041A9EB080296
:104D1000B1EBA20F58D09310012B1A4638BF0122D5
:104D20009C1806464CD2A7EB0805A346002C3DD1A3
:104D3000DAF800304BF80530002D26DCA9EB070926
:104D40000435B9F1000F5D4415DC4D44B8F1000F96
:104D500005D1C6F800B07560B460BDE8F88FB168E1
:104D6000A1EB080140460FF045FAC6F800B07560A7
:104D7000B460BDE8F88F284639464A460FF0B4F8CB
:104D80004D44B8F1000FE4D0E9E72A46A9EB070942
:104D9000414658461DF0AAFE0435B9F1000F5D44A6
:104DA000E9DCB1684D44A1EB0801DBE78C4228BF88
:104DB0000C46A40020460FF017FA83460444B7E7D8
:104DC000034CA7EB0805F5E7024813F06DFC00BFA4
:104DD000FCFFFF7FCC980200002800F0B8802DE98E
:104DE000F04F00245A4EDFF87CB18BB0894607465D
:104DF000A0460BE052F82450D9F80430AA689A4231
:104E00004FEA840A40DA0134A74237D0D6E90023BA
:104E10009B1AB4EBA30FEDD318200FF0E5F9D9F8E6
:104E20000430802105468B426FF060421846B8BFBF
:104E300008469342A860E960B4BF80004FF0FF309D
:104E4000C5F810B00FF0D2F97168B368D9F800C096
:104E5000D9F80420EA6099426860C5F810C0079547
:104E60006FD041F8045B716051F8043C5B68002B23
:104E7000C9D10134A74208F10108C7D1B8F1000F28
:104E80002FD10BB0BDE8F08F686810B104210FF08E
:104E9000B1F9284618210FF0ADF918200FF0A4F948
:104EA0008023C360D9F80430C0F810B00546802BC9
:104EB0006FF060421846B8BF80209342A8600DDAB8
:104EC00080000FF093F9D9F800302B613368D9F8DE
:104ED00004206860EA6043F80A5094E74FF0FF301E
:104EE000EFE71C4904A80EF09BFC0A22414601A8EA
:104EF0000EF046FD01A904A80EF02CFE16490EF096
:104F000031FE0A220446394607A80EF04FFD07A9D4
:104F100020460EF01FFE11490EF024FE01461048F7
:104F20000EF01EFB0E480EF049FB07A80EF0ECFC3D
:104F300001A80EF0E9FC04A80EF0E6FC0BB0BDE8F9
:104F4000F08F07AA3046FFF7D9FE71688CE77047EB
:104F50005C20FF1FE8980200349902005899020073
:104F6000F40CFF1FA6552C47C02870B50546064611
:104F700028BFC02572B6154C2846FFF72DFF00212B
:104F800021606160A160E16021616161DEB10A467A
:104F90008C46012001E054F82C1002F01F0300FAA7
:104FA00003F301320B43954244F82C304FEA521C74
:104FB000F1D8074A12680023043A52F8041F4B70D4
:104FC00001339D42F9D862B670BD00BF6C20FF1F4F
:104FD0005C20FF1F002801DBFFF7C6BF704700BF42
:104FE0000448054A0549002303604360836013F0C9
:104FF0002DBB00BF5C20FF1F3007FF1F394B000097
:10500000806903681B69184710B51C3104460EF00F
:1050100041FC204610BD00BF2DE9F04105468AB095
:105020002349244E04A80EF0FBFB2946A8690EF084
:1050300097FAA8690368DB68984733680193019F72
:1050400005F10C0817E0A86903681B699847002858
:105050000ADDA86903685B699847C1B204A80EF02D
:1050600069FD33680293029F33680393AB6A039A26
:105070003B44934218D3414604A80EF0CBFD0128CF
:105080000446E0D10C4907A80EF0CAFB07A904A802
:105090000EF0ACFD07A80EF037FC04A80EF034FCAF
:1050A00020460AB0BDE8F0814FF0FF34F5E700BFBD
:1050B00058B10200502BFF1F609902002DE9F0410A
:1050C0000D4686B0002939D01E4E33680193019FEA
:1050D000044600F10C0812E0A06903681B699847B8
:1050E000002807DDA06903685B699847C1B22846BC
:1050F0000EF020FD414628460EF08CFD58B933686D
:105100000293A36A029A3B449342E5D84FF0FF30E2
:1051100006B0BDE8F081AA6863692946D31A03A8DE
:1051200000220EF0FDFD03A928460EF079FC03A82D
:105130000EF0EAFB012006B0BDE8F081084606B09B
:10514000BDE8F081502BFF1F2DE9F04F3D4EDFF8F9
:1051500004918FB004460D4605A83B490EF060FB54
:1051600033680393002DD8BFA56A039B364904F129
:105170001C0840461D4404F10C070EF067FC17E0C4
:10518000A06903681B69984700280CDDA0690368C3
:105190005B699847C1B205A801910EF0CBFC01995B
:1051A00040460EF0C7FC394605A80EF033FD68B93D
:1051B00033680493049BAB42E2D34FF0FF3A05A857
:1051C0000EF0A2FB50460FB0BDE8F08F05A80EF020
:1051D000EDFD494608A80EF023FB08A905A80EF02E
:1051E00005FD28B108A80EF08FFB4FF0010AE6E795
:1051F00016490BA80EF014FB0BA905A80EF0F6FC3F
:1052000082460BA8BAF1000F18D10EF07DFB08A85A
:105210000EF07AFB0E490BA80EF002FB0BA905A8B5
:105220000EF0E4FC83460BA80EF06EFBBBF1000F02
:10523000C5D1054905A80EF009FCB9E70BA80EF089
:1052400063FBCFE7502BFF1F58B1020068990200A3
:10525000709902006499020030B587B0044601914C
:10526000FFF7DAFE0199A56903A80EF013FB2146AA
:1052700003A80EF06FFC014628460EF071F903A852
:105280000EF042FBA0690368DB6898474FF0FF31DE
:10529000204607B0BDE83040FFF756BF30B58BB0B1
:1052A000044601AD01B3134928460EF0B9FA12497C
:1052B00004A80EF0B5FA294604A80EF04BFC0146EE
:1052C00007A80EF0E7FA07A92046FFF7C5FF044636
:1052D00007A80EF019FB04A80EF016FB28460EF0E6
:1052E00013FB20460BB030BD044928460EF098FA57
:1052F000DDE700BF789902007C990200A8AB0200AC
:1053000030B58BB0044601AD01B3134928460EF009
:1053100087FA124904A80EF083FA294604A80EF071
:1053200019FC014607A80EF0B5FA07A92046FFF7B9
:1053300093FF044607A80EF0E7FA04A80EF0E4FA7B
:1053400028460EF0E1FA20460BB030BD044928464D
:105350000EF066FADDE700BF789902008C99020032
:10536000A8AB020030B58BB0054601AC31B316498D
:1053700020460EF055FA154904A80EF051FA2146C0
:1053800004A80EF0E7FB12490EF0ECFB21460EF0EC
:10539000E1FB014607A80EF07DFA07A92846FFF7B2
:1053A0005BFF054607A80EF0AFFA04A80EF0ACFAB2
:1053B00020460EF0A9FA28460BB030BD054920461C
:1053C0000EF02EFAD7E700BF789902009C990200F0
:1053D000A8C60200A8AB020030B5C36A052B8BB08B
:1053E00004460D462EDD036B0D2B03DC0024204606
:1053F0000BB030BD204904A80EF012FA0A22216B2E
:1054000001A80EF0BDFA01A904A80EF0A3FB1B49E8
:105410000EF0A8FB29460EF09DFB014607A80EF0F2
:1054200039FA07A92046FFF717FF044607A80EF030
:105430006BFA01A80EF068FA04A80EF065FA20468F
:105440000BB030BD0C4904A80EF0EAF9294604A8B7
:105450000EF080FB014607A80EF01CFA07A92046B3
:10546000FFF7FAFE044607A80EF04EFA04A80EF065
:105470004BFA20460BB030BDA8990200A8C6020026
:1054800070B584B00E460446144901A80EF0C8F960
:1054900001A92046FFF7E0FE054601A80EF034FA08
:1054A00016B9284604B070BD18210D4810F06EFCE6
:1054B00004F11C0101A80EF0EDF901A909480EF054
:1054C0004FF801A80EF020FAE36A062BE9DD054843
:1054D0000EF074F8284604B070BD00BFB099020009
:1054E000B8990200F40CFF1F10B584B004460749B8
:1054F00001A80EF095F901A92046FFF7ADFE04467C
:1055000001A80EF001FA204604B010BDD4990200A3
:1055100010B584B00446074901A80EF081F901A92D
:105520002046FFF799FE044601A80EF0EDF920464B
:1055300004B010BDDC99020070B586B00E4604467A
:105540001049684615460EF06BF9314668460EF074
:1055500001FB0D490EF006FB29460EF0FBFA014651
:1055600003A80EF097F903A92046FFF775FE04463D
:1055700003A80EF0C9F968460EF0C6F9204606B039
:1055800070BD00BFE49902006C9D020070B584B04C
:105590000E460446144901A80EF042F901A920461E
:1055A000FFF75AFE054601A80EF0AEF916B92846D7
:1055B00004B070BD19210D4810F0E8FB04F11C0186
:1055C00001A80EF067F901A909480DF0C9FF01A86B
:1055D0000EF09AF9E36A062BE9DD05480DF0EEFFBF
:1055E000284604B070BD00BFEC990200F499020097
:1055F000F40CFF1F10B5052984B0044610DC052308
:105600000B49C36201A80EF00BF901A904F10C00CB
:105610000EF006FA01A80EF077F9E06A04B010BDAA
:1056200007290B46A8BF0723C362024901A8EAE77E
:10563000109A0200149A020038B550EA010327D4E8
:10564000C4B220460D4601210FF064F8EDB22046A9
:1056500001210FF027F8284601210FF05BF8002107
:1056600028460FF01FF814200FF0B2F80121284649
:105670000FF018F84FF4C8700FF0AAF82046002178
:105680000FF010F8204600210FF044F8002038BD3C
:105690004FF0FF3038BD00BFF0B587B004460E466E
:1056A00003A855490EF0BCF803A92046FFF7D4FD26
:1056B000054603A80EF028F9002D03DC002420463F
:1056C00007B0F0BD04F11C0168460EF0E3F8002EAF
:1056D00069D14A4903A80EF0A3F803A968460EF061
:1056E000E1FA054603A80EF00FF901357DD0E36A13
:1056F000052B20DC424903A80EF092F803A9684666
:105700000EF0D0FA054603A80EF0FEF83D4903A8B6
:105710000EF086F803A968460EF0C4FA044603A802
:105720000EF0F2F8002D60DAE40F68460EF0ECF8A7
:10573000204607B0F0BD344903A80EF071F803A964
:1057400068460EF0AFFA044603A80EF0DDF82F49C4
:1057500003A80EF065F803A968460EF0A3FA074601
:1057600003A80EF0D1F82A4903A80EF059F803A9AE
:1057700068460EF097FA064603A80EF0C5F82549CC
:1057800003A80EF04DF803A968460EF08BFA3C40D2
:105790000546344003A80EF0B7F804EA0500441C9F
:1057A00018BF0124C1E721211B4810F0EFFA1B4864
:1057B00069460DF0D5FEE36A062B18DC0F4903A8F5
:1057C0000EF02EF803A968460EF06CFA054603A801
:1057D0000EF09AF801358AD12221114810F0D6FA3C
:1057E0000E480DF0EBFE00249FE700249DE70B48D8
:1057F0000DF0E4FEE2E700BFB0990200689A0200F3
:10580000AC9A0200B49A0200609A0200749A0200F4
:10581000889A02009C9A0200189A0200F40CFF1F5A
:105820003C9A0200704700BF90F808C08C4503D135
:1058300002681946936D18470020704770B50368D9
:10584000304A9B6993428CB0054655D12E4B06A831
:1058500019780EF03BF809AC06A903A80EF01AF867
:10586000297A20460EF032F8214603A80EF072F98C
:10587000297C0EF095F96E46014630460EF00AF886
:1058800020460EF041F803A80EF03EF806A80EF0F0
:105890003BF81E4920460DF0E1FF314620460EF050
:1058A00059F901461A480DF05BFE19480DF086FEC5
:1058B00020460EF029F81E21164810F067FA144809
:1058C0000DF07CFE2D21144810F060FA10480DF008
:1058D00075FE3F21114810F059FA0D480DF06EFE8B
:1058E0002B210F4810F052FA09480DF067FE3046A0
:1058F0000EF00AF80CB070BD6E460146304698476F
:1059000009ACC6E7A90500003507FF1FC09A0200D1
:10591000F40CFF1FD09A0200F09A0200209B0200B4
:10592000609B0200762977D8602910B5044611D90A
:10593000613915290CD8DFE801F0320B0B400B0B55
:105940000B0B0B0B0B0B0B0B0B0B0B0B530B0B2446
:10595000002010BD412951D04429F9D12D212F48D3
:1059600010F014FA2E480DF029FED4F89030062BD2
:105970004FF0000104F164002EDCFFF7C1FC0120B0
:1059800010BD3021274810F001FA25480DF016FE11
:10599000012104F16400FFF7F9FD012010BD22216F
:1059A000214810F0F3F91E480DF008FE012104F122
:1059B0006400FFF773FC012010BD2A211B4810F082
:1059C000E5F917480DF0FAFDD4F89030062B4FF0AA
:1059D000010104F16400D0DDFFF7C4FC012010BD1B
:1059E0002121134810F0D2F90D480DF0E7FD0121F7
:1059F00004F16400FFF744FD012010BD25210D488E
:105A000010F0C4F906480DF0D9FD002104F164003E
:105A1000FFF744FC012010BD00207047049C0200E9
:105A2000F40CFF1F589C02008C9B0200D89B0200C4
:105A3000349C0200B09B020010B50446806982B01D
:105A400003680191DB689847A06903685B6A98471F
:105A5000A06901990368DB699847642002B0BDE83A
:105A600010400EF0B5BE00BF70B504460D460026CE
:105A700005E0A06903685B69012698475DB9A069E4
:105A800003681B6998470028F3D11DB116B1E36A7A
:105A9000062B05DC70BDC0B210F0FEF92E46EEE715
:105AA000BDE8704001480DF089BD00BFF40CFF1F38
:105AB00038B50546A1B90C464FF41651FFF7BCFFA7
:105AC000A96B686BFFF7B8FD002830DB4FF4FA6074
:105AD0000EF07EFE28462146FFF7C6FF204638BD61
