:1000000000000320D1010000B52F0100712F010075
:10001000712F0100712F0100712F0100712F01005C
:10002000712F0100712F0100712F0100B52F010008
:10003000B52F0100712F010041220100452201006E
:10004000B52F0100B52F0100B52F0100B52F01001C
:10005000B52F0100B52F0100B52F0100B52F01000C
:10006000B52F0100B52F0100B52F0100B52F0100FC
:10007000B52F0100B52F0100B52F0100B52F0100EC
:10008000B52F0100B52F0100B52F0100B52F0100DC
:10009000B52F0100B52F0100B52F0100B52F0100CC
:1000A000619800006D980000B52F0100B52F010088
:1000B000B52F0100B52F0100B52F0100753F0100DC
:1000C000B52F0100B52F0100B52F0100B52F01009C
:1000D000B52F0100B52F0100B52F0100B52F01008C
:1000E000B52F0100B52F0100B52F0100B52F01007C
:1000F000B52F0100B52F0100B52F0100B52F01006C
:1001000089230100A5230100C1230100DD23010093
:10011000B52F0100CD420100B52F0100B52F010020
:10012000B52F0100B52F0100B52F0100B52F01003B
:10013000B52F0100B52F0100B52F0100B52F01002B
:1001400009200100B52F0100B52F0100B52F0100D6
:10015000B52F0100B52F0100B52F0100B52F01000B
:10016000B52F0100B52F010079980000B52F0100CF
:10017000B52F0100B52F0100B52F0100B52F0100EB
:10018000B52F0100B52F0100B52F0100B52F0100DB
:10019000B52F0100B52F0100B52F0100B52F0100CB
:1001A000B52F0100B52F0100B52F01008598000083
:1001B000B52F0100B52F0100B52F0100B52F0100AB
:1001C000B52F0100B52F0100B52F0100B52F01009B
:1001D0005F4B4CF2205210B5DA814DF62812DA81CD
:1001E00000BF00BF12F0EAFE5A4B4FF030621A63B4
:1001F000594A9A63594ADA634FF0E0234FF4700288
:10020000C3F8882D03F5E823554A1A60554B9A78B0
:10021000110703D59A7842F008029A70524B53485E
:10022000AA221A70524BDA1C121AC11E22F00302C3
:10023000994288BF00224F4912F0C6FD4E4B4F48ED
:10024000DA1C121AC11E22F00302994288BF002252
:10025000002121F033FC4A494A484FF4E87212F079
:10026000B3FD494B494A802103F8011B9342FBD15E
:100270004FF0E023434AC3F8082D454B8A221A70F9
:10028000A3F5805324225A70A0221A709A799207FB
:10029000FCD59A79D406FCD43E4A937903F00C033A
:1002A000082BFAD1304B60225A70DA78802AFCD1C0
:1002B000384B01221A715D225A719A799006FCD549
:1002C0009A795106FCD5234A33495164002191643F
:1002D000202119702F498B7903F00C030C2BFAD1D4
:1002E0002E4B53602E4A136913F4807303D153616C
:1002F0004FF4A85313614FF0E0232A4A5A610022B9
:100300009A6107221A61284AC3F8202D62B613F0B9
:10031000BDF8234B5B69DA0705D5244813F0AAF82A
:10032000234B244ADA61244B1B785B0609D5204C09
:10033000204BE2699A4204D11C4813F09BF8002339
:10034000E36112F041FE21F0F5FC12F035FDFEE70D
:100350000020054000800440823F04000100002B83
:100360000300008500D0074000E007403007FF1F72
:100370006814FF1F00BF02009C30FF1F6814FF1F9E
:10038000000000000002FF1F00E400E064E400E061
:10039000005006400040064000000602C010070062
:1003A00000D003401FBF020000002020C0CE3066F6
:1003B00000E00340A5C3945A00F00740FFFFFFFF91
:1003C000FFFFFFFFFFFFFFFFFFFFFFFFFFFFFFFF3D
:1003D000FFFFFFFFFFFFFFFFFFFFFFFFFFFFFFFF2D
:1003E000FFFFFFFFFFFFFFFFFFFFFFFFFFFFFFFF1D
:1003F000FFFFFFFFFFFFFFFFFFFFFFFFFFFFFFFF0D
:10040000FFFFFFFFFFFFFFFFFFFFFFFFDEF9FFFF23
:100410000548064B1B1AD90F01EBA301491002D066
:10042000034B03B1184770476814FF1F6814FF1F80
:100430000000000008B5054B1BB105490548AFF3A6
:100440000080BDE80840FFF7E3BF00BF00000000E8
:100450006814FF1F28BC020000207047704700BFCF
:10046000C1657047C06D704700207047007A7047C3
:10047000407A704741720846704700BF007C704761
:100480000429A8BF04210129B8BF01214161084600
:10049000704700BF40697047C0F8101408467047A5
:1004A000D0F81004704700BF10B5044B044640F864
:1004B000183B12F0EDF9204610BD00BF8C7C020005
:1004C00010B5044B044640F8183B12F0E1F9204601
:1004D00010BD00BF8C7C020010B5044B044640F8F0
:1004E000183B12F0D5F9204610BD00BF8C7C0200ED
:1004F00010B5044B044640F8183B12F0C9F92046E9
:1005000010BD00BF8C7C020038B50546074B45F88E
:10051000643B0446803012F0BBF904F1700012F025
:10052000B7F9284612F0B4F9204638BD2C860200EF
:1005300010B5044682B00846019121F061FE23689F
:1005400001999B690246204602B0BDE81040184759
:1005500010B51831044612F061F9204610BD00BFF5
:1005600014F052BB14F014BB10B504460C4B2360BE
:1005700000F5886006F06CFE04F24C4012F088F939
:10058000D4F82C04074B236020B1D4F83414091A92
:1005900012F0A0FD04F5836012F07AF9204610BD38
:1005A000DC7E0200D488020030B5134B8BB00D46C0
:1005B0000446197801A812F04DF901A907A812F014
:1005C0002DF9297A04A812F045F904A907A812F018
:1005D00085FA297C12F098FA0146204612F01EF99D
:1005E00004A812F055F907A812F052F901A812F068
:1005F0004FF920460BB030BD3507FF1F70B50C46D4
:100600008EB0002979D03E490BA8154612F0CCF8DF
:1006100020460BA906F0EEFC04460BA812F038F9B0
:10062000002C6AD0374905A812F0BEF8294602A866
:1006300012F0F4F8344902A812F058FA014608A85A
:1006400012F0ECF8042631490BA812F0ADF80BAB10
:1006500008AA05A90096204606F036FC0BA812F061
:1006600017F908A812F014F902A812F011F905A858
:1006700012F00EF9264905A812F096F8244908A8A8
:1006800012F092F823490BA812F08EF80BAB08AACF
:1006900005A90096204606F017FC0BA812F0F8F802
:1006A00008A812F0F5F805A812F0F2F81A4905A802
:1006B00012F07AF8294602A812F0B0F8174902A8F9
:1006C00012F014FA014608A812F0A8F810490BA875
:1006D00012F06AF80BAB08AA05A90096204606F0AE
:1006E000F3FB0BA812F0D4F808A812F0D1F802A876
:1006F00012F0CEF805A812F0CBF820460EB070BD6F
:100700007C7302008C73020084B9020094730200AF
:1007100000950200A0730200AC7302005C9202001C
:1007200010B54FF6FE702DED028B144612F008F84E
:1007300007EE900A2368DFED188AF8EE677A012B3E
:1007400087EEA88A20D0022B15D14FF6FE7011F04B
:10075000F7FF07EE900AB8EE677AF6EE006AC7EE8A
:10076000287A38EE668A77EEE67A38EE088A77EEEF
:10077000A77A27EE888ADFED087A88EE270ABDEC93
:10078000028B30EE000A10BDF6EE007A38EE678A72
:1007900038EE088AEFE700BF00FE7F4714F01EBB6B
:1007A00090F88C3170B5044653B103685B6A0D460E
:1007B00098472368294620469B6ABDE87040184741
:1007C0000368BDE870405B6A184700BF90F86C3161
:1007D00070B50446A0F120066BB150F8203C3046BD
:1007E0005B6A0D46984754F8203C294630469B6A80
:1007F000BDE87040184750F8203C30465B6ABDE8C1
:100800007040184790F88C3170B5044663B10368A6
:10081000DB6A0D461646984723683246294620462D
:100820001B6BBDE8704018470368BDE87040DB6A89
:10083000184700BF90F86C312DE9F0410446A0F153
:1008400020067BB150F8203C3046DB6A0F46154647
:10085000984754F8203C2A46394630461B6BBDE881
:10086000F041184750F8203C3046DB6ABDE8F041C3
:10087000184700BF70B590F8643084B004469BB947
:100880000D4609B104B070BD03680F49DE6C01A8C4
:1008900011F08AFF01232A46204601A9B04701A88A
:1008A00011F0F6FF04B070BD03680749DD6C01A8C4
:1008B00011F07AFF01231A46204601A9A84701A892
:1008C00011F0E6FF04B070BD9473020010B103682C
:1008D0005B6B18472A20704702680174536C034A07
:1008E000934201D108467047184700BF7D040000BD
:1008F00010B50446806A074A0368DB68934207D153
:1009000014F06CFAE06A0368BDE81040DB68184731
:100910009847F7E79D07000010B504468068074A2E
:100920000368DB68934207D114F058FAE068036863
:10093000BDE81040DB6818479847F7E79D070000BF
:10094000806A044A03681B69934201D114F05CB9C0
:10095000184700BF61050000806A044A03685B69AC
:10096000934201D114F014B9184700BF6505000087
:100970002DE9F0470546C06C002800F0A58095F8E9
:100980006030B3B905F114000DF0A4FA002385F826
:100990006030AB68D3F88C040022C3F88024C3F81D
:1009A0008424002800F09F800368BDE8F0479B681E
:1009B00018470021C7690BF05BFCD5ED1A7A534C40
:1009C0005349D5F86C90D5F86480FDEEE77A04229F
:1009D000204617EE906A12F0F7F94E49042204F10E
:1009E000080012F0F1F94C49042204F10C0012F055
:1009F000EBF94A49042204F1240012F0E5F94FF022
:100A0000000C84F811C084F812C084F813C084F874
:100A100015C084F823C04FF0100C84F810C084F87F
:100A200022C04FF0010C84F814C0C6F3072C7100EB
:100A3000267684F819C0C6F3074C360E4FEA4902F1
:100A4000A7EB0803E676B3FBF2F3C1F3072609FB35
:100A500003F35B0021776677C1F30746090E84F83C
:100A60002020E177C2F30722C3F3072184F8212075
:100A700084F8283003F1240284F82910C3F30741D5
:100A80001B0E84F82B30E86C84F81690C2F3072311
:100A9000C9F3072922716371C2F30743120E84F868
:100AA000179084F81AC0A67784F82A10A371E2710F
:100AB000D8B1424621460BF0ADFDEB6CF3B139469F
:100AC00018460BF0D5FB5DE7286D00283FF461AFB9
:100AD00095F86030002B3FF455AF002200230769E2
:100AE00009F076F869E7BDE8F087286D00283FF443
:100AF00049AF4246214609F0FFFEDEE7286D002897
:100B00003FF440AF3A4609F063F83BE78814FF1F13
:100B1000B4730200BC730200C4730200CC73020001
:100B200010B5064B03600446FFF722FF044BE36059
:100B300004F114000DF0CEF9204610BD1C7D02001A
:100B4000047D020010B5084B03600446FFF710FF58
:100B5000064BE36004F114000DF0BCF9204670214F
:100B600012F0B8FA204610BD1C7D0200047D020080
:100B700010B50446D0F88C000B4B236010B1042153
:100B800012F0A8FA606F10B1022112F0A3FA074B1D
:100B900023602046FFF7ECFE054BE36004F11400F0
:100BA0000DF098F9204610BD5C7D02001C7D02000E
:100BB000047D020010B50446D0F88C000D4B236074
:100BC00010B1042112F086FA606F10B1022112F008
:100BD00081FA094B23602046FFF7CAFE074BE3600A
:100BE00004F114000DF076F92046942112F072FA07
:100BF000204610BD5C7D02001C7D0200047D0200C9
:100C000000B5036C83B08DF8071043B101220DF1DC
:100C1000070118460BF0FEFC03B05DF804FB406CC6
:100C20000028F9D001220DF1070109F065FE03B09B
:100C30005DF804FB38B51F4B1F494167044603F1BB
:100C400030020360426203F093FBA56E05B32B688C
:100C50001A4A5B69934229D1D5F88C00184B2B6056
:100C600010B1042112F036FA686F10B1022112F0AF
:100C700031FA144B2B602846FFF77AFE124BEB60DB
:100C800005F114000DF026F99421284612F022FAFD
:100C90000E4B636204F13C0011F0FAFD20460C4B50
:100CA00040F8183B11F0F4FD204638BD284698471F
:100CB000EEE700BFB881020050820200B50B0000D1
:100CC0005C7D02001C7D0200047D02008C7C020021
:100CD000A87D0200036814495A6E8A4222D170B579
:100CE00090F86450114984B004466DB901A8DE6CD7
:100CF00011F05AFD01232A46204601A9B04701A858
:100D000011F0C6FD04B070BD01A8DD6C11F04CFD02
:100D100001231A46204601A9A84701A811F0B8FDF1
:100D200004B070BD002110477508000094730200E4
:100D3000F0B503680E469A691B49DF6D8A428DB093
:100D400004462CD1194B06A8197811F083FD06A989
:100D500003A811F063FD217A09A811F07BFD09A910
:100D600003A811F0BBFE217C11F0CEFE6D460146BA
:100D7000284611F053FD09A811F08AFD03A811F0CF
:100D800087FD06A811F084FD2A4631462046B84763
:100D90000446284611F07CFD20460DB0F0BD6D469E
:100DA000014628469047EFE7A90500003507FF1FD9
:100DB000F0B58DB0002945D00D460446294909A853
:100DC00011F0F2FC284609A906F090F9054609A899
:100DD00011F05EFD002D35D0236823499A6D8A42BB
:100DE00039D1DF6D214A9B6993422FD1204B06A850
:100DF000197811F02FFD06A903A811F00FFD217A33
:100E000009A811F027FD09A903A811F067FE217CAC
:100E100011F07AFE6E460146304611F0FFFC09A83B
:100E200011F036FD03A811F033FD06A811F030FDD6
:100E3000324629462046B847304611F029FD28465B
:100E40000DB0F0BD002528460DB0F0BD6E46214620
:100E500030469847ECE729462046904728460DB093
:100E6000F0BD00BFD4730200310D0000A9050000E1
:100E70003507FF1F10B5C36C82B004468DF807100C
:100E800073B190F854208AB901220DF10701184678
:100E90000BF0C0FB94F85430D3B9012002B010BD60
:100EA000006D0028FAD094F8543043B112F0DEFB04
:100EB000E36CA065002BE7D1206D0028EAD0012269
:100EC0000DF1070109F018FD94F85430002BE4D01F
:100ED0000721094813F0CAFE12F0C8FBA16D0023D8
:100EE000411A0A22054811F03BFB044811F02AFB85
:100EF000012002B010BD00BFDC730200F40CFF1F24
:100F0000F8B5C36C04460D4617466BB190F8541003
:100F100079B93E463A46294618460BF07BFB94F8D1
:100F20005430C3B93046F8BD006D60B394F8543006
:100F30001BB312F09BFBE36CA0653E46002BE9D18E
:100F4000206D0028EBD03A46294609F0D5FC94F8EC
:100F50005430002BE6D007210C4813F087FE12F026
:100F600085FBA16D0023411A0A22094811F0F8FA05
:100F7000074811F0E7FA3046F8BD3A4629463E46A2
:100F800009F0BAFCE3E70646CCE700BFDC730200D9
:100F9000F40CFF1F70B50368264A9B6993428CB01E
:100FA000054640D1244B06A8197811F053FC09AC32
:100FB00006A903A811F032FC297A204611F04AFC58
:100FC000214603A811F08AFD297C11F09DFD6E4693
:100FD0000146304611F022FC204611F059FC03A8CE
:100FE00011F056FC06A811F053FC1449204611F0EC
:100FF000F9FB3146204611F071FD0146104811F011
:1010000073FA0F4811F09EFA204611F041FC372187
:101010000C4813F02BFE0A4811F094FA304611F0F8
:1010200037FC0CB070BD6E4601463046984709AC9F
:10103000DBE700BFA90500003507FF1FE4730200CE
:10104000F40CFF1FF873020003682F4A1B6E9342D3
:1010500049D1F0B50D468DB000294BD02B4904463F
:1010600009A811F0A1FB284609A906F03FF805469A
:1010700009A811F00DFC002D3CD0236824499A6D7D
:101080008A4231D1DF6D234A9B69934236D1224B8C
:1010900006A8197811F0DEFB06A903A811F0BEFB23
:1010A000217A09A811F0D6FB09A903A811F016FDB1
:1010B000217C11F029FD6E460146304611F0AEFB51
:1010C00009A811F0E5FB03A811F0E2FB06A811F056
:1010D000DFFB324629462046B847304611F0D8FBA0
:1010E00028460DB0F0BD18472946204690472846AF
:1010F0000DB0F0BD002528460DB0F0BD6E4621466E
:1011000030469847E5E700BFB10D0000D4730200F8
:10111000310D0000A90500003507FF1FF0B5224E74
:1011200033688B4285BF00233360CB1A0B469A424B
:1011300087B00C46054601D907B0F0BD1B4903A88E
:1011400011F032FBE86E03F065FC0121684611F0F6
:1011500007FC694603A811F0C1FC0146144811F0D0
:10116000C3F9134811F0EEF9684611F091FB03A89A
:1011700011F08EFB2B680F491F6D03A811F014FBB3
:10118000E86E03F047FC0121684611F0E9FB6A466E
:1011900003A92846B847684611F07AFB03A811F066
:1011A00077FB346007B0F0BD8014FF1F307402007D
:1011B000F40CFF1FA0730200027A8A4225D170B599
:1011C000432B84B0044625D0632B20D12C21264804
:1011D00013F04CFD254811F0B5F9236824495A6EE7
:1011E00001258A4284F8645033D12249DE6C01A87B
:1011F00011F0DAFA2B462A4601A92046B04701A889
:1012000011F046FB284604B070BD00207047002056
:1012100004B070BD3821184813F028FD134811F0B0
:1012200091F9236812495A6E00258A4284F8645065
:1012300014D11049DE6C01A811F0B6FA01232A4638
:10124000204601A9B04701A811F022FB012004B0FB
:1012500070BD2046002190472846D9E72046294600
:1012600090470120D4E700BF5C740200F40CFF1F1C
:1012700075080000947302008C7402002DE9F0439D
:10128000B14CB24DB24FDFF814938BB00646272114
:10129000B04813F0EBFC204611F054F91321AE488E
:1012A00013F0E4FC204611F04DF91721AB4813F080
:1012B000DDFC204611F046F92D21A94813F0D6FC9B
:1012C000204611F03FF92621A64813F0CFFC204616
:1012D00011F038F93821A44813F0C8FC204611F069
:1012E00031F93821A14813F0C1FC204611F02AF948
:1012F0009F4907A811F058FA0A2295F8D41004A8BB
:1013000011F002FB04A907A811F0E8FB994911F0BC
:10131000EDFB0146204611F0E7F8204611F012F9E6
:1013200004A811F0B5FA07A811F0B2FA924904A87E
:1013300011F03AFA0A22D6F8381401A811F0E4FAAA
:1013400001A904A811F0CAFB394611F0CFFB95EDB5
:10135000340A8046012107A811F002FB07A9404684
:1013600011F0BCFB494611F0C1FB0146204611F0CB
:10137000BBF8204611F0E6F807A811F089FA01A899
:1013800011F086FA04A811F083FA7C4904A811F040
:101390000BFA0A22D6F83C1401A811F0B5FA01A9FB
:1013A00004A811F09BFB394611F0A0FB95ED340A1F
:1013B0008046012107A811F0D3FA07A9404611F091
:1013C0008DFB494611F092FB0146204611F08CF846
:1013D000204611F0B7F807A811F05AFA01A811F049
:1013E00057FA04A811F054FA6549DFF8B49107A838
:1013F00011F0DAF995ED330A012104A811F0B0FAE1
:1014000004A907A811F06AFB5E4911F06FFB0146C1
:10141000204611F069F8204611F094F804A811F064
:1014200037FA07A811F034FA574904A811F0BCF9AB
:101430000A22D6F8381401A811F066FA01A904A806
:1014400011F04CFB394611F051FB95ED1E0A804618
:10145000012107A811F084FA07A9404611F03EFBCC
:10146000494611F043FB0146204611F03DF8204665
:1014700011F068F807A811F00BFA01A811F008FAAA
:1014800004A811F005FA414904A811F08DF90A22C7
:10149000D6F83C1401A811F037FA01A904A811F0FC
:1014A0001DFB394611F022FB95ED1E0A074601216E
:1014B00007A811F055FA07A9384611F00FFB494665
:1014C00011F014FB0146204611F00EF8204611F0F1
:1014D00039F807A811F0DCF901A811F0D9F904A82E
:1014E00011F0D6F921212A4813F0C0FB204611F053
:1014F00029F8304604F0DCF9204611F023F825499C
:1015000007A811F051F9D5ED1E7A95ED340A0121A5
:1015100030EE270A04A811F023FA04A907A811F055
:10152000DDFA1D4911F0E2FA0146204610F0DCFF19
:10153000204611F007F804A811F0AAF907A811F045
:10154000A7F90BB0BDE8F083F40CFF1F0417FF1FD1
:1015500060760200C8740200F07402000475020094
:101560001C7502004C75020074750200B075020013
:10157000EC750200887302002C760200747602007B
:10158000A8760200E0760200E876020024770200E6
:10159000587702007C770200A87702006C76020080
:1015A0001C77020003682DE9F0411B6A234EB34209
:1015B0003FD1C36C04460F46154673B390F85420D0
:1015C0005AB92E462A46394618460BF023F894F8A5
:1015D00054307BB93046BDE8F08112F047F8E36C37
:1015E000A0652E46002BEDD1206DE8B994F854305B
:1015F000002BEFD00721124813F038FB12F036F819
:10160000A16D0023411A0A220E4810F0A9FF0D48CF
:1016100010F098FF3046BDE8F081006D60B194F89D
:101620005430002BD9D12E462A46394609F064F9A8
:10163000CDE7BDE8F04118470646CBE7010F0000B3
:10164000DC730200F40CFF1F036870B51B6A5500C1
:10165000214A934239D1C36C04460E4653B390F8E5
:1016600054204AB92A46314618460AF0D3FF94F866
:1016700054306BB9284670BD11F0F8FFE36CA065DB
:10168000002BEFD1206DD8B994F85430002BF1D055
:101690000721124813F0EAFA11F0E8FFA16D0023C8
:1016A000411A0A220E4810F05BFF0D4810F04AFF65
:1016B000284670BD006D60B194F85430002BDBD12A
:1016C0002A46314609F018F9D1E72A46BDE87040AC
:1016D00018470546CEE700BF010F0000DC7302008B
:1016E000F40CFF1F036870B51B6A9500214A9342F2
:1016F00039D1C36C04460E4653B390F854204AB90E
:101700002A46314618460AF085FF94F854306BB9E2
:10171000284670BD11F0AAFFE36CA065002BEFD145
:10172000206DD8B994F85430002BF1D0072112481D
:1017300013F09CFA11F09AFFA16D0023411A0A22BE
:101740000E4810F00DFF0D4810F0FCFE284670BD4D
:10175000006D60B194F85430002BDBD12A4631463D
:1017600009F0CAF8D1E72A46BDE870401847054697
:10177000CEE700BF010F0000DC730200F40CFF1F76
:10178000F0B50368274FDE6EBE4287B044D1264EC7
:101790001346326891423BBF002232608A1A0A46E1
:1017A000934204460D4601D907B0F0BD1F49684673
:1017B00010F0FAFFE06E03F02DF9012103A811F0FB
:1017C000CFF803A9684611F089F90146184810F0CE
:1017D0008BFE174810F0B6FE03A811F059F86846C2
:1017E00011F056F8236813491F6D684610F0DCFFAE
:1017F000E06E03F00FF9012103A811F0B1F803AA7C
:1018000069462046B84703A811F042F8684611F02F
:101810003FF8356007B0F0BD334607B0BDE8F04093
:10182000184700BF1D1100008014FF1F3074020014
:10183000F40CFF1FA07302002DE9F04F2DED068B75
:10184000466F85B004460F4693461D46AEB1836F82
:10185000C26F0BFB05F8934203EB080620DAB24295
:10186000C0F2F680D0F884108E4280F2E280002D23
:1018700040F306810023019325E0D0F880308648AC
:1018800090FBF3F00428B8BF0420C4F884004000A3
:1018900011F01CFC0BFB05F8E667A667606746467F
:1018A000D4F88430B342E2DC0021A36FE26F0191EF
:1018B000C4F8883000239A42A36702DD904500F304
:1018C000BB80002D1EDD4FEA8B096FF060439B4506
:1018D00028BF4FF0FF394FF0000AA7F10408002697
:1018E00002E00136B5420DDD58F8043F002BF8D177
:1018F000D4F88C00002800F08C800136B542C8F87E
:101900000000F1DCBBF1000F74DDDFED649A9FEDA8
:10191000649A9FED64AADFF89891DFF898814FF000
:10192000000A00239D420393C8BF4FEA8A0613DCD6
:101930005CE0B4EECA8AF1EE10FA98BF484600F2B5
:10194000A580A16F039B4A1C0133A267626FAB4263
:1019500022F81100039349DA57F82330D4F8902085
:101960003344002A93ED008A2FDD23681B6C434526
:1019700049D14FF6FE7010F0E3FE07EE900AD4F85E
:101980009030F8EE677A012BC7EEA98A27D0022B98
:1019900015D14FF6FE7010F0D3FE07EE900AB8EEA8
:1019A000677AF6EE006AC7EE297A78EEE68A77EE75
:1019B000E67A78EEA88A77EEA77A67EEA88A88EEAC
:1019C000A90A30EE000A38EE008A28EE098AB4EE41
:1019D000C98AF1EE10FAACDD47F6FF70B1E7F6EE1A
:1019E000007A78EEE78A78EEA88AE8E70AF1010A39
:1019F000D34596DC019B0BB1A36FE36705B0BDEC4B
:101A0000068BBDE8F08F04F1900203A920469847A9
:101A1000D9E7484611F05AFBBBF1010358BF024613
:101A200004D4013B591C42F804ABFAD1C4F88C0031
:101A300063E7002101913BE73B211B4813F016F9B6
:101A40001A4810F07FFD002D14DD012301933AE7C1
:101A50003B21154813F00AF9144810F073FDD4F82F
:101A600084309E4204DB0121A36FE26F01911FE7E6
:101A7000002DEADCBBF1000FBEDD0123019344E73A
:101A8000BBF1000FBADD002301933EE7BDEEC88A2B
:101A900018EE103A18B254E7F049020000FE7F47F2
:101AA00000FEFF4600FEFFC6B0770200F40CFF1FE9
:101AB0000180FFFF21070000416F026F2DE9F8430D
:101AC000002900F002810446D000A56FE76FBD42F7
:101AD00036DAD4F88830DD1B002D64DDA842A8BFBB
:101AE000284682420646DCBF90FBF2F002FB00F67D
:101AF0002268D2F82090764A914501EB47054FEADB
:101B0000460840F08880E06C002868D094F8543093
:101B1000002B40F0B380294642460AF07BFD94F842
:101B20005430002B40F09980E76FD4F888303E4461
:101B30009E420ABF0023E667E3674046BDE8F8839C
:101B4000ED1BAA422ADCA842A8BF284690FBF2F669
:101B500002FB06F66EB323685D4A1B6A934201EBF3
:101B600047074FEA460840F0A180E06C00285BD0B0
:101B700094F85430002B40F08D80394642460AF0EC
:101B800049FD94F85430002B34D1B8F1000F4ED0F9
:101B9000E36F3344E3674046BDE8F8834FF0000845
:101BA0004046BDE8F88300239846E3674046BDE819
:101BB000F8832F21474813F059F82946464810F07A
:101BC000B9FC0221454813F051F83146424810F063
:101BD000B1FC414810F0B6FC616FE76FBBE7206DC8
:101BE00000B394F85430002B48D12946424608F0FF
:101BF00083FE94E707213A4813F038F811F036FDD8
:101C0000A16D0023411A0A22334810F0A9FC324882
:101C100010F098FCB9E7424629462046C847E76FCE
:101C2000D4F88830804682E7206D002844D13521E1
:101C30002C4813F01BF83146274810F07BFC02219A
:101C4000264813F013F80021234810F073FC2248B3
:101C500010F078FC4FF000089AE70721204813F0B5
:101C600005F811F003FDA16D0023411A0A221A485C
:101C700010F076FC184810F065FC55E711F0F6FC02
:101C8000A065E06C00287FF446AF206D00283FF48B
:101C900046AFAAE711F0EAFCA065E06C00287FF4EB
:101CA0006CAF206D00283FF46CAF09E04246394626
:101CB00020469847804668E794F85430002BE9D1D5
:101CC0003946424608F018FE5BE74FF0FF3867E7F9
:101CD000010F0000EC770200F40CFF1F1C780200DB
:101CE000DC7302002078020070B50C4659B105463D
:101CF000084620F085FA2B680246214628465B6894
:101D0000BDE870401847084670BD00BF2DE9F0419E
:101D100004464FF0FF38C4F80C804FF02A08C4F88E
:101D200010804FF00808C4F830804FF02708C4F83E
:101D300038804FF00A08C4F840804FF02208C4F8F9
:101D400044804FF01F08C4F848804FF03808C4F8AA
:101D50004C804FF02108804AC4F854804FF014089A
:101D6000A261A267C4F8608080224FF4165892B036
:101D700000258E46E2677949794AC4F874804FF0AD
:101D80002C0800230120774EA16065612321764D48
:101D9000C4F858804FF0240C4FF0050820772371C9
:101DA000636284F85C306066C4F88030C4F88430C4
:101DB000C4F8883084F88C31226525676163E66653
:101DC000C4F83CC0C4F86880CDE90622CDE90822F9
:101DD0000A920C924FF4E13204911192DEF8001055
:101DE000624A8DF82C3007270D9010954B1E02F19A
:101DF00054050091152022600F210622C4F890712D
:101E0000CDF80CC00E970F962562019002910592B5
:101E10000A2B1ED8DFE803F066984040708506065E
:101E200025255200232127220A202223CDE904035D
:101E3000019102921F2138222120CDE9061214239C
:101E40004FF416512C2209900C93052311910A92FC
:101E50000E932046694604F045FD204612B0BDE8C9
:101E6000F0811A2011210F221023019002910920E4
:101E70000E2103920493052202230590069101206E
:101E80002421079209934FF4165216238DF82C0043
:101E90000C9111920A93DCE723200A2122221F23AE
:101EA0000190049121201421059206934FF41652BB
:101EB000052308900C9111920E93CAE71122029209
:101EC000102228200F2104920122254B019003911A
:101ED000092024218DF82C20162205900C910A92BD
:101EE0000E93B6E71E4B0E930220012100220890AC
:101EF0008DF82C100D92ACE70A2204921F222A20A2
:101F000022210692212214230190059140204FF4B2
:101F1000165108920522029307900C9311910E928C
:101F200097E7232127220A202223CDE904030191E8
:101F300002921F2138222120CDE9061214234FF4EA
:101F400016512C2208907FE7054B0E9302210022A8
:101F500008910D927DE700BF00442C475007FF1FFA
:101F6000F1D8FFFFF40CFF1FC40CFF1F987C020088
:101F70002DE9F0414FF0FF3300254B4A83600223E7
:101F8000044602604361C560056182B00E461830A8
:101F9000464910F009FC464A464B636204F154017D
:101FA000136861634FF4807104F1240704F1580849
:101FB00025636565A185002B73D01A465B69002BEC
:101FC000FBD1576100253C4B3C496362A563A56288
:101FD00084F82E5004F13C0010F0E6FB384B394AEF
:101FE00019681368C4F8508004208B42E564A56525
:101FF000E5652566656684F8480004DA324941F8EB
:10200000237001331360314B2360002103F1300052
:102010002F4A60624FF0FF33A166E26621672046D7
:1020200000934FF4007302F0C5F9D6ED007A9FEDEE
:10203000297AF4EEC77AF1EE10FA08DD9FED267AE0
:10204000F4EEC77AF1EE10FA48BFDFED247AA36E02
:102050000BB1C3ED1A7A25236FF01F0000217822FF
:10206000A067C4F8801084F88420C4F888301C4924
:102070004A2204F18C0010F0A7FE1A491A4B0A7884
:1020800084F87C20501C087003F1500003F15C01BF
:102090006062204684F87D202360616702B0BDE85D
:1020A000F08117608EE700BFA87D0200587802001B
:1020B000002BFF1F807C02008C7C020068780200ED
:1020C000388302009420FF1FB41EFF1FB881020056
:1020D000F40CFF1F00542C4700562C4700442C479B
:1020E000407E02003407FF1FF4810200F0B50D4668
:1020F000044685B00D216430EF6A04F1800610F0CB
:10210000A9FB0D2104F1700010F0A4FB0021E7678A
:10211000304610F049FB4FF47A63C4F88C30072343
:10212000C4F890304FF0FF33C4F894303823C4F82B
:1021300098302223C4F89C30164901A810F034FBD3
:1021400001A9304610F030FC01A810F0A1FB6A6C28
:10215000E86CC4F898000023C4F89C206FF01F01BD
:102160007820252284F8A0306160E36020746261E9
:1021700009494A2204F1180010F026FE074A0849CE
:1021800013782372581C107020466372216005B0CA
:10219000F0BD00BF00950200407E02003407FF1F23
:1021A0002C860200F0B58DB000F58865424909A87B
:1021B00010F0FAFA09A9284604F098FF064609A883
:1021C00010F066FB3D4909A810F0EEFA09A9304667
:1021D00004F010FF044609A810F05AFB384903A880
:1021E00010F0E2FA374906A80C2710F0DDFA36495C
:1021F00009A810F0D9FA09AB06AA0DEB0701009760
:10220000204604F061FE09A810F042FB06A810F079
:102210003FFB0DEB070010F03BFB2C490DEB0700DB
:1022200010F0C2FA2A4906A810F0BEFA294909A8F6
:1022300010F0BAFA09AB06AA0DEB07010097204689
:1022400004F042FE09A810F023FB06A810F020FBC2
:102250000DEB070010F01CFB1F490DEB070010F001
:10226000A3FA1E4906A810F09FFA1D4909A810F00C
:102270009BFA09AB06AA0DEB07010097204604F074
:1022800023FE09A810F004FB06A810F001FB0DEBDB
:10229000070010F0FDFA3146124801F035FC1249F2
:1022A00009A810F081FA09A9284604F03FFF09A8FF
:1022B00010F0EEFA0DB0F0BD7478020084780200E0
:1022C000947802000CAE0200A0780200AC78020004
:1022D000B8780200BC780200C8780200F8A90200B1
:1022E000D87802000C15FF1FE478020070B5044690
:1022F00084B049B12D4B1D6F012D34D0022D52D029
:10230000002D40D004B070BD03680D4601A82849D7
:102310001E6910F049FA2A46012301A92046B04758
:1023200001A810F0B5FA236822491E6901A810F02F
:102330003BFA2A46012301A92046B04701A810F024
:10234000A7FA23681C491E6901A810F02DFA012381
:102350002A4601A92046B04701A810F099FA134B6C
:102360001D6F012DCAD1236812491E6901A810F002
:102370001BFA2B462A4601A92046B04701A810F0B7
:1023800087FA04B070BD236809491D6901A810F0DF
:102390000BFA01231A46204601A9A84701A810F00C
:1023A00077FA04B070BD23680349EEE70417FF1FF6
:1023B000A0780200BC780200D878020038B5044644
:1023C0000D46FFF793FF29462046BDE8384003F04D
:1023D000AFBA00BF10B5D0F84434D0F84824134445
:1023E000002B84B0044622DD01A804F5886104F0C6
:1023F000C5FE01A9134810F077F8124810F0A2F8B2
:10240000D4F8100401A903F015F923680E4ADB691A
:1024100093420FD120460021FFF768FF002120469C
:1024200003F086FA01A810F033FA04B010BDFFF7EC
:10243000B9FED9E700212046984701A810F028FAF4
:1024400004B010BDF40CFF1FBD23000010B5214CDB
:102450002067032812D8DFE800F03622021200219C
:102460001D4805F01FF902211B4805F051FA9FEDA8
:102470001B0A194805F0B6F984ED1D0A10BD0221AA
:10248000154805F045FA0121134805F00BF99FEDB9
:10249000130A114805F0A6F984ED1D0A10BD0021AC
:1024A0000D4805F0FFF803210B4805F031FA012132
:1024B000094804F013FB9FED090A074805F092F95B
:1024C00084ED1D0A10BD0021034805F0EBF8012141
:1024D000CAE700BF0417FF1FDC17FF1F0000000042
:1024E0002DE9F0418AB012F08FFB78B96F4C70493A
:1024F000204602F041FA6F4B1B78002B5FD06E4CE8
:1025000094F864304BB90AB0BDE8F08112F040FB9A
:10251000C1B26A4803F0DEFBE8E7694E694F3368F1
:102520000293029D3B689D423BBF00233B60EB1A38
:102530002B4640F6B832934253D83368624E039329
:10254000039D33689D4248D3EB1A40F6B73293425D
:10255000D9D95E4904A810F027F9E06E02F05AFAC2
:10256000012107A810F0FCF907A904A810F0B6FA99
:10257000014657480FF0B8FF55480FF0E3FF07A892
:1025800010F086F904A810F083F9524904A810F05D
:102590000BF9E06E02F03EFA012107A810F0E0F915
:1025A00007AA04A9444803F011FD07A810F070F928
:1025B00004A810F06DF935600AB0BDE8F081A2689A
:1025C0003F4B45481B680193A2F10102B2FA82F227
:1025D0000199520904F066FA91E7002333602B4613
:1025E000B3E7A06E3D4903680C225B689847E06E34
:1025F000D4F8688002F00EFA10EE100A1CF08AFA85
:1026000041EC100B404601210FF0B6FFA06E34499B
:10261000036802225B689847E06ED4F8688002F095
:102620001FFA10EE100A1CF075FA41EC100B404630
:1026300001210FF0A1FFA06E2A49036803225B6805
:102640009847A06E2849036812225B689847274B79
:10265000A06E19780A2200230FF082FFA06E244991
:10266000036801225B689847224BA06E19780A2202
:1026700000230FF075FFA06E1F4903680E225B68F0
:1026800098470020D4F868801FF080FB07AB014614
:10269000591A40460FF04EFFA06E0FF053FF94F80A
:1026A00064303D60002B7FF448AF2CE70C15FF1F12
:1026B0009016FF1FA01EFF1F0417FF1FC019FF1F4A
:1026C000882BFF1F8414FF1F8014FF1F307402002B
:1026D000F40CFF1FA0730200DC17FF1FF478020048
:1026E00004790200087902000C790200A820FF1F7B
:1026F00020790200AA20FF1F2479020010B59FED67
:10270000327AB4EEC70AF1EE10FA2DED048B06DC36
:102710009FED2E7AB4EEC70AF1EE10FA3CD82C4C9D
:102720002C4BD4ED0F8A83ED337AF6EE007A68EE07
:10273000A77AF0EE479AF4EEE79AF1EE10FAD8BFD6
:10274000F0EE697AD4E91A0150EA010302D094F854
:10275000783073B9C4ED127A94ED0E7A67EE877A09
:10276000B0EE690A87EEA87ABDEC048B84ED147A8A
:1027700010BD94ED129A37EEC98A1CF033FE07EEB5
:10278000900A88EE277A00220023C4E91C23F0EE89
:10279000497A84ED187ADFE70E4B0D4C83ED330A4E
:1027A000B5EEC00AF1EE10FAD4ED0F8A04D5DFEDD4
:1027B0000A7AF0EE409AC5E7F6EE007A68EEA77A5C
:1027C000F0EE409AB7E700BF0000FA4600007A41F9
:1027D000181EFF1F0417FF1F0000000030B5764DC4
:1027E000764C696F89B03220019110F061FF019938
:1027F000284604F099F9002385F88C3140F2DC502A
:1028000010F056FF21216E4812F030FA6D480FF09B
:1028100099FE6D4905A80FF0C7FF94ED000A02214B
:1028200002A810F09DF802A905A810F057F901467A
:1028300064480FF059FE63480FF084FE02A810F0C0
:1028400027F805A810F024F8604905A80FF0ACFFA0
:102850000A22616802A810F057F802A905A810F032
:102860003DF9014657480FF03FFE56480FF06AFE0B
:1028700002A810F00DF805A810F00AF8214664200F
:10288000534C02F061FB284605F0EAFC206FFFF78D
:10289000DDFD94ED340AD4ED1E7A70EE277AB1EEA8
:1028A000087AF4EE477AF1EE10FAC8BFF0EE477AF4
:1028B00037EEC00A284605F025FAD4ED347A454DA6
:1028C00084ED1E0AF5EEC07A0023F1EE10FA6B6477
:1028D000AB64EB642B6567D5DFED3F0AB2EE040A0B
:1028E00067EEA00A12F028FEB5EE400AF1EE10FAEB
:1028F000F0EE407A5DD4B1EEE70A384BD4F8C82048
:1029000022EAE27283ED150AE36F013B9342A8BF0E
:102910001346C4F8C83004EB830393ED200AFFF795
:10292000EDFE94F8D4309FED2E7A2E4C2E48002BDD
:10293000F7EE007A08BFF0EE477A04F17401C5EDB6
:10294000117A03F0FFFA294AA36EE266022262615D
:1029500003B1DA66264905A80FF026FF0A2261694D
:1029600002A80FF0D1FF02A905A810F0B7F821497D
:1029700010F0BCF8014613480FF0B6FD11480FF0F7
:10298000E1FD02A80FF084FF05A80FF081FF1021E0
:10299000194812F06BF90B480FF0D4FD124809B03A
:1029A000BDE83040FEF76ABCC4F8D030F7EE007ADC
:1029B000A1E712F01FFEA0E7DC17FF1FE415FF1FC1
:1029C00034790200F40CFF1F587902006C79020080
:1029D0000417FF1FB814FF1FCDCCCC3D181EFF1FDE
:1029E000000000000C15FF1FC019FF1FFC17FF1F80
:1029F0008C790200A0790200AC790200FFFFFFFF92
:102A00002DE9F04F2DED068B83B03F4B019310EE77
:102A1000100AB0EE408A1CF07DF839A3D3E90023F8
:102A20001CF0D0F8DFED398A394B00221CF0F4F9A4
:102A300028EE288ADFED377A4FF0000A4FF0000BBE
:102A400088EE279A2EA7D7E90067D046D946544684
:102A50005D4641EC1A0B9FED308A03E012F0F4FC66
:102A60005BEC10AB53EC1A2B204629461BF0F4FE0E
:102A700032463B4604460D461CF034FB8446324643
:102A80003B4620462946BCF1000F03D01BF0E2FE76
:102A900004460D46B0EE480A12F0CEFA38EE098A26
:102AA00010EE100AB4EEE88AF1EE10FAC8BF38EE64
:102AB000688A1CF02FF802460B46504659461BF018
:102AC000C9FE02460B461CF07DF80B4602464946FD
:102AD00040461BF0C1FE019B013B45EC104B80467C
:102AE00089460193BAD10A4B00221CF095F91CF0DB
:102AF00061FB00EE100A03B0BDEC068BBDE8F08F61
:102B000000000060FB21094000770100DB0F494015
:102B10000070F7400080BB470000000070B52DED4D
:102B2000028BA1F13E038AB00446392B3BD8DFE883
:102B300013F0E1003A003A00D6007E003A003A0075
:102B40003A00480059023A003A004100E9005C02AC
:102B50003A003A003A003A003A003A003A003A00A5
:102B60003A003A00A5013A003A003A003A003A0029
:102B70003A003A003A003A0025014F013A003A0083
:102B80003101BC01340230023A004100090238022E
:102B90003A003A003A003A003A006E015F027E01C4
:102BA0003A003A003B020AB0BDEC028BBDE870402F
:102BB00002F0DABEFFF70EFC01200AB0BDEC028B7A
:102BC00070BDC44CD4F8C830E26F013B23EAE37314
:102BD000013A9342A8BF134604EB830292ED200A08
:102BE000C4F8C830FFF78AFDBB4907A80FF0DCFD29
:102BF00094ED330A012104A80FF0B2FE04A907A83E
:102C00000FF06CFFB5490FF071FF0146B4480FF0AB
:102C10006BFCB3480FF096FC04A80FF039FE07A830
:102C20000FF036FE01200AB0BDEC028B70BDD0F86B
:102C30003834A84DAB4895ED1E7A95ED340A5B42C9
:102C400007EE903AF8EEE77A77EE877AB1EE087AF7
:102C500077EE807AF4EE477AF1EE10FAC8BFF0EE24
:102C6000477A37EEC00A05F04DF89F4985ED1E0AF8
:102C700004A80FF099FD95ED1E0A01A801210FF09F
:102C80006FFE01A904A80FF029FF98490FF02EFF4D
:102C9000D5ED1E7A95ED340A044630EE270A07A8D2
:102CA00001210FF05DFE07A920460FF017FF9049A4
:102CB0000FF01CFF01468A480FF016FC88480FF001
:102CC00041FC07A80FF0E4FD01A80FF0E1FD04A806
:102CD0000FF0DEFD01200AB0BDEC028B70BD854B0C
:102CE0008548002212215A6411F0C0FF7C480FF081
:102CF00029FC61E74221814811F0B8FF78480FF0C4
:102D000021FC59E7D0F83834724D5B4207EE903A17
:102D100095ED347AF8EEE77A002377EE877AF5EED0
:102D2000C07AF1EE10FA40F18581DFED750AC5ED4C
:102D3000347A67EEA00AB2EE040A12F0FDFBB5EE9B
:102D4000400AF1EE10FAF0EE407A00F17B81B1EE2C
:102D5000E70A6C4B6C4907A883ED150A0FF024FDB8
:102D600095ED340A04A801210FF0FAFD04A907A883
:102D70000FF0B4FE5E490FF0B9FE46E75D4B6349C4
:102D80004FF07E525A6407A80FF00EFD514B93EDA1
:102D9000340AE7E729215E484E4D11F067FF50489D
:102DA0000FF0D0FB022600214E482E6704F07AFC7B
:102DB0004C48314604F0ACFD4A489FED560A04F0F9
:102DC00011FD0021204685ED1D0AFFF78FFAF3E67D
:102DD000404D00F58763D3ED007A95ED1E7A95EDB1
:102DE000340A4048F8EEE77A77EE877AB1EE087A4F
:102DF00077EE807AF4EE477AF1EE10FAC8BFF0EE83
:102E0000477A37EEC00A04F07DFF43492EE7434876
:102E100000F0AAFF424907A80FF0C6FC414904A8E8
:102E20000FF0FCFC04A907A80FF058FEEDE63721CF
:102E30003D4811F01BFF2A480FF084FB9FED3B0A31
:102E4000FFF7DEFD3A4907A8B0EE408A0FF0ACFC70
:102E50009FED380A88EE000A12F03EFB04A802211A
:102E6000F3EE047A20EE270A0FF07AFD04A907A8F2
:102E70000FF034FE30490FF039FEC6E627212F4807
:102E8000144D11F0F3FE16480FF05CFB01260021F3
:102E900014482E6704F006FC0321124804F038FDA4
:102EA0003146104803F01AFE86E70A4CD4F8C830C1
:102EB000E26F013323EAE373013A9342A8BF13465A
:102EC00004EB830292ED200AC4F8C830FFF716FC29
:102ED0001B498AE60417FF1F1C7B0200F4790200DD
:102EE000F40CFF1FDC17FF1F747B0200547B0200F1
:102EF000A8770200B814FF1FB07A0200CC7B020052
:102F0000CDCCCC3D181EFF1FE07A02008C7A020067
:102F1000607A0200000000003C7B02000C15FF1FDD
:102F20008C7B02002415FF1FC079020000007A4448
:102F3000F8790200F304B53F107A0200387A0200F3
:102F4000FC7A020000F58763D3ED007A3F4DF8EE7E
:102F5000E77A95ED347A77EE877A0023F5EEC07A3A
:102F6000F1EE10FA61D5DFED3A0AC5ED347A67EE7D
:102F7000A00AB2EE040A12F0DFFAB5EE400AF1EE52
:102F800010FAF0EE407A5AD4B1EEE70A314B3249EA
:102F9000E1E603689B6898470EE62C4D00F23C433F
:102FA00019E700F23C43CFE722212C48274E11F0CD
:102FB0005DFE00252A480FF0C5FA294629483567E5
:102FC00004F070FB0121274804F0A2FC25489FED86
:102FD000260A04F007FC2946204686ED1D0AFFF765
:102FE00085F9E9E5D0F83C3423E6D0F83C348BE6AB
:102FF0001E4907A80FF0D8FB1D4904A80FF00EFCCE
:1030000004A907A80FF06AFD014615480FF06CFAF5
:1030100013480FF097FA04A80FF03AFC07A80FF036
:1030200037FC144801F09CF9C6E5C5F8D030F7EE3E
:10303000007AA9E7C5F8D030F7EE007A87E612F0FB
:10304000D9FAA3E712F0D6FA83E600BF0417FF1FF0
:10305000CDCCCC3D181EFF1FC47A0200147A0200AA
:10306000F40CFF1FDC17FF1F00000000AC7B020008
:103070002415FF1F0C15FF1F08B50446D0F88C045B
:103080000D46FDF723FCB0B9D4F8803413B1DB79D9
:103090003BB1FEE7D4F884341BB193F84434002BE1
:1030A000F7D12B6816495B681022284698472846B6
:1030B0000FF048FAEDE713492846FEF715FED4F85D
:1030C0008C04FDF703FC00230146102228460FF074
:1030D00047FA0D492846FEF707FED4F88C0460B184
:1030E00003689B6B9847C1B20023102228460FF05B
:1030F00037FA28460FF026FACBE70146F4E700BF7F
:10310000207C0200107C02001C7C02002DE9F04FA4
:103110002DED028BB84FB94EB94B3B6085B00823FB
:103120008022B848039303A97A60FEF7EFFD334687
:10313000DFF860B343F830BBDFF85C9333614FF4E2
:10314000807333810023F3603363D9F80030002BA0
:1031500000F051821A465B69002BFBD156610024B6
:10316000A94B3360A949AA4874617460B4720FF026
:103170001BFBA84BDFF824831B6801931A46D8F881
:10318000003086F824409342F462B46205DAA24A21
:1031900042F823600133C8F80030A04B336023218C
:1031A0009F48A04C11F062FD9F480FF0CBF99F4B58
:1031B0003A681A609E4B7A6890481A6005F058FA8F
:1031C0009C4A9D498D4814F0B1F92346002243F8EA
:1031D00030BB2361D9F80030E26022634FF4807283
:1031E0002281002B00F010821A465B69002BFBD174
:1031F00054610025844B2360844990486561656073
:10320000A5720FF0D1FA8E4AE2620122D8F800309E
:1032100084F82420019AA5629A42E56705DD7E4A7A
:1032200042F823400133C8F80030DFED867ADFED45
:10323000866AC4ED147A94ED147A97ED008A834B74
:10324000636327EE267A28EE270A87EE086A804B0A
:10325000804AA3634FF0000A7F4BA3640020002143
:10326000C4E91C012260A4F844A080EE260A84F878
:1032700078A0C4F880A0794DC4ED137AC4ED167A15
:10328000C4ED187A84ED146A12F036FB10EE100AC1
:103290001CF0EEF87A682264C4E91A01654A7049A4
:1032A000604884ED0F8A14F041F92B464FF4807288
:1032B00043F830BB2B61D9F80030C5F80CA0C5F835
:1032C00030A02A81002B00F09C811A465B69002BFC
:1032D000FBD155614FF0000A4B4B2B604B496148C5
:1032E000C5F814A0C5F804A085F80AA00FF05CFA90
:1032F0005D4AEA620422D8F8003085F82420019A59
:10330000C5F828A09A42C5F834A0C5F838A0C5F879
:103310003CA0C5F840A005DD3F4A42F823500133E8
:10332000C8F800304FF07E536B64AB64EB642B65E0
:103330004E4B404A2B604E494848DFF854A114F0E8
:10334000F5F82D494B48FEF713FE3A4A4A494948D9
:1033500014F0ECF85246002142F830BBCAF81020B5
:10336000D9F80020CAF80C10CAF830104FF4807158
:10337000AAF80810002A00F0418111465269002A7B
:10338000FBD1C1F814A04FF000091F4B1F49CAF828
:1033900000303A48CAF81490CAF804908AF80A90A3
:1033A0000FF002FAD8F80020019B3549CAF82C101A
:1033B00093424FF00201CAF82890CAF83490CAF834
:1033C00038908AF8241005DD134941F822A0013213
:1033D000C8F800202B4A396811602B4A79681160BF
:1033E0004FF00109294ACAF8002029488AF83C9080
:1033F00005F07AFC0F4A53E0E415FF1F9016FF1FFB
:103400000080BB47DC17FF1F8C7C0200687802003D
:10341000A816FF1F38830200B41EFF1FB0920200DF
:10342000347C0200181EFF1FF40CFF1F3C07FF1F17
:103430004007FF1F3007FF1FF1040000301EFF1F71
:10344000941EFF1F00000000A6552C47DB0F4940CB
:10345000DB0FC940B89302000000DC43B814FF1F23
:10346000D9040000D014FF1FEC14FF1F307F0200AE
:10347000C10400000C15FF1F350C0000DC16FF1FF7
:10348000F816FF1F4807FF1F4C07FF1FAC930200F1
:10349000C416FF1F807C0200002BFF1F9420FF1F1B
:1034A0005B495C4814F042F85B484FF00008C0E903
:1034B0000045A0F80880C0F80C8001F0C1FB574817
:1034C000C0E9005AA0F80880C0F80C8001F0B8FBF1
:1034D0005348C0E9005A4FF48075C0F80C8005814C
:1034E00001F0AEFB4F4806604F4EA0F80880C0F8D0
:1034F0000C80466001F0A4FB4C48C0E90046058101
:10350000C0F80C8001F09CFB49494A484A4D4B4C9D
:10351000FEF7ECFD4A4A4B49464814F007F84A4B7F
:103520002B604A4BC5F810346723C5F8088485F82A
:103530001434414605F583600FF036F9444B2B6097
:103540000623C5F83834C5F82884C5F82C84C5F896
:103550003084C5F834844146C5F83C94C5F84084AD
:10356000C5F84484C5F8488405F24C400FF01CF9B6
:10357000334A3849284613F0D9FF374BA366374BF7
:1035800023606FF01F036360782323742523636136
:10359000334984F864804A22E766C4F80C8004F159
:1035A00018000FF011FC2F4A13782372294663721A
:1035B00020464B44137002F0E9FC2B4B236000259E
:1035C000122302222267E36728496567A56748221C
:1035D00004F180000FF0F8FB254BC4F8CC30042236
:1035E000C4F8C820C4F8D05084F8D48005B0BDEC2D
:1035F000028BBDE8F08FC9F80060B0E5C9F800A003
:10360000C1E6C9F8005065E6C9F80040F1E500BF21
:10361000A9040000C416FF1FB019FF1F7019FF1F77
:103620008019FF1F9019FF1F3015FF1FA019FF1FE2
:10363000DC17FF1FEC15FF1FC019FF1F0417FF1F2A
:103640003007FF1F09050000D48802005016FF1F35
:10365000DC7E020069050000FC17FF1F18890200CC
:10366000407E02003407FF1FD07D02008C7E0200E6
:1036700000007A4470B58468002104F59266FF2347
:10368000054684F8B83484F8C41430460CF0C2FA05
:10369000C4F88C6430460BF0BFFD40B90123D4F868
:1036A0008C141A4620460AF039FD00B170BDEC6D4D
:1036B0000849AD682046FEF717FB236806495B689A
:1036C00016222046984720460EF03CFF2146284609
:1036D000FFF7D2FC587C0200607C0200704700BFFC
:1036E000002070472DE9F843002A39D007460D46DF
:1036F000164601F0E5F9804690B307F14404043D15
:1037000054374FF00009012255F8043F7BB1BAB19C
:10371000DA685868716894ED000A11F0FBFC2B68B8
:103720005A69DB68F3607261002209F1010904340F
:10373000A742E9D1404601F009FA4846BDE8F883BE
:10374000DA68D8F80410586894ED000A11F0E2FC29
:103750007268F368D8F80410104611F087FDE3E7AB
:103760004FF0FF39E9E700BF2DE9F8430746002491
:103770002146384601F03EFA054620B90134042CB2
:10378000F6D1BDE8F8834168EA6807EB840393ED5E
:10379000110A084611F0BEFC032C04F1010827D0E1
:1037A000123407EB84044146384601F015FA08F15B
:1037B00001080646B8B101F083F994ED000AC26829
:1037C00041688146706811F0A5FC6A68D9F80C3030
:1037D000D9F80410104611F049FD484601F0B6F939
:1037E000304601F0B3F9B8F1040F04F10404DAD162
:1037F00038462946002201F0CBF92846BDE8F843B7
:1038000001F0A4B90429A8BF04210129836EB8BF1F
:103810000121416103B1D966084670470368DB6B3B
:10382000184700BF0346743853F8743CDB6B1847E5
:1038300003685B6C184700BF2DE9F0434269002A1A
:1038400087B0054630DD002400F12408264602AF8B
:103850002146404601F0C0F96A6947F82400002873
:1038600004F1010418BF0126A242F1DC56B1002A7E
:103870001ADD00243E46A14656F8041BF9B1013476
:10388000A242F9DCAB68012B12D0002A09DD00242A
:1038900057F8040B013410B101F058F96A69A242DB
:1038A000F6DC07B0BDE8F083AB68012BF9D102AFBD
:1038B0002B6839465B6A284698476A69E5E70191B3
:1038C00001F0FEF80199804608B96A69D7E7C26835
:1038D000002A4FEA820202DD40681EF0EFF8C8F8C5
:1038E00014906A6946F8048CC9E700BFA0F124006F
:1038F000FFF7A2BF70B50C468EB000297AD03F49C1
:103900000BA815460EF06EFF20460BA903F072FBC4
:1039100004460BA80EF0BCFF002C6BD0384905A85C
:103920000EF042FF294602A80EF078FF354902A8A2
:103930000FF0DCF8014608A80EF070FF06263249A9
:103940000BA80EF031FF0BAB08AA05A90096204684
:1039500003F0BAFA0BA80EF09BFF08A80EF098FF30
:1039600002A80EF095FF05A80EF092FF274905A8C2
:103970000EF01AFF294602A80EF050FF244902A8B3
:103980000FF0B4F8014608A80EF048FF21490BA833
:103990000EF00AFF0BAB08AA05A90096204603F01B
:1039A00093FA0BA80EF074FF08A80EF071FF02A89E
:1039B0000EF06EFF05A80EF06BFF164905A80EF07D
:1039C000F3FE144908A80EF0EFFE13490BA80EF001
:1039D000EBFE0C2308AA05A9009320460BAB03F0CD
:1039E00073FA0BA80EF054FF08A80EF051FF05A8BB
:1039F0000EF04EFF20460EB070BD00BF387F0200B3
:103A00008C7302007CAE0200507F0200AC73020097
:103A100048810200009502005C7F020030B50C4630
:103A200085B091B10A49054601A80EF0BDFE2046B9
:103A300001A903F05BFB044601A80EF029FF24B1A5
:103A40002B6821465B6B28469847204605B030BD61
:103A5000647F02002DE9F0418668436F86B0012E35
:103A6000044603AD2DD02249DE6C00F174072846D0
:103A70000EF09AFE3846012300222946B047284618
:103A80000EF006FF636F1B49D3F8508028460EF0F6
:103A90008BFE2368184A9B68934223D16E4604F13B
:103AA000180130460EF0BAFE324629463846C04765
:103AB00030460EF0EDFE28460EF0EAFE06B0BDE8F8
:103AC000F08100F174070A49D3F84C8028460EF0C3
:103AD0006BFE3846334632462946C04728460EF02C
:103AE000D7FECFE76E46214630469847DCE700BF59
:103AF000507F02005C7F02005105000003467438CD
:103B000053F8743C5B6C1847F0B5426F03469269FA
:103B10000E461E49044653F8740B8A42876B8DB0DB
:103B20002ED11B4B06A819780EF094FE06A903A807
:103B30000EF074FE94F87C1009A80EF08BFE09A913
:103B400003A80EF0CBFF94F884100EF0DDFF6D4655
:103B5000014628460EF062FE09A80EF099FE03A861
:103B60000EF096FE06A80EF093FE2A463146204639
:103B7000B847044628460EF08BFE20460DB0F0BD37
:103B80006D46194628469047EFE700BFA90500009B
:103B90003507FF1F30B5436F274A9B6993428DB0AD
:103BA00043D1264B0446197806A80EF053FE09AD02
:103BB00006A903A80EF032FE94F87C1028460EF0F9
:103BC00049FE294603A80EF089FF94F884100EF0F0
:103BD0009BFF6C46014620460EF020FE28460EF064
:103BE00057FE03A80EF054FE06A80EF051FE14492D
:103BF00028460EF0F7FD214628460EF06FFF0146DD
:103C000010480EF071FC0F480EF09CFC28460EF098
:103C10003FFE22210C4811F029F80A480EF092FCD0
:103C200020460EF035FE0DB030BD6C4600F174013B
:103C30002046984709ADDAE7A90500003507FF1FC0
:103C4000747F0200F40CFF1F907F0200A0F174004B
:103C5000FFF7A0BF2DE9F84F2DED028B161E00AF28
:103C6000E9464BD006F1070323F00703ADEB030D44
:103C7000EE4643DD0C1F4FF00008824608EE10EAC6
:103C8000B20004EB8605EC462146C346012009E05C
:103C9000A9428CF80000D3F80C800BF1010B0CF159
:103CA000010C09D051F8043F002BF1D1A9428CF846
:103CB00000300CF1010CF5D1BBF1000F1ED0B34563
:103CC00022DBD31D23F00703ADEB030DEB460021F0
:103CD00058461DF0F3FE5B4654F8042F0AB15268B3
:103CE0001A60AC4203F10403F6D1DAF8680028B197
:103CF00002683346946B59464246A047CD46BD46BE
:103D0000BDEC028BBDE8F88F2B211348DFF84C8007
:103D10000EF1FF3410F0AAFF594610480EF00AFCCD
:103D200004210F4810F0A2FF31460C480EF002FCAF
:103D30000C480B2110F09AFF18EE103A751E1D4426
:103D400014F8011F40460EF0F5FBA542F8D10348D8
:103D50000EF0F8FBD2E700BFB47F0200F40CFF1FA7
:103D60002C830200E07F02002DE9F04F87687B1C66
:103D700093B005466FD0002F5CD12C6940F2E5333B
:103D80009C4253DC394EDFF8ECA0DFF8EC906FF08A
:103D900063080DE063466A4604A8CDF810C008F039
:103DA00001F800283CD02C6940F2E5339C423DDC10
:103DB00096E80F00EE46AEE8070001348AFB04CB1C
:103DC000E217C2EB6B1208FB02F021188EF80030EC
:103DD0003032AB6E8DF8052089FB012ECA17C2EB7D
:103DE000AE026FF009019B682C6101FB02440444A0
:103DF000D3F88014303230344FF0000C8DF80620A8
:103E00008DF807400029C5D1D3F884240B463AB178
:103E1000109104A811466A4606F07CF90028C2D128
:103E20002B6869465B69284698470746384613B0B1
:103E3000BDE8F08FEC6E9CB123680D495B683422BD
:103E40002046984720460EF07DFB4FF0FF3738465E
:103E500013B0BDE8F08F0368DB689847AF688AE766
:103E60004FF0FF37384613B0BDE8F08F24800200D2
:103E7000EC7F02001F85EB51676666662DE9F04F07
:103E80008668731C93B005460F4600F0E980002E4B
:103E900040F0ED80D5F86880B8F1000F00F0FD80AB
:103EA000D8F80830D3F88014002900F00B8104AC56
:103EB00033463A462046049607F074FF002840F047
:103EC000108172B69F4B196831B140F202633A46D5
:103ED00008F114000AF012F862B6D8F84CB0BBF141
:103EE000000F00F0D580D8ED1A7A974C9749D8F892
:103EF0006CA0FDEEE77A4FF0010388F860300422F1
:103F0000D8F864300193204617EE909A0EF05CFFCB
:103F10008F49042204F108000EF056FF8D49042257
:103F200004F10C000EF050FF8B49042204F1240030
:103F30000EF04AFF4FF0000C4FF0010384F811C05F
:103F400084F812C084F813C084F815C084F823C024
:103F50004FF0100C237584F810C0019B84F822C028
:103F6000C9F3072C4FEA490084F819C0C9F3074C7C
:103F70004FEA4A015A4284F81AC0B2FBF1F2C0F388
:103F8000072C0AFB02F25200207784F81DC0C0F310
:103F9000074C000E84F82010E077C1F30721C2F32C
:103FA000072084F8211084F8282002F1240184F8E5
:103FB0002900C2F30740120E84F82B20C1F3072218
:103FC00084F816A084F81890CAF3072A21714FEAE2
:103FD00019696271C1F30742090E84F817A084F8C9
:103FE0001B9084F81EC084F82A00A271E171BBF115
:103FF000000F00F089801A462146584608F00AFB57
:10400000E86E90B1036855495B6816229847EC6EDC
:1040100047B138461EF0F4F8236802465B6839461B
:104020002046984720460EF08DFAAB6E0022DA67E4
:104030009A674B4B1B680393039B2B670122AA6073
:10404000394604A80EF0B0FB04A905F118000EF0E3
:10405000ABFC04A80EF01CFC304613B0BDE8F08F9A
:104060000368DB689847AE68002E3FF413AFEC6E30
:1040700044B123683B495B68342220469847204678
:104080000EF060FA4FF0FF36304613B0BDE8F08F07
:10409000D8F85030002B7FF426AFE86E0028F1D01E
:1040A000036831495B6825229847EC6E002FE6D003
:1040B00038461EF0A5F8236802465B68394620465C
:1040C0009847DCE7D3F8841400293FF4FAAE04AC37
:1040D00033463A462046109606F01CF800283FF476
:1040E000F0AED8F80830D3F88014B9B100230493A7
:1040F0003A460123204607F055FE00283FF4E1AE82
:10410000204608F009FFDCE6D8F8500000283FF40C
:1041100077AF1A46214606F0EFFB71E7D3F88434F7
:10412000002B3FF4CEAE10913A46194620460123AB
:1041300005F0F0FF00283FF4C4AE204606F04EF82C
:10414000BFE600BF4C25FF1F8814FF1FB473020099
:10415000BC730200C4730200CC73020034800200FE
:10416000882BFF1FEC7F02004C80020038B505460B
:104170000C4649B108461EF043F82B68024621461A
:104180005B6828469847044628460EF0DBF9204431
:1041900038BD00BF90F860302DE9F047054643B9BF
:1041A00005F1140009F096FE002085F86000BDE8D6
:1041B000F087C06C002800F09580C7690021B846E0
:1041C00008F056F8D5ED1A7A504C5149D5F86CA044
:1041D000D5F86490FDEEE77A0422204617EE906A47
:1041E0000EF0F2FD4B49042204F108000EF0ECFD44
:1041F0004949042204F10C000EF0E6FD474904226F
:1042000004F124000EF0E0FD4FF0000C84F811C022
:1042100084F812C084F813C084F815C084F823C051
:104220004FF0100C84F810C084F822C04FF0010C3D
:1042300084F814C0C6F3072C7100267684F819C0E0
:10424000C6F3074C360E4FEA4A02A7EB0903E6769F
:10425000B3FBF2F3C1F307260AFB03F35B002177FC
:104260006677C1F30746090E84F82020E177C2F390
:104270000722C3F3072184F8212084F8283003F1B2
:10428000240284F82910C3F307411B0E84F82B3055
:10429000E86C84F816A0C2F30723CAF3072A227138
:1042A0006371C2F30743120E84F817A084F81AC092
:1042B000A67784F82A10A371E27150B14A462146CC
:1042C00008F0A8F9EB6CB3B13946184607F0D0FFF7
:1042D00066E7286D00283FF463AF4A46214606F0A2
:1042E0000BFBEFE7286D70B107690022002305F092
:1042F0006FFCB84666E7286D00283FF451AF424690
:1043000005F066FC4CE7804607465BE78814FF1F14
:10431000B4730200BC730200C4730200CC730200C9
:1043200010B5002384B00446836062B6806E08B185
:10433000FFF730FF094901A80EF036FA01A904F190
:1043400018000EF031FB01A80EF0A2FAA36E13B113
:104350000022DA679A6704B010BD00BF58780200E7
:1043600072B68368012B00D07047FFF7D9BF00BF3A
:1043700003680F4A9B69934210B5044613D172B685
:104380008368012B11D06368D3F88C040022C3F832
:104390008024C3F8842410B103689B6898474FF0C9
:1043A000FF33A36010BD9847EDE7FFF7B9FFEAE7D9
:1043B000614300002DE9F8431E46036890469B695F
:1043C000484A934205460F4663D172B68368012B73
:1043D00061D0AC6EEF602CB1B4FA84F04009404279
:1043E000BDE8F8836C68002C58D094200EF06CFE69
:1043F0003D4B036000273D4BC360044647600761A7
:10440000C764076580F85470D5F804900FF02EF952
:10441000374B23600223C4F88030364BC4F8843015
:10442000002EC4F88830344BA366B8BF03362C2363
:104430006366B6106B69E3667600089BA065022E82
:10444000B8BF0226002BC4F8089084F86070C4F846
:104450005C806767A767E767C4F890702667AC66FB
:10446000BADB26489842A8BF184640100428B8BFB7
:104470000420C4F8840040000EF028FE002360678A
:10448000E367A367AC6EB4FA84F040094042BDE82C
:10449000F88398479DE7FFF743FF9AE74FF4996049
:1044A0000EF012FE4FF49962074621461DF006FBFE
:1044B000134BC7F89034134BC7F8A434292387F85B
:1044C000A934114BC7F88044C7F8844487F898444E
:1044D00087F8AD4487F8B44487F8C4446F60C7F8E0
:1044E0009C3482E7614300001C7D0200187F0200BB
:1044F0005C7D0200F824010000442C47F0490200D2
:10450000C095020003200038509502002DE9F04FBD
:104510008668731C93B0044600F0B280002E40F011
:104520009E805F4DDFF884815E4FDFF88491B44652
:1045300037E00DF1100A002301466A465046049305
:1045400007F030FC38B3E06EB0B1036818225B6846
:1045500049469847D4F86CB0BBF1000F0CD06846C0
:104560001DF04EFEDBF8003002465B686946584697
:10457000984758460DF0E6FFA36E9B68D3F8801469
:10458000002950D0002304936A460123504607F0C7
:1045900009FC00287FD1D4F810C040F2E5339C45D7
:1045A00057DC95E80F00EE46AEE807000CF1010C71
:1045B00088FB0C214FEAEC72C2EB61128EF80030DE
:1045C0006FF0630303FB02F10CEB010302F1300017
:1045D00087FB03E2DB17C3EBA2038DF80500A06E97
:1045E000C4F810C003F13002D0F808E08DF80620BE
:1045F0006FF0090202FB03C20A44DEF88004303285
:104600008DF80720002894D1DEF884140029C4D046
:104610000DF1100A109003466A46504605F07AFDE7
:10462000002890D1B7E7D3F88434002BB3D0109191
:104630006A4619465046012305F06CFD0028AAD0B1
:10464000504605F0CBFDD4F810C040F2E5339C4550
:10465000A7DD00233046236113B0BDE8F08FE46E80
:104660009CB1236810495B68342220469847204655
:104670000DF068FF4FF0FF36304613B0BDE8F08F05
:104680000368DB689847A66848E74FF0FF36304676
:1046900013B0BDE8F08F504608F03EFC7BE700BF4A
:1046A0002480020067666666908002001F85EB51D9
:1046B0007480020090F87C208A4209D1722B10B5D8
:1046C000044632D0732B05D0642B1AD0002010BDC5
:1046D000002070472721224810F0C8FA21480DF029
:1046E00031FF2368204A9B6993422AD172B6A3689E
:1046F000012B30D0236820465B6C002198470120B5
:1047000010BD2D21194810F0B1FA16480DF01AFF0E
:104710002368154A9B69934216D172B6A368012B90
:1047200015D02046FFF7F2FEE4E72821104810F0EC
:104730009DFA0C480DF006FF236820461B69984738
:10474000D8E720469847D5E720469847E9E720462E
:10475000FFF7E6FDE5E72046FFF7E2FDCAE700BF09
:10476000F4800200F40CFF1F614300001C81020072
:10477000C8800200A0F17400FFF79CBF2DE9F84348
:1047800004462DED028B0EF071FFA66E002E00F098
:10479000998033680546DB6B3046984706460EF035
:1047A00065FF002EA0EB050440F38780494F4A4D7A
:1047B0003A682B68B242B8BF324642F21071A34247
:1047C000B8BF23468C423A602B6076D9DFF820913F
:1047D000DFF82081D9F8001040489FED418A9142CE
:1047E000B8BF1146D8F80020C9F800109A42B8BFE7
:1047F0001A461B21C8F8002010F038FA3146394813
:104800000DF098FE0221384810F030FA396835482A
:104810000DF090FE0221344810F028FAD9F800106B
:1048200030480DF087FE02212F4810F01FFA0C21AE
:104830002E4810F01BFA07EE904AF8EE677AC7EEA2
:10484000887A17EE900A1AF065F941EC100B0121F5
:1048500024480DF091FE0221234810F007FAD5ED0F
:10486000007AF8EEE77AC7EE887A17EE900A1AF027
:1048700051F941EC100B01211A480DF07DFE022187
:10488000194810F0F3F9D8ED007AF8EEE77AC7EEA0
:10489000887A17EE900A1AF03DF941EC100B0121CD
:1048A00010480DF069FE02210F4810F0DFF90D48A5
:1048B0000DF048FE00233B602B60BDEC028B3046C0
:1048C000BDE8F8830EF0D2FEBDEC028B3046BDE8A9
:1048D000F88300BFA81EFF1FA41EFF1F4C8102000B
:1048E00000007A44F40CFF1F1C780200688102006B
:1048F000B01EFF1FAC1EFF1F10B5194C2DED028B13
:10490000236882B0A3B1174B026F1B680193019B10
:10491000DFED156A9FED157A9B1A07EE903AF8EED7
:10492000677A87EEA68AB4EEC78AF1EE10FA05DC44
:104930000023236002B0BDEC028B10BD35210C4872
:1049400010F094F918EE100A1AF0E4F841EC100B8C
:10495000022108480DF010FE06480DF0F3FDE7E7D0
:10496000FC20FF1F882BFF1F00007A44CDCCCC3DDC
:1049700078810200F40CFF1F70B505460E46FFF764
:10498000FDFE041E03DD31462846FFF7B5FF204635
:1049900070BD00BFF8B583685A1C00D0F8BD856EA5
:1049A0000446EDB12A68184992698A4229D1AE6855
:1049B000002106F5926786F8B83486F8C4143846A4
:1049C0000BF028F9C6F88C7438460AF025FC50B96B
:1049D0000123D6F88C141A46304609F09FFB10B11B
:1049E0000023A360F8BDEC6D0849AD682046FDF7D3
:1049F0007BF907492046FFF7B9FB21462846FEF719
:104A00003BFB28469047EBE775360000587C0200D8
:104A1000607C0200D0ED007ADFED0D6A90ED017A46
:104A20000C4BDFED0D5A1B8886EEA76AB8EEC77AED
:104A3000DFED0A6A27EE067A07EE903A87EE260A3D
:104A4000F8EEE77A77EEA57A87EE800A704700BF26
:104A500050A92B4B042BFF1F000000000000C84290
:104A6000D0ED007ADFED0D6A90ED017A0C4BDFEDB1
:104A70000D5A1B8886EEA76AB8EEC77ADFED0A6A80
:104A800027EE067A07EE903A87EE260AF8EEE77AE6
:104A900077EEA57A87EE800A704700BF50A92B4BAE
:104AA000082BFF1F000000000000C84210B504469C
:104AB000006818B1A168091A0EF00CFB204610BD61
:104AC00072B61E4B186820B9586808B32022043308
:104AD00000E00022B0FA80FC4FF0004121FA0CF116
:104AE00020EA0100164918600B780133DBB20B7025
:104AF00062B614491F3208681349A2EB0C0250F841
:104B00002200012202700A789A4238BF0B70704767
:104B1000986840B9D86848B9186950B9586958B107
:104B2000A0221433D6E740220833D3E760220C33A7
:104B3000D0E780221033CDE762B67047AC20FF1F6C
:104B4000A820FF1F9C20FF1FAA20FF1F38B142781A
:104B500072B60378012B03D9013B037062B670472C
:104B60004FEA521C08480949D24302F01F024FF095
:104B70000043D34050F82C2013430A7840F82C30DF
:104B8000531E0B70EAE700BFAC20FF1FA820FF1FD9
:104B9000836A13B91DE0DB68E3B1187A9042FAD159
:104BA00010B4586893F809C0C06A50F82C4054B14A
:104BB000DB682BB1187A9042F3D0DB68002BF9D177
:104BC0005DF8044B704740F82C10087801300870ED
:104BD000EEE77047704700BF90F824308B4206D94B
:104BE000C36A002253F8210043F8212070470020B7
:104BF000704700BF38B590F824308B421DD9C36A86
:104C000053F82140002243F82120B4B12378012B2E
:104C100001D8204638BDFFF753FF054628B182680A
:104C20006168406892000EF0CFF863696B61237889
:104C3000013B23702C46204638BD0024204638BD59
:104C40004368427A93F824309A420DD872B60168CC
:104C50008B6A53B11A46DB68002BFBD1D0604268E7
:104C600001230B72137262B670478862F7E700BFC8
:104C70002DE9F84FD0E900890F4692466FF0604168
:104C8000A9EB0802B1EBA20F58D09310012B1A46E2
:104C900038BF01229C1806464CD2A7EB0805A34654
:104CA000002C3DD1DAF800304BF80530002D26DC21
:104CB000A9EB07090435B9F1000F5D4415DC4D443B
:104CC000B8F1000F05D1C6F800B07560B460BDE85A
:104CD000F88FB168A1EB080140460EF0FBF9C6F869
:104CE00000B07560B460BDE8F88F284639464A4682
:104CF0000EF06AF84D44B8F1000FE4D0E9E72A4617
:104D0000A9EB0709414658461CF05CFE0435B9F191
:104D1000000F5D44E9DCB1684D44A1EB0801DBE71D
:104D20008C4228BF0C46A40020460EF0CDF98346E5
:104D30000444B7E7034CA7EB0805F5E7024812F077
:104D400023FC00BFFCFFFF7FA8820200002800F0C8
:104D5000B8802DE9F04F00245A4EDFF87CB18BB0BB
:104D600089460746A0460BE052F82450D9F8043093
:104D7000AA689A424FEA840A40DA0134A74237D03F
:104D8000D6E900239B1AB4EBA30FEDD318200EF045
:104D90009BF9D9F80430802105468B426FF06042C0
:104DA0001846B8BF08469342A860E960B4BF8000C7
:104DB0004FF0FF30C5F810B00EF088F97168B36895
:104DC000D9F800C0D9F80420EA6099426860C5F8B3
:104DD00010C007956FD041F8045B716051F8043C36
:104DE0005B68002BC9D10134A74208F10108C7D183
:104DF000B8F1000F2FD10BB0BDE8F08F686810B18B
:104E000004210EF067F9284618210EF063F91820E6
:104E10000EF05AF98023C360D9F80430C0F810B0FE
:104E20000546802B6FF060421846B8BF8020934241
:104E3000A8600DDA80000EF049F9D9F800302B6136
:104E40003368D9F804206860EA6043F80A5094E7B0
:104E50004FF0FF30EFE71C4904A80DF0A5FC0A2233
:104E6000414601A80DF050FD01A904A80DF036FE41
:104E700016490DF03BFE0A220446394607A80DF0FC
:104E800059FD07A920460DF029FE11490DF02EFE0F
:104E9000014610480DF028FB0E480DF053FB07A803
:104EA0000DF0F6FC01A80DF0F3FC04A80DF0F0FCE9
:104EB0000BB0BDE8F08F07AA3046FFF7D9FE716846
:104EC0008CE770479C20FF1FC48202001083020001
:104ED00034830200F40CFF1FA6552C47C02870B580
:104EE0000546064628BFC02572B6154C2846FFF772
:104EF0002DFF002121606160A160E160216161619D
:104F0000DEB10A468C46012001E054F82C1002F074
:104F10001F0300FA03F301320B43954244F82C308F
:104F20004FEA521CF1D8074A12680023043A52F89B
:104F3000041F4B7001339D42F9D862B670BD00BFAB
:104F4000AC20FF1F9C20FF1F002801DBFFF7C6BF1E
:104F5000704700BF0448054A0549002303604360C9
:104F6000836012F0E3BA00BF9C20FF1F3007FF1FD1
:104F7000AD4A00002DE9F04105468AB02349244E90
:104F800004A80DF011FC2946A8690DF0ADFAA86936
:104F90000368DB68984733680193019F05F10C08AB
:104FA00017E0A86903681B69984700280ADDA8690B
:104FB00003685B699847C1B204A80DF07FFD3368B0
:104FC0000293029F33680393AB6A039A3B44934274
:104FD00018D3414604A80DF0D1FD01280446E0D1C4
:104FE0000C4907A80DF0E0FB07A904A80DF0B2FDDD
:104FF00007A80DF04DFC04A80DF04AFC20460AB0AD
:10500000BDE8F0814FF0FF34F5E700BF00950200E6
:10501000882BFF1F3C8302002DE9F04F3D4EDFF847
:1050200004918FB004460D4605A83B490DF0BCFB2A
:1050300033680393002DD8BFA56A039B364904F15A
:105040001C0840461D4404F10C070DF0C3FC17E09A
:10505000A06903681B69984700280CDDA0690368F4
:105060005B699847C1B205A801910DF027FD019930
:1050700040460DF023FD394605A80DF07FFD68B9C7
:1050800033680493049BAB42E2D34FF0FF3A05A888
:105090000DF0FEFB50460FB0BDE8F08F05A80DF0F7
:1050A000FBFD494608A80DF07FFB08A905A80DF0F7
:1050B00051FD28B108A80DF0EBFB4FF0010AE6E71F
:1050C00016490BA80DF070FB0BA905A80DF042FDC9
:1050D00082460BA8BAF1000F18D10DF0D9FB08A831
:1050E0000DF0D6FB0E490BA80DF05EFB0BA905A831
:1050F0000DF030FD83460BA80DF0CAFBBBF1000F8D
:10510000C5D1054905A80DF065FCB9E70BA80DF060
:10511000BFFBCFE7882BFF1F0095020044830200EE
:105120004C8302004083020030B587B004460191F1
:10513000FFF720FF0199A56903A80DF06FFB214639
:1051400003A80DF0CBFC014628460DF0CDF903A8CD
:105150000DF09EFBA0690368DB6898474FF0FF31B4
:10516000204607B0BDE83040FFF756BF30B58BB0E2
:10517000044601AD01B3134928460DF015FB124951
:1051800004A80DF011FB294604A80DF0A7FC014668
:1051900007A80DF043FB07A92046FFF7C5FF04460B
:1051A00007A80DF075FB04A80DF072FB28460DF062
:1051B0006FFB20460BB030BD044928460DF0F4FAD1
:1051C000DDE700BF5483020058830200508F0200C5
:1051D00030B58BB0044601AD01B3134928460DF03C
:1051E000E3FA124904A80DF0DFFA294604A80DF0ED
:1051F00075FC014607A80DF011FB07A92046FFF733
:1052000093FF044607A80DF043FB04A80DF040FBF4
:1052100028460DF03DFB20460BB030BD0449284622
:105220000DF0C2FADDE700BF54830200688302007C
:10523000508F020030B58BB0054601AC31B3164932
:1052400020460DF0B1FA154904A80DF0ADFA21463B
:1052500004A80DF043FC12490DF048FC21460DF066
:105260003DFC014607A80DF0D9FA07A92846FFF72B
:105270005BFF054607A80DF00BFB04A80DF008FB2B
:1052800020460DF005FB28460BB030BD05492046F1
:105290000DF08AFAD7E700BF54830200788302003A
:1052A00050AA0200508F020030B5C36A052B8BB0A4
:1052B00004460D462EDD036B0D2B03DC0024204637
:1052C0000BB030BD204904A80DF06EFA0A22216B04
:1052D00001A80DF019FB01A904A80DF0FFFB1B4963
:1052E0000DF004FC29460DF0F9FB014607A80DF06E
:1052F00095FA07A92046FFF717FF044607A80DF007
:10530000C7FA01A80DF0C4FA04A80DF0C1FA2046AE
:105310000BB030BD0C4904A80DF046FA294604A88C
:105320000DF0DCFB014607A80DF078FA07A920462E
:10533000FFF7FAFE044607A80DF0AAFA04A80DF03C
:10534000A7FA20460BB030BD8483020050AA0200A9
:1053500070B584B00E460446144901A80DF024FA35
:1053600001A92046FFF7E0FE054601A80DF090FADE
:1053700016B9284604B070BD18210D480FF076FC10
:1053800004F11C0101A80DF049FA01A909480DF02A
:10539000ABF801A80DF07CFAE36A062BE9DD0548BD
:1053A0000DF0D0F8284604B070BD00BF8C83020019
:1053B00094830200F40CFF1F70B584B00E460446BF
:1053C000144901A80DF0F0F901A92046FFF7ACFE41
:1053D000054601A80DF05CFA16B9284604B070BD68
:1053E00019210D480FF042FC04F11C0101A80DF039
:1053F00015FA01A909480DF077F801A80DF048FA4F
:10540000E36A062BE9DD05480DF09CF8284604B058
:1054100070BD00BFB0830200B8830200F40CFF1F10
:10542000704700BF90F808C08C4503D10268194648
:10543000936D18470020704770B50368304A9B6928
:1054400093428CB0054655D12E4B06A819780DF025
:1054500001FA09AC06A903A80DF0E0F9297A204663
:105460000DF0F8F9214603A80DF038FB297C0DF06A
:105470004BFB6E46014630460DF0D0F920460DF04C
:1054800007FA03A80DF004FA06A80DF001FA1E4968
:1054900020460DF0A7F9314620460DF01FFB0146CE
:1054A0001A480DF021F819480DF04CF820460DF07F
:1054B000EFF91E2116480FF0D9FB14480DF042F801
:1054C0002D2114480FF0D2FB10480DF03BF83F217E
:1054D00011480FF0CBFB0D480DF034F82B210F488D
:1054E0000FF0C4FB09480DF02DF830460DF0D0F94F
:1054F0000CB070BD6E4601463046984709ACC6E711
:10550000A90500003507FF1FD4830200F40CFF1F1C
:10551000E4830200048402003484020074840200E4
:10552000762977D8602910B5044611D96139152933
:105530000CD8DFE801F0320B0B400B0B0B0B0B0B05
:105540000B0B0B0B0B0B0B0B530B0B24002010BD89
:10555000412951D04429F9D12D212F480FF086FB44
:105560002E480CF0EFFFD4F89030062B4FF00001DE
:1055700004F164002EDCFFF72BFE012010BD30216A
:1055800027480FF073FB25480CF0DCFF012104F1E4
:105590006400FFF711FF012010BD222121480FF008
:1055A00065FB1E480CF0CEFF012104F16400FFF7FB
:1055B000DDFD012010BD2A211B480FF057FB1748C5
:1055C0000CF0C0FFD4F89030062B4FF0010104F12D
:1055D0006400D0DDFFF72EFE012010BD212113480D
:1055E0000FF044FB0D480CF0ADFF012104F1640005
:1055F000FFF7AEFE012010BD25210D480FF036FB50
:1056000006480CF09FFF002104F16400FFF7AEFD97
:10561000012010BD0020704718850200F40CFF1F08
:105620006C850200A0840200EC8402004885020020
:10563000C48402002DE9F0439BB0804608A80DF019
:10564000EDF800210BA80DF0AFF87F490BA80DF085
:10565000C1F9FF210BA80DF031FA0A9B43F6FE7247
:10566000934200F2C78048F2010444EA4304C4F3C1
:1056700007210BA80DF022FAE1B20BA80DF01EFADB
:1056800006210BA80DF09AFA03780D2B05D0062100
:105690000BA80DF093FA0378A3B920210DEB0100BC
:1056A0000DF00CFA0A9B052148F201040BA844EA0C
:1056B00043040DF083FA2312037006210BA80DF0AA
:1056C0007DFA047000210BA80DF06EFA01210790FD
:1056D0000BA80DF069FA022106900BA80DF064FAF0
:1056E000032104460BA80DF05FFA042105460BA820
:1056F0000DF05AFA052106460BA80DF055FA0621C1
:1057000007460BA80DF050FA069B079A4F490490E4
:105710008DE8F00014A81CF001F80BA911A80DF0F9
:105720007DF811A94046FFF7BFFD044611A80DF012
:10573000AFF8012C67D0D8F82C30062B03DDD8F851
:105740003030002B63DC0A9C07EE104AB8EE470AA3
:10575000F3EE037A80EE270A10F086F8FDEEC07AA9
:1057600017EE909AB9F1000F6CDD002427460EADBC
:1057700064F00F01C9B228460DF06CF804EBC402C6
:1057800004EB420202F1130308A911A80DF03EFA3E
:1057900011A928460DF080F911A80DF079F82946D5
:1057A00011A80DF03BF811A94046FFF77DFD064614
:1057B00011A80DF06DF8012E0ABF109B4FF0FF33BA
:1057C00003F1FF3304201F4401340DF071FF28461C
:1057D0000DF05EF84C45CBD10A9CA74218BF0024BF
:1057E0000BA80DF055F808A80DF052F820461BB094
:1057F000BDE8F083252116480FF038FA15480CF063
:10580000A1FE0024ECE70D9B072B9CD093E70EAD87
:10581000114911A80CF0C8FF0BA928460CF0FEFF97
:10582000294611A80DF05AF901460A480CF05CFE11
:1058300008480CF087FE28460DF02AF811A80DF054
:1058400027F880E70027C8E7A0850200D08502007E
:10585000A8850200F40CFF1FF4850200002B11DD67
:105860008446043A081D00B5844402EB830E5CF8BC
:10587000041F42F8041F7245F9D1013B00EB83007D
:105880005DF804FB08467047002B0FDD844601F1EC
:10589000080010B5844402EB83045CF804EB42F882
:1058A00004EBA242F9D101EB830010BD084670471A
:1058B00038B5D0F83024D0F82C349A4210D00546B0
:1058C000002453F82400013430B103681B68984762
:1058D000D5F82C34D5F83024D11AB4EBA10FF0D37D
:1058E00038BD00BF2DE9F843D0F82CC4D0F830E41F
:1058F000E64519D006460F469046994600245CF8C6
:1059000024504B464246394628463DB12D68AD6885
:10591000A84750B9D6F82CC4D6F830E40134AEEB21
:105920000C03B4EBA30FEAD30020BDE8F88300BF5B
:10593000D0F82C34D0F830249A4214D070B50546F3
:105940000E46002453F82400013438B10368314670
:10595000DB689847D5F82C34D5F83024D01AB4EB4E
:10596000A00FEFD370BD70472DE9F041D0F82C3473
:10597000D0F830549D421DD0104F06468846002472
:1059800004E00134EA1AB4EBA20F13D253F8240056
:105990000028F6D002685268BA42F2D041469047D9
:1059A00048B9D6F82C34D6F830540134EA1AB4EB9E
:1059B000A20FEBD30020BDE8F08100BF6904000016
:1059C00070B586B00E460446194903A815460CF07A
:1059D000EBFE314603A80DF081F816490DF086F86C
:1059E00029460DF07BF8014668460CF017FF03A826
:1059F0000CF04EFF104903A80CF0D6FE694603A830
:105A00000DF06CF801460D480CF06EFD0B480CF0E3
:105A100099FD03A80CF03CFFD4F8100410B16946BE
:105A2000FFF708FE68460CF033FF06B070BD00BFFC
:105A3000888602009086020094860200F40CFF1F04
:105A400030B5D0F8202485B0044642B900F583650E
:105A50000021284605B0BDE830400DF001B90E49DF
:105A600001A804F583650CF09FFE294601A80DF0FE
:105A700035F8014609480CF037FD08480CF062FD86
:105A800001A80CF005FFD4F8100410B12946FFF767
:105A9000D1FDD4F82024DBE794860200F40CFF1F2C
:105AA000F0B587B0174604460E46684600211D46ED
:105AB0000CF07AFE07B31D4903A80CF075FE3146C1
:105AC00003A80DF00BF81A490DF010F801466846CE
:105AD0000CF0E2FF03A80CF0DBFE694604F58360DE
