:1000000000000320D1010000D95F0100955F0100CD
:10001000955F0100955F0100955F0100955F01000C
:10002000955F0100955F0100955F0100D95F0100B8
:10003000D95F0100955F0100E94E0100ED4E01001E
:10004000D95F0100D95F0100D95F0100D95F0100CC
:10005000D95F0100D95F0100D95F0100D95F0100BC
:10006000D95F0100D95F0100D95F0100D95F0100AC
:10007000D95F0100D95F0100D95F0100D95F01009C
:10008000D95F0100D95F0100D95F0100D95F01008C
:10009000D95F0100D95F0100D95F0100D95F01007C
:1000A0005DB7000069B70000D95F0100D95F0100AA
:1000B000D95F0100D95F0100D95F01009D6F010088
:1000C000D95F0100D95F0100D95F0100D95F01004C
:1000D000D95F0100D95F0100D95F0100D95F01003C
:1000E000D95F0100D95F0100D95F0100D95F01002C
:1000F000D95F0100D95F0100D95F0100D95F01001C
:10010000B5510100D1510100ED510100095201002A
:10011000D95F01006D730100D95F0100D95F010053
:10012000D95F0100D95F0100D95F0100D95F0100EB
:10013000D95F0100D95F0100D95F0100D95F0100DB
:10014000B14C0100D95F0100D95F0100D95F010006
:10015000D95F0100D95F0100D95F0100D95F0100BB
:10016000D95F0100D95F010075B70000D95F0100B8
:10017000D95F0100D95F0100D95F0100D95F01009B
:10018000D95F0100D95F0100D95F0100D95F01008B
:10019000D95F0100D95F0100D95F0100D95F01007B
:1001A000D95F0100D95F0100D95F010081B700006C
:1001B000D95F0100D95F0100D95F0100D95F01005B
:1001C000D95F0100D95F0100D95F0100D95F01004B
:1001D0005F4B4CF2205210B5DA814DF62812DA81CD
:1001E00000BF00BF15F0FCFE5A4B4FF030621A639F
:1001F000594A9A63594ADA634FF0E0234FF4700288
:10020000C3F8882D03F5E823554A1A60554B9A78B0
:10021000110703D59A7842F008029A70524B53485E
:10022000AA221A70524BDA1C121AC11E22F00302C3
:10023000994288BF00224F4915F0D8FD4E4B4F48D8
:10024000DA1C121AC11E22F00302994288BF002252
:10025000002119F05BFF4A494A484FF4E87215F053
:10026000C5FD494B494A802103F8011B9342FBD14C
:100270004FF0E023434AC3F8082D454B8A221A70F9
:10028000A3F5805324225A70A0221A709A799207FB
:10029000FCD59A79D406FCD43E4A937903F00C033A
:1002A000082BFAD1304B60225A70DA78802AFCD1C0
:1002B000384B01221A715D225A719A799006FCD549
:1002C0009A795106FCD5234A33495164002191643F
:1002D000202119702F498B7903F00C030C2BFAD1D4
:1002E0002E4B53602E4A136913F4807303D153616C
:1002F0004FF4A85313614FF0E0232A4A5A610022B9
:100300009A6107221A61284AC3F8202D62B616F0B6
:10031000D1F8234B5B69DA0705D5244816F0BEF8FF
:10032000234B244ADA61244B1B785B0609D5204C09
:10033000204BE2699A4204D11C4816F0AFF8002322
:10034000E36115F053FE1AF073F815F047FDFEE770
:100350000020054000800440823F04000100002B83
:100360000300008500D0074000E00740704DFF1FEC
:10037000705CFF1F3C2402002C73FF1F705CFF1F8A
:10038000000000000046FF1F00E400E064E400E01D
:10039000005006400040064000000602C010070062
:1003A00000D003401FBF0200000020200E87E96537
:1003B00000E00340A5C3945A00F00740FFFFFFFF91
:1003C000FFFFFFFFFFFFFFFFFFFFFFFFFFFFFFFF3D
:1003D000FFFFFFFFFFFFFFFFFFFFFFFFFFFFFFFF2D
:1003E000FFFFFFFFFFFFFFFFFFFFFFFFFFFFFFFF1D
:1003F000FFFFFFFFFFFFFFFFFFFFFFFFFFFFFFFF0D
:10040000FFFFFFFFFFFFFFFFFFFFFFFFDEF9FFFF23
:100410000548064B1B1AD90F01EBA301491002D066
:10042000034B03B118477047705CFF1F705CFF1FE0
:100430000000000008B5054B1BB105490548AFF3A6
:100440000080BDE80840FFF7E3BF00BF00000000E8
:10045000705CFF1F3424020000207047704700BF0B
:10046000036D0BB101207047406D003818BF0120AB
:10047000704700BF00207047007A7047407A70478D
:1004800041720846704700BF007C7047C0F81014E6
:1004900008467047D0F81004704700BF10B50446F6
:1004A00082B0084601911AF02BFA236801999B69E2
:1004B0000246204602B0BDE81040184738B5054650
:1004C000074B45F8643B0446803015F009FA04F107
:1004D000700015F005FA284615F002FA204638BDDE
:1004E000F00A02000BF074BE17F0E6BB17F0A8BBD1
:1004F00010B504460C4B236000F588600DF066FAD9
:1005000004F24C4015F0ECF9D4F82C04074B2360AE
:1005100020B1D4F83414091A15F0EAFD04F583600B
:1005200015F0DEF9204610BD88010200980D02008A
:1005300030B5134B8BB00D460446197801A815F061
:10054000B1F901A907A815F091F9297A04A815F0C5
:10055000A9F904A907A815F0D3FA297C15F0E6FA41
:100560000146204615F082F904A815F0B9F907A84C
:1005700015F0B6F901A815F0B3F920460BB030BD5F
:10058000E952FF1F10B50446806D18B118F00AFB40
:100590000023A365236D2BB104F11800BDE81040C2
:1005A00008F0AAB8636D002BF6D110BDF0B595B078
:1005B0000022234F01924FF47A741831054604A8A3
:1005C000CDE9122202948DF80C20009708F000F972
:1005D000129B002B29D05C2015F088FD019BC36085
:1005E000029B03619DF80C300375164B03600026D7
:1005F000154B83600446466004A9183008F04EF895
:100600004FF47A73AB606368104AA7600133A66544
:100610006E602A602E732C6163600D4B009304A8FA
:1006200008F06AF8284615B0F0BD139B002BD2D114
:10063000064A6B60AC602B732A602B61EDE700BF4C
:10064000ACFF0100FCFF010058FF0100D0FF0100DA
:1006500088FF010017F01ABC70B50C468EB0002957
:1006600079D03E490BA8154615F0C6F820460BA9CF
:100670000DF07EF804460BA815F032F9002C6AD074
:10068000374905A815F0B8F8294602A815F0EEF884
:10069000344902A815F03CFA014608A815F0E6F81E
:1006A000042631490BA815F0A7F80BAB08AA05A939
:1006B000009620460CF0C6FF0BA815F011F908A80B
:1006C00015F00EF902A815F00BF905A815F008F9B8
:1006D000264905A815F090F8244908A815F08CF8CB
:1006E00023490BA815F088F80BAB08AA05A90096BA
:1006F00020460CF0A7FF0BA815F0F2F808A815F09B
:10070000EFF805A815F0ECF81A4905A815F074F8EB
:10071000294602A815F0AAF8174902A815F0F8F919
:10072000014608A815F0A2F810490BA815F064F8C6
:100730000BAB08AA05A9009620460CF083FF0BA876
:1007400015F0CEF808A815F0CBF802A815F0C8F8F7
:1007500005A815F0C5F820460EB070BD7CFA010062
:100760008CFA01008021020094FA01005804020072
:10077000A0FA0100ACFA01006C17020090F88C316D
:1007800070B5044653B103685B6A0D469847236809
:10079000294620469B6ABDE8704018470368BDE8BB
:1007A00070405B6A184700BF90F86C3170B5044622
:1007B000A0F120066BB150F8203C30465B6A0D4634
:1007C000984754F8203C294630469B6ABDE8704063
:1007D000184750F8203C30465B6ABDE87040184727
:1007E00090F88C3170B5044663B10368DB6A0D463E
:1007F0001646984723683246294620461B6BBDE8BB
:10080000704018470368BDE87040DB6A184700BFB6
:1008100090F86C312DE9F0410446A0F120067BB13F
:1008200050F8203C3046DB6A0F461546984754F88E
:10083000203C2A46394630461B6BBDE8F04118473C
:1008400050F8203C3046DB6ABDE8F041184700BF55
:1008500070B590F8643084B004469BB90D4609B178
:1008600004B070BD03680F49DE6C01A814F0C4FF2A
:1008700001232A46204601A9B04701A815F030F807
:1008800004B070BD03680749DD6C01A814F0B4FF23
:1008900001231A46204601A9A84701A815F020F80F
:1008A00004B070BD94FA010010B50446806D00B12B
:1008B00010BD4FF4807018F06DF9A065B0B1236DD4
:1008C000002202703BB101464FF48072184607F0D7
:1008D00089FBA06D10BD636D002BE9D001464FF47C
:1008E0008072184605F0C8F8A06D10BD0148A065DB
:1008F00010BD00BF8C5CFF1F38B5056D6DB10BB12D
:10090000002038BD1146284606F0C4F80028F7D06C
:100910002846BDE8384006F055BA446D002CEFD0AB
:10092000204603F067FD0028EAD02046BDE83840A5
:1009300004F082BB8A79A2F150031B0620D4F0B5E3
:100940004B79046D0D798E784F780978013385B035
:1009500002F26C72DBB244B103918DE8E000022137
:10096000204606F0C3F905B0F0BD406D0028FAD06E
:1009700003918DE8E000022104F0AEFA05B0F0BD6D
:100980000020704710B50446006D80B1037813F065
:10099000700F00D110BD002106F07CF8606D0028BA
:1009A000F8D0BDE810400022002303F023BD606DA5
:1009B0000028EFD090F8313013F0500FEAD0BDE8A6
:1009C00010400022002303F015BD00BF10B5036DD9
:1009D00082B00C462BB30DF1060201A9184605F0B2
:1009E0006FFC38B3BDF80430BDF8062053EA0201AD
:1009F00020D0C2F3451C02F01F00D20AC3F34311FA
:100A00004000A2705A0A0139207003F01F0302F55A
:100A1000EA62012084F801C023716171A27102B001
:100A200010BD406D30B10DF1060201A903F07CFB51
:100A30000028D7D1002002B010BD00BF10B5036D53
:100A400082B00C462BB30DF1060201A9184605F041
:100A500027FC38B3BDF80430BDF8062053EA020184
:100A600020D0C2F3451C02F01F00D20AC3F3431189
:100A70004000A2705A0A0139207003F01F0302F5EA
:100A8000EA62012084F801C023716171A27102B091
:100A900010BD406D30B10DF1060201A903F032FB2B
:100AA0000028D7D1002002B010BD00BF0268017439
:100AB000536C034A934201D108467047184700BF60
:100AC0008904000010B50446806A074A0368DB68A1
:100AD000934207D117F0DAF9E06A0368BDE81040E5
:100AE000DB6818479847F7E75506000010B504463D
:100AF0008068074A0368DB68934207D117F0C6F99C
:100B0000E0680368BDE81040DB6818479847F7E7DE
:100B100055060000806A044A03681B69934201D1AC
:100B200017F0CAB8184700BFE9040000806A044AF9
:100B300003685B69934201D117F082B8184700BF80
:100B4000ED040000006990B10368154A1B699342E7
:100B500025D1036D63B1187810F0080007D0D8696B
:100B60005B69C01A48BF6FF0004070471846704775
:100B7000436D002BFAD093F8310010F00800F6D046
:100B8000186919685A695B68401A62EB0303B0F18F
:100B9000004F73F10003EAD36FF00040704718472D
:100BA000A50E0000036973B11A68084952698A42A8
:100BB00007D1186D08B105F031BE586D18B103F0BA
:100BC00001BC184610474FF0FF307047F50C00008D
:100BD000036963B11A68074992698A4208D1186D9E
:100BE00008B106F07DB8586D08B104F02DB8704713
:100BF00018461047850D0000036923B310B5196826
:100C0000124A8C68944282B014D1186D48B1012206
:100C10000DF1070105F02CFD90B19DF8070002B021
:100C200010BD586D0028F8D001220DF1070103F026
:100C3000F5FAF1E701220DF107011846A047EBE7AD
:100C40004FF0FF30EBE74FF0FF307047350D0000FD
:100C500000B5006983B08DF8071060B10368104AD1
:100C6000DB68934215D1036D43B101220DF10701F9
:100C7000184606F0E1F803B05DF804FB406D00286B
:100C8000F9D001220DF1070104F048FA03B05DF834
:100C900004FB01220DF10701984703B05DF804FB46
:100CA000C10D0000036D13B1586900217047436DF9
:100CB00013B1D3E90001704718461946704700BFC9
:100CC000036D13B1D86900217047436D13B1D3E9A7
:100CD0000401704718461946704700BF836C13B172
:100CE000184605F09BBDC06C08B103F06BBB4FF01C
:100CF000FF307047036D13B1184605F08FBD406D8E
:100D000008B103F05FBB4FF0FF307047036D33B1A4
:100D10001B7813F0700F14BF012000207047406D46
:100D200030B190F8313013F0500F14BF0120002083
:100D3000704700BF036D13B1184605F099BC406DB4
:100D400008B103F06BBA4FF0FF30704700B5836C09
:100D500083B063B101220DF10701184605F088FC4C
:100D600001280CD19DF8070003B05DF804FBC06CAE
:100D700028B101220DF1070103F050FAF0E74FF01E
:100D8000FF30F1E7036D13B1184605F0A9BF406DC0
:100D900008B103F059BF7047836C13B1184605F0D2
:100DA0009FBFC06C08B103F04FBF7047836C13B195
:100DB000184606F041B8C06C08B104F0AFB97047EE
:100DC000036D13B1184606F037B8406D08B104F052
:100DD000A5B9704700B5836C83B08DF8071043B197
:100DE00001220DF10701184606F026F803B05DF860
:100DF00004FBC06C0028F9D001220DF1070104F0BA
:100E00008DF903B05DF804FB8A79A2F150031B064B
:100E100020D4F0B54B79046D0D798E784F78097830
:100E2000013385B002F26C72DBB244B103918DE8FC
:100E3000E0000421204605F059FF05B0F0BD406DEB
:100E40000028FAD003918DE8E000042104F044F872
:100E500005B0F0BD00207047836C53B1187810F0D6
:100E600008000DD0D8695B69C01A48BF6FF0004018
:100E70007047C36CA3B193F8310010F0080000D1A3
:100E80007047186919685A695B68401A62EB030376
:100E9000B0F1004F73F10003F2D36FF000407047E0
:100EA0001846EDE7036D53B1187810F008000DD027
:100EB000D8695B69C01A48BF6FF000407047436D46
:100EC000A3B193F8310010F0080000D17047186901
:100ED00019685A695B68401A62EB0303B0F1004F6E
:100EE00073F10003F2D36FF0004070471846EDE74E
:100EF0000369D3B110B41C680D48E46884420FD173
:100F0000186D18B15DF8044B05F096BF586D18B117
:100F10005DF8044B04F002B900205DF8044B704703
:100F2000184623465DF8044B18470020704700BF61
:100F3000C10D000038B50446806D0C4B236018B11C
:100F400017F030FE0023A365236D04F118054BB1A3
:100F5000284607F0D1FB064BA360284607F0CCFBE0
:100F6000204638BD636D002BF2D1F4E7FCFF010091
:100F700088FF010038B50446806D0E4B236018B120
:100F800017F010FE0023A365236D04F118056BB163
:100F9000284607F0B1FB084BA360284607F0ACFBDE
:100FA00020465C2115F0A4F8204638BD636D002B67
:100FB000EED1F0E7FCFF010088FF0100036814494F
:100FC0005A6E8A4222D170B590F86450114984B0AB
:100FD00004466DB901A8DE6C14F00EFC01232A460C
:100FE000204601A9B04701A814F07AFC04B070BDF6
:100FF00001A8DD6C14F000FC01231A46204601A96B
:10100000A84701A814F06CFC04B070BD0021104783
:101010005108000094FA010070B50569254B036082
:101020000446002D32D06E68013E6E6076BB2B68A0
:10103000214ADB6A934233D1A86D10B117F0B2FD9B
:10104000AE652B6D43B305F1180007F055FB25691C
:10105000E5B12B68194A5B68934228D1A86D184BFB
:101060002B6018B117F09EFD0023AB652B6D05F1C9
:101070001806C3B1304607F03FFB124BAB60304659
:1010800007F03AFB5C21284615F032F8204614217F
:1010900015F02EF8204670BD6B6D002BD3D1D6E72E
:1010A00028469847D3E76B6D002BE3D1E5E7284648
:1010B0009847EBE7D0FF010085050000750F0000A1
:1010C000FCFF010088FF0100F0B5224E33688B421F
:1010D00085BF00233360CB1A0B469A4287B00C467B
:1010E000054601D907B0F0BD1B4903A814F084FBE5
:1010F000E86E0AF04FFB0121684614F043FC694694
:1011000003A814F0FDFC0146144814F003F9134839
:1011100014F02EF9684614F0E3FB03A814F0E0FB8A
:101120002B680F491F6D03A814F066FBE86E0AF0E8
:1011300031FB0121684614F025FC6A4603A92846C4
:10114000B847684614F0CCFB03A814F0C9FB346020
:1011500007B0F0BD885CFF1FB4FA0100A855FF1F5F
:10116000A0FA0100F0B503680E469A691B49DF6DCD
:101170008A428DB004462CD1194B06A8197814F078
:1011800091FB06A903A814F071FB217A09A814F0B9
:1011900089FB09A903A814F0B3FC217C14F0C6FC58
:1011A0006D460146284614F061FB09A814F098FB2F
:1011B00003A814F095FB06A814F092FB2A463146CA
:1011C0002046B8470446284614F08AFB20460DB056
:1011D000F0BD6D46014628469047EFE73105000017
:1011E000E952FF1F30B4029C11469C4634B1012CD9
:1011F0001CD0022C0ED0002030BC7047056DF5B11C
:101200004FF0FF33934274EB0C04F4D3284630BC08
:1012100005F040BC026D0AB3D36959184CF10003C4
:10122000002BE8D130BC104605F034BC026D62B131
:10123000536959184CF10003002BDCD1F2E7406DE3
:101240000028D8D030BC03F0D5B8406D0028D2D0EB
:10125000D0E900238A184CEB0303F3E7406D002824
:10126000C9D0D0E904238A1830BC4CEB030303F047
:10127000C1B800BF38B5284C27210546274816F0CD
:101280004DFD204614F074F81321254816F046FD54
:10129000204614F06DF81721224816F03FFD204635
:1012A00014F066F82321204816F038FD204614F08B
:1012B0005FF823211D4816F031FD204614F058F840
:1012C00023211B4816F02AFD204614F051F8242152
:1012D000184816F023FD204614F04AF82421164839
:1012E00016F01CFD204614F043F82621134816F092
:1012F00015FD204614F03CF83021114816F00EFD83
:10130000204614F035F828460AF022FF2046BDE8B2
:10131000384014F02DB800BFA855FF1FE0FA0100B7
:1013200008FB01001CFB010034FB010058FB01001D
:101330007CFB0100A0FB0100C8FB0100F0FB0100E9
:1013400018FC010070B50368264A9B6993428CB073
:10135000054640D1244B06A8197814F0A3FA09AC2D
:1013600006A903A814F082FA297A204614F09AFA02
:10137000214603A814F0C4FB297C14F0D7FB6E4669
:101380000146304614F072FA204614F0A9FA03A878
:1013900014F0A6FA06A814F0A3FA1449204614F093
:1013A00049FA3146204614F0ABFB0146104813F0D1
:1013B000B1FF0F4813F0DCFF204614F091FA3721FB
:1013C0000C4816F0ABFC0A4813F0D2FF304614F07C
:1013D00087FA0CB070BD6E4601463046984709AC9E
:1013E000DBE700BF31050000E952FF1F4CFC0100A4
:1013F000A855FF1F60FC0100F0B58DB0002945D055
:101400000D460446294909A814F0F6F9284609A909
:101410000CF02AFA054609A814F062FA002D35D01E
:10142000236823499A6D8A4239D1DF6D214A9B692D
:1014300093422FD1204B06A8197814F033FA06A94D
:1014400003A814F013FA217A09A814F02BFA09A9B9
:1014500003A814F055FB217C14F068FB6E4601468E
:10146000304614F003FA09A814F03AFA03A814F06D
:1014700037FA06A814F034FA324629462046B8470F
:10148000304614F02DFA28460DB0F0BD0025284650
:101490000DB0F0BD6E46214630469847ECE7294630
:1014A0002046904728460DB0F0BD00BF98FC0100D3
:1014B0006511000031050000E952FF1F03682F4A43
:1014C0001B6E934249D1F0B50D468DB000294BD02B
:1014D0002B49044609A814F08FF9284609A90CF0F5
:1014E000C3F9054609A814F0FBF9002D3CD0236888
:1014F00024499A6D8A4231D1DF6D234A9B69934218
:1015000036D1224B06A8197814F0CCF906A903A805
:1015100014F0ACF9217A09A814F0C4F909A903A8B8
:1015200014F0EEFA217C14F001FB6E4601463046C1
:1015300014F09CF909A814F0D3F903A814F0D0F919
:1015400006A814F0CDF9324629462046B847304661
:1015500014F0C6F928460DB0F0BD184729462046BC
:10156000904728460DB0F0BD002528460DB0F0BDCF
:101570006E46214630469847E5E700BFF913000064
:1015800098FC01006511000031050000E952FF1FC1
:10159000027A8A4225D170B5432B84B0044625D007
:1015A000632B20D12C21264816F0B8FB254813F0D8
:1015B000DFFE236824495A6E01258A4284F864506C
:1015C00033D12249DE6C01A814F016F92B462A46C5
:1015D00001A92046B04701A814F082F9284604B0BA
:1015E00070BD00207047002004B070BD382118483D
:1015F00016F094FB134813F0BBFE236812495A6E91
:1016000000258A4284F8645014D11049DE6C01A888
:1016100014F0F2F801232A46204601A9B04701A898
:1016200014F05EF9012004B070BD204600219047FF
:101630002846D9E72046294690470120D4E700BF35
:10164000A0FC0100A855FF1F5108000094FA0100FA
:10165000D0FC0100F0B50368274FDE6EBE4287B0B4
:1016600044D1264E1346326891423BBF002232607D
:101670008A1A0A46934204460D4601D907B0F0BDC6
:101680001F49684614F0B8F8E06E0AF083F80121AB
:1016900003A814F077F903A9684614F031FA01465B
:1016A000184813F037FE174813F062FE03A814F031
:1016B00017F9684614F014F9236813491F6D68463A
:1016C00014F09AF8E06E0AF065F8012103A814F00E
:1016D00059F903AA69462046B84703A814F000F94F
:1016E000684614F0FDF8356007B0F0BD334607B02A
:1016F000BDE8F040184700BFC9100000885CFF1F1C
:10170000B4FA0100A855FF1FA0FA010070B50569E1
:10171000234B03600446002D32D06E68013E6E609C
:1017200076BB2B681F4ADB6A93422FD1A86D10B19C
:1017300017F038FAAE652B6D23B305F1180006F0EB
:10174000DBFF2569E5B12B68174A5B68934224D11A
:10175000A86D164B2B6018B117F024FA0023AB6567
:101760002B6D05F11806A3B1304606F0C5FF104BEE
:10177000AB60304606F0C0FF5C21284614F0B8FC90
:10178000204670BD6B6D002BD7D1DAE7284698470D
:10179000D7E76B6D002BE7D1E9E728469847EFE7DD
:1017A000D0FF010085050000750F0000FCFF01005F
:1017B00088FF010070B5856A244A254B0260044603
:1017C0008361002D32D06E68013E6E6076BB2B685F
:1017D000204ADB6A93422FD1A86D10B117F0E2F9CD
:1017E000AE652B6D23B305F1180006F085FFA56AE1
:1017F000E5B12B68184A5B68934224D1A86D174B5A
:101800002B6018B117F0CEF90023AB652B6D05F1F5
:101810001806A3B1304606F06FFF114BAB6030469F
:1018200006F06AFF5C21284614F062FC204670BD79
:101830006B6D002BD7D1DAE728469847D7E76B6D59
:10184000002BE7D1E9E728469847EFE7D0010200EF
:10185000D0FF010085050000750F0000FCFF0100AE
:1018600088FF01002DE9F04104464FF0FF38C4F82D
:101870000C804FF02A08C4F810804FF00808C4F814
:1018800030804FF02708C4F838804FF00A08C4F8B9
:1018900040804FF02208C4F844804FF01F08C4F87D
:1018A00048804FF03808C4F84C804FF02108754A42
:1018B000C4F854804FF01408A261A267C4F8608095
:1018C00080224FF4165892B000258E46E2676E498A
:1018D0006E4AC4F874804FF02C08002301206C4E2F
:1018E000A160656123216B4DC4F858804FF0240C32
:1018F0004FF0050820772371636284F85C306066DE
:10190000C4F88030C4F88430C4F8883084F88C314E
:10191000226525676163E666C4F83CC0C4F8688048
:10192000CDE90622CDE908220A920C924FF4E13269
:1019300004911192DEF80010574A8DF82C300727D9
:101940000D9010954B1E02F1540500911520226058
:101950000F210622C4F89071CDF80CC00E970F9697
:101960002562019002910592092B1DD8DFE803F052
:10197000515B3F3F627705052424232127220A205B
:101980002223CDE90403019102921F213822212054
:10199000CDE9061214234FF416512C2209900C9312
:1019A000052311910A920E93204669460BF05CFBC9
:1019B000204612B0BDE8F0811A2011210F22102319
:1019C0000190029109200E21039204930522022323
:1019D0000590069101202421079209934FF4165295
:1019E00016238DF82C000C9111920A93DCE723202A
:1019F0000A2122221F230190049121201421059203
:101A000006934FF41652052308900C9111920E93F1
:101A1000CAE71E4B0E9302200121002208908DF888
:101A20002C100D92C0E7194B0E9302210022089151
:101A30000D92B9E70A2204921F222A20222106923F
:101A4000212214230190059140204FF41651089251
:101A50000522029307900C9311910E92A4E7232183
:101A600027220A202223CDE90403019102921F219B
:101A700038222120CDE9061214234FF416512C22CE
:101A800008908CE700442C47F84DFF1FF1D8FFFF6A
:101A9000A855FF1F9C54FF1F58000200F0B50D46CB
:101AA000044685B00D216430EF6A04F1800613F01E
:101AB000F9FE0D2104F1700013F0F4FE0021E76738
:101AC000304613F099FE4FF47A63C4F88C30072344
:101AD000C4F890304FF0FF33C4F894303823C4F882
:101AE00098302223C4F89C30164901A813F084FED4
:101AF00001A9304613F06AFF01A813F0F1FE6A6CE9
:101B0000E86CC4F898000023C4F89C206FF01F0113
:101B10007820252284F8A0306160E360207462613F
:101B200009494A2204F1180014F060F9074A0849EB
:101B300013782372581C107020466372216005B020
:101B4000F0BD00BF5804020034010200E852FF1F3C
:101B5000F00A020070B5D0F84434D0F84824134499
:101B6000002B84B0044621DD00F5886601AD2846CF
:101B700031460BF0C1FE2946174813F0CBFB16483F
:101B800013F0F6FB2946D4F810040AF0A3F92368F1
:101B9000124ADB6993424FF00001204615D10AF04A
:101BA00017FB284613F09CFE04B070BD01AD00F594
:101BB00088660B49284613F01FFE304629460BF075
:101BC00073FE284613F08CFED1E79847284613F0A1
:101BD00087FE04B070BD00BFA855FF1FE5040000DC
:101BE0000CFD010070B5104D104E284610F002FE9D
:101BF000FE21304602F0C8F90D4B0E491C682368DF
:101C00001B225B6820469847204613F0B1FB0A4A26
:101C100001233146284612F0A3FB0849084B08600F
:101C200001221A7070BD00BFEC52FF1F1867FF1F22
:101C30009454FF1F1CFD010038FD0100905CFF1F44
:101C4000605DFF1F30B5414C89B0616F019132205A
:101C500014F042FD019920460BF024FB002384F888
:101C60008C3140F2DC5014F037FD2021384816F05A
:101C700055F8384813F07CFB374905A813F0BCFD34
:101C80009FED360A022102A813F07CFE02A905A8E6
:101C900013F036FF01462F4813F03CFB2D4813F09C
:101CA00067FB02A813F01CFE05A813F019FE2C49CF
:101CB00005A813F0A1FD0A22802102A813F04CFE12
:101CC00002A905A813F01CFF0146224813F022FBCD
:101CD000204813F04DFB02A813F002FE05A813F0F4
:101CE000FFFD20211F4812F0C3FD20460CF0B4FD7B
:101CF00020469FED1D0A0CF001FB1C480B2101F052
:101D0000ADFC1A480D2101F04DFD1948FE2102F0ED
:101D10003BF968B9174D0F4C1C21284615F0FEFF02
:101D2000204613F025FB4FF4FA7014F0D5FCF3E7CE
:101D30001021114815F0F2FF064813F019FB0F4867
:101D400009B0BDE83040FFF795BA00BFE05DFF1F66
:101D500040FD0100A855FF1F64FD0100A6552C475A
:101D600078FD01000002FF1F00000000744DFF1FFE
:101D70001867FF1F98FD0100B8FD01001062FF1FEA
:101D800000B583B015F098FFE0B9164B1B7843B14E
:101D9000154B1B78EBB1154803B05DF804EB12F05E
:101DA00009BB134801F0B6FA124B1B6801930246B7
:101DB000019911480BF044FA012003B05DF804EBDF
:101DC00014F08ABC15F03CFFC1B20C480AF0D2FBFB
:101DD000DBE7FFF707FF054803B05DF804EB12F0FF
:101DE000E9BA00BF6866FF1F605DFF1FEC52FF1F6E
:101DF0009C5FFF1F146EFF1FE05DFF1F1062FF1F3F
:101E000030B58BB00546424901A813F0F5FC6B1EB6
:101E100007AC042B0FD8DFE803F06F72757803006E
:101E20003C49204613F0E8FC214601A813F0CEFD02
:101E3000204613F055FD039B2BBB3749204613F07A
:101E4000DBFC0A22294604A813F086FD04A92046DB
:101E500013F056FE0146314813F05CFA2F4813F098
:101E600087FA04A813F03CFD204613F039FD2C48F6
:101E70001A2115F053FF294813F07AFA01A813F03C
:101E80002FFD0BB030BD2749204613F0B5FC01A94A
:101E9000204613F035FE0146204813F03BFA1F4858
:101EA00013F066FA204613F01BFD1F4B01991F48E3
:101EB000002908BF194600F07DFD192014F00CFC24
:101EC0001A4801F027FA0028D8D11949204613F002
:101ED00093FC01A9204613F013FE01460F4813F0AE
:101EE00019FA0E4813F044FA204613F0F9FC01A841
:101EF00013F0F6FC0BB030BD0E49204692E70E49B8
:101F000020468FE70D4920468CE70D49204689E79A
:101F1000580402002CFE010098FE0100A855FF1F86
:101F2000D4FE010044FE01000C1D02009C5FFF1F57
:101F300068FE0100CCFD0100E4FD0100FCFD010094
:101F400014FE010008B5A1F13103472B25D8DFE8C5
:101F500003F02C4E53585D24242424242424243DAF
:101F6000242424242424242424242428242424242D
:101F70002424242424242424242424242424242421
:101F800024242424242424242449242824242424E8
:101F900024242424242424242431BDE808400AF0E5
:101FA00033B9FFF7D7FD012008BD0120FFF728FF57
:101FB000012008BD1A21184815F0B0FE174813F08B
:101FC000D7F9174800F048FC012008BD4221154808
:101FD00015F0A4FE114813F0CBF9134B01221A702F
:101FE000012008BD03689B689847012008BD0220B6
:101FF000FFF706FF012008BD0320FFF701FF0120C6
:1020000008BD0420FFF7FCFE012008BD0520FFF7F6
:10201000F7FE012008BD00BFF0FE0100A855FF1F1C
:102020009C5FFF1F0CFF01006866FF1FF0B56B4F40
:102030006B4B6C4D3B6085B08022082303A96A4836
:102040007A600393FFF70EFC684A2B68684E1660AF
:10205000002111611181D160002B00F0BB80194675
:102060005B69002BFBD14A61624B1360624B936149
:1020700000244FF47A7313625C4854615460947284
:10208000D46182F8244094621466546600F0CEFB5A
:102090005A4A5B49554816F059F85A4A2B68D46099
:1020A0001146946141F8186B11614FF40071D461CD
:1020B0001181002B00F0908019465B69002BFBD149
:1020C0004A610025504B55615560957213604D482B
:1020D0004E4C00F0FBFA4E4812F0ECFC494B4349E1
:1020E00000952A464A4812F059FD444A4949484851
:1020F00016F02CF80126484812F0DCFC414B009603
:1021000032463A49444812F049FD3C4A4149424866
:1021100016F01CF834494148FFF7C0FC374A4049E3
:102120003E4816F013F83F4B23603F4BC4F8103481
:10213000672384F814342946C4F8085404F58360EE
:1021400013F05AFB394B23600623C4F83834294670
:10215000C4F83C64C4F82854C4F82C54C4F830546F
:10216000C4F83454C4F84054C4F84454C4F848542F
:1021700004F24C402E4E13F03FFB204A2D492046DE
:1021800015F0E4FF2C4BB3662C4B33606FF01F034C
:1021900073607823337425237361294986F864506A
:1021A0004A22F560F76606F1180013F01FFE254A73
:1021B00013783372581C21461070737230460AF03F
:1021C000A7FA214931600023022232677367B3679F
:1021D00005B0F0BD2A6047E72A6072E7B45CFF1FD4
:1021E000A6552C47146DFF1FE05DFF1F9C5FFF1F6E
:1021F0007CFF0100D0010200D0FF0100704DFF1FE5
:10220000B5170000945CFF1FC40102001062FF1F9D
:10221000745FFF1F514C0100885FFF1FBC5CFF1FF4
:10222000BD040000980D0200205DFF1F8801020020
:10223000645DFF1FF1040000005EFF1FDC0D020063
:1022400034010200E852FF1FC400020010B504462A
:1022500012F0CCFD204610BD024A0349034815F098
:1022600075BF00BF704DFF1F4D2200006C66FF1F41
:1022700008B5064A0649074815F068FFBDE808405A
:10228000024A0349044815F061BF00BF704DFF1FAB
:102290004D2200007466FF1F7C66FF1F024A03493F
:1022A000034815F053BF00BF704DFF1F4D220000C3
:1022B0008466FF1F024A0349034815F047BF00BF69
:1022C000704DFF1F4D2200008C66FF1F024A03491C
:1022D000034815F03BBF00BF704DFF1F4D220000AB
:1022E0009466FF1F024A0349034815F02FBF00BF41
:1022F000704DFF1F4D2200009C66FF1F024A0349DC
:10230000034815F023BF00BF704DFF1F4D22000092
:10231000A466FF1F024A0349034815F017BF00BF18
:10232000704DFF1F4D220000AC66FF1F2DE9F04FDE
:1023300000F5807EB1E8A00AB2E84015C5EA064380
:10234000C6EA2544C7EA0845C8EA2746C9EA0A4753
:10235000CAEA2948CBEA0C49CCEA2B4AA0E8F8079C
:102360008645E7D1BDE8F04F70474FF000022DE9F8
:10237000F00F00F5807C00BFB1E8A00AC5EA0203B7
:10238000C2EA2544C7EA0205C2EA2746C9EA0207AB
:10239000C2EA2948CBEA0209C2EA2B4AA0E8F807B8
:1023A0008445E9D1BDE8F00F70474FF000022DE9F8
:1023B000F00F00F5807C00BFB1E8A00AC2EA054337
:1023C000C2EA0504C2EA0745C2EA0706C2EA0947AB
:1023D000C2EA0908C2EA0B49C2EA0B0AA0E8F807F8
:1023E0008445E9D1BDE8F00F70472DE9F00F089C56
:1023F00000F5007B51F8045B53F8046BC5EA06470F
:10240000C6EA254952F8045B54F8046BC5EA06484D
:10241000C6EA254AA0E880078345EBD1BDE8F00F66
:10242000704700BF024A0349034815F08FBE00BF42
:10243000704DFF1F4D220000B466FF1F024A034982
:10244000034815F083BE00BF704DFF1F4D220000F2
:10245000BC66FF1F024A0349034815F077BE00BF60
:10246000704DFF1F4D220000C466FF1F2DE9F84F7D
:10247000374B38481A68384912681B79CB77824243
:102480002AD2364B1B78002B4AD1DFF8E0A0DFF8C8
:10249000E090DFF8E080324FDAF80060D9F800B061
:1024A000B8F800403D88002E40D0BBF1000F16D098
:1024B0000BF10402311D02EB450201EB4401FFF771
:1024C00035FF403540347F2C11D87F2DA8F80040CF
:1024D0001AD83D80BDE8F88FA0F58070D5E7311D92
:1024E00001EB44014034FFF740FF7F2CEDD900247D
:1024F0003046A8F8004012F083FA1A4B7F2D1A6874
:10250000CAF800201C60E4D9002458463C8012F030
:1025100077FA154B1A68C9F800201C60BDE8F88FDF
:102520004FF0E0230122C3F80822AEE7BBF1000F11
:1025300007D00BF1040101EB4501FFF736FF4035F1
:10254000C1E74FF48072594617F0E0FDBBE700BFCA
:10255000E466FF1F8023FF1F00800040E066FF1F2E
:10256000DE66FF1FD066FF1FD866FF1FCC66FF1F09
:10257000D466FF1FDC66FF1F38B50021044612F049
:102580008DFA88B172B61C4A1368002B2BD01B49F8
:102590000D68002D2CD01560194A086000211180AB
:1025A00062B6184612F02CFA0121204612F076FA93
:1025B00098B172B6134A136883B113490C6854B1C9
:1025C0001460124A08600024148062B61846BDE800
:1025D000384012F015BA086062B638BD0B49106079
:1025E0000B8062B638BD064910600B8062B6DBE72F
:1025F000086062B6D8E700BFCC66FF1FD066FF1F39
:10260000DC66FF1FD466FF1FD866FF1FDE66FF1F54
:10261000284A294BD16B41F40041D163116C41F040
:1026200002011164D16B41F00201D1631A68002AE2
:1026300037DBD3F88020002A33DB4FF0804270B4C0
:10264000C3F80021D3F80021002AFBDB01251B4A37
:1026500000264FF2FE01C3F804114FF480341E66C9
:1026600017495D609A60174ADC6019615A61C3F8C6
:10267000E060C3F8845005F18E45C3F88850C3F874
:102680008C40C3F89010C3F8942020B90E4B4FF43F
:10269000C0629A609A610C4B4FF4C06270BCDA6001
:1026A000704728B9084B4FF4C0629A609A6170472E
:1026B000704700BF0080044000F0024001000007A6
:1026C0001B1F0100001F1F1F00B0044038B5254C20
:1026D0000121204612F028FB234A244B00201060E1
:1026E0001860FFF795FF224B22494FF4C0625A60F1
:1026F0002368214A19602149D960214919615A602A
:1027000002254FF480720621DA829D60DA83988276
:102710009983986123791B4D03F1804303F50433BA
:102720008D2218701A70184B2079184AE8764FF0ED
:10273000807119601A6012F0A5FA2279144C1549BB
:102740002070531102F1100003F13823124C41F8AC
:10275000204040339B0002F01F02012101FA02F2E7
:102760001A6038BDE466FF1FCC66FF1FD466FF1FEA
:1027700000B004408022FF1F0200010100FEFFFFA5
:1027800022F002400080004000F002400100009072
:10279000E066FF1F0046FF1F6D240000024A034948
:1027A000034815F0D3BC00BF704DFF1F4D22000041
:1027B000E466FF1F024A0349034815F0C7BC00BF87
:1027C000704DFF1F4D220000EC66FF1F024A0349B7
:1027D000034815F0BBBC00BF704DFF1F4D22000029
:1027E000F466FF1F024A0349034815F0AFBC00BF5F
:1027F000704DFF1F4D220000FC66FF1F024A034977
:10280000034815F0A3BC00BF704DFF1F4D22000010
:102810000467FF1F024A0349034815F097BC00BF35
:10282000704DFF1F4D2200000C67FF1F38B5044696
:10283000006E0E23002584F86F3284F870326565CF
:1028400010B112F0DDF82566606E18B112F0D8F8FC
:102850000023636638BD00BF4FF0E0222DE9F04150
:10286000D2F8083113F0010304467AD00127C2F8E8
:10287000887190F86F220E2A6CD00023206E656E4E
:10288000236663660E2384F86F3208B112F0B8F83D
:1028900015B1284612F0B4F8A56A002D4AD02B686D
:1028A000DFF80C81DB6A434565D1A86D18B116F0DD
:1028B00079F90023AB652B6D002B58D005F118007A
:1028C00005F01AFFA66A7568013D7560002D2FD1CD
:1028D0003368DB6A434555D1B06D10B116F062F92B
:1028E000B565336D002B49D006F1180005F004FFE3
:1028F000A56AEDB12B68284A5B68934249D1A86D5F
:10290000264B2B6018B116F04DF90023AB652B6DEB
:1029100005F11806002B38D0304605F0EDFE204BAF
:10292000AB60304605F0E8FE5C21284613F0E0FB82
:102930000023A3621B4B1B6B9B030AD41A4A138808
:102940001BB1013B9BB213801BB91848402100F01A
:1029500069FE27B14FF0E0230122C3F80821BDE84A
:10296000F08190F86F220E2AF9D01F4685E76B6D33
:10297000002BA3D1A6E728469847A3E7736D002B49
:10298000B2D1B5E730469847B2E76B6D002BC3D1A3
:10299000C5E728469847CBE7750F0000FCFF01000C
:1029A00088FF0100008004401467FF1F744DFF1F63
:1029B000850500002DE9F04397B006460191FFF729
:1029C0004BFF4FF0E023019AD3F8085115F00105B1
:1029D0001CBF0125C3F88851734B1B6B990340F151
:1029E000B3800023714902A805F09EFF149B002BC1
:1029F00000F0B5805C2013F079FB6D4BDFF8D081DF
:102A00000027C0E90037039BC3606A4B8360049BC7
:102A1000036104469DF81430037506A9183005F0CB
:102A20003DFE6368A76501336360634BA36006A83E
:102A3000CDF8088005F060FEB76A002F56D07B689D
:102A4000013B7B600193002B34D13A685B49D26A29
:102A50008A4240F09D80B86D18B116F0A3F8019B32
:102A6000BB653B6D002B00F08E8007F1180005F070
:102A700043FEB76AF7B13B68514A5B68934240F046
:102A80008F80B86D4A4B3B6018B116F08BF800236D
:102A9000BB653B6D07F11809002B7CD0484605F05B
:102AA0002BFEC7F80880484605F026FE5C21384614
:102AB00013F01EFBB4621CB32368424A1B6B9342A3
:102AC0001AD1236D002B5AD0002314214FF000623D
:102AD000A6F86A320E237165C6F86C2286F8703249
:102AE0004DBB0125284617B0BDE8F0832368354A61
:102AF0001B6BB4629342E4D0204698470028E3D190
:102B0000294B1B6B9B030AD42F4A13881BB1013B33
:102B10009BB213801BB92D48402100F083FD002D8E
:102B2000E0D04FF0E023002501222846C3F8082119
:102B300017B0BDE8F0834FF0E02301222846C3F828
:102B4000082117B0BDE8F08340212048019200F031
:102B500055FD1D49019A0B8801330B8041E7159CF7
:102B6000002C7FF447AFDFF86880CDF8088006A816
:102B700005F0C2FDB76A002F7FF461AFC0E7636D57
:102B8000002BA1D1BCE77B6D002B7FF46EAF70E70B
:102B9000384690476DE77B6D002B7FF47FAF80E771
:102BA0003846984786E700BF008004401C67FF1F37
:102BB000FCFF010058FF0100ACFF0100850500008B
:102BC000750F0000610400001467FF1F744DFF1FA4
:102BD00088FF0100C36A9AB2012A0FD1026B4AF63C
:102BE00044418A420CD045F222618A421FD042F60B
:102BF00011318A4202D10F49042203E000207047BC
:102C00000D4900221B0C012B04D0022BF6D14908E0
:102C100042F00102438F082B04D0102BEED149085B
:102C200042F00202C16580F870220120704703491A
:102C30000422E7E734EE35178D7BCD051AF79A0BA2
:102C40002DE9F04FB0F86A3200F16A0683B006EB66
:102C5000030B09B3DFF890A3DFF8909304460D4609
:102C600008274FF4206894F86F320E2B00F23B8156
:102C7000DFE813F012001200F500D8001200120075
:102C800012001200A00073003C002B001600390156
:102C90001200002B00F0DC80002003B0BDE8F08FB4
:102CA000626DB4F86A1295422B4628BF1346194448
:102CB000D21AA4F86A1240F08981ED1A9B44676524
:102CC00084F86F72002DCED1E6E7626DAA4200F261
:102CD0007F81B4F86A3267659344AD1A1A44A4F848
:102CE0006E82A4F86A22002DBDD1D5E7626D94F8FA
:102CF0006E32AA4204F12C0028BF2A4618445946D5
:102D0000019213F073F8019A94F86E32134484F828
:102D10006E32B4F86A321344A4F86A32636D9B1AB7
:102D20006365002BB8D1E16A9344AD1A5145226B1B
:102D3000626540F0E18084F8713294F8703284F872
:102D40006F32DB0705D511F005FE60660028A3D0C1
:102D5000626DA265002D86D19EE7626D94F86E3299
:102D6000AA4204F12C0028BF2A4618445946019271
:102D700013F03CF8019A94F86E32134484F86E32E2
:102D8000B4F86A321344A4F86A32636D9B1A63651F
:102D9000002B81D12046FFF71DFF002800F0A38003
:102DA000019A6765AD1A9344A4F86E82002D7FF4F2
:102DB0005AAF71E7626D94F86E32AA4204F12C00AA
:102DC00028BF2A4618445946019213F00FF8019A79
:102DD00094F86E32134484F86E32B4F86A321344B5
:102DE000A4F86A32636D9B1A6365002B7FF454AFBD
:102DF000E36A4B4577D1636B7A498B4273D101F11A
:102E00005B41A36B01F5F11101F60F418B427AD1C1
:102E1000E36BA3F11001182965D84FF41061A4F8F1
:102E20006E1275E0626D94F87112954228BF1546D6
:102E3000521B6265002972D19BF800109BF80100BB
:102E4000023D41EA002040F09280002A40F09A8042
:102E50000E23002084F86F3203B0BDE8F08F636D5D
:102E6000216EB4F868209D4228BF1D465B1B636538
:102E700002E0002D3FF40DAF9BF800009BF80170BD
:102E800001EB420C40EA07200132A4F86820ACF8BC
:102E90000400B4F868207F2AA5F102050BF1020BAB
:102EA000E7D90022204611F0D5FD0122216E2046EF
:102EB00011F0D0FD206E11F0A3FD00222266626D9C
:102EC000606EABEB06031544A4F86A32656510B179
:102ED00011F096FD656D15B90E2384F86F3201204F
:102EE00003B0BDE8F08F0E23002084F8703284F820
:102EF0006F3203B0BDE8F08F0B2384F86F32002DE2
:102F00007FF4B1AEC8E640F60C43A4F86E32E36B32
:102F10006365AD1A9344002D7FF4A5AEBCE6216E27
:102F2000B4F86800E76A01EB40008780002084F86D
:102F300071025F46B4F86800636E9BF801E017F811
:102F400002CB03EB40030130A4F868004CEA0E20EA
:102F50009880B4F868307F2BA5F1020518D87DB9A8
:102F6000002A3FF475AF84F87152284695E6216E29
:102F7000B4F8687001EB47070BF1020BB880D8E793
:102F8000BB4659E70223E06284F87132284684E6A2
:102F90000022204611F05EFD4FF00008206E11F077
:102FA0002FFD0122616EC4F86080204611F052FDB1
:102FB000606E11F025FD626DC4F86480BB1B2A446D
:102FC000A4F86A326265002A86D088E7626563E603
:102FD000B4F86A32521B2B446265A4F86A320020AE
:102FE0005BE600BF574156456461746152494646ED
:102FF00090F86F320D3B012B40F2BD802DE9F0417E
:10300000044611F0A7FC2066002800F0B28094F876
:103010006F32072B02D8DD0700F1AE800023636614
:10302000B4F86C12B4F86A220023891A9942A4F801
:10303000683000F30E8194F86F320E2B00F0B480EC
:10304000A56A002D44D02B68A1491A698A4240F034
:1030500038812A6D002A00F00E811178080740F1AE
:10306000A780D1695269891A40F11A81994E04F1F9
:103070006A074FF6FF784DB32B689B68B34240F068
:10308000EF80286D002800F082804FF400723946EE
:1030900003F0EEFA83B2A4F86C32002B00F08480C7
:1030A0000023A4F86A3281B2204694F86F52FFF7E9
:1030B000C7FD94F86F32002874D10E2B74D0072D01
:1030C0001AD9072B18D8A56A002DD5D1A4F86C52AF
:1030D000814B1B6B9A030AD4804A13881BB1013BB6
:1030E0009BB213801BB97E48402100F09BFA0E234F
:1030F00084F8703284F86F32256EFDB1B4F8680040
:10310000B8B17F2808D8C0F180020230520005EB28
:103110004000002116F0FAFF00222946204611F057
:1031200099FC94F86F32072B02D8DB0740F1BC8082
:10313000256E284611F064FC00232366656EC5B138
:10314000B4F8680080B17F2808D8C0F1800202304E
:10315000520005EB4000002116F0D8FF294601225D
:10316000204611F077FC656E284611F049FC0023DB
:103170006366BDE8F081704711F0ECFB60660028E3
:103180007FF44EAF206EBDE8F04111F039BC686DA0
:10319000002800F0BA804FF40072394601F03EF882
:1031A00083B278E70E2BE4D1A56A002D90D02B686E
:1031B000DB6A4C4FBB4240F08180A86D18B115F01E
:1031C000F1FC0023AB652B6D002B50D005F11800EE
:1031D00005F092FAA66A7568013D7560002D30D140
:1031E0003368DB6ABB4240F08A80B06D10B115F0E5
:1031F000D9FCB565336D002B7CD006F1180005F0C5
:103200007BFAA56AEDB12B68374A5B68934279D1A6
:10321000A86D364B2B6018B115F0C4FC0023AB65CC
:103220002B6D05F11806002B44D0304605F064FAEA
:103230002F4BAB60304605F05FFA5C21284612F058
:1032400057FF0023A362244B1B6B9A033FF54FAF3C
:1032500042E72046FFF7F4FC00283FF4ECAE88E795
:1032600028464FF400723946984783B213E76B6DD6
:10327000002BABD1AEE76A6D002A99D092F83110DD
:10328000090795D510681169091A5069526860EBF1
:103290000202B1F1004F72F1000201D36FF0004160
:1032A00000297FF4E3AE83E7216E0122204611F06E
:1032B000D1FB3DE76B6D002BB7D1B9E728469847A6
:1032C00088E728469047A56A00287FF4CFAE6CE7D0
:1032D000A50E0000350D0000008004401467FF1F9C
:1032E000744DFF1F85050000750F0000FCFF0100F5
:1032F00088FF0100736D002B7FF47FAF81E73046BC
:1033000098477EE7284698479BE7A4F86C824FF0E1
:10331000FF30C5E690F86F0207288CBF002001201F
:10332000704700BF90F81CC04160BCF1020FC26042
:1033300001D18368184711F073BD00BF2DE9F0413A
:103340000468E56815F0807F764D256048D1DD077B
:1033500000F1C98090F82C601F4646EA0626002F2F
:1033600000F0B08031B10E784D7846EA052676BA85
:103370000231B6B2456895F808C0022F0CF1FF3C47
:103380004FEA0C3C0CBF46F0805546F010451FFA42
:103390008CFC6563023F09E012B10EF8014B7246E6
:1033A000013B05F47045654516D90468E56A15F0DA
:1033B000F00FF6D013F0010FA46B9646ECD1C4F3D6
:1033C00007281AB10EF8028B5470724605F4704546
:1033D0006545A3F10203E8D8002F73D00468C1E764
:1033E000DD075BD490F82C701E46BFB2002E42D091
:1033F00021B14D7811F8027B47EA0527456895F819
:1034000008C0022E0CF1FF3C4FEA0C3C0CBF47F009
:10341000805547F010451FFA8CFC6563023E09E0B9
:1034200012B10EF8014B7246013B05F4704565453B
:1034300016D90468E56A15F0F00FF6D013F0010F05
:10344000A46B9646ECD12AB10EF8024BC4F30724C4
:103450005470724605F470456545A3F10203E8D83F
:103460004EB10468C4E72AB104F8021BC1F3072176
:1034700051702246023B7BB10168CC6A14F0F00F18
:10348000F9D0DD07896B1446EDD512B104F8011BA4
:103490002246013B002BEFD1BDE8F08179B311F852
:1034A000015B012B18BF45F00045656390F82C7057
:1034B0005E1E9AE7C1F307251AB104F8025B51704A
:1034C0002246023B002BE7D00168CC6A14F0F00FD3
:1034D000F8D0DE07896B1446ECD512B104F8011B55
:1034E0002246013BEEE799B111F8015B012B18BFB1
:1034F00045F00045656390F82C605F1E2DE790F85D
:103500002C70012B1ABF47F0004565636763CFE756
:1035100090F82C60012B1ABF46F000456563666386
:10352000EBE700BF00041F80436810B41C685A68B2
:103530002168114302682160164C17491460D1605C
:10354000164C174914611160417A164A5C180C3107
:1035500094F82CC053F8214002EBCC0149680C6070
:10356000017A5C1803EB810194F818C0CC6902EB76
:10357000CC0149680C60817A5DF8044B581803EB64
:10358000810390F84000596C02EBC0025368196047
:10359000704700BF01401F00011000380110007883
:1035A00000001F80141D020010B4426890F809C08A
:1035B000104B944400219CF82CC003EBCC0CDCF89D
:1035C0000440216090F808C094449CF818C003EBB4
:1035D000CC0CDCF804402160847A00682244064C5C
:1035E00092F8402003EBC2035B68196004605DF849
:1035F000044B7047141D020001401F0063290FD8BF
:103600004B09012201F01F0102FA03FC8A40C17A32
:1036100000EB830341EA0C01C172D9681143D96000
:10362000704700BF632918D800B54FEA511E00EB60
:103630008E0C01F01F01DCF80C30012202FA01F1BE
:1036400023EA0103CCF80C302BB9C37A02FA0EF24C
:1036500023EA0203C3725DF804FB704730B5254BC3
:103660004468A34210D0437A234493F82CE08E455B
:1036700009D004F12B02002312F801CF8C4519D098
:103680000133042BF8D130BD0B292CD0072907D1E9
:10369000194A137823F0030343F001031370E2E7A0
:1036A0001C29E0D1144A137823F0030343F00203EA
:1036B0001370D8E7226811686268114211D00F4A6E
:1036C00002EBCE0E0025DEF804100D60E11891F833
:1036D0002C1002EBC10203F10C01556854F82120B3
:1036E0002A60437230BD044A137823F00303137039
:1036F000B9E700BF60020200136EFF1F141D020035
:1037000030B5254B4468A34210D0037A234493F884
:1037100018E08E4509D004F11702002312F801CFFA
:103720008C4519D00133042BF8D130BD0C292CD095
:10373000082907D1194A137823F00C0343F0040336
:103740001370E2E72729E0D1144A137823F00C0321
:1037500043F008031370D8E72268116862681142C9
:1037600011D00F4901EBCE0E04EB030CDEF8042060
:10377000002515609CF818C004EB830201EBCC0116
:10378000D4694A681460037230BD044A137823F088
:103790000C031370B9E700BF60020200136EFF1F35
:1037A000141D02002A4A43689A4230B413D0827A28
:1037B0001A4492F840208A420BD093F840C08C45BE
:1037C00025D093F841C08C453BD093F842C08C453E
:1037D0003AD030BC70470D2913D00E2907D11D4CAB
:1037E000227822F0300242F010022270DFE71B291B
:1037F000DDD1184C227822F0300242F020022270F3
:10380000D5E7144C227822F030022270CFE7002155
:103810008C461C6825685C68254210D00E4C04EB71
:10382000C20200255268156003EB0C0203EB8C0307
:1038300092F8402004EBC2045A6C63681A608172EB
:10384000C7E701218C46E4E702218C46E1E700BF8F
:1038500060020200136EFF1F141D02000BB1FFF780
:103860006DBD704770B4826B4B4B1279DA77426B47
:1038700012791A77826B12791A77026B2AB343682E
:10388000DB689A4244D9446B816BD21A2368026385
:103890001D6800F12C04A5424FF001025AD00468C3
:1038A000E56815F0804F1D682AD12D781E6845F017
:1038B000004501361E606563374B0979D97612B130
:1038C000426B1279DA7670BC70470168334CC36B77
:1038D0000A63CC62CC6824F08044CC601C68304918
:1038E00024684FF0030C8C4280F82DC03AD1197F28
:1038F0005A600229DA603AD170BC9A6818461047BB
:103900002D881E6845F0004502361E606563D3E7CA
:10391000436B1B68DC8B260402F1FF3133D4C1F307
:103920000E01D983DC8B816BA4B2DC820C68E58B41
:103930002D0420D4C2F30E05E583E58BADB2E582FC
:103940001D680024013A046300F12C0418BF012211
:10395000A542A4D10368DC6890F82C4044F00044F0
:103960005C63A9E718461146234670BC184770BC33
:10397000184611F055BAE58BC2F3080605F47E45EA
:103980003543E583D9E7DC8BC1F3080104F47E44B9
:103990002143D983C6E700BF0080004000000FFF2D
:1039A0002533000008B50248FFF75CFF08BD00BFE3
:1039B000744DFF1F08B50248FFF754FF08BD00BF54
:1039C000B44DFF1F704700BF30B583B005460C46AD
:1039D00012F05EFD1C4B984204D800232B802380FC
:1039E00003B030BD694611F0DBFD9DF806309DF84F
:1039F00005109DF80420503B9BB27F2B05D8013168
:103A0000C9B20C2901D81F2A11D900239DF8022020
:103A10002B80172A9DF801309DF8001003D83B2B0E
:103A200001D83B2909D90023238003B030BD42EAE5
:103A3000411242EA43239BB2E8E75B0143EAC22317
:103A400043EA51039BB2EFE7FFA5CE12F0B5012B7D
:103A500095B0054638D0022B40F202200CBF034639
:103A600000230431684604F05FFF129B002B34D022
:103A70005C2012F03BFB1F4B0026C0E90036019B87
:103A8000C3601D4B8360029B036104AF9DF80C3043
:103A9000037504463946183004F000FE174BA36046
:103AA0004FF47A73AB606368154AA66501336E60A4
:103AB0002A602E732C616360124B0093384604F029
:103AC0001BFE284615B0F0BD44F2022304316846BF
:103AD00004F02AFF129B002BCAD1139B002BC7D1E5
:103AE000074A6B604FF47A71A9602B732A602B61CF
:103AF00004AFE1E7FCFF010058FF0100ACFF01004B
:103B0000D0FF010088FF010010B5D0F884448EB0CA
:103B10000A4644B1002321466846009302F054FD52
:103B200080B90EB010BDD0F8881441B12346684664
:103B30000C9400F001FF50B900200EB010BD0846F3
:103B40000EB010BD684602F05DFF0EB010BD6846B5
:103B500000F0B0FF0028EFD0E3E700BF70B5D0F869
:103B600084548EB016465DB105F5896500230A467A
:103B700068462946009302F0A5FC90B90EB070BDCE
:103B8000D0F888040028F9D000F589640A462B464D
:103B9000214668460C9500F067FE48B900200EB03B
:103BA00070BD32462946684602F070FE0EB070BD08
:103BB00032462146684601F0CFF80028EED0DDE716
:103BC00010B5D0F884448EB00A464CB10020009065
:103BD00001232146684602F0F7FC80B90EB010BD03
:103BE000D0F8881441B1012368460C9400F0A4FE7B
:103BF00050B900200EB010BD08460EB010BD68468A
:103C000003F09CFD0EB010BD684600F0F9FE0028E0
:103C1000EFD0E3E730B5D0F884448FB00A464CB11A
:103C20000025012304F589616846009502F0D4FB64
:103C30000FB030BDD0F888040028F9D000F58961B4
:103C4000012368460C9401F0F5F80FB030BD00BFB9
:103C500010B5D0F884448EB00A463CB1002321460A
:103C60006846009302F0B0FC0EB010BDD0F8881486
:103C700031B1234668460C9400F05EFE0EB010BDD4
:103C800008460EB010BD00BFF8B5054690F8CC044C
:103C900008B90146F8BDD5F88434002B4CD0DC6956
:103CA000D5F89004013C002854D00368DB6B98479A
:103CB000E0B1D5F8900478B303681B6C9847A8B9B5
:103CC000D5F8900440B3036801215B6C9847074620
:103CD00010B3D5F8840458BBD5F8886433466EB960
:103CE000D5F8900490B900200146D3E7D5F88404B4
:103CF000E8B9D5F88834002BF5D00746184602F00D
:103D000031F906463FB1D5F8900428B10368002187
:103D10005B6C984700B1A41BD5F88434FBB19B7948
:103D20004FF40071994089B2A1FB0401F8BD00274E
:103D300004F048FB0646E5E7D5F88834D5F890044A
:103D4000B3B1D3F830440028AFD1184602F00AF9D5
:103D50000646E0E7184604F035FB0646DBE7D5F8F3
:103D60008864002EBFD0D6F83C14A1FB0401F8BD36
:103D70000028B8D01C4698E790F8CC3463B1D0F84E
:103D8000843463B19A79D9694FF40070904080B25D
:103D90000139A0FB01017047184601467047D0F871
:103DA00088040028F9D0D0F83C14D0F83004A1FBE6
:103DB000000170472DE9F043D0F890548DB04DB11B
:103DC00098462B680446DB6928469847B0F5405F63
:103DD000064604D8002630460DB0BDE8F0834FF407
:103DE000007014F0D7FE07460028F3D00DF1040947
:103DF000B6F1806F02464346294648462FD901F066
:103E000091FB0646384614F0CDFE002EE2D02B681A
:103E100028461B6A984794F8BC34FF2B04F104072A
:103E200021D0D4F8C0340293D4F8C4340393B4F846
:103E3000BC34ADF8043004F5946599E80E002846CA
:103E400005F0E2FC94F8AD34C4F89054002BC2D1D4
:103E500001231A462946384604F0F6FCBBE703F076
:103E600081FF0646CEE704F2944594F8C81428462C
:103E700006F066FAC4F89054284605F063FD002861
:103E8000A9D10123D4F890141A46384604F0DCFC7A
:103E9000A1E700BFF0B5D0F8906485B00446E6B164
:103EA00090F8CC5495B190F8CD34FE2B5DD094F8B9
:103EB000CE043F283CD9336869469B6C304698470E
:103EC0000546284684F8CC5405B0F0BD90F8CE04E1
:103ED0003F2808D812F094FB28B90025284684F81A
:103EE000CC5405B0F0BD94F8BC34FF2B04F10407AA
:103EF00024D0D4F8C034B4F8BC240193D4F8C4342A
:103F00000293ADF8002004F594666B460ECB304664
:103F100005F07AFC94F8AD34C4F89064002BDDD140
:103F200001231A463146384604F08EFC0546D5E793
:103F300012F066FB051E18BF0125CFE704F2944678
:103F400094F8C814304606F0FBF9C4F89064304683
:103F500005F0F8FC0028C1D10123D4F890141A46CA
:103F6000384604F071FC0546B8E7336830461B6AF2
:103F70009847336830465B6D9847431C97D0051EC1
:103F800018BF0125AAE700BFF0B50C46054685B06D
:103F9000284806F04FFFFE2C85F8CD4426D03F2C54
:103FA00002D9002005B0F0BD0026234B02938DF806
:103FB00004408DF80560039605F59467C5F8C03494
:103FC00004AB13E90E0085F8BC4485F8BD64C5F860
:103FD000C464384605F018FC95F8AD34C5F8907403
:103FE000F3B1304685F8CC0405B0F0BD05F2944637
:103FF0000024FF23214685F8BC3485F8C8443046A8
:1040000006F09EF9C5F89064304605F09BFC70B947
:104010000123D5F890141A46281D04F015FCE1E799
:1040200001231A463946281D04F00EFCDAE7204623
:10403000D8E700BFC939000040787D01164817490C
:10404000174A4FF0290C10B4002380F8ADC4C0F813
:10405000A8144FF0FF0C4FF47F41124CA0F8CC1481
:10406000C0F89424A0F89C340F4A80F8B13480F84A
:10407000C83480F8CEC40460C0F8A0240B490C4AB0
:104080005DF8044BC0F88434C0F88834C0F890342C
:1040900080F8B83414F05AB81867FF1F03200038AE
:1040A000F40402009003020084040200C5390000F9
:1040B000704DFF1F70B500F124038C46054616466F
:1040C00093E8070084B001AC84E80700286A4FEA4F
:1040D0004C12214601F066FE012806D1286A3246BC
:1040E000214601F043FE04B070BD002004B070BD55
:1040F00010B5044600F0A8FD002384F8313084F8A0
:10410000333010BD38B513460D46002200F12401AE
:10411000006A1C4601F02AFE20B143892B800389E6
:104120002380012038BD00BF38B513460D4600225C
:1041300000F12401006A1C4601F018FE20B1C38979
:104140002B8083892380012038BD00BF38B590F8CB
:1041500031300BB1002038BD04460D4638221946D7
:1041600015F0D4FF0120402384F8313084F8330067
:10417000256238BD30B40C78202C03D111F8014FE2
:10418000202CFBD0116091600C783CB3224D0CE0E8
:10419000A4F1220C5FFA8CFC25FA0CFC1CF0010F38
:1041A00010D12E2C16D10C78C4B12F2C25D03C2C3C
:1041B00001F1010109D8212CEAD804F1FF3CBCF13E
:1041C0001E0F16D8002030BC70475C2CFAD00AD9DC
:1041D0007C2CF7D091600C78002CE6D1196030BCB3
:1041E000114601F0ADBC3E3C012CF3D8002030BCA0
:1041F0007047202CD7D09160EDE70C46214614F88B
:1042000001CBBCF1200FF9D0BCF12F0FF6D0196013
:1042100030BC114601F094BC012100052DE9F04F9E
:1042200090F83330DC0783B005466CD558068B46D2
:10423000904640F1B480D5E90023D5E9041018EB8D
:10424000020443F10003A14270EB0303C0F0AD8010
:10425000B8F1000F53D0D5E900324646D5F820908A
:10426000D9F838441C40C4F3080A002C56D1134333
:1042700076D195F831305A064CBFD9F83414E96933
:10428000A96199F84534D9F82C2402399940114490
:10429000B6F5007F4FD3D9F81C228A424BD0B6F531
:1042A000806F64D34FF0010A0AFA03FAAAEB040AFA
:1042B000730A9A4528BF9A468A424FEA4A240AD38B
:1042C0000AEB01039A4206D209F50470019106F047
:1042D00053FD0199B8B1D9F8140207685346D7F8CD
:1042E00014905A46C84770B12346D5E900125B18AE
:1042F00042F10002361BC5E90032A344AED140466C
:1043000003B0BDE8F08F95F832304FF0FF3043F046
:10431000020385F8323003B0BDE8F08FAA6999F83E
:104320004534D9F82C04911E9940640A0144214473
:10433000BAF1000FACD0CAF50074B4424FF00002DD
:1043400009F5047028BF344606F042FD0028DAD093
:1043500000EB0A012246584611F048FD2346C4E707
:1043600095F83330A9695B060DD5013188E7D9F896
:10437000140203685A461B6998470028C3D04FF4BB
:1043800000731C46B1E705F11802484601F04CFDE8
:104390000028B8DB0CD0A969D5F8209071E795F812
:1043A000313019077FF554AF45E7A1EB02084FE71D
:1043B00095F8313013F0500FA5D0A8EB0608404611
:1043C0009EE700BFF0B583B001220DF1070104465E
:1043D000D0E900678569FFF721FF012808BF9DF834
:1043E0000700A56118BF4FF0FF30C4E9006703B0B4
:1043F000F0BD00BF2DE9F84F90F83110D0F81880CB
:104400000446002950D01646D0E9002C9C4508BF30
:10441000B2421F4658D056EA07034AD0080704D5CF
:10442000D4E90403B042BB413ED3D4F8209099F8BC
:1044300045340933751EDBB247F1FF3AC3F1200062
:104440000AFA00FBDD40A3F1200E2AFA0EFA45EA33
:104450000B0545EA0A0594F833A01AF0400F2FD156
:1044600012F1FF3A2AFA03F34CF1FF3A0AFA00F08C
:1044700003432AFA0EFA43EA0A039D4202D352EAA0
:104480000C0C24D14B064CBFD9F83434E369A3613A
:1044900004F118094A4675B1A169206A01F0C4FC0B
:1044A000002805F1FF35F5DCC4F818800020BDE8D0
:1044B000F88F00238361C4E900670120BDE8F88F0D
:1044C000E3692B44A361F6E70120BDE8F88FED1AFC
:1044D000DEE700BF2DE9F04F064690F831008FB0BF
:1044E000002840F0D880174691F8312012F0500F84
:1044F0008B4600F0D08003F00302032A9A4600F0B6
:10450000CA80013203F0080142EA01030293002F3E
:1045100000F0CA803A6902F10E08B54AA2FB0828E9
:10452000DBE900214FEAD80808F102080A435FFAE4
:1045300088F805D0CBF8180000210020CBE9000155
:10454000029B002443F0400325460393202206A942
:104550005846FFF763FE00B3202840F09C809DF989
:1045600018209DF81830002AC0F2A18034B9DBF879
:104570000020A2F12009DBF81820019244453CBF3D
:104580000134E4B2002B00F01281202206A9584623
:104590000025FFF743FE0028DED11AF4007F7AD011
:1045A000029B9B0777D5002F75D0444517D2DDF8C5
:1045B00004A0202206A95846FFF730FE631C0028FD
:1045C00061D0202867D12CB9DBF80020DBF818A0D7
:1045D000A2F12009DCB2A045EBD8CDF804A0382226
:1045E000002130469BF8334015F090FDDBF8203079
:1045F0003362019B7362082386F831303B68C6F84A
:104600002890C4F38014002586F82C407B60BD817F
:10461000B8F1000F32D008F1FF39DFF8D8A15FFA06
:1046200089F9AB46012259463046FFF743FD04465F
:1046300088B390F90020002A2DDB2022002115F0FC
:1046400065FD002D00F0BA80BBF1010F00F0D480B1
:10465000C1232370A3461E34BB8938461BB97A6830
:10466000BB689A4205D006F0F1FB2BF8020FA34578
:10467000F2D101355FFA85FBD845D3D8304600F03A
:10468000E3FA05460CE05846DBF8185000F00CFB46
:10469000002840F09080002586F8315086F833508D
:1046A00028460FB0BDE8F08F4FF0030848E755BB30
:1046B000444538BF0024852B7FF448AF2946382273
:1046C000304615F023FD9DF81C209DF8193086F822
:1046D000303002F03703D20658BF43F0080386F8A3
:1046E0003130DBF80030DBF820203262203BDBF891
:1046F00018207262B3629BF83330C3F3801386F8DC
:104700002C30012522E7C02B28D0C12B7FF43DAFF0
:104710003A4606A9304601F089F9E8B1BB89DBB910
:10472000BA687B689A4217D11AF4006FB3D11AF4B1
:10473000884F6FD196F833309C076BD41AF4806F92
:10474000A9D11AF4804FABD0D6E904233046FFF745
:1047500051FE0028A4D19EE70546F7E6029B86F8A5
:1047600033309DF819309B0744BF039B86F83330E4
:104770000B9BF361DDE90823C6E90423DDE90C2383
:10478000C6E90223002FCFD04FF000033A69BB8166
:104790009DF81B30396879609A427FF4F6AEBD8A85
:1047A000BDF81C30ED1AB5FA85F56D09CEE6002F7F
:1047B0007FF4F3AE6FE7CBF818500CE78523237036
:1047C00086F8309084F80190DAF80030002B45D05C
:1047D0000DF113020DF1160105A89847BDF814302C
:1047E0006381BDF8163023819DF81330237540E7AF
:1047F000898888883C6CFF1FC0232370029B84F843
:1048000001B063F07F0386F833303B69E370BB8A05
:10481000A3802EE796F83130D8063FF53CAF13F071
:1048200001027FF438AF1AF4806F8AD096F8331003
:1048300089077FF530AF002B3FF42DAFD6E900316B
:104840000B4304D000200021C6E90001B2613046CC
:1048500000F0F2FB00283FF41EAF21E745F62103EC
:104860006381E381638204E72DE9F043044697B056
:10487000994694F83130019200201490ADF814005C
:104880006BBB91F8313013F0500F0E4627D01378E0
:104890002F2B154627D04FF0000813E0019D2F78ED
:1048A000A7B3FFF717FE06463422214608A8B6B183
:1048B00011F09CFA204600F0C7F908AE84F8318068
:1048C00084F83380294601AB02AA2046FFF752FC48
:1048D0000546002302AA31462046002DDED10020E5
:1048E00017B0BDE8F08315F8011F2F29FBD0019503
:1048F00099B938222046356A15F008FC012040237A
:1049000084F83130256284F83300E9E74B4602AA87
:10491000FFF7E0FD17B0BDE8F0833822002108A8BA
:10492000366A15F0F3FB01238DF8533040231096BF
:104930008DF8513008AEAEE719B101F58961FFF786
:1049400093BF0846704700BF90F8313063B991F8C3
:10495000313013F0500F07D00B6813F01F0C03D148
:1049600013466246FFF7B6BD002070478169F8B56F
:104970000446006A01B10131012201F017F9012852
:10498000054632D9012301461A46206A01F06EF924
:10499000064650B3A3695BB394F83320510612D591
:1049A000591CA94218D022F04002E16984F8332052
:1049B00005E0206A01F058FAB8B1A36939464F1CE6
:1049C00099423A46F5D3206A4FF0FF32294601F06A
:1049D0004BFA50B1A16911B9A5613046F8BD206A02
:1049E0002A4601F041FA0028F6D100263046F8BDEB
:1049F00094F8333043F0400384F83330ECE700BFE1
:104A000090F833309A0736D5C16970B50546A1B91B
:104A10000024214607E0037803F07F03037095F834
:104A200030308B4229D301222846FFF743FB013463
:104A3000E1B20028EFD1002070BD5B06006A34D5DA
:104A4000D5E9022490F845340933013ADBB244F148
:104A5000FF34C3F1200CDA4004FA0CFC203B24FAAA
:104A600003F342EA0C021A430132002301F0FEF87C
:104A70000028CDD1DFE7002070472C6A002385F89D
:104A8000313085F83330204606F076F90028D2D050
:104A900004F5047006F070F90028CCD0D4F8400476
:104AA0000368BDE870401B6A184701F0FDF9002853
:104AB000AED1C0E790F83130DB0601D4002070475A
:104AC00010B5002288B000230446FFF793FC08E0ED
:104AD00020281BD19DF900309DF80020002B15DB0C
:104AE00032B1202269462046FFF798FB0028EFD11B
:104AF00094F83330082243F0020384F8312084F81C
:104B000033302046FFF77CFF08B010BD002008B00E
:104B100010BD00BF2DE9F0414FF00008494F82B0B1
:104B200006464446414600223046FFF7C3FA054692
:104B300030B10078C02867D0C1282BD0852809D093
:104B400096F8323043F00103002086F8323002B08C
:104B5000BDE8F08196F8313003F03703AB803B6855
:104B600083B10DF103020DF1060101A89847BDF8CC
:104B70000630AB812B82BDF80430EB816B829DF84F
:104B800003306B75326A92F8103243F0010382F8F9
:104B9000103228780146002202E01F2A0FD8A95CB3
:104BA000E30343EA540311FA83F3012A9CB202F1AE
:104BB0000102F2D1852814BF02220422EFE796F801
:104BC000303008F101085FFA88F18B42ABD2306ACD
:104BD000012206F1240101F0C9F80028B0D0356A9D
:104BE0004480284606F0C8F80028A9D005F50470CE
:104BF00006F0C2F80028A3D0D5F8400403681B6A69
:104C000098470028A3D19BE796F8333013F0400F64
:104C10006B7814BF43F0020303F0FD036B70D6E919
:104C20000401F369326A6B61C5E90201D6E9020148
:104C3000C5E9060192F8103243F0010382F8103200
:104C40002878A7E73C6CFF1F38B590F8313043B3A4
:104C500090F9332090F83330002A04460CDB056AC3
:104C6000284606F089F878B994F8323043F0010309
:104C700084F83230002038BD03F07F0380F83330F1
:104C8000BDE83840FFF746BF05F5047006F074F83C
:104C90000028E9D0D5F8400403681B6A984700282B
:104CA000E2D0012038BD00BF70B590F831305A060F
:104CB00005464CD480682B6AD3F83C341844B0F1D4
:104CC000806F01D3002070BD2846FFF74FFE0028FB
:104CD000F8D0286AAE6990F84524D0F82C34023E0A
:104CE00096401E4400243119052200F5047006F098
:104CF0006FF801344FF4007200210028E2D015F063
:104D000005FA286A90F84524012393409C42EAD38F
:104D100095F831305B0615D495F83330AA6863F006
:104D20007F0385F83330D0F83C142B69E8685218BB
:104D3000AA606A6940F100005B1842F10002C5E90F
:104D40000432E8602846BDE87040FFF77DBF006A86
:104D500001F0AEF9AFE700BF30B5044690F831007E
:104D60009DB0002510F0180F0C951A9503D00B6A12
:104D7000206A984202D000201DB030BD40F60123C9
:104D80006846FFF771FD0028F5D0342221460EA8B1
:104D900011F02CF809AA07CA04F1240383E80700DC
:104DA00094F833309DF830C084F830C063F07F034E
:104DB000204684F83330FFF747FF0028DBD002227B
:104DC00008230EA815958DF86B208DF86930FFF734
:104DD00017FED1E738B591F8313013F0500F02D1FA
:104DE0000025284638BD40F602230446FFF772FB33
:104DF0000028F5D0102384F831302046FFF754FF07
:104E000005460028ECD0A369E36100220023204678
:104E1000FFF7F0FA94F83130C12284F83320002BE8
:104E2000DFD0412384F833302046BDE83840FFF717
:104E300071BE00BFF0B5044697B01F4694F83130FC
:104E400001920020ADF8140014907BBB91F8313032
:104E500013F0500F0D4629D013782F2B114619D17E
:104E600027E0019E3678002E31D0FFF733FB034652
:104E700002AA294620461BB9C7B1FFF7ABFFA8B16C
:104E80002146342208A810F0B1FF2046FFF730F980
:104E9000019908AD01AB02AA2046FFF76BF906465F
:104EA000002302AA29462046002EDAD1002017B09E
:104EB000F0BD013101910B782F2BFAD0296A08A897
:104EC000FFF744F90028F1D0019908ADE2E702AA02
:104ED000FFF780FF17B0F0BD2DE9F04F90F831409B
:104EE00083B024079DF830709DF834909DF838A069
:104EF0009DF83C8057D5A2F2BC7294B27F2C52D858
:104F00005A1E0B2A01934ED87A1E1E2A4BD8B9F18D
:104F1000170F48D8BAF13B0F45D8B8F13B0F42D82C
:104F200005460E46FFF790FE00283CD0019B47EA5D
:104F3000431747EA44244FEA580747EA4A1747EA23
:104F4000C9274FF0000A18F00108A4B2BFB218BF79
:104F50004FF06408D346514606F001090022284666
:104F6000FFF7A8F8F8B10178852946D001F1400390
:104F7000DBB2012B17D88C46002203E01F2A16D87B
:104F800010F802C04FEACB3343EA5B031CFA83F309
:104F9000012A1FFA83FB02F10102EFD1852914BF18
:104FA00002220422ECE7002003B0BDE8F08F95F860
:104FB00030300AF1010A5FFA8AF18B42CED2286AB8
:104FC000012205F1240100F0D1FE0028EBD02C6A6B
:104FD000A0F802B0204605F0CFFE0028E3D004F58B
:104FE000047005F0C9FE0028DDD0D4F84004036841
:104FF0001B6A03B0BDE8F04F184795F831302A6AB4
:1050000003F03703838092F8103243F0010382F8F3
:105010001032B9F1000F01D007824482B20703D5E4
:1050200080F81480078144817307017842BF80F8BB
:1050300015808781C4819EE790F833309A0762D546
:1050400070B5C56982B00446A5B313F0400634D0EC
:10505000006AA26890F845C4E1680CF1090C5FFA97
:105060008CFC013A41F1FF31CCF1200E22FA0CF216
:1050700001FA0EFEACF1200C21FA0CFC42EA0E0201
:10508000A16942EA0C02013219B3013D6D1A0131E6
:105090002A44019172BBD4E9000163F07F03C4E9A3
:1050A0000201C4E9040184F833302046FFF7CCFD47
:1050B00002B070BD012002B070BD816961B9019577
:1050C000C161206A294600F0EFFEC8B194F8333080
:1050D000E1E70195E161DDE7006A019601AA00F0D0
:1050E000A3FE00280CDB10D1019D002DE9D194F81E
:1050F0003330D0E70199002300F0B8FD0028E5D156
:10510000002002B070BD00207047A169206A4FF0F6
:10511000FF3200F0A9FE0028E6D1F1E72DE9F047C3
:1051200090F833309D07044640F1A38092461A0759
:105130000E4600F19780BAF1000F00F02781236836
:105140005546206AA169D0F8382402EA0309C9F358
:105150000808B9F1000F40F09580002900F0D480D4
:1051600094F833305B0640F1EC80D4E9023290F8D9
:1051700045C40CF1090C013B5FFA8CFC42F1FF3293
:10518000CCF1200E23FA0CF302FA0EFEACF1200C47
:1051900022FA0CFC43EA0E03E26943EA0C031344CF
:1051A000994280F0D5800131A16190F84524D0F872
:1051B0002C34023991401944B5F5007FC0F08D8040
:1051C000B5F5806FC0F0A68001239340A3EB0903DF
:1051D0006A0A934228BF1346D0F81C228A424FEA3B
:1051E00043290AD303EB010C624506D2002280F862
:1051F00010224FF0FF32C0F81C22D0F814020268CF
:10520000D2F828803246C04798B34B46D4E9001202
:105210005B182169606942F1000299429041C4E93A
:1052200000324E44A5EB090507D294F833102361F0
:1052300061F07F0184F833106261002D81D1D4E9DF
:10524000020198429141C0F09480524B1B68002BA0
:1052500000F09A8094F8333063F07F03504684F86E
:1052600033300DE0D0E90423FFF7C4F800287FF4C1
:1052700062AF94F8323043F00103002084F83230FA
:10528000BDE8F08790F84524D0F82C3402394FEA75
:105290005929914049441944B8F1000F8CD0C8F500
:1052A0000079A9454FF0010200F5047028BFA94616
:1052B00005F08EFD0028DCD040444A463146C84403
:1052C00010F094FDB8F5007F206A9ED100F50470BF
:1052D00005F052FD002898D1CBE722682769636961
:1052E000BA42626872EB030312D2012200F5047025
:1052F00005F06EFD0028BCD02A463146404410F02F
:1053000075FDA9462B4681E7E16949B3A1614CE7E8
:105310000522EBE7D0F81C328B4206D1002380F83F
:1053200010324FF0FF33C0F81C32D0F8140203687B
:1053300032465B6A984700289BD04FF40073994629
:1053400064E704F1180200F06FFD002891DB04D13E
:105350002046FFF70BFB00288BD0A169206A24E7C9
:105360002046FFF703FB002883D0A169206AE16192
:105370001BE794F83310A36061F07F0384F83330A7
:10538000E2605046BDE8F087504679E7D4E9003244
:1053900055E700BF3C6CFF1F69B170B50546084674
:1053A0000C4615F0ADFA2B680246214628465B688C
:1053B000BDE87040184770478368C3F308038BB19A
:1053C00010B400210269D1540133B3F5007FF9D143
:1053D000C36802691C680168646A184623465DF860
:1053E000044B18470120704783680269C3F3080320
:1053F00040F2FF1CD154426801EB720182684160A7
:1054000001326345826001D001207047C3680168A2
:1054100010B41C68646A4A1C02600269184623467C
:105420005DF8044B184700BF38B583680446C3F3E2
:1054300008030069CAB2C2540D46616802EB7102EA
:10544000A168626040F2FF1201319342A16005D071
:10545000290A2046BDE83840FFF7C6BFE06821684A
:1054600003684A1C5B6A2260226998470028EFD1D2
:1054700038BD00BFF8B50025C0E9001506468560B7
:10548000A8B205F0F5FDA842044607D0C1B23046E7
:10549000FFF7AAFF00283BD10020F8BD6C1CB4F533
:1054A000803F04D12AE00134B4F5803F04D0A0B29B
:1054B00005F0DEFDA042F6D0671BB7F5007F1DD3D7
:1054C0004FF6FF713046FFF7AFFF0028E4D0B9B2C6
:1054D0003046FFF7A9FF0028DED02546B5F5803F0E
:1054E000CED13046BDE8F840FFF766BFC5F30721CF
:1054F0003046FFF779FF01350028CDD0A542E9B24B
:105500003046EBD2FFF770FF0028EFD10020F8BD46
:10551000C4F307213046FFF767FF0028BCD00135F0
:10552000DCE700BF2DE9F04F0F4689B00968049011
:105530001546CA69C7600561384698469047B0F578
:10554000801FC0F0C2800646002301220133DBB277
:10555000202B4FEA420200F0C3809642F6D81C2B63
:1055600000F2BE801A2B4FF0080A00F23B824FF483
:10557000804301934FF4004303934FF480730793E8
:105580004FF40053CDF808A00693039B0298019CAA
:10559000F31AC34003FA00F94FF4007200212846C1
:1055A000059314F0B3FDFF2385F8C43185F8C531A8
:1055B000072385F8C231A144FE230194C5F8C641F2
:1055C000012485F8BF4185F8C04185F8C3313B68A7
:1055D000C5F8CA914AF6552B5B6AA5F8FEB12A4672
:1055E000002138469847002860D04FF4007200210F
:1055F000284614F08BFD019B2B64AB65059BEB6586
:1056000020232B726B72AB72EB232B7076236B70A3
:105610009023AB704523EB7058232B7146236B719D
:105620004123AB715423EB7104232B664FF4807339
:10563000A5F868300923069A85F86C3080236E66D9
:105640002A656A65C5F848904FF4C37285F86DA065
:1056500085F86E4085F86F30F42105F1780014F07C
:1056600055FD0026A5F8FEB16A1E00E00134A4F144
:105670006B03012BFAD9712CF8D0135DB4F5007FC0
:1056800003EB7606F2D13B68DDF804905B6A2A46AC
:1056900049463846984748B13B68CDF8049049469A
:1056A0005B6A2A460C313846984780BBB8F1000F38
:1056B00006D0D8F80030B7495B680F2240469847BB
:1056C0000024204609B0BDE8F08FB8F1000FF7D0F4
:1056D000D8F80030B0495B68152240469847E8E7A3
:1056E000A3F10B0A4FEA6A0101228A400291CAF330
:1056F000470A079201335B1001229A400692042266
:105700009A400392022202FA03F301933DE72246F4
:105710000021284614F0FAFC4AF65523A5F8FE317C
:10572000019B03F1090203F1010A05F2FF190023AD
:1057300093462C4601E014F8013FA14503EB7606A1
:10574000F9D13B682A465B6A51463846984700289B
:10575000ACD03B682A465B6A0AF10C013846984790
:105760000028A3D00AF101039B4502D09A462B786A
:10577000DFE74FF40072002128469B4614F0C6FC78
:1057800000220AF1030A11462B4601E013F8011F1B
:105790009C4201EB7606F9D13B682A465B6A594682
:1057A00038469847002881D03B682A465B6A0BF14F
:1057B0000C013846984700283FF478AF0BF10101FF
:1057C0008A4564D12B1F05F5FE7243F8046F9A4297
:1057D000FBD13B682A465B6A3846984700283FF46D
:1057E00065AF3B680BF10D015B6A2A463846984766
:1057F00000283FF45BAFB8F1000F06D0D8F80030B6
:1058000066495B680C2240469847019A069BDFF880
:105810009CB113449946059B4FF400720021284621
:105820009E0014F073FC2846F82306F2072600F8C1
:10583000013B1322FF214FEA562A14F067FCB60BF6
:10584000002402E00134A24524D0B4FBF6F306FBA9
:1058500013434BB90122B8F1000F05D0D8F800303E
:1058600059465B68404698473B6809EB04015B6A10
:105870002A463846984700283FF418AF002CE1D15B
:1058800021464FF40072284614F040FCDAE78B46BC
:10589000297879E7B8F1000F2BD0D8F800304049CB
:1058A0005B68022240469847059C079A0734E40843
:1058B00004F2FF13B2EB532F4FEA5329FFF4F9AE72
:1058C0004FF400720021284614F020FC07232B70AF
:1058D000002604E006B92E700136B14516D9039AA8
:1058E0003B68B1185B6A2A46384698470028F1D1D0
:1058F000DCE6059C079A0734E40804F2FF13B2EBD8
:10590000532F4FEA5329FFF4DBAED9E7B8F1000F6C
:1059100077D0D8F8003023495B6816224046984774
:10592000039B079A04989918FFF7A4FD00283FF4F9
:10593000C0AE029A4FF400739340049A92689A4260
:105940003FF6B7AE18494046FFF726FD029B4FF0E1
:10595000020909FA03F6039B4FF40072002128465E
:105960001E4414F0D3FB8122032385F820200499E0
:10597000C5F8349082222B7085F840204A686A640A
:105980006B658B68AB650023013EAC63EB654FF044
:10599000010912E018040200B8030200D00302005B
:1059A000F4030200E0030200F80302002C0C0200E2
:1059B000079B99451CD209F101093B6806EB0901D7
:1059C0005B6A2A4638469847044600283FF46EAE84
:1059D000B9F1010FECD14FF400720021284614F008
:1059E00095FBE8E74FF480720792CDF808A081E6B6
:1059F000B8F1000F3FF465AE0B494046FFF7CCFC11
:105A00005FE6039B079A04989918FFF733FD002877
:105A10003FF456AE029A4FF400739340049A926892
:105A20009A4293D94CE600BF080402002DE9F041E8
:105A30000C46154601F11E08AB8934F8027F284652
:105A40001BB96A68AB689A420ED005F0FFF905F001
:105A50000FFB0646384605F00BFB864209D144454C
:105A6000EAD10120BDE8F081B7FA87F04009BDE82E
:105A7000F0810020BDE8F0812DE9F04F90F8313041
:105A800083B08846002B4FD090F83030012B07466A
:105A900052D9013ADFF8A4B00B464FF0020A8E1833
:105AA00000240022514638460193FEF703FB0028EC
:105AB0003AD00278C12A37D1019B054600F11E0970
:105AC00035F8020F24B300F5105292B2B2F5806F90
:105AD0002AD20BEA8424C0F30900204300F5803069
