:020000022000DC
:1060000000000420D19303001194030013940300B3
:106010001594030017940300199403000000000076
:106020000000000000000000000000004D9303008D
:106030001D940300000000006D93030021940300F1
:1060400025960300239403009D6B03002394030013
:1060500023940300239403006D6C03002394030036
:106060002394030023940300239403002394030048
:106070002394030023940300239403002394030038
:10608000239403009D9003002394030023940300B2
:106090002394030023940300F9A002002394030037
:1060A0002394030023940300239403002394030008
:1060B000239403002394030000000000000000006C
:1060C00023940300239403002394030011970300F7
:1060D000239403002394030023940300CDC2020001
:1060E0002394030023940300239403000000000082
:1060F00000000000239403000000000089970300C3
:10610000000000000000000000000000000000008F
:10611000000000000000000000000000000000007F
:10612000000000000000000000000000000000006F
:10613000000000000000000000000000000000005F
:10614000000000000000000000000000000000004F
:10615000000000000000000000000000000000003F
:10616000000000000000000000000000000000002F
:10617000000000000000000000000000000000001F
:10618000000000000000000000000000000000000F
:1061900000000000000000000000000000000000FF
:1061A00000000000000000000000000000000000EF
:1061B00000000000000000000000000000000000DF
:1061C00000000000000000000000000000000000CF
:1061D00000000000000000000000000000000000BF
:1061E00000000000000000000000000000000000AF
:1061F000000000000000000000000000000000009F
:10620000F1EE103A43F08073E1EE103A704700BFB0
:1062100010B5054C237833B9044B13B10448AFF3E0
:1062200000800123237010BDB46300200000000033
:10623000F45A040008B5034B1BB103490348AFF3FC
:10624000008008BD00000000B8630020F45A04007C
:10625000154B002B08BF134B9D46A3F5803A002138
:106260008B460F461348144A121A19F0BFF90F4B08
:10627000002B00D098470E4B002B00D098470020F1
:10628000002104000D000D48002802D00C48AFF397
:10629000008019F041F92000290013F0F1F819F0FD
:1062A00015F900BF000008000000042000000000F5
:1062B00000000000B4630020149D002000000000D6
:1062C0000000000010B5014688B00446154803F0F0
:1062D0000BFF154A0023148069462022CDE90033C4
:1062E000CDE90333CDE905330293079302F038F883
:1062F0000E4B1B7863B90E490E4810F049F86946F9
:106300000C4810F097F80C4B01221A7008B010BD21
:1063100007490A4810F03CF86946084810F08AF826
:10632000E9E700BF8468002088670020346000200F
:10633000482A0400D08E0020D4640020047100207C
:10634000104B1B7810B50C467BB90F4810F052F873
:106350000E490D4810F01CF810220B48214610F091
:1063600023F90B4B00221A7010BD0A4810F042F8B6
:106370000649084810F00CF810222146054810F094
:1063800013F9E2E734600020D08E0020582A040080
:10639000D46400200471002008B51F4B1B781BB982
:1063A0001E4B01221A7008BD1D491E480FF0F0FF58
:1063B0001D491C4810F03EF81C491A480FF0E8FF30
:1063C0001B49184810F036F81A49164810F032F8F0
:1063D0001949144810F02EF81849124810F02AF8FC
:1063E0001749104810F026F816490E4810F022F808
:1063F00015490C4810F01EF814490A480FF0C8FF60
:106400000B49084810F016F81149064810F012F828
:10641000024B01221A7008BD346000205E68002023
:10642000982A040004710020982D0400B82A040062
:1064300008600020C82A0400E42A0400FC2A0400A2
:10644000182B0400382B0400542B0400742B040078
:10645000982B0400F8B5174F174C1849184D194ED2
:10646000384610F045FC18492246384618F0F6FF29
:10647000164A174B12681A60284603F067FF224637
:106480001449284618F0EAFF134D304603F0F8FF90
:1064900022461249304618F0E1FF28464FF4807139
:1064A00004F044FC224628460D49BDE8F84018F0A7
:1064B000D5BF00BF6068002000600020D02B040022
:1064C000DC6500204C660020256D03000460002080
:1064D0009067002025680200946600200D68020085
:1064E000C1AD020070B52A4C2A4E2B4D204600212A
:1064F00003F0B8FD2046042103F078FB002220467B
:10650000012103F0A3FB0421204603F05DFD13F0FD
:1065100013FD0146304610F00DFC30460B2110F003
:1065200033FC0C2103463046EB7110F02DFC0D219D
:10653000034630462B7210F027FC0E2103463046EE
:106540006B7210F021FC294603462046AB7203F023
:1065500013FD20461149124D02F04EF91149204613
:1065600002F04CF9104803F017FF28460F490C229F
:1065700003F082FF28460E49102203F079FF2846D7
:1065800003F0B4FFBDE870400A4804F05DBC00BFF2
:10659000846800206068002008600020C562020056
:1065A0004C66002041630200DC650020AC2D040035
:1065B000982D0400946600203A4870B54FF4E131FC
:1065C000064605F0B3FA01223748002110F0DAFA46
:1065D00035484FF4614110F0DFF810F0DFFB05465D
:1065E00005E010F0DBFB401BB0F57A7F46D8304663
:1065F00005F0C4FA04460028F3D02C4D4FF47A700D
:1066000010F0D8FBFFF76EFF0621294800F020FEAE
:10661000274800F005FE2749254800F0BDFD264823
:1066200000F0D0FD2248012100F046FEF42220486F
:10663000202100F03DFE1E481E2100F037FE1C48C0
:10664000002100F0A5FE2B78F3B91C4C0121206835
:1066500013F07AFD6068012113F076FDA068012136
:1066600013F072FD1649174A174B09681160322260
:106670001A6010F093FB154B186070BD0B4D094864
:106680002C7005F06BFAB9E7114906480FF0D2FEFD
:10669000104904480FF0CEFE0F4902480FF0CAFE21
:1066A000D3E700BF04710020D08E002034600020AA
:1066B000C46E002094660020086F00202460002033
:1066C0000460002090670020146000208C67002088
:1066D000E42B0400982D0400F42B040010B53F486F
:1066E00005F006F900B910BD3C4805F027F9C1B224
:1066F0003F296ED0A1F16103112B61D8112B5FD816
:10670000DFE803F048355E5E5E5E225E5E5E5E5EE2
:106710005E5E5E5E5E09324C324930480FF08AFEA2
:106720002068FF2113F088FC6068FF2113F084FCCF
:10673000FF21A06813F080FC2B492C4A09682C4BE0
:106740001160FF221A6010BD254C2A4923480FF022
:1067500071FE2068FF2113F06FFC6068FF2113F0C9
:106760006BFCFF21A06813F067FC2349E5E71C4C94
:1067700022491A480FF05EFE2068FF2113F05CFCEE
:106780006068FF2113F058FCFF21A06813F054FC4F
:106790001B49D2E7124C1B4910480FF04BFE2068F2
:1067A000FF2113F049FC6068FF2113F045FCA0684D
:1067B000FF2113F041FC0D4B4FF0FF321A6010BD6A
:1067C00006480FF013FEBDE810400F4903480FF0D4
:1067D000DFBDBDE81040FFF7DFBD00BF0471002042
:1067E00024600020242C04003060002090670020EA
:1067F0001C600020342C040020600020482C040081
:1068000004600020182C0400582C040010B5044B20
:10681000044640F8083B02F007FF204610BD00BFC9
:10682000F82D040010B5074B044640F8183B00F063
:1068300011FF2046044B40F8083B02F0F5FE2046CD
:1068400010BD00BFE82E0400F82D04002DE9F84328
:10685000A54D2B7823B9A54B01221A70BDE8F8830A
:10686000A34EDFF89CC2DFF8A4E2A24F0FCE64462D
:106870000FC496E80F0007C42380BEE80F009EF8FF
:106880000040CCF81E00CCF82210CCF82A30E046AC
:106890008CF82E40CCF8262060463E463946002330
:1068A00005E00133C92B01F8012B00F00C8110F831
:1068B000012B002AF5D15A1C8E498F480A24F45422
:1068C00003F024FF8D4B8E4C8A4E0FCB07C420461D
:1068D0008C4900F8013B19F063FD0C3C3146002364
:1068E00005E00133C92B01F8012B00F0FA8014F800
:1068F000012B002AF5D15A1C95F800C00A21F15449
:10690000BCF1000F05D07B497B4803F0FFFE95F8F2
:1069100000C0DFF8FC917A4CDFF8D8E1B9E80F004D
:106920000FC42346D9F8002003F81029002105E000
:106930000131C9290EF8012B00F0D18013F8012B89
:10694000002AF5D14A1C0A237354BCF1000F05D06C
:106950006849694803F0DAFE95F800C0DFF8B4E151
:10696000674CDFF89091BEE80F000FC49EE8070067
:1069700003C4002324F8182905E00133C92B09F8C2
:10698000012B00F0AA8014F8012B002AF5D15A1C23
:106990000A21F154BCF1000F05D05649564803F0C6
:1069A000B5FE95F800C0DFF870E1554CDFF8449172
:1069B000BEE80F000FC49EE80700002384E807002C
:1069C000103C05E00133C92B09F8012B00F083804E
:1069D00014F8012B002AF5D15A1C0A21F154BCF1FC
:1069E000000F05D04349444803F090FE95F800C0DD
:1069F000DFF828E1424CDFF8FC90BEE80F000FC43E
:106A00009EE80F0007C4002124F81C3904E001317E
:106A1000C92909F8013B5CD014F8013B002BF6D1E1
:106A20004A1C0A237354BCF1000F05D03149324887
:106A300003F06CFE95F800C0DFF8E4E0304CDFF8BE
:106A4000B490BEE80F000FC49EE80F0007C40021F9
:106A500004F81C3904E00131C92909F8013B36D09A
:106A600014F8013B002BF6D14A1C0A237354BCF1E5
:106A7000000F05D01F49204803F048FE95F800C0DC
:106A8000214D1F4C0FCD0FC495E80700002384E86B
:106A9000070004E00133C92B07F8012B15D018F8C3
:106AA000012B002AF6D15A1C0A21F154BCF1000F27
:106AB0003FF4D1AE0F49104803F028FE0B4B0122E2
:106AC0001A70BDE8F883CA22F6E6CA22ECE7CA22A9
:106AD000CBE7CA22A5E7CA227FE7CA2258E7CA2223
:106AE00031E7CA2208E700BFD46400205D680020B7
:106AF000982A0400D0630020AC660020B82A040065
:106B00009467002008600020F82C0400142D040075
:106B10006C2C0400802C04009C2C0400B82C040075
:106B2000D82C04002DE9F843A54803F04FFD0028B8
:106B300000F04381A34EA44FA14DDFF8C88208E0C6
:106B400003F094FD3368C0B25A1CF85488F8000072
:106B50003260284603F03AFD04462846002CEFD167
:106B60003A783F2A00F01C81A2F16103D9B21129C1
:106B700043D8112B41D8DFE813F0AA007C00400075
:106B8000400040004000D90040004000400040006C
:106B900040004000400040004000400012008B4A8E
:106BA0008B4B8C4F07CA03C31946384601F8082996
:106BB000002305E00133C92B00F8012B00F0F3801E
:106BC00011F8012B002AF5D15A1C834909780A20B3
:106BD000F85419B17F49814803F098FD804DFF2199
:106BE000286813F029FA6868FF2113F025FAFF21BD
:106BF000A86813F021FA7B49C7E0DFF8D481754F0C
:106C000088F800200025404688F8015019F0E1FB83
:106C1000DFF8F4C18146BCE80F0008EB090E48F824
:106C20000900BCF800909CF802C0CEF80820CEF80D
:106C30000410CEF80C304046AEF810908EF812C01A
:106C40003A4605E00135C92D02F8013B00F0B3805A
:106C500010F8013B002BF5D16A1C5F4B1B780A2111
:106C60007955002B00F097805A495C4803F04EFD9F
:106C700091E05D4A564B574F07CA03C31946384641
:106C800021F80829002305E00133C92B00F8012B66
:106C900000F08F8011F8012B002AF5D15A1C4E49C3
:106CA00009780A20F85419B14A494C4803F02EFDDE
:106CB0004B4DFF21286813F0BFF96868FF2113F0DE
:106CC000BBF9FF21A86813F0B7F948495DE0484ACD
:106CD0003F4B404F07CA83E8070019463846002358
:106CE00004E00133C92B00F8012B60D011F8012B0F
:106CF000002AF6D15A1C384909780A20F85419B1EB
:106D00003449364803F002FD354DFF21286813F061
:106D100093F96868FF2113F08FF9A868FF2113F039
:106D20008BF9344B4FF0FF321A6034E0324A284B73
:106D3000284F07CA03C323F8022B1946120C01F887
:106D40000A293846002304E00133C92B00F8012B3F
:106D50002BD011F8012B002AF6D15A1C1E490978B4
:106D60000A20F85419B11B491C4803F0CFFC1C4DF4
:106D7000FF21286813F060F96868FF2113F05CF9BF
:106D8000FF21A86813F058F91C491A4A09681C4BDE
:106D90001160FF221A60002333602046BDE8F883AB
:106DA000FFF754FDF7E7CA220FE7CA22D6E7CA2247
:106DB000A1E7CA2273E7CA224FE74FF0FF34ECE79E
:106DC00094660020D0640020D8640020342D040094
:106DD00094670020D0630020D4640020AC660020BB
:106DE00024600020306000204C2D0400046000204E
:106DF000282D040090670020402D04002060002012
:106E00001C600020D8650020582D04002DE9F843AF
:106E1000A44B1B78002B00F09080A34B1B78002B19
:106E200000F08880A14F3B68002B5CDCA04B1B78F6
:106E3000002B74D1DFF8C88298F80030002B76D18F
:106E40009C480FF02FFCC0B39A4D9B4EDFF8B492D4
:106E500028460FF027FC80B328460FF02BFCC4B265
:106E60000D2CF5D00A2CF3D0314628460FF090FABD
:106E7000214628460FF02EFB682C20D03F2C1ED038
:106E8000612C00F0F380722C60D0622C00F09180B5
:106E9000672C00F0BB80742CDAD13024E1B2284694
:106EA00001340FF0A3FA7B2CF8D128460FF0A2FA98
:106EB00028460FF0F7FB0028CED1BDE8F8834946FD
:106EC00028460FF065FA7D4928460FF061FA7C49A3
:106ED00028460FF05DFA7B4928460FF059FA2846FC
:106EE0000FF088FAB4E70FF059FF774A7749136833
:106EF00009680B44984299D9754B764C19682568F6
:106F000010602944FE291BDC7F2940F3C0801960F2
:106F1000386813F091F8664B1B78002B8AD0DFF8A5
:106F2000E081FFF7DBFB98F80030002B88D0FFF7FB
:106F3000F9FD85E7FFF78AFC74E7FFF72DFA6CE7A8
:106F4000FF216FF0070219602260E1E7624A634B9C
:106F5000634C07CA03C31946204601F808290023D9
:106F600005E00133C92B00F8012B00F0958011F8E2
:106F7000012B002AF5D15A1C98F800100A20E05481
:106F800019B15749574803F0C1FB574CFF212068FE
:106F900013F052F86068FF2113F04EF8A068FF214B
:106FA00013F04AF8514A1268494B3A60FF221A60BE
:106FB0004EE74F4A494B4A4C07CA03C3194620467D
:106FC00021F80829002304E00133C92B00F8012B24
:106FD00064D011F8012B002AF6D15A1C98F8001041
:106FE0000A20E05419B13E493E4803F08FFB3E4C65
:106FF000FF21206813F020F86068FF2113F01CF8CF
:10700000A068FF2113F018F83A4ACCE73A4A334B0C
:10701000334C07CA03C323F8022B1946120C01F89C
:107020000A292046002304E00133C92B00F8012B74
:1070300036D011F8012B002AF6D15A1C98F800100E
:107040000A20E05419B12649264803F05FFB264C7C
:10705000FF21206812F0F0FF6068FF2112F0ECFFC2
:10706000A068FF2112F0E8FF244A9CE71E4CFF2194
:10707000206812F0E1FF6068FF2112F0DDFFA068D8
:10708000FF2112F0D9FF4FF0FF333B6015E77F215E
:107090000822196022603BE7CA226DE7CA229DE7F9
:1070A000CA22CBE75E6800205D6800209067002060
:1070B00034600020D08E00206C2D0400982D040038
:1070C000882A0400086000208C67002014600020DB
:1070D0001C60002018600020342D040094670020FC
:1070E000D0630020AC6600202460002030600020C7
:1070F0004C2D040004600020402D0400206000207E
:10710000D4640020742A040072DF704773DF704774
:1071100077DF704738B5054608460C4602F0B2FAEC
:10712000102803D080280ED0012038BDEB7FA28824
:107130001B2B0EDCE9180320E85448704A80EB7FD3
:107140000433EB77F0E7A368002BEDD0E97F0D293E
:1071500001DD002038BD6A181120685407215170E4
:1071600058681C689968DB68C2F80E30C2F80600DF
:10717000C2F80240C2F80A10EB7F1233EB7701200D
:1071800038BD00BF10B500210446C1771F2218F09A
:107190002DFA204610BD00BF30B5D1E9042485B0DA
:1071A000CD68074B00936946CDE902240195FFF7AE
:1071B000B1FF0446684602F037FA204605B030BDFC
:1071C000102E0400F0B589B0064620221348694607
:1071D00002F0E6FEF37FC2181D2A0CDDC3F11D0488
:1071E000E4B2E2181D2A4FF00005D8BF082705DDDC
:1071F000284609B0F0BD044601250927F218601C95
:10720000F05469465770901C224618F0C7F9F27F77
:10721000023214442846F47709B0F0BD8468002097
:1072200010B50446094802F019FFE37F1C2B01DD6D
:10723000002010BDE2180221E1540A23907053701F
:10724000E37F0333E377012010BD00BF8468002093
:10725000C27F1C2A01DD0020704710B403469C1831
:10726000022098540120A1706070DA7F0332DA772F
:107270005DF8044B704700BF10B51F220446002183
:1072800018F0B4F9064B0749074A23620023E37755
:10729000C4E90C12C4E90E33E3622364204610BD36
:1072A000FF0101002000F40020001E00C18670478D
:1072B000018681864286704780F82210704700BFA1
:1072C000F0B502EB820389B0154603EB830390F817
:1072D00021209B0004460020CDE90410ADF81430B5
:1072E000931E0290CDE906000E4603908DF808200B
:1072F000092B09D8DFE803F005050808080508058B
:10730000080504F1240303931D4B1A68D20709D41E
:107310001C491D4AC87FE77F90810120146091605D
:1073200097801860184902AA04F12000FFF7ECFECC
:1073300010B1002009B0F0BD94F82010134801915D
:1073400002F08CFE019902460120FFF7E1FE0028C1
:10735000EFD194F820000121FFF7D8FE0028E8D1F2
:107360000A4802F0D9FE628FA686AA424FF00100B9
:1073700094BF921A521B628784F8230009B0F0BDB3
:107380006C680020086F002070680020846800206E
:10739000F0B5002361F30F03044661F31F4389B086
:1073A0008363FA212F4802F061FEE58E94F82110E4
:1073B000268E049605EB850303EB830300229B00D6
:1073C0000592ADF814308B1E0292CDE9062203928D
:1073D0008DF80810092B09D8DFE803F00505080827
:1073E00008050805080504F1240303931E4B1A68D9
:1073F000D20709D41D491E4AC87FE77F908101202A
:107400001460916097801860194902AA04F1200065
:10741000FFF77AFE10B1002009B0F0BD94F82010FB
:107420001048019102F01AFE019902460120FFF76F
:107430006FFE0028EFD194F820000121FFF766FECF
:107440000028E8D1074802F067FE638FA6869D42B8
:107450004FF0010094BF5B1BDB1A638784F82300A5
:1074600009B0F0BD846800206C680020086F00201F
:107470007068002030B50B888D88112B85B00446CC
:1074800005D0262B33D0102B25D005B030BDC36AD4
:10749000EB40DB07F9D52E4801F08EF90028F4D136
:1074A000E36A94F82310012202FA05F523EA0503A2
:1074B000E3620029E9D194F82230002BE5D0238F34
:1074C00023486387FA2102F0D1FDE28E218E204607
:1074D000FFF7F6FED9E7CB7B012BD6D1C26A03FAC0
:1074E00005F515430023C56280F82330CDE70B7AFC
:1074F000012BCAD1002380F823304FF4FA711448CD
:1075000002F0B4FD238F5BB1658F95B1236C0BB195
:107510009847658F618E2A462046FFF7D1FEB4E773
:10752000236C03B19847618E00222046FFF7C8FE06
:10753000ABE7074802F004FEE26B002AA5D00095F5
:1075400003AB29462846039512F050FB9DE700BF88
:107550008468002075DF704710B44FF010144FF4AA
:1075600048010022C0E90041C0E902225DF8044B55
:10757000704700BF014800F021BF00BF7C6F0020B2
:10758000F8B500250D4F2E4601E0142D14D0A9B2F8
:10759000384602F0A9FD013504460028F5D000F078
:1075A000B1FD0028F1D0204600F0B6FD022804BF4E
:1075B0000136F6B2142DEAD13046F8BD84680020B9
:1075C00070B58E881B480C4694B0314602F08CFD95
:1075D00023881A2B05D01F2B1CD0102B0FD014B0D2
:1075E00070BD054600F090FD0028F8D0284600F058
:1075F0008DFD0028F3D1284600F0F8FDEFE769463D
:1076000000F0DCFD0028EAD06A4631460A4801F065
:107610006BFCE4E754F8080F61686B4603C330461F
:10762000BDF80030ADF802306946FFF793FF14B0A3
:1076300070BD00BF84680020A4680020AADF7047E6
:10764000ABDF7047ACDF7047ADDF7047AEDF704730
:10765000B0DF704710B5044B044640F8043B01F01E
:10766000E3FF204610BD00BFC82D040010B5054B38
:10767000044640F8043B01F0D7FF204611F042FFDA
:10768000204610BDC82D040070B57B4B04461B6816
:10769000836196B0043002F005F894F82E30A069AA
:1076A00013F0320208BF84F82F2013F00C0308BF38
:1076B00084F830300DF10102694601F0ABFF94F817
:1076C0002F209DF8010015070DD09DF8001002F045
:1076D0000F0301F00F059D424FEA12126DD243EAEB
:1076E000021284F82F2094F8303019070BD003F0E1
:1076F0000F0100F00F058D424FEA131369D241EAE2
:10770000031384F8303094F82E1011F0300340F059
:1077100096800FAD0F93C5E90133C5E903338DF8AA
:107720003C10AB610021ADF809109DF80A10206AE9
:107730001493012363F342018DF808208DF80A1099
:1077400008B1037873BB94F8263013B104F1260313
:10775000129394F831200023D2070893079358BF5F
:10776000E38AADF81C3004F1080004F12F01CDE9E3
:10777000050154BF1846E08AADF82000294604F1FF
:107780003203E569099505AA0020FFF757FF054672
:1077900028B994F8253043BB237D002B64D02846BC
:1077A00016B070BD109018F014FE02AB80B2ADF8A8
:1077B0004400ADF846001393C5E74FEA111101D11B
:1077C00091428CD30A462B4643EA021284F82F20BA
:1077D00089E74FEA101001D1984290D30346294619
:1077E00041EA031384F830308DE7ADF80D009DF8C1
:1077F0000E2094F82F600C90012363F3420242F6AE
:1078000008118DF80E208DF8123004AA0223ADF86D
:10781000101003A90D90ADF83030ADF834300A9255
:1078200004F124030B910DF102020AA98DF80C60FA
:107830000E93FFF705FF0028AED00546AFE70F4BCC
:107840008DF805200FAD1B788DF804300220002341
:107850000F938DF80600C5E90133C5E90333AB6129
:107860008DF83C1001AB5DE72146054800F066FF4E
:10787000284616B070BD00BF80680020BC2D0400F3
:10788000C46C00202DE9F0410B888E88502B8AB003
:107890000C46054609D0512B04D18B79012B19D008
:1078A000022B26D00AB0BDE8F081CB88428E9A42E6
:1078B00035D0EA8E9A42F5D16B6D002BF2D095F857
:1078C0004420648A920700F18A8022462946304685
:1078D0009847E7E7836C002BE4D090F844205207E8
:1078E00001F108076CD43A46294630469847A379F7
:1078F000D6E7A27B042A46D0062A20D0012AD1D17D
:10790000EB6C002BCED095F84420170704F1080447
:1079100000F1A5802246294630469847C2E7076D08
:10792000002FC6D090F84430D90768D404F112086B
:10793000238A424629463046B847E388B9E7EA6BCE
:10794000002AAFD0002202A93046CDE90222CDE9BB
:107950000422ADF80C208DF80830FFF779FE2C6D6D
:1079600054B195F84430D80700F19280B5F8423010
:10797000EA6B30462946A047E86B0FF051FA002326
:10798000C5E90F338EE7E86B002878D0B5F84010D2
:10799000278A628A07EB020C00234FF0020E8C4507
:1079A000CDE90633CDE908338DF818E039DD40F232
:1079B0000913ADF81C3006A93046FFF749FE71E700
:1079C00003211A46009106AB08213846CDE9066529
:1079D000089712F00BF9002889D1AB6C83E70320DC
:1079E00000211A46009006AB0846CDE906650894CA
:1079F00012F0FCF800287FF455AF6B6D65E7218A23
:107A0000069604F11208042300933A46404606AB5A
:107A1000CDE90881079512F0E9F800288DD12F6D86
:107A200086E79DF81EC0ADF81C3004F114014CF03F
:107A300001033844ADF822208DF81E300991ADF8CD
:107A4000207017F0ABFD238A618AB5F842200B4401
:107A50009BB2934238BF1346A5F84230ABE70321EF
:107A60001A46009106AB0E212046CDE90665089422
:107A700012F0BCF800287FF415AFEB6C4AE74FF426
:107A800080600FF0B3F94FF48061C5E90F017FE723
:107A9000E86BB5F84210069604230093224606AB25
:107AA000CDE90750099112F0A1F800287FF464AFE6
:107AB0002C6D5BE72DE9F04F0F464FF6FF718F42BB
:107AC00089B0064615461C4626D0F18A96F82E3017
:107AD0008C4228BF0C46DB0615D40DF1100B8C42EE
:107AE00028BF0C464FF00008718EADF810405A4682
:107AF0004FF6FF700595ADF81280FFF7A3FD4046E5
:107B000009B0BDE8F08F3948394602F0D5FA08B11E
:107B1000F18E31B9F18AE0E7344802F0D9FA07462C
:107B2000D3E7002002230DF1100BADF81200ADF8E1
:107B300010305A460DF10E0338460593FFF784FDC9
:107B400043F2014398424FD000284AD19DF80E805D
:107B500008F00108B8F1000F46D02448394602F079
:107B6000C3FA8246A0B300F0D9FA033883B2002CDE
:107B7000C5D0CDF804804FF00009984605E0BDF867
:107B80000E30E41AA4B21D4444B3504600F0E4FAA7
:107B9000A04503464246594628BF22463846BBB157
:107BA000ADF80E204FF00102738E8DF812200DF10A
:107BB0000E02CDE90625CDF813908DF81790ADF89B
:107BC0001030FFF743FD0028D9D0504600F0CEFA20
:107BD0004FF00008404609B0BDE8F08FDDF80480A2
:107BE0008DE700F00108B5E7F18A78E784680020A6
:107BF00010B5154B044640F8043B01F01DFD134A37
:107C00000023127884F8443014200321A384C4F89C
:107C10002630C4F82A3084F82E30E082C4E90F33CD
:107C2000C4E91233C4E9143384F831102375A36115
:107C30002362E36163866363238784F82F2084F8DB
:107C40003020204610BD00BFC82D0400BC2D04000C
:107C500070B44E68164A86600260D1E90262154B24
:107C6000154D1C7845600261142500220321C0E9EE
:107C70000F22C0E91222C0E91422C660C58280F832
:107C8000311080F844200275826102628284C0F85B
:107C90002620C0F82A2080F82E20C2614286426346
:107CA000028780F82F4080F8304070BC704700BFDA
:107CB000C82D0400BC2D0400102E040010B4D1E91E
:107CC0000142CB680361C0E902425DF8044B704792
:107CD0008069704701230375704700BF80F82E103C
:107CE000704700BFC182704741B190F83130C18206
:107CF000002262F3000380F83130704790F8313091
:107D0000012262F3000380F83130704780F82F10B1
:107D100080F83020704700BF90F84430016562F36E
:107D2000000380F84430704710B490F8443090F865
:107D30003140C164003918BF012161F3041462F3BA
:107D4000C30380F8314080F844305DF8044B70473D
:107D50000162704751F8322F0260496841607047F4
:107D600030B5C48A83B0944223460D4628BF1346DB
:107D7000418E019500246A464FF6FF70ADF8003041
:107D8000ADF80240FFF75EFC18B9BDF8000003B083
:107D900030BD204603B030BD30B5C38A85B00A4639
:107DA000022B28BF0223418EADF8062000240DF1DE
:107DB000060502AA4FF6FF70ADF80830ADF80A408C
:107DC0000395FFF73FFC18B9BDF8080005B030BDBA
:107DD000204605B030BD00BF90F82E3013F01003E0
:107DE00001D11846704730B5044685B011480D469C
:107DF00002F062F910B1E18E11B9084605B030BD4C
:107E00000DF1060328460024022502AA0393ADF8CB
:107E10000A40ADF80850FFF717FC43F201439842BF
:107E200006D008B99DF8060000F0010005B030BD8D
:107E30002046E3E78468002010B490F82E4014F048
:107E4000100403D05DF8044BFFF734BE20465DF804
:107E5000044B7047A1DF7047A3DF7047A4DF704772
:107E600000238383704700BF006A00F0E3B800BFBF
:107E7000808B70472DE9F0410B88CE88382B86B077
:107E80000C46054606D0392B66D0362B43D006B0BB
:107E9000BDE8F08100F12407002E36D10A8A384669
:107EA000314603F095F894F80C80B8F1010F2CD00E
:107EB000B8F1040FEBD1286A00F0BCF801465C4829
:107EC00002F012F900F02AF92A8E053883B29342A3
:107ED00028BF1346002B00F09A80218AE289286A85
:107EE000AC8B8DF80D600A44E96A05918DF80C8021
:107EF000ADF81230ADF81020ADF80E4000F09AF851
:107F000003A9FFF7A9FF0028C1D0384603F078F88D
:107F100006B0BDE8F081006A00F08CF801464448E4
:107F200002F0E2F800F0FAF807466EBB05F124060D
:107F3000E289304604F1100103F04AF82B8E2BB190
:107F4000F81EE38980B20138834255DA304603F0E7
:107F500057F806B0BDE8F0810B7B012B1AD0022B3D
:107F600095D1836B002B92D090F83C208F8892079C
:107F70001FD401F11006E2893146284698476189ED
:107F80003846FFF76BFF82E705F12407384603F018
:107F900037F8BDE7436B002B3FF479AF90F83C20F6
:107FA000D10717D404F11006E289314628469847D4
:107FB0006DE7C989039004F1100603201A4600906A
:107FC00003AB3046CDE9046111F010FE0028D6D194
:107FD000AB6BD0E7E189039004F1100603201A4649
:107FE000009003AB3046CDE9046111F0FFFD00289D
:107FF0007FF44DAF6B6BD7E7286A00F01BF86A8EF1
:10800000A98B92B2FFF726FF00289FD13FE7AA8BEA
:10801000286AADF80E2040F20511ADF80C10CDE93C
:10802000043300F007F803A9FFF716FF6DE700BF60
:10803000846800208088704776DF70478FDF704744
:1080400090DF7047B1DF7047B5DF704710B5074B61
:1080500003600446806A0FF08FFDE06A0FF08CFD2C
:10806000206B08B10FF088FD204610BDE02D040004
:1080700010B5094B03600446806A0FF07DFDE06A8D
:108080000FF07AFD206B08B10FF076FD204611F05D
:1080900039FA204610BD00BFE02D040070B504463B
:1080A0000D4692E80300A5800E0CA061A183144D3B
:1080B000A67717201B2156892560E0809589D089F5
:1080C000E181D1796581012222752274A0816174D8
:1080D0001846194626819DF810500EF06BFF294670
:1080E000A06228460EF066FF4FF4885100234FF639
:1080F000FF72E182E062628223636375204670BD95
:10810000E02D0400007D7047407D7047C07D113830
:1081100018BF0120704700BF407C7047C08870477F
:10812000008970474B7D10B44BB11F310C688A88B1
:108130008B79046082805DF8044B8371704718313D
:10814000F4E700BF08B513218088FFF775FFB0FA88
:1081500080F0400908BD00BF08B56621806A0FF0B5
:1081600083FB003818BF012008BD00BF08B50023FD
:108170001A461946806A0EF04FFF003818BF0120DA
:1081800008BD00BF818800F11F02407C02F07EBF65
:1081900038B50A4605460C468188407C02F062FFED
:1081A0002146012051F8483FC5F81F308B888A7955
:1081B00085F82520A5F82330687538BD38B50A46FE
:1081C00004460D4600F11801407C02F095FF6075F1
:1081D00050B1294651F8483FC4F81F308B888A793E
:1081E00084F82520A4F8233038BD00BF10B5447DA5
:1081F00024B100F11F01407C02F05CFF204610BD5D
:1082000070B50B88113B82B00C460546462B2BD827
:10821000DFE803F0383B2A2A2A2A2A2A2A422A2A75
:108220002A2A2A2A50585E642A2A2A2A2A2A2A2AEC
:108230002A2A2A2A2A2A2A2A2A2A2A2A2A672A94F7
:108240002A2A2A2A2A2A2A2A2A2A2A2A2A2A2A2A8E
:108250002A2A2A2A2A246A2A752C84000023A8881C
:108260001A461946FFF7EEFE02B070BD8B79002B5F
:10827000FAD1006BAB750028F6D01A4619460EF0FD
:10828000CBFEF1E700230375EEE74B8903818B8971
:108290004381CB898381E7E70B7AC375112BE3D048
:1082A000818800F11F02407C02F0DEFF03460028B7
:1082B000DAD1D4E7002301A98088ADF80430FFF7B4
:1082C000BDFED1E70B7A002BCED14B7A0374CBE7FE
:1082D000002211468088FFF7B3FEC5E70B89C381F2
:1082E000C2E74B89C380BFE7006B0123AB75002851
:1082F000BAD000231A4619460EF08EFEB4E7417C30
:10830000164801F0E9FEE3880146994228BF194664
:1083100089B2A888E980FFF797FEA5E78B79002B43
:10832000A2D0002600231A461946A86A0EF074FE51
:108330000136A279F3B29A42F4D895E78B7A002BF2
:1083400092D0002600231A461946E86A0EF064FE11
:108350000136A27AF3B29A42F4D885E78468002005
:1083600070B58AB086880B4606A84FF4285114468B
:1083700005934FF6FF7501F069F90120CDE901057C
:10838000059B0094314606AA044800F073F80446A1
:1083900006A801F049F920460AB070BDC46C00205F
:1083A00010B50446043002F0AFFD034B23600023F8
:1083B0002375204610BD00BF0100FFFF017D01B104
:1083C000704710B50446043002F0A8FD0123237560
:1083D00010BD00BF007D70470B88322B10B504D054
:1083E000332B1ED0302B0FD010BD4A8932B1002361
:1083F0000133DBB29342FBDBCB881BB3041D204669
:10840000BDE8104002F0FCBDCB88041D002BF6D166
:108410004B89002BF3D00A3120460A2202F0D8FD06
:10842000EDE7CB88002BE9D14A89002AE6D002EBA0
:1084300042025200041D023292B20A31204602F07A
:10844000C7FDDCE702EB8202F3E700BFA0DF704765
:1084500010B5044600F5F87002F056FD2046F822EB
:10846000002117F0C3F8F822A018002117F0BEF879
:10847000204610BD2DE9F04782B00546BDF82C60BE
:10848000BDF830402048ADF80460BDF828A0ADF834
:108490000640904699460F4601F026FE05F5F87510
:1084A000064603E0FFF73CFE0EF084FC284602F08F
:1084B0008DFD04463046002CF4D10121284602F0FF
:1084C0002DFD52464946284602F044FD08F10401BC
:1084D000384601AAFFF7BAFF30B1284602F028FD5E
:1084E000204602B0BDE8F0874FF4FA71284602F04A
:1084F00037FD20EAE074284602F01AFDA4B22046B7
:1085000002B0BDE8F08700BF846800202DE9F04F7D
:108510008F880D8885B0884604463946864801F024
:10852000E3FDA5F11003012B814640F2908094F801
:1085300054203AB3002633461633502D54F823A066
:1085400069D0512D1AD198F80630B8F808B0022B2E
:1085500053D0BBF1000F11D051466846FFF7FAFB2C
:10856000BDF800305B4559D0514602A8FFF7F2FB39
:10857000BDF80C305B4551D094F854200136F3B26D
:108580009342D9D394F84C31002B00F0D18004F5FC
:10859000A679002604E094F84C310136B34220DD80
:1085A00059F8040FFFF760FCB842F4D1382D03D01E
:1085B000392D01D0362DEED1B8F80AA0BAF1000F4E
:1085C000E9D0D9F800B05846FFF752FC5045E2D147
:1085D00058464146FFF74EFC94F84C310136B34201
:1085E000DEDC112D55D0352D04D1B8F80A30002B22
:1085F00040F08F8005B0BDE8F08F98F80E30062B64
:10860000A7D1DAF800305046DB6841469847484623
:10861000FFF77CFDB0E7B8F806B09AE7DAF800306B
:108620005046DB68414698474846FFF76FFD0028F3
:10863000A2D0502DA0D1514602A8FFF78BFBBDF868
:108640000C305B4598D14846FFF79CFD94E72378B2
:10865000002B3FF46CAF0026112D33460CD004EBF9
:1086600083033946586803685B6898470136227867
:10867000F3B29A42F3D85AE704EB830339465868B9
:1086800003681B68984701362278F3B29A42F3D800
:108690004DE7D3B10026334605E094F84C2101366E
:1086A000F3B29A4211D904EB8305D5F85001FFF7D4
:1086B000DBFBB842F1D1D5F85001FFF7D1FB013611
:1086C00094F84C21F3B29A42EDD894F8F820002A9D
:1086D00090D000252B4604EB8303D3F8FC0083885D
:1086E000BB420AD00135EBB2934283D204EB830341
:1086F000D3F8FC008388BB42F4D103681B68984719
:10870000013594F8F820EBB29342E4D305B0BDE80C
:10871000F08F04F5F874B8F80C20204608F1100129
:1087200002F056FC204605B0BDE8F04F02F068BCF0
:10873000112D7FF458AFC8E78468002090F85420CA
:10874000272A0CD810B4034602F11604013280F82F
:10875000542043F8241001205DF8044B704700209A
:10876000704700BF0378132B06D800EB8302013358
:1087700003700120516070470020704778DF704718
:108780007ADF7047054A034692E80300002283E837
:108790000300C3E902221846704700BFE82D040019
:1087A00008B5FFF7EDFF08B1002008BDFFF7E6FFB1
:1087B000B0FA80F0400908BDF8B500250D4F2E46EF
:1087C00001E0142D14D0A9B2384601F08DFC01351A
:1087D00004460028F5D0FFF795FC0028F1D020468C
:1087E000FFF79AFC012804BF0136F6B2142DEAD136
:1087F0003046F8BD8468002081607047C1607047D2
:10880000704700BF8ADF704730B40D4CC4621F252B
:10881000002250248584A025C0E91122C0E90F223E
:10882000A0F84650A0F84840006230BC8262028640
:1088300080F838204263C264A0F85020704700BF1F
:10884000000180002DE9F04F10468DB016460C4611
:1088500000F018FFC5B2102D4FD0B66807220623CE
:10886000A16994F81C9001918DF80D208DF80C30C1
:10887000ED080DF10C080DF10E0A0027B9F1010FFA
:108880000A97CDE90477CDE90677CDE90877CDF8E9
:108890002B700ED998F8000001994B464A78824215
:1088A0000FD00A78D4432344013213F0FF0311445C
:1088B000F4D108F10108C245E0D100200DB0BDE8B7
:1088C000F08F11F8024B013CE4B2224604A816F0E6
:1088D00065FE0DF1100B1CB9EBE714F0FF04E8D0B6
:1088E00058462A46314616F04BFE641BAB4400281E
:1088F000F3D101200DB0BDE8F08F0436032202232E
:10890000AEE700BF2DE9F0430B888E88103B87B09F
:108910000D4604460D2B2CD8DFE803F077072B2BF0
:108920002B2B2B2B2B2B2B842B2E836AF340DB073B
:108930001FD55648FEF724FED8B9A36A94F82C2018
:10894000012505FA06F623EA0606A6628AB994F816
:108950002D3073B11F232462A38404F1200104F19C
:108960004400FFF74FFF20B9494801F0D5FB84F8D8
:108970002C5007B0BDE8F08390F92E2091F91B3000
:108980009A423ADC90F8383001F108080BB3DFF86E
:108990000491002602E0D6B2B34218D9636BCDF839
:1089A000089003EB061302AA59680391D3E90273F6
:1089B0004146204605930497FFF744FF074602A867
:1089C00000F032FE94F83830721C002FE3D09E4243
:1089D00013D094F82F30002B49D095F82430012B78
:1089E0000BD9296A4A78FF2A30D00A78D043034449
:1089F000013213F0FF031144F4D104F120010020EF
:108A0000FFF700FF07B0BDE8F083CB7B022BB0D1AE
:108A1000836A012202FA06F633430022836280F859
:108A20002C20A6E70B7A012BA3D1002580F82C502F
:108A3000174801F085FB226C002A9AD0009502AB02
:108A400029462846029511F0D1F892E711F8025B09
:108A50006A1ED2B2022A28BF022202A816F09EFD88
:108A6000012DCAD0228EBDF808309A42C5D1E26BE2
:108A7000002A3FF47EAF01230093404602AB24213D
:108A8000CDF8088011F0B2F873E700BF94680020B9
:108A900084680020102E040046DF70477FDF704797
:108AA00080DF704781DF704785DF704786DF704762
:108AB00038B51C460D4603461146284622469847BF
:108AC00034B1014600222846BDE83840FFF7E8BF30
:108AD00038BD00BF10B50C4682B00346694620463B
:108AE00098476A4620460121FFF7DAFF02B010BD21
:108AF00010B50446083002F0FFFD074B2360032247
:108B000000232271C4F81034C4F81434C4F81834A3
:108B1000C4F81C34204610BD3507100330B5044698
:108B2000ADF55F7D00F108058F4802F079FD082161
:108B3000284602F0E5FD684602F0ECFD6846082193
:108B400002F0ECFD6946284602F08AFD04F54F71FB
:108B50004122684602F0F0FD684602F0E9FD94F813
:108B60005C0394F85B2394F83D1394F83E3384F847
:108B70003D0384F83E2394F85A0394F8592394F85B
:108B80003F5384F85C1384F85B3394F8401394F8F3
:108B9000413384F83F0384F8402394F8580394F851
:108BA000572384F85A5384F8591394F8425394F88D
:108BB000431384F8410384F8583394F8560394F827
:108BC000443384F8422394F8552384F8575384F8A7
:108BD000430384F8442384F8553384F8561394F8F7
:108BE000451394F8540394F8532394F8463384F8C7
:108BF000450384F8462394F8520394F8512394F8DB
:108C0000475384F8541384F8533394F8481394F872
:108C1000493384F8470384F8482394F8500394F8C0
:108C20004F2384F8525384F8511394F84A5394F81C
:108C30004B1384F8490384F8503394F84E0394F8A6
:108C40004C3384F84A2394F84D2384F84F5384F826
:108C50004B0384F84C2384F84D3384F84E1394F876
:108C60005D1394F87C0394F87B2394F85E3384F8C6
:108C70005D0384F85E2394F87A0394F8792394F8DA
:108C80005F5384F87C1384F87B3394F8601394F872
:108C9000613384F85F0384F8602394F8780394F8D0
:108CA000772384F87A5384F8791394F8625394F80C
:108CB000631384F8610384F8783394F8760394F8A6
:108CC000643384F8622394F8752384F8775384F826
:108CD000630384F8642384F8753384F8761394F876
:108CE000651394F8740394F8732394F8663384F846
:108CF000650384F8662394F8720394F8712394F85A
:108D0000675384F8741384F8733394F8681394F8F1
:108D1000693384F8670384F8682394F8700394F83F
:108D20006F2384F8725384F8711394F86A5394F89B
:108D30006B1384F8690384F8703394F86E0394F825
:108D40006C3384F86A2394F86D2384F86B03012054
:108D500084F86F5384F86E1384F86C2384F86D33B1
:108D60000DF55F7D30BD00BF187000200B7803F05B
:108D7000FE03042B01D00020704770B515468CB05F
:108D80000C462022002104A816F030FC28686968EF
:108D9000AA68EB686D460FC59DF800109DF80F207E
:108DA0009DF801609DF80E509DF802008DF80F109F
:108DB00023469DF80D108DF800209DF803208DF8B6
:108DC0000E608DF801509DF80C609DF804508DF8F0
:108DD0000D008DF802109DF80B009DF805108DF820
:108DE0000C209DF80A208DF803608DF80B508DF84B
:108DF00004008DF805208DF80A109DF8061033F850
:108E0000042FADF810209B789DF809209DF81D00D7
:108E10009DF810609DF81F508DF809108DF8062000
:108E20009DF811109DF81E208DF81D309DF807301B
:108E30008DF812008DF81F609DF808009DF81360F2
:108E40008DF810508DF81E109DF81C509DF81410D0
:108E50008DF811208DF808309DF81B209DF81A30F0
:108E60008DF807008DF81C608DF813509DF8156083
:108E70008DF81B108DF8142068468DF815309DF87C
:108E800019109DF817209DF818309DF816508DF890
:108E900018208DF816108DF817308DF81A608DF89F
:108EA0001950FFF7F9FD62789DF82F309DF82E00DC
:108EB0009DF82D108DF821009A428DF8221004F1B2
:108EC000010404D0012080F001000CB070BD627874
:108ED000C3B29A4204F10104F4D16278CBB29A424F
:108EE000F0D10020EFE700BF08B5137CDB0758BFC7
:108EF0001C32084602F11201FFF7D6FDB0FA80F0ED
:108F0000400908BDF0B58F880E46ADF56B7D04466F
:108F10003946464801F0E8F83388133B0546072BED
:108F20002FD8DFE813F03E005F006D002E0028030D
:108F3000870008003100337AB3B9737B9B070ED4E6
:108F4000294602A8FFF7EEF80299BDF80C209DF81B
:108F50000E3084F80C34C4F80614A4F80A24284609
:108F600004F2BE31FFF714F9D4F818244AB1307A6C
:108F70000D9002230021009308460CAB0C9710F0D3
:108F800035FE0DF56B7DF0BDD4F81C24002AF8D019
:108F900001230021009308460CAB0C9710F026FE2D
:108FA000EFE704F2BE3304F2DA320C9304F2F63344
:108FB00000251092119304F23D3204F27E330F9299
:108FC0001393CDE90D551295FFF7A6F801280CBFB4
:108FD00022462A460CAB29463846FFF75FFD0DF5C1
:108FE0006B7DF0BD0CA9FFF7E9F80346002800F0FF
:108FF000D2820CA9384600231AAAFFF757FDC0E712
:10900000D4F810140029BCD0B37B094A03F0010343
:109010000F930423CDE90C1706F1080000930621F5
:109020000CAB0E9010F0E2FDABE700BF84680020AF
:10903000B18A020094F87E3394F89D2394F87FC39C
:1090400094F89C6394F8805394F89B0384F89D33C0
:10905000042194F89A3384F87D1384F87E2394F8DD
:10906000811394F8822384F89CC384F87F6394F876
:1090700099C394F8836384F89B5384F8800394F82D
:10908000985394F8840384F89A1384F8813394F8FD
:10909000971394F8853384F8992394F8962384F8E9
:1090A00082C384F8986384F8835384F8970384F820
:1090B000841384F8852384F8963394F8862394F8EF
:1090C000953394F887C394F8946394F8885394F88C
:1090D000930394F8891384F8952384F8863394F8DD
:1090E000922394F88A3384F894C384F8876394F8BD
:1090F00091C394F88B6384F8935384F8880394F8AD
:10910000905394F88C0384F8921384F8892394F88C
:109110008F1394F88D2384F8913394F88E3384F868
:109120008AC384F8906384F88B5384F88F0384F89F
:109130008C1384F88D3384F88E2394F89E2394F84E
:10914000BD3394F89FC394F8BC6394F8A05394F88B
:10915000BB0394F8A11384F8BD2384F89E3394F8DC
:10916000BA2394F8A23384F8BCC384F89F6394F8BC
:10917000B9C394F8A36384F8BB5384F8A00394F8AC
:10918000B85394F8A40384F8BA1384F8A12394F88C
:10919000B71394F8A52384F8B93394F8B63384F858
:1091A000A2C384F8B86384F8A35384F8A41384F8A2
:1091B000B62384F8A53384F8B70394F8A60394F88B
:1091C000B51394F8A72394F8B43394F8A86394F8EB
:1091D000B35384F8B50384F8A61394F8A90394F85C
:1091E000B21384F8B42384F8A73394F8AA2394F82C
:1091F000B13384F8B36384F8A85394F8AB6394F85C
:10920000B05384F8B20384F8A91394F8AC0394F82B
:10921000AF1384F8B12384F8AA3394F8AD2394F8FB
:10922000AE3384F8AD3384F8AE2384F8B06384F8A9
:10923000AB5384F8AF0384F8AC130CA802F06AFABD
:109240000CA8082102F06AFA04F27D310CA8412230
:1092500002F084FA0CA904AA202304F1080002F009
:109260002DFA0CA802F064FA9DF810109DF82F005A
:109270009DF811309DF82E209DF812609DF82D501C
:109280008DF810008DF82F109DF813009DF82C100C
:109290008DF811208DF82E309DF814209DF82B307C
:1092A0008DF812508DF82D609DF815509DF82A60AC
:1092B0008DF813108DF82C009DF816109DF82900DC
:1092C0008DF814308DF82B209DF817309DF828204C
:1092D0008DF815608DF82A508DF816008DF817203E
:1092E0008DF828308DF829109DF818109DF827006A
:1092F0009DF819309DF826209DF81A609DF825509C
:109300008DF818008DF827109DF81B009DF824108B
:109310008DF819208DF826309DF81C209DF82330FB
:109320008DF81A508DF825609DF81D509DF822602B
:109330008DF81B108DF824009DF81E109DF821005B
:109340008DF81C308DF823209DF81F309DF82020CB
:109350008DF81D608DF822508DF821108DF81F209A
:109360008DF820308DF81E0094F87E0394F89D133C
:1093700094F87F2394F89C3394F8806394F89B537B
:1093800084F89D0384F87E1394F8810394F89A136B
:1093900084F89C2384F87F3394F8822394F89933DB
:1093A00084F89B6384F8805394F8836394F898530B
:1093B00084F89A0384F8811394F8840394F897133B
:1093C00084F8992384F8823394F8852394F89633AB
:1093D00084F8986384F8835384F8841384F896237C
:1093E00084F8853384F8970394F8860394F89513EA
:1093F00094F8872394F8943394F8886394F89353FB
:1094000084F8950384F8861394F8890394F89213EA
:1094100084F8942384F8873394F88A2394F891335A
:1094200084F8936384F8885394F88B6394F890538A
:1094300084F8920384F8891394F88C0394F88F13BA
:1094400084F8912384F88A3394F88D2394F88E332A
:1094500084F8906384F88B5384F88C1384F88E23FB
:1094600084F88D3384F88F0394F89E0394F8BD1329
:1094700094F89F2394F8BC3394F8A06394F8BB53FA
:1094800084F8BD0384F89E1394F8A10394F8BA13EA
:1094900084F8BC2384F89F3394F8A22394F8B9335A
:1094A00084F8BB6384F8A05394F8A36394F8B8538A
:1094B00084F8BA0384F8A11394F8A40394F8B713BA
:1094C00084F8B92384F8A23394F8A52394F8B6332A
:1094D00084F8B86384F8B70384F8A41384F8B62337
:1094E00084F8A53384F8A35394F8A65394F8A723DB
:1094F00094F8B43394F8B50394F8A81394F8B363CC
:1095000084F8B55384F8B42394F8A95394F8AA23A3
:1095100084F8A73394F8B13394F8B0C384F8A60361
:1095200084F8B31394F8B20394F8AB1384F8A863E7
:1095300084F8B25394F8AC6394F8AF5384F8B12331
:1095400084F8AA3394F8AD2394F8AE3384F8A903D1
:1095500084F8B013384604A984F8ABC384F8AF6329
:1095600084F8AC5384F8AE2384F8AD33FFF79AFA4D
:109570000DF56B7DF0BDD4F81424002A3FF401AD45
:109580000223002100930C920CAB064A0D9708466B
:1095900010F02CFBF5E438461A461946FFF786FA18
:1095A000EFE400BFD58A0200A8DF7047704700BF14
:1095B00030B5044683B0083000F074F804F10C01B3
:1095C0000DF106020120FFF7EFFF054628B9044B15
:1095D00004481C602146FFF7C5F8284603B030BD9B
:1095E00080680020C46C002030B44C68C460D1E9AD
:1095F0000241054A054D0260054A8560C0E9044103
:10960000426030BC704700BFF82D0400102E0400EB
:109610000000111183790B70C3791370704700BF7C
:1096200062DF704763DF7047704700BF10B50446C4
:109630000FF068FF204610BD034A02600022C0E917
:109640000222827182807047102E040010B4054CF3
:109650008180002201210460C0E902225DF8044BF0
:1096600081717047102E0400002210B4044C046075
:1096700081605DF8044B82718280C260704700BFD8
:10968000102E04008379012B0AD0826832B9C26897
:1096900022B9012B8CBF80200020704780207047AA
:1096A000102070472DE9F047857982B0002D47D111
:1096B000C7680646002F47D010200DF097FB824662
:1096C000384616F086FE441E30B3DFF88490A84674
:1096D00004E00134023C1FD4102D1DD017F804C043
:1096E000BCF12D0F07EB0402F3D099F80030ADF870
:1096F00005808DF8043012F8013C8DF804301022FA
:10970000002101A88DF805C016F01EFF6B1C023C5D
:109710000AF80500DDB2DFD5C6F808A0BAF1000FDF
:109720000ED0B11D5046FFF77BFFB168321D1020EF
:10973000FFF778FFB0FA80F0400902B0BDE8F0878B
:10974000012002B0BDE8F087D0F808A0E6E700BF2E
:10975000042E04004DDF70474EDF70474FDF704727
:1097600050DF70474BDF704710DF70477CDF70477A
:109770007DDF704760DF704769DF704761DF7047EA
:1097800066DF704767DF7047704700BF042010F046
:109790007DBD00BF30B5224C224D83B0D4F83007D8
:1097A0004FF0FF310EF060F80028F7D0C5B101A8E6
:1097B000FFF7D8FF0528F1D00028F8D1019B032B33
:1097C0001BD8012BF3D918460CF050FDEFE70A2BFC
:1097D00004D0092B21D00B2B02D1012006F0BAFBBB
:1097E00001A8FFF7BFFF0528D8D00028F8D1019BBA
:1097F000A3F10902022AF3D8E9E7A3F10902022A38
:10980000D5D80A2B04D0092B05D00B2BCFD10120A2
:1098100006F0A0FBCBE70220FAE70220DEE700BF5C
:10982000846800206D6203002DE9F04F2DED028B5E
:109830004FF4FA7089B00DF0D9FAB24E00F1080376
:1098400008EE103A054606F5F16706F5C86AD6F83F
:109850002C074FF0FF310EF007F80028F7D04FF437
:10986000FA730DF116012846ADF81630FFF786FFA2
:1098700010B10528F3D1EAE7B5F80490B9F1130F58
:1098800000F2398106EB8903D3F83C473CB1294605
:109890002046FEF7B5FC9C482946FFF733FB2B8892
:1098A000013B1B2B5AD8DFE813F016015900590071
:1098B00059005900590059005900590059005900E0
:1098C0005900590059005900B4001C0059005900B2
:1098D00059005900590059005900590059005900C0
:1098E000A200DFF838824FF0000B58F8040F30B1B7
:1098F000FEF708FC18B10BF1010B5FFA8BFBB845C2
:10990000F3D1BBF1000F06D196F838371BB1594699
:10991000042010F09DFC2046FEF7FEFB012800F01D
:10992000EC80F26962B10223002195F808C000932F
:10993000084606ABCDF81890CDF81CC010F056F9CB
:1099400009F5E77806EB8803586810B103685B688F
:10995000984706EB88080023C8F80430294650468B
:10996000FDF788FD69482946FEF7CCFFB6F83A377F
:109970004B452B8800F0B480102B1ED02CB3204612
:10998000FEF7CAFB012803D15E482946FEF738FFDF
:109990002046FEF7C1FB02281BD05D48FEF71AFDEA
:1099A00000BB5C482946FEF7B1FDD6F89037002B86
:1099B0003FF455AF2846984751E7EB7B012BDDD1AB
:1099C000AB88A6F83A37002CD9D14E482946FEF785
:1099D00017FF51482946FDF7F3FD4D48FEF7FAFC05
:1099E0000028DED04A482946FEF7F6FCD9E7D6F82B
:1099F0008C27002AB2D00223002195F908C00093D9
:109A0000084606ABCDF81890CDF81CC010F0EEF863
:109A1000A4E74FF00008D6F83407CDF8008043469D
:109A2000424603213D4C0FF0A5FA54F8040F30B123
:109A3000FEF768FB18B108F101085FFA88F8BC422C
:109A4000F3D196F838376BB1B8F1000118BF012196
:109A5000042010F0FDFB96F838371BB101210420DB
:109A600010F0F6FB09F5E77806EB8804606820B192
:109A700003685B68984700236360EB7B012B0BBF97
:109A800096F81A3796F8203796F81B4796F821472C
:109A9000039334200FF034FD06EB8808039B0094F9
:109AA00018EE102A04464946FEF7F8FA2046C8F890
:109AB0000440FEF731FB012832D0B269002A3FF49E
:109AC0004DAF012300210093084606ABCDF8189056
:109AD00010F08CF842E700214846FFF751FE3DE7C1
:109AE000102B3FF46AAF112B7FF448AF4FF6FF7392
:109AF000A6F83A3742E70446D1E6F268002A7FF436
:109B000012AF1DE784680020A4680020286F0020A1
:109B10007C6F0020C46C002094680020BC6F002083
:109B2000B268002A3FF41AAF0021009006AB084645
:109B3000CDF8189010F05AF810E700BF38B5044679
:109B4000FEF720FE04F11000FDF706FD04F12000F1
:109B5000FEF7CEFF04F58860FEF77AFC04F5C860D6
:109B6000FDF78AFB04F28460FDF70CFB04F2A460AD
:109B7000FEF74AFE04F5DF60FEF712FC4FF4805357
:109B80000025C4F8103716481649174AC4F81407B8
:109B900040F20113C4F81817C4F81C27A4F82037A2
:109BA000A4F8225704F23C702946502215F01EFDFD
:109BB00001224FF6FF73A4F8245784F82657C4F8FF
:109BC0002C57C4F83057C4F83457C4F89057C4F829
:109BD0008C5784F83827A4F83A37204638BD00BFA0
:109BE000010A1700030001011700030004290BD824
:109BF000DFE801F00B130B1B0300104BC0F8163706
:109C000040F20313A0F81A3770470D4BC0F816370F
:109C100040F20113A0F81A3770470A4BC0F8163704
:109C200040F20113A0F81A377047074BC0F81637F7
:109C30004FF48173A0F81A37704700BFF700640033
:109C4000170003001700020080000600F0B5BF4EA9
:109C500080F824178DB080F8252704460FF0CEFC3D
:109C60000FF0D4FC0FF092FC3369B949039303A8B9
:109C7000FFF77AFD18B1002528460DB0F0BD012090
:109C8000FFF76AFD0120FFF765FD0120FFF766FD84
:109C900009A8FFF765FD099B9B0705D5AD4BD3F8D8
:109CA0000435002B00F0FE800023AB4A94F81557D2
:109CB000049209A90120CDE909330B938DF82450B2
:109CC000FFF75AFD0028D6D194F825370B90CDE93F
:109CD0000900181E18BF012094F824578DF827009A
:109CE000049A8DF8263009A940208DF82550FFF7F9
:109CF00043FD0028BFD194F814170990034661F37F
:109D00000003CDE90A00049A8DF8243009A9A020A7
:109D1000FFF732FD0028AED1D4F810370A900B902F
:109D2000049A099309A9A120FFF726FD0028A2D1D2
:109D300094F82437002B40F0B98094F82537002B95
:109D400048D00023B4F81C77049A0993022509A986
:109D50002320CDE90A338DF82450ADF82670FFF7A3
:109D60000BFD002887D1CDE9090094F82577B4F8D8
:109D70001E370B90049A8DF8245009A920208DF8E5
:109D80002670ADF82830FFF7F7FC00287FF473AF9A
:109D90000990CDE90A0094F82037049A8DF82450F0
:109DA00009A922208DF82630FFF7E6FC00287FF471
:109DB00062AFCDE9090094F821370B90049A8DF831
:109DC000245009A921208DF82630FFF7D5FC002862
:109DD0007FF451AF04A8FFF7CDFC00287FF44BAF10
:109DE000CDE9070040F0010307A902208DF81C30DF
:109DF000FFF7C8FC00287FF43EAF2046FEF7D0FCFA
:109E0000054600283FF437AF04F12000FEF786FE38
:109E1000337D52498DF80830182202A8FFF7A6FCBE
:109E200000287FF428AF94F82537002B40F0888075
:109E30000322002101200DF07BF8C4F82C07002834
:109E40003FF419AF05AB0326CDE90063444945480B
:109E500000234FF4A0620EF02DF8324600210120BD
:109E60000DF066F8C4F8300700283FF404AF06ABE5
:109E7000CDE900633C493D480023C8220EF01AF8A2
:109E80003B4B4FF480021A603A4B00930023184674
:109E900001224FF480710FF017F8C4F8340701F075
:109EA000BBF8E9E6022006F055F8FDE60990CDE999
:109EB0000A00B4F81637049AADF82630012509A92E
:109EC00023208DF82450FFF757FC00287FF4D3AEF1
:109ED000CDE9090094F82477B4F818370B90049A68
:109EE0008DF8245009A920208DF82670ADF828306F
:109EF000FFF742FC00287FF4BEAE0990CDE90A00CE
:109F000094F81A37049A8DF8245009A922208DF864
:109F10002630FFF731FC00287FF4ADAECDE9090013
:109F200094F81B370B90049A8DF8245009A921202E
:109F30008DF82630FFF720FC00283FF4FEAE9AE6AD
:109F400004F11000FDF716FB72E700BF782E040045
:109F5000899702000070024000600020542E040027
:109F6000702E040029980200742E040095970200B8
:109F700000E100E08D97020000B5084B85B01B7D25
:109F8000019108468DF80C3016F023FA019982B23F
:109F900003A8FFF7EBFB05B05DF804FB782E040087
:109FA00000B583B008460DF10601ADF80620FFF7B5
:109FB000DFFB20B99DF8060003B05DF804FB00202C
:109FC00003B05DF804FB00BF70B4234B0E4605469A
:109FD0000FCB85B06C4607C49DF900202380B242A8
:109FE00034D09DF90130B34230D09DF90230B342F4
:109FF0002CD09DF90330B34228D09DF90430B342F0
:10A0000024D09DF90530B34220D0FEB19DF9073030
:10A01000B3421BD09DF90830B34217D09DF90930E7
:10A02000B34213D09DF90A30B3420FD09DF90B30E3
:10A03000B3420BD09DF90C30B34207D09DF90D30DF
:10A04000B34203D0002005B070BC7047012085F8F2
:10A05000266705B070BC7047902E040090F9260763
:10A06000704700BF80F83817704700BF70B50446CE
:10A0700082B0D0F834070D460EF0A8FF4FF47A7284
:10A0800006460023A90DA80215F058F80023024641
:10A090000421D4F8340700930EF06CFF0EB102B027
:10A0A00070BD0096D4F834073346324603210EF0D3
:10A0B00061FF02B070BD00BF132906D800EB81011B
:10A0C000D1F83C0708B1FEF71DB80020704700BF6B
:10A0D000B0F83A07704700BF01290CBFB0F8160767
:10A0E000B0F81C07704700BF13299ABF00EB81012D
:10A0F000D1F83C070020704710B5064C0021D4F879
:10A1000030070DF025FAD4F82C070021BDE81040E7
:10A110000DF01EBA8468002090F8383703B97047F4
:10A1200010B582B0D0F834470EF0B4F800230246E0
:10A130000093204601210EF01DFF02B010BD00BFAC
:10A14000F0B583B0002405462346D0F834070094C8
:10A15000224603210EF00EFF05F5E76605F5F167CF
:10A1600056F8040F20B1FDF7CDFF08B10134E4B279
:10A17000BE42F5D195F8383743B1211E18BF0121F1
:10A18000042003B0BDE8F04010F062B803B0F0BDA9
:10A190000148FFF7D3BC00BF84680020002070474F
:10A1A0003CDF70473DDF704711DF704713DF7047BA
:10A1B000B0DF7047B2DF70472DE9F0419EB007462F
:10A1C00004A8158814460E46FDF7C4FDBDF81030EE
:10A1D000AB4202D01EB0BDE8F081A379043B022B54
:10A1E000F8D939465248FFF77FFF4FF000080223A5
:10A1F000394605463046CDE90688CDE908888DF810
:10A200001830FDF7E9FD06A900286AD03846ADF8F8
:10A210001C80FFF7CDFF247B012CDBD1454E41464E
:10A220003E22304615F0E2F923460DF10E02424976
:10A2300038460824ADF80E40FFF7BCFF68462946B3
:10A24000FDF770FF00983060BDF804309DF80620DF
:10A25000B271B3802846FDF759FF002849D135492E
:10A2600036484FF6FF740B4601311B7883EA1423FE
:10A2700083EA131242EA042283EA131382EA0332C6
:10A2800082EA431381429CB2EDD12A4B2C489C8731
:10A290000021FDF711F82846FDF754FFFF210020AB
:10A2A000FFF780FFB1210020FFF77AFF002891D14E
:10A2B000FFF77AFF00288DD1224B4FF0FF324FF08D
:10A2C0001024C3F88020C3F880216069FFF76EFF77
:10A2D00000287FF47FAF80F31488606901F082F971
:10A2E00078E740F2FD133846ADF81C30FFF760FF09
:10A2F00070E70AA92846FDF761FF0028AFD01EAB22
:10A3000013E903000B0C3060B180B37118AC0FCCB3
:10A310000D4FC6F807000AAC7960BA60FB600FCC3D
:10A3200018360FC694E8070086E8070097E700BFD5
:10A3300084680020807F0020B47F0020BC7F002044
:10A34000C46E002000E100E0877F002030B585B0BA
:10A3500004460E496846FFF787F969462046FFF72D
:10A3600043F925466846FFF75FF9094B45F8183B66
:10A3700008496846FFF778F969462846FDF768FC02
:10A380006846FFF751F9204605B030BDA02E040005
:10A39000E82E0400C02E040030B5B3B00546FFF728
:10A3A00007F918B10446204633B030BD2D491CA82A
:10A3B000FFF75AF91CA906A8FDF74AFC1CA8FFF7ED
:10A3C00033F906A8FDF786FC06A80421FDF786FCF4
:10A3D00006A81421FDF786FC06A8FDF755F90446EA
:10A3E00098B905F1180018210190FDF777FC019844
:10A3F0001721FDF777FC01981B490122FDF794FC1A
:10A400000198FDF741F9044628B106A8FDF722F9A5
:10A41000204633B030BD154902A8FFF725F902A93F
:10A420001CA8FDF715FC02A8FFF7FEF81CA8FDF715
:10A4300051FC02211CA8FDF751FC02211CA8FDF7CC
:10A4400053FC1CA8FDF720F9044618B901211CA8EB
:10A45000FDF7A2FC1CA8FDF7FDF806A8FDF7FAF829
:10A46000D6E700BFB02E0400B9A10200D02E040030
:10A47000C16180F83D207047016380F84220704739
:10A4800070B584B0044641F60A016846FFF7DEF86D
:10A4900069462046FFF7A8F86846FFF7C5F820464A
:10A4A0000E4B40F8183B2422002115F09FF80C4E6B
:10A4B0000C480D4AE06200232364E36384F84430CF
:10A4C0001825052113232046E66184F83D5084F8C1
:10A4D0004110226384F8423004B070BD182F04008C
:10A4E000542E0400F42E0400FC2E04002DE9F04745
:10A4F0009AB00646FFF75CF88046002846D1336ADA
:10A50000002B4ED0736A002B56D0C6F5275909F19F
:10A51000270906F1140406F1380706F13C0554F842
:10A52000043F04A873B3FDF763FB2268B36B09EB28
:10A5300005019A4289B2684608BF42F65021FFF7EA
:10A5400085F8694604A8FDF7B9FB6846FFF76CF883
:10A5500004A8FDF7BFFB022104A8FDF7BFFB297883
:10A5600004A8FDF7C1FB04A8FDF78EF8824604A8F5
:10A57000BAF1000F0ED12A782168FDF7F1FB04A88B
:10A58000FDF768F8BC4205F10105C8D140461AB094
:10A59000BDE8F087FDF75EF8D04640461AB0BDE84A
:10A5A000F0870FF0C9FC044615F013FF736A34629C
:10A5B00086F83E00002BA8D10FF07EFC044615F073
:10A5C00008FF746286F83F009FE700BFD0F8D830DC
:10A5D000988980B2704700BF70B582B006460846C1
:10A5E0001C460192FDF774FB019905462246D0F8FE
:10A5F000D8000FF0BBFB844206D9D5F8F0301BB170
:10A60000211A89B230469847D5F8E83023B1304650
:10A6100002B0BDE87040184702B070BD08B592B2F4
:10A62000D0F8D8000FF0F0FB08BD00BF00B583B034
:10A63000D0F8D8000DF1070200210FF021FC20B165
:10A640009DF8070003B05DF804FB4FF0FF30F9E719
:10A65000D0F8D8000FF078BBD0F8C030988980B21D
:10A66000704700BFD0F8C0000FF06EBB10B5016896
:10A670000C4A8C69944282B00BD1D0F8D8000122E8
:10A680000DF107010FF0C0FB40B19DF8070002B0CB
:10A6900010BD01220DF10701A047F5E74FF0FF3093
:10A6A000F5E700BF1DA6020000B583B0D0F8C000DA
:10A6B0000DF1070200210FF0E3FB20B19DF8070028
:10A6C00003B05DF804FB4FF0FF30F9E710B550F828
:10A6D000181C0D4A8C69944282B00CD018380122A3
:10A6E0000DF10701A04718B19DF8070002B010BD99
:10A6F0004FF0FF30FAE701220DF10701D0F8C0005A
:10A700000FF082FBEFE700BF1DA602002DE9F04F1E
:10A7100050F8183C83B004463F48D3F828800F46D1
:10A720001646FFF7D5FC3D4B9845054609D0A4F1E8
:10A73000180033463A462946C44603B0BDE8F04FF8
:10A74000604701463448FFF7CFFC8346002850D0CD
:10A7500004F1100948462946FDF73EFB002848D081
:10A7600094F8CC30002B3CD0D4F8C800C8B31FFA02
:10A7700086FA524639460FF0F9FAD4F8C8309B8968
:10A78000804658461FFA83FBFDF7C8FC0338834513
:10A7900025DB21482946FFF7A7FC50B3FDF7BEFC97
:10A7A000033882B2104601920CF020FB834600B3BE
:10A7B000019AD4F8C80059460FF026FB0346F0B9B9
:10A7C00058460CF02DFB464509D9AAEB08039BB26D
:10A7D00007EB080229464846FDF72EFB58B1B04664
:10A7E00009E03A4629464846B3B2FDF725FB002862
:10A7F000F5D14FF00008404603B0BDE8F08F5A464F
:10A8000029464846FDF718FB044658460CF008FB5D
:10A81000002CD8D1EDE700BF846800203DAC0200D9
:10A820002DE9F04150F8183C84B004463B489E6A3C
:10A830008DF80F10FFF74CFC394B9E42054609D0AE
:10A84000A4F11800294601230DF10F02B04704B00E
:10A85000BDE8F08101463148FFF746FC064650B39B
:10A8600004F1100738462946FDF7B6FA18B394F8F4
:10A87000CC30002B49D0D4F8C800002845D00DF1C9
:10A880000F0101220FF072FAD4F8C8309B8980467C
:10A8900030469EB2FDF742FC033886420DDA0120B5
:10A8A000D5E7324629463846FDF7C6FA0446304613
:10A8B0000CF0B6FAF4B90020C9E718482946FFF7AA
:10A8C00013FC0028F7D0FDF729FCC21E92B21046F7
:10A8D00001920CF08BFA06460028ECD0019AD4F8CD
:10A8E000C80031460FF090FA03460028D9D130460F
:10A8F0000CF096FAB8F1000FD1D10DF10F022946F4
:10A9000038460123FDF798FAA1E729463846012386
:10A910000DF10F02FDF790FA99E700BF846800205F
:10A920003DAC02002DE9F04105683B4BAD6A82B0B9
:10A930009D428DF8072065D1044638480E46FFF742
:10A94000D3FB054600284FD004F12807384631468E
:10A95000FDF742FA002847D094F8E430002B47D0A6
:10A96000D4F8E000002843D00DF1070101220FF0D8
:10A97000FDF9D4F8E0309B89804628469DB2FDF76A
:10A98000CDFBC31E9D4244DB24483146FFF7ACFBA0
:10A9900050B3FDF7C3FB033882B2104600920CF0AF
:10A9A00025FA054600B3009AD4F8E00029460FF0D6
:10A9B0002BFA68B928460CF033FAB8F1000F28D109
:10A9C0000DF10702314638460123FDF735FA0CE058
:10A9D00003462A4631463846FDF72EFA04462846F5
:10A9E0000CF01EFA002CE8D1002002B0BDE8F08186
:10A9F0003146384601230DF10702FDF71DFA02B07A
:10AA0000BDE8F08101230DF10702A84702B0BDE8BF
:10AA1000F0810120E9E700BF3DAC0200846800201E
:10AA20002DE9F04F036883B0044641489E6A88468A
:10AA30001746FFF74DFB3F4B9E42054661D101464D
:10AA40003B48FFF751FB0646002855D004F1280982
:10AA500048462946FDF7C0F900284DD094F8E43067
:10AA6000002B41D0D4F8E00000283DD01FFA87FA2F
:10AA7000524641460FF07AF9D4F8E02003463046BA
:10AA8000B2F80CB01E46FDF749FB1FFA8BFB0338EA
:10AA9000834524DB26482946FFF726FB60B3FDF7F4
:10AAA0003DFB033882B2104601920CF09FF98346B9
:10AAB00010B3019AD4F8E00059460FF0A5F948BB4D
:10AAC00058460CF0ADF9B74209D9AAEB06039BB280
:10AAD00008EB060229464846FDF7AEF968B13E4646
:10AAE000304603B0BDE8F08F424629464846BBB227
:10AAF000FDF7A2F90028F2D10026304603B0BDE8E8
:10AB0000F08F01463B4642462046B44603B0BDE8BE
:10AB1000F04F604703465A4629464846FDF78CF9F0
:10AB2000044658460CF07CF9002CCCD1E4E700BF79
:10AB3000846800203DAC02002DE9F041036882B03A
:10AB400004463C489E6A8DF80710FFF7C1FA3A4B5D
:10AB50009E420546014663D13648FFF7C5FA0646D0
:10AB600000284FD004F1280738462946FDF734F96C
:10AB7000002847D094F8E430002B47D0D4F8E00008
:10AB8000002843D00DF1070101220FF0EFF8D4F8AF
:10AB9000E0309B89804630469EB2FDF7BFFAC31E67
:10ABA0009E4245DB23482946FFF79EFA50B3FDF746
:10ABB000B5FA033882B2104600920CF017F9064637
:10ABC00000B3009AD4F8E00031460FF01DF968B9DF
:10ABD00030460CF025F9B8F1000F29D10DF107022C
:10ABE000294638460123FDF727F90CE00346324693
:10ABF00029463846FDF720F9044630460CF010F996
:10AC0000002CE8D1002002B0BDE8F081294638468A
:10AC100001230DF10702FDF70FF902B0BDE8F08145
:10AC2000204601230DF10702B04702B0BDE8F081D4
:10AC30000120E8E7846800203DAC02002DE9F04FD8
:10AC4000044683B0384890461F460E46FFF74CFA3C
:10AC5000002856D004F12809054631464846FDF73C
:10AC6000BBF800284DD094F8E430002B41D0D4F844
:10AC7000E00000283DD01FFA87FA524641460FF007
:10AC800075F8D4F8E02003462846B2F80CB01D460B
:10AC9000FDF744FA1FFA8BFB0338834524DB224877
:10ACA0003146FFF721FA60B3FDF738FA033882B274
:10ACB000104601920CF09AF8834610B3019AD4F82A
:10ACC000E00059460FF0A0F800BB58460CF0A8F879
:10ACD000BD4209D2AAEB05039BB208EB050231463F
:10ACE0004846FDF7A9F868B13D46284603B0BDE8DF
:10ACF000F08F424631464846BBB2FDF79DF800282A
:10AD0000F2D10025284603B0BDE8F08F03465A462D
:10AD100031464846FDF790F8044658460CF080F856
:10AD2000002CD5D1EDE700BF8468002070B584B059
:10AD300004460E4668461E49FEF796FC69462046C4
:10AD4000FEF752FC6846FEF76FFC1A4B1A4903F1F6
:10AD50000802002548334FF47A70C4E906352260B2
:10AD600020626846FEF780FC694604F12800FCF783
:10AD70006FFF6846FEF758FC10496846FEF774FC02
:10AD8000694604F18000FCF763FF6846FEF74CFC5F
:10AD90002046C4E93A55C4F8D850A4F8DC60C4F899
:10ADA000F050C4F8E05084F8E45004B070BD00BF27
:10ADB0004C2F04005C2F04003C2F04002C2F0400B7
:10ADC00010B50D4B0446D0F8E00023604033A3617A
:10ADD00010B103685B68984704F18000FCF73AFC07
:10ADE00004F12800FCF736FC2046044B40F8083BF1
:10ADF000FEF71AFC204610BD642F0400F82D040055
:10AE000010B50F4B0446D0F8E00023604033A36137
:10AE100010B103685B68984704F18000FCF71AFCE6
:10AE200004F12800FCF716FC2046064B40F8083BCE
:10AE3000FEF7FAFB20460EF065FB204610BD00BF72
:10AE4000642F0400F82D040070B5044682B0182069
:10AE50000EF056FB0022054601210EF055FF284654
:10AE6000B4F8DC10C4F8D8500EF060FF2046FEF7AE
:10AE70009FFB054610B1284602B070BD01211E4857
:10AE8000FFF72AF904F128060346102130460196FF
:10AE90001E46FCF723FF2A4601981121FCF736FFD6
:10AEA00001983146FCF71EFF01981449FCF750FF4A
:10AEB0000198FCF7E9FB05460028DCD104F180008D
:10AEC0000C210190FCF70AFF01980D490122FCF7C3
:10AED00023FF112201982946FCF718FF01983146FB
:10AEE000FCF700FF01980749FCF732FF019802B018
:10AEF000BDE87040FCF7C8BB84680020242F040024
:10AF0000D9A50200282F0400002201214270C0E9C7
:10AF100001220170C2818281704700BF10B50446D2
:10AF2000017001B110BD0A200CF044F8606010BD42
:10AF3000037810B5044643B1002301226370C4E9CD
:10AF40000133E381A381227010BD40680CF014FE30
:10AF5000F2E700BF002381608281C381704700BF98
:10AF6000037870B504460D46B3B946680123637093
:10AF70004FF47A720023A802A90D14F0DFF80146FD
:10AF800030460CF071FC98B9237800264FF0FF355D
:10AF90006670A3B9284670BD0322002101200BF082
:10AFA000C7FF064660600028E0D14FF0FF35F1E7AB
:10AFB000E58923780026ADB26670002BEAD0606880
:10AFC0000CF0DAFD6660284670BD00BF407870471F
:10AFD00038B504468089824228BF0246154619B119
:10AFE000A06814F0DBFAA089E389A26815FA83F35C
:10AFF000401B9BB22A44A081E381A260284638BD51
:10B00000406820B100231A4619460CF005B8704775
:10B01000B1DF7047B2DF704708B50F480AF0B2FFE2
:10B020000E490D4805F092FA28B10D490A4805F07D
:10B030008DFA50B108BD0949074805F0A3FA08493F
:10B04000054805F083FA0028F4D1BDE8084004491A
:10B05000014805F097BA00BF287E0020C02F0400E9
:10B06000D42F040070B586B00E4603230021054698
:10B0700014460093044A0496084603AB03950594CE
:10B080000EF0B4FD06B070BD51B3020070B586B0CD
:10B090000323144606460D460093104603AB044AAC
:10B0A00005940721CDE903650EF0A0FD06B070BD43
:10B0B00081B4020030B50A4691B089795379039181
:10B0C00011790293D378094D094C0191009393783B
:10B0D000527801280CBF2946214604A815F024F90E
:10B0E00004A9044805F0A6FA11B030BDE82F040009
:10B0F00018300400287E00202DE9F043D1B00B78F1
:10B10000032B04AF0D460446904668D95A08022A1C
:10B110005ED14F4A4F49504BDFF84891012818BF84
:10B1200011460022381D05F05DFC4B4907F168000F
:10B1300005F08EFB07F1CC0611E00246414607F10F
:10B14000680005F077FC08F1380229464846FDF70B
:10B150000DFE044678BB07F1680005F0E1FC002213
:10B16000391D304605F00EFD07F1D0000DC8D7F8A7
:10B17000DC10D7F8E4407B67D7F8E83097F8E0C0F8
:10B18000F8663A67B967412207F1EC0107F18800D8
:10B19000C7E9204387F87CC014F000FA07F1680083
:10B1A00005F0EAFC044607F1680044B105F0F0FA46
:10B1B0005028D0D1C1E707F1680005F0B1FC381D77
:10B1C00005F0AEFC204607F59A77BD46BDE8F08352
:10B1D0000024204607F59A77BD46BDE8F083E9468E
:10B1E0008CB08979AB786A78039169790291297971
:10B1F00001911A4E1A49E878009004AD012C08BF5D
:10B200003146284607F1CC0615F08EF81249304633
:10B2100005F01EFB29463046002205F0C7FB044618
:10B2200050B90024304605F07BFC2046CD4607F59A
:10B230009A77BD46BDE8F083304605F0A9FA021EB4
:10B24000EFDD92B24146304605F0F4FBEAE700BF7D
:10B25000D42F0400C02F0400287E0020E82F040013
:10B2600018300400A4680020F0B5ADB0957993784B
:10B27000344E1446527803956579029594F804C0CB
:10B28000CDF804C0304DE478009404AF0C4601289A
:10B290000CBF3146294607F10C0015F045F82B4B41
:10B2A00007F10C0107F13C00002205F09BFB07F1C0
:10B2B0003C0005F061FC40B9002407F13C0005F0BA
:10B2C0002FFC2046A437BD46F0BD07F13C0005F039
:10B2D0005FFA051E08DD07F13C0005F0E9FB2918BF
:10B2E00007F13C0005F0C6FB07F13C0005F050FA01
:10B2F000051E08DD07F13C0005F0DAFB291807F10F
:10B300003C0005F0B7FB07F13C0005F041FA0028CE
:10B31000D2DDC31D23F007036D46ADEB030D82B2F2
:10B3200004A907F13C00C7E9001205F083FB2046A1
:10B33000D7E900120323FFF76BFEB0FA80F464092B
:10B34000AD46BAE7E82F040018300400287E00203C
:10B35000F0B5B5B092F84E5092F84A30434E1446CC
:10B3600092F84920039594F84D50029594F84C506A
:10B37000019594F84B5000950D463D4904AF0128C6
:10B3800018BF314607F12C0014F0CEFF394807F101
:10B390002C0105F0DBF86E4600284AD1354B07F149
:10B3A0002C0107F15C00012205F01CFB07F15C0099
:10B3B00005F0E2FB18B9C437B546BD46F0BD5021D3
:10B3C00007F15C0005F012FA5022214607F15C00FB
:10B3D00005F04AF90023294627487B61C7E9033372
:10B3E000C7E90633C7E90833BB62FEF77DFE07F104
:10B3F0000C012022FCF7B4FF3B7B03B307F10C00E8
:10B4000014F0E7FF013082B2C1B207F15C007A604C
:10B4100005F0ECF97A6807F10C0107F15C0005F022
:10B4200023F907F15C0005F07BFBC437B546BD4648
:10B43000F0BD07F12C010F4805F0FCF8AEE794F8D9
:10B44000491094F84D3094F84E20039194F84A1026
:10B45000029194F84B10019194F84C10009107F16F
:10B460000C00064914F060FFC8E700BF1830040064
:10B47000E82F0400287E0020846800204830040063
:10B480002DE9F043ADB00C4604AF0021032306467E
:10B490001546204607F10A027981FFF7BBFD7B893B
:10B4A000E84623B9A437C546BD46BDE8F083073357
:10B4B000DB08A8EBC3039D460DF11009204607F1F8
:10B4C0000A0249460323FFF7A5FD04460028E9D1F7
:10B4D000A979AB786A780391697902912979019108
:10B4E0003D483E49ED780095012E08BF014607F121
:10B4F0000C0014F019FF3A4B07F10C0107F13C0066
:10B50000012205F06FFA07F13C0005F035FB002839
:10B51000C8D0214607F13C0005F0ACFA07F13C0029
:10B5200005F036F9041E08DD07F13C0005F0C0FA0D
:10B53000211807F13C0005F09DFA07F13C0005F0E9
:10B5400027F9041E08DD07F13C0005F0B1FA2118C7
:10B5500007F13C0005F08EFA07F13C0005F018F900
:10B560007C8980B2A04213D0E1B207F13C0005F023
:10B570003DF92246494607F13C0005F075F807F110
:10B580003C0005F0CDFAA437C546BD46BDE8F083C2
:10B59000E31D6D46DB08A5EBC3039D4604A92246C7
:10B5A00007F13C00796005F045FA79687A894846E8
:10B5B00013F0E6FF08B9AD46E1E707F13C0005F0FE
:10B5C00093FA7B89DB43191807F13C0005F052FA26
:10B5D000AD467C89C8E700BFE82F0400183004009E
:10B5E000287E0020F0B40346186880F30888586865
:10B5F000FF2464B2EFF30585002D01D1A646004774
:10B600002546064621273FBAF0B40024002500262F
:10B610000027F0B4F92040B2004700BFF0BC7047EB
:10B6200038B590F8E8500DB1284638BD012380F8B0
:10B63000E830044610F0CEFD0028F5D12046BDE8E4
:10B64000384000F0ADB800BF10B5044C204600F003
:10B65000A3F8002384F8E83010BD00BF1870002064
:10B6600003680A689A4201D00020704770B504460A
:10B6700084B04FF453700D460BF0B8FB0646B0B1E2
:10B680000C4800F0ABF823460435002153F8042B96
:10B690000095CDE90161084910F036FC04463046BA
:10B6A0000BF0BEFBB4FA84F0400904B070BD00207A
:10B6B00004B070BD18700020E5AC0300F0B585B093
:10B6C00006464FF453700D46174603930BF08EFB5E
:10B6D00078B1044600903A46281D311D03AB10F0A6
:10B6E00091FC054620460BF09BFB15B9039805B06D
:10B6F000F0BD002005B0F0BD00220260704700BF21
:10B7000010B50446084610F0EFFC2060003818BF62
:10B71000012010BD00220260704700BF10B5044632
:10B72000084610F0E1FC2060003818BF012010BD71
:10B7300000230360704700BF00B583B0043001925E
:10B7400001AB0A46042110F059FB18B9019803B067
:10B750005DF804FB002003B05DF804FBF0B504467F
:10B7600083B04FF463700E4617460BF03FFB05465F
:10B7700078B1019054F8040B00943A463146012305
:10B7800010F078FA044628460BF04AFBB4FA84F02D
:10B79000400903B0F0BD00BF002280F8E4207047EC
:10B7A00070B590F8E4400CB1204670BD012380F8DC
:10B7B000E43005464FF4BF500BF018FB0646002856
:10B7C000F2D0314628460FF079FC0446B4FA84F4EE
:10B7D000304664090BF024FB204670BD704700BF63
:10B7E0000146014800F04ABB2471002038B500F042
:10B7F00097F940B1002405462046013400F04AFE86
:10B80000E0B28542F9D838BD70B592B01D460C46FD
:10B81000164601A84222002113F0E8FE412D5CD912
:10B82000631C0222DBB28DF806408DF80E408DF8C5
:10B83000264040F6083540F202248DF81E308DF87F
:10B8400027308DF83130ADF804508DF807208DF891
:10B8500012208DF833208DF83B20ADF80840204AA7
:10B86000069240F2012505232424ADF810508DF8EE
:10B8700015308DF8164004231A4C8DF81F30012521
:10B8800040F224628DF81C508DF830300894ADF8E9
:10B890002420154D0A9508234FF411640A228DF8CF
:10B8A0002C30ADF82E4040238DF834200F4C8DF80D
:10B8B0003C3001A9304640F2075540F20946422289
:10B8C000ADF80C60ADF838508DF84330CDF83F40FE
:10B8D00013F064FE422012B070BD002012B070BDA3
:10B8E00020010524240202050705800307058002C4
:10B8F000007EFF280AD010B500F074FD044608B1A0
:10B90000204610BD0EF092F8204610BD0020704772
:10B91000007EFF280ED000B583B00DF1070100F0C6
:10B92000AFFD20B19DF8070003B05DF804FB4FF0B8
:10B93000FF30F9E74FF0FF30704700BF007EFF286F
:10B940000FD000B583B001220DF1070100F056FDC4
:10B9500020B19DF8070003B05DF804FB4FF0FF3005
:10B96000F9E74FF0FF307047007EFF2801D000F06C
:10B9700091BD7047007EFF2801D000F0F3BD00208C
:10B98000704700BFF8B50646007EFF281CD017465A
:10B990005AB10D46144600F001FD2946224680B1F9
:10B9A000307E00F0BBFD241A01D13846F8BD0544B5
:10B9B0000EF03CF8307E00F0F1FC294622460028CB
:10B9C000EED13F1B3846F1E70020F8BD70B50368A3
:10B9D000184A5B6882B093428DF8071021D1054662
:10B9E000007EFF2823D000F0D9FC0DF107060124CA
:10B9F0003146224688B1287E00F090FD241A02D1FB
:10BA0000012002B070BD06440EF010F8287E00F050
:10BA1000C5FC314622460028EDD1C4F1010002B038
:10BA200070BD01220DF10701984702B070BD0020E2
:10BA300002B070BD85B9020070B592B01D460C46CB
:10BA4000164601A84222002113F0D0FD412D5CD9F9
:10BA5000631C0222DBB28DF806408DF80E408DF893
:10BA6000264040F6083540F202248DF81E308DF84D
:10BA700027308DF83130ADF804508DF807208DF85F
:10BA800012208DF833208DF83B20ADF80840204A75
:10BA9000069240F2012505232424ADF810508DF8BC
:10BAA00015308DF8164004231A4C8DF81F300125EF
:10BAB00040F224628DF81C508DF830300894ADF8B7
:10BAC0002420154D0A9508234FF411640A228DF89D
:10BAD0002C30ADF82E4040238DF834200F4C8DF8DB
