:020000022000DC
:106000000000042035A6030075A6030077A6030050
:1060100079A603007BA603007DA603000000000014
:10602000000000000000000000000000B1A5030017
:1060300081A6030000000000D1A5030085A603008F
:1060400089A8030087A60300017E030087A603003A
:1060500087A6030087A60300D17E030087A603005E
:1060600087A6030087A6030087A6030087A6030070
:1060700087A6030087A6030087A6030087A6030060
:1060800087A6030001A3030087A6030087A60300D9
:1060900087A6030087A6030079B4020087A6030041
:1060A00087A6030087A6030087A6030087A6030030
:1060B00087A6030087A60300000000000000000080
:1060C00087A6030087A6030087A6030075A903001F
:1060D00087A6030087A6030087A6030091D50200C8
:1060E00087A6030087A6030087A603000000000020
:1060F0000000000087A6030000000000EDA90300D7
:10610000000000000000000000000000000000008F
:10611000000000000000000000000000000000007F
:10612000000000000000000000000000000000006F
:10613000000000000000000000000000000000005F
:10614000000000000000000000000000000000004F
:10615000000000000000000000000000000000003F
:10616000000000000000000000000000000000002F
:10617000000000000000000000000000000000001F
:10618000000000000000000000000000000000000F
:1061900000000000000000000000000000000000FF
:1061A00000000000000000000000000000000000EF
:1061B00000000000000000000000000000000000DF
:1061C00000000000000000000000000000000000CF
:1061D00000000000000000000000000000000000BF
:1061E00000000000000000000000000000000000AF
:1061F000000000000000000000000000000000009F
:10620000F1EE103A43F08073E1EE103A704700BFB0
:1062100010B5054C237833B9044B13B10448AFF3E0
:1062200000800123237010BDAC630020000000003B
:106230008C6D040008B5034B1BB103490348AFF351
:10624000008008BD00000000B06300208C6D0400D9
:10625000154B002B08BF134B9D46A3F5803A002138
:106260008B460F461348144A121A1AF0F1FA0F4BD4
:10627000002B00D098470E4B002B00D098470020F1
:10628000002104000D000D48002802D00C48AFF397
:1062900000801AF073FA2000290014F023FA1AF093
:1062A00047FA00BF000008000000042000000000C2
:1062B00000000000AC630020E09E00200000000011
:1062C0000000000000207047D0E985308342C3BF42
:1062D000C3F5FF730133C018C01A704770B501468B
:1062E00088B005461448154C154E05F0BDF8154B01
:1062F00020221D8069460023CDE90033CDE9033318
:10630000CDE905330293079303F0CEF901230E493B
:106310003370204611F09EF96946204611F09AF933
:106320000A49204611F096F9317820460A2211F0E8
:106330006FFA08B070BD00BF506A0020D072002014
:1063400000670020A4690020A83C0400DC3C040095
:1063500070B50C4C0C4E00230D4620460B49337093
:1063600011F078F929461022204611F077FA0849F1
:10637000204611F06FF9317820460A22BDE87040BE
:1063800011F046BAD072002000670020F03C0400F3
:10639000DC3C040010B5054B036003F140020446E9
:1063A000826105F0CBFE204610BD00BFA83F04006F
:1063B00010B5064B036003F140020446826105F00C
:1063C000BDFE204614F0D0F9204610BDA83F0400C1
:1063D00008B5027C8A4203460CD0D0F8182210443B
:1063E0000132B2F5007F4174A8BF0022C3F8182221
:1063F000002008BD03689B689847002008BD00BFC7
:1064000030B5D0F81432C11891B04A7C422A044603
:1064100017D15A1CB2F5007F80F2B0810244527C41
:10642000412A0ED1B3F5FF7F03F1020240F07584DB
:10643000427C552A05D1827C442A08BF022200F002
:10644000D283D4F820524A7C4E2A3BD15A1CB2F552
:10645000007F80F26B832244527C412A40F0858089
:10646000B3F5FF7F03F1020240F06583627C4D2AA1
:106470007BD101222244527C452A76D1D4F81822BD
:106480000433934205D02344227C5B7C934240F04A
:10649000908340226946B04804F030FF10AB0344BB
:1064A000AE49E068002503F8405C11F0D3F8694676
:1064B000E06811F0CFF8217CE06811F01DF9D4F804
:1064C0001432E1184A7C522A4FD15A1CB2F5007F8F
:1064D00080F265822244527C462A40F0BF80B3F5A8
:1064E000FF7F03F1020240F05F82627C532A40F09A
:1064F000B5800122A018407C542840F0AF800132C2
:10650000B2F5007F40F05F82627C412A40F0A680B5
:106510000122A018407C542840F0A0800132B2F53E
:10652000007F40F05F82627C452A40F09780D4F87B
:1065300018228B490733934205D02344227C5B7C8D
:10654000934240F02F83E068D4F82C5211F082F887
:106550008449E06811F07EF8217CE06811F0CCF805
:10656000D4F81832C4F81432E1184A7C412A75D1A3
:106570005A1CB2F5007F80F23B822244527C442AAE
:1065800040F0C280B3F5FF7F03F1020240F0358294
:10659000627C562A40F0B8800122A018407C452831
:1065A00040F0B2800132B2F5007F40F03582627C6B
:1065B000522A40F0A9800122A018407C542840F0C3
:1065C000A3800132B2F5007F40F03582627C492A17
:1065D00040F09A800122A018407C532840F094801B
:1065E0000132B2F5007F40F03582627C492A40F0EA
:1065F0008B800122A018407C4E2840F0858001321B
:10660000B2F5007F40F03582627C472A7CD1D4F815
:1066100018220B33934205D02344227C5B7C9342A7
:1066200040F0B182504801F09FFF504B504A4B4917
:106630000546002D14BF1D461546E06811F00AF806
:106640002946E06811F006F8217CE06811F054F862
:106650000025D4F81832C4F81432E1184A7C4C2AC8
:1066600052D15A1CB2F5007F80F209822244527C3A
:10667000452A40F01C81B3F5FF7F03F1020240F090
:106680000382627C442A40F012810122A018407CDF
:106690004D2840F00C810132B2F5007F40F00382BA
:1066A000627C4F2A40F003810122A018407C4428DC
:1066B00040F0FD800132B2F5007F40F00382627C41
:1066C000452A40F0F480D4F818220733934205D0CD
:1066D0002344227C5B7C934240F04D82254B1F4932
:1066E0009D69E068002D40F0358210F0B3FF22492B
:1066F000E06810F0AFFF217CE06810F0FDFFD4F8F7
:106700001832C4F81432E1184A7C432A40F0CF8092
:106710005A1CB2F5007F80F219812244527C4F2A24
:106720000DD1B3F5FF7F03F1020140F01481627CCB
:106730004E2A04D1A27C4E2A08BF022277D0D4F878
:106740002032AB4266D01DB1D4F81832C4F81432EE
:10675000284611B030BD00BF506A0020943D0400AF
:10676000443D0400B83D040090700020343D040016
:106770003C3D0400A8690020F4450400427C412A05
:106780007FF45FAE827C552A08BF02227FF459AEA7
:10679000A018407C44287FF454AE0132B2F5007F4B
:1067A00040F02182627C522A7FF44BAEA27C412AC7
:1067B00008BF02227FF445AEA018407C54287FF425
:1067C00040AE0132B2F5007F40F02182627C452A62
:1067D0007FF437AED4F81822CF490833934200F043
:1067E000FB812344227C5B7C934200F0F581E068CE
:1067F000D4F8245210F02EFFC849E06810F02AFFA8
:10680000217CE06810F078FFD4F81832C4F8143214
:10681000E11818E6C049E06810F01CFFC049E068C4
:1068200010F018FF217CE06810F066FF8BE7A118DC
:10683000497C452983D10132B2F5007F40F09F8029
:10684000627C432A7FF47BAFA27C542A08BF0222D9
:106850007FF475AFA118497C45297FF470AF0132F0
:10686000B2F5007F40F00082627C442A7FF467AF7B
:10687000D4F818220933934200F001822344227C89
:106880005B7C934200F0FB81A349E068D4F824527A
:1068900010F0E0FEA349E06810F0DCFE217CE06827
:1068A00010F02AFFD4F81832C4F81432E1184A7CE8
:1068B000562A7FF444AF5A1CB2F5007F80F208815B
:1068C0002244527C452A7FF43AAFB3F5FF7F03F1AF
:1068D000020240F0EC81627C522A7FF430AFA27C4D
:1068E000532A08BF02227FF42AAFA118497C492904
:1068F0007FF425AF0132B2F5007F40F0EC81627C7D
:106900004F2A7FF41CAFA27C4E2A7FF418AFD4F834
:1069100018220733934200F0F2812344227C5B7CEF
:10692000934200F0EC817C49E068D4F8245210F0E6
:1069300091FE7D49E06810F08DFE217CE06810F04A
:10694000DBFED4F81832C4F81432F8E6627C4F2A21
:106950007FF4F5AE01216218527C4E2A7FF4EFAE2F
:106960004A1CB2F5007F40F05881627C4E2A7FF4C9
:10697000E6AEA27C452A08BF02227FF4E0AEA11851
:10698000497C43297FF4DBAE0132B2F5007F40F051
:106990005981627C542A7FF4D2AE01225EE1627C8E
:1069A000462A7FF45BAE0122A018407C53287FF476
:1069B00055AE0132B2F5007F7FF49CAD627C542A63
:1069C0007FF44CAE0122A018407C41287FF446AEF3
:1069D0000132B2F5007F7FF49CAD627C542A7FF4D3
:1069E0003DAE01222244527C452A3FF4A0AD35E65B
:1069F000627C442A7FF488AE0122A018407C56288D
:106A00007FF482AE0132B2F5007F7FF4C6AD627CC6
:106A1000452A7FF479AE0122A018407C52287FF4E9
:106A200073AE0132B2F5007F7FF4C6AD627C542AAA
:106A30007FF46AAE0122A018407C49287FF464AE3E
:106A40000132B2F5007F7FF4C6AD627C532A7FF439
:106A50005BAE0122A018407C49287FF455AE01327C
:106A6000B2F5007F7FF4C6AD627C4E2A7FF44CAE57
:106A700001222244527C472A3FF4C9AD44E6627C9D
:106A8000452A7FF414AF0122A018407C44287FF4EB
:106A90000EAF0132B2F5007F7FF4F8AD627C4D2A73
:106AA0007FF405AF0122A018407C4F287FF4FFAE91
:106AB0000132B2F5007F7FF4F8AD627C442A7FF4A6
:106AC000F6AE01222244527C452A3FF4FCADEEE6AC
:106AD000627C452A7FF433AEA27C522A08BF022290
:106AE0007FF42DAEA118497C53297FF428AE0132E2
:106AF000B2F5007F7FF4F9AE627C492A7FF41FAEC5
:106B0000A27C4F2A08BF02227FF419AE2244527C95
:106B10004E2A3FF4FCAE12E6443D0400703D0400F2
:106B2000983E04004C3E0400743E0400627C412AFE
:106B30007FF41BAD0122A018407C4D287FF415ADD9
:106B40000132B2F5007F7FF495AC627C452A3FF4B8
:106B500095AC0AE510F07EFD8349E06810F07AFDFF
:106B6000217CE06810F0C8FDD4F81832C4F8143263
:106B70000025E118C8E57D49E068D4F8245210F0FA
:106B800069FD7B49B4E57949E068D4F8245210F0F6
:106B900061FD7849E06810F05DFD217CE06810F04F
:106BA000ABFD56E5E068D4F8245210F053FD72496D
:106BB000CFE46E49E06810F04DFD7049E06810F0D8
:106BC00049FD217CE06810F097FDD4F81832C4F834
:106BD0001432E118022575E4E068D4F82C5210F064
:106BE00039FD674909E6A018407C52287FF429AC9A
:106BF0000132B2F5007F40F0A480627C412A7FF42C
:106C000020ACA27C542A08BF02227FF41AAC224492
:106C1000527C452A3FF4DEAD13E42244527C4E2AD6
:106C20007FF48DADB1F5FF7F01F102027FF4FFAD7E
:106C3000627C452A7FF483ADA27C432A08BF0222EE
:106C40007FF47DADA118497C54297FF478AD0132E1
:106C5000B2F5007F08BF00227FF4FCADA118497C8B
:106C600045297FF46CAD01322244527C442A7FF4E2
:106C700066ADD4F81822093393427FF4FFAD414842
:106C800004F0C8FB404B414A41490546002D14BF62
:106C90001D461546E06810F0DDFC2946E06810F05E
:106CA000D9FC217CE06810F027FD0025FAE522449C
:106CB000527C522A7FF443ADDA1CB2F5007F7FF498
:106CC00011AF627C532A7FF43AADA27C492A08BFF7
:106CD00002227FF434ADA118497C4F297FF42FADF7
:106CE0000132B2F5007F7FF411AF627C4E2A7FF44F
:106CF00026ADD4F81822073393427FF40EAE244910
:106D0000E06810F0A7FC2349E06810F0A3FC217CA8
:106D1000E06810F0F1FC002513E60244527C552A8D
:106D20007FF48FABDA1CB2F5007F7FF431AD427C8B
:106D3000442A7FF486AB827C522A08BF02227FF469
:106D400080ABA018407C41287FF47BAB0132B2F5C8
:106D5000007F7FF431AD627C542A7FF472ABA27C59
:106D6000452A7FF46EAB35E5243E0400443D040023
:106D7000283E0400FC3D0400D83D0400983D04007A
:106D80004C3D0400506A0020343D04003C3D0400AA
:106D9000943D040034400400F0B5D0E98546B44287
:106DA00087B04BDA04F111010144077C0B462246FF
:106DB00002E00132B24203D013F8015BBD42F8D1C8
:106DC000141B0F2C38DD1024224601A819F018FDE1
:106DD00006AB1A191C48002402F8144C01F0A6FC5A
:106DE000194801F09BFB194801F098FB01A91848CC
:106DF00004F070FA0621144801F07CFB124801F0FF
:106E000061FB1449104801F019FB104801F02CFBFC
:106E10000D48012101F0ACFBF4220B48202101F0C8
:106E20009FFB09481E2101F099FB2146064801F00D
:106E30000BFC204607B0F0BD002CC5D1D0F828428D
:106E4000204607B0F0BD00BF90700020D470002035
:106E5000506A0020F8670020F8B503682E4F5B6881
:106E6000D0F82862D0F81452BB4204462FD1D0F893
:106E700018028542C3BFC5F5FF7201328018401B5E
:106E8000002804DD6219527C202A08BF0135BB426C
:106E90001AD1D4E985308342C3BFC3F5FF730133F0
:106EA000C018C01A012803DD2C44637C4F2B01D08D
:106EB0003046F8BDA37C4E2B0DD0462BF8D1174899
:106EC00001F034FC0026F3E720469847EAE79847AC
:106ED00023685B68D4E70621104801F00BFB0F48DC
:106EE00001F0F0FA0E490D4801F0A8FA0D4801F042
:106EF000BBFA0A48012101F03BFBF422074820219C
:106F000001F02EFB05481E2101F028FB034800215B
:106F100001F09AFB0026CBE7C962020090700020C6
:106F2000F8670020D4700020F8B50368344F5B6820
:106F3000D0F82862D0F81452BB4204463AD1D0F8B7
:106F400018028542C3BFC5F5FF7201328018401B8D
:106F5000002804DD6219527C202A08BF0135BB429B
:106F600025D1D4E985308342C3BFC3F5FF73013314
:106F7000C018C01A002805DD2C44637C302B03D0D8
:106F8000312B1BD03046F8BD1E4CFF210023206A58
:106F9000C4E9051314F082F96169606A14F07EF99E
:106FA0006169A06A14F07AF900263046F8BD2046DF
:106FB0009847DFE7984723685B68C9E7114C256865
:106FC000A3699D4215D0FF21206A616114F066F922
:106FD0006169606A14F062F96169A06A14F05EF98F
:106FE00023689D4205D063689D4202D0A3689D42FC
:106FF000DAD13223A561E36011F002F8E061D3E752
:10700000C9620200A869002070B5D0F81432C11816
:1070100004464A7C422A17D15A1CB2F5007F80F2FE
:1070200031810244527C412A0ED1B3F5FF7F03F136
:10703000020240F06F82427C552A05D1827C442AAC
:1070400008BF022200F09382D4F820624A7C4E2AC4
:107050003ED15A1CB2F5007F80F271812244527CED
:10706000412A40F08480B3F5FF7F03F1020240F033
:107070006B81627C4D2A7AD10122A018407C452880
:1070800075D10132B2F5007F40F06D81627C3D2AFE
:107090006DD10533C4F814322046FFF77DFEB549A3
:1070A0000646E06810F0D6FA217CE06810F024FB78
:1070B000052010F0B1FF1825E06810B1217C10F018
:1070C000F7FA013DF8D1D4F81832C4F81432E118B7
:1070D0004A7C522A4BD15A1CB2F5007F80F20381C0
:1070E0002244527C462A40F0A780B3F5FF7F03F18B
:1070F000020240F0FC80627C532A40F09D80012215
:10710000A018407C542840F097800132B2F5007FEF
:1071100040F0FA80627C412A40F08E800122A01863
:10712000407C542840F088800132B2F5007F40F066
:10713000F880627C452A7FD101222244527C3D2A7C
:107140007AD10833C4F814328B49E068D4F82C6241
:1071500010F080FA8949E06810F07CFA217CE06840
:1071600010F0CAFAD4F81832C4F81432E1184A7C84
:10717000412A61D15A1CB2F5007F80F2018122447C
:10718000527C442A73D1B3F5FF7F03F1020240F031
:10719000FC80627C562A6AD10122A118497C4529CB
:1071A00065D10132B2F5007F40F0FE80627C522A48
:1071B0005DD10122A118497C542958D10132B2F580
:1071C000007F40F00081627C492A50D10122A11841
:1071D000497C53294BD10132B2F5007F40F0028146
:1071E000627C492A43D10122A118497C4E293ED113
:1071F0000132B2F5007F40F00481627C472A36D12B
:1072000001222244527C3D2A31D10C33C4F814327D
:107210002046FFF721FE0646002840F056815549DA
:10722000E06810F017FA217CE06810F065FAD4F8F5
:107230001832C4F81432E1184A7C4C2A17D15A1C6F
:10724000B2F5007F80F2EC802244527C452A0ED1B8
:10725000B3F5FF7F03F1020240F0C081627C442A53
:1072600005D1A27C4D2A08BF022200F03A81D4F851
:107270002032B34200F01781D4F81832C4F8143227
:10728000304670BD427C412A7FF4DEAE827C552AB6
:1072900008BF02227FF4D8AEA018407C44287FF4B7
:1072A000D3AE0132B2F5007F40F06181627C522A98
:1072B0007FF4CAAEA27C412A08BF02227FF4C4AE8A
:1072C000A018407C54287FF4BFAE0132B2F5007F95
:1072D00040F06081627C452A7FF4B6AEA27C3D2AF4
:1072E0007FF4B2AE63E1627C462AA5D10122A018E8
:1072F000407C5328A0D10132B2F5007F7FF400AF6B
:10730000627C542A98D10122A018407C412893D154
:107310000132B2F5007F7FF402AF627C542A8BD138
:107320000122A018407C452886D10132B2F5007FA9
:107330007FF403AF627C3D2A3FF403AF7CE7627CBD
:10734000412A7FF414AF0122A018407C4D287FF41D
:107350000EAF0132B2F5007F7FF48FAE627C452A1A
:107360007FF405AF01222244527C3D2A3FF491AEC6
:10737000FDE600BF943D0400443D0400D43E0400FB
:10738000627C442A7FF473AF0122A118497C5629FC
:107390007FF46DAF0132B2F5007F7FF4FEAE627C08
:1073A000452A7FF464AF0122A118497C52297FF459
:1073B0005EAF0132B2F5007F7FF4FCAE627C542AEE
:1073C0007FF455AF0122A118497C49297FF44FAFC2
:1073D0000132B2F5007F7FF4FAAE627C532A7FF46B
:1073E00046AF0122A118497C49297FF440AF013200
:1073F000B2F5007F7FF4F8AE627C4E2A7FF437AF9F
:107400000122A118497C47297FF431AF0132B2F53E
:10741000007F7FF4F6AE627C3D2A3FF4F6AE26E7AD
:10742000627C452A7FF423AFA27C442A08BF022253
:107430007FF41DAFA118497C4D297FF418AF0132AC
:10744000B2F5007F4DD1627C4F2A7FF410AFA27C51
:10745000442A08BF02227FF40AAFA118497C4529BB
:107460007FF405AF0132B2F5007F4ED1627C3D2A38
:107470007FF4FDAE0833C4F814322046FFF754FD04
:10748000064640BB6949E06810F0E4F8217CE068FA
:1074900010F032F9D4F81832C4F81432D4F820328B
:1074A000B3427FF4E9AE6249E06810F0D3F8614975
:1074B000E06810F0CFF8217CE06810F01DF9D4F8F6
:1074C0001832C4F81432304670BD5949E06810F0E3
:1074D000C1F85949A4E65649E06810F0BBF857498D
:1074E000D1E7A118497C4F297FF4C1AE0132B2F532
:1074F000007F40F08780627C442A7FF4B8AEA27C93
:10750000452A08BF02227FF4B2AE2244527C3D2AB3
:10751000B0D0ACE60244527C552A7FF495ADDA1C1B
:10752000B2F5007F7FF4B8AE427C442A7FF48CAD84
:10753000827C522A08BF02227FF486ADA018407CCC
:1075400041287FF481AD0132B2F5007F7FF4B8AEFF
:10755000627C542A7FF478ADA27C452A08BF0222BF
:107560007FF472AD2244527C3D2A20D06CE5A018F5
:10757000407C52287FF468AD0132B2F5007FDDD146
:10758000627C412A7FF460ADA27C542A08BF0222AB
:107590007FF45AADA018407C45287FF455AD0132E8
:1075A000B2F5007FDED1627C3D2A7FF44DAD093318
:1075B000C4F814321E49E068D4F82C6210F04AF87E
:1075C0001F49E06810F046F8217CE06810F094F85C
:1075D000D4F81832C4F81432E11837E52244527C4A
:1075E000442A7FF444AEDA1CB2F5007F7FF422AF68
:1075F000627C4D2A7FF43BAEA27C4F2A08BF022258
:107600007FF435AEA118497C44297FF430AE0132B5
:10761000B2F5007F7FF421AF627C452A7FF427AE6C
:10762000A27C3D2A7FF423AE24E700BF943D0400F2
:10763000443D0400203F0400F43E04000C3F0400DD
:10764000B03E040038B50546D0E9853083422ED0DF
:10765000184A0024E9180133497C02F8011BB3F5EC
:10766000007F04F101040ADA8342F3D1C5F8143231
:10767000114B1B7843B9D5F83042204638BD08B1CC
:107680000023E7E70346F1E7686828B18369094901
:107690005B68183022469847A8680028EDD08369B7
:1076A00004495B68224618309847204638BD0024BC
:1076B000DEE700BFFC650020006700200368BB4ACE
:1076C0005B68934270B5D0F81C52044640F0468186
:1076D000D0E98536B342C3BFC3F5FF730133F61853
:1076E000F61A042E40F3B180D4F81432E218517C1B
:1076F00053293FD1591CB1F5007F80F2E680621812
:10770000527C452A16D1B3F5FF7F03F1020240F007
:10771000E180627C4E2A0DD10122A018407C4428D1
:1077200008D10132B2F5007F40F0E380627C202A6C
:1077300000F0E480B1F5007F80F2B38021444A7C00
:10774000452A2ED1B3F5FF7F03F1020240F0AE804F
:10775000627C542A25D101222244527C202A20D145
:107760000433C4F814322046FFF74EFCD4F8143228
:107770000025E218527C472A13D15A1CB2F5007F2B
:1077800080F282802244527C452A0AD1B3F5FF7FE1
:1077900003F1020265D1627C542A02D1A27C202A24
:1077A0006AD0062E53DDD4F81432E218527C562AE1
:1077B0004DD15A1CB2F5007F80F2B0802244527C39
:1077C000452A44D1B3F5FF7F03F1020240F0C9809E
:1077D000627C522A3BD1A27C532A08BF022236D1B6
:1077E000A118497C492932D10132B2F5007F40F01D
:1077F000CB80627C4F2A2AD1A27C4E2A27D1073324
:10780000C4F814326A49E0680FF024FF6949E0685F
:107810000FF020FF217CE0680FF06EFFD4F81C32DF
:107820000025AB4217D16449E0680FF013FF6349AC
:10783000E0680FF00FFF217CE0680FF05DFFD4F8E7
:107840001832C4F81432284670BD00F0AB80D4F86A
:107850001C32AB42E7D0D4F81832C4F814322846B0
:1078600070BD2244527C542A9BD1DA1CB2F5007FB1
:1078700012D1627C202A94D10433C4F814322046F9
:10788000FEF7BEFD05468CE7627C452A89D1A27CC5
:10789000542A08BF022284D12244527C202AEBD0F1
:1078A0007FE7627C452A7FF47CAF0122A118497CE6
:1078B00054297FF476AF0132B2F5007F7FF44CAFEC
:1078C000627C202A3FF44CAF6BE7627C452A7FF450
:1078D00031AF0122A018407C4E287FF42BAF01323B
:1078E000B2F5007F7FF419AF627C442A7FF422AFA7
:1078F00001222244527C202A7FF41CAF0533C4F8B5
:1079000014322046FFF79EFED4F814320025E21808
:10791000517C53297FF42EAF591C0BE7627C452A1A
:1079200095D1A27C522A08BF022290D1A118497C8D
:1079300053298CD10132B2F5007F7FF451AF627CC4
:10794000492A84D1A27C4F2A08BF02227FF47FAF4C
:107950002244527C4E2A3FF452AF78E798470646BD
:10796000BFE62244527C522A7FF471AFDA1CB2F592
:10797000007FDBD1627C532A7FF469AFA27C492A65
:1079800008BF02227FF463AFA118497C4F297FF41E
:107990005EAF0132B2F5007FDAD1627C4E2A3FF44D
:1079A0002EAF54E7D4F81432B1E700BFC962020029
:1079B000943D040034400400443D0400383F04007A
:1079C000F0B5036883B0DB6A04460E46984700288A
:1079D0002DD01848184907460FF03CFE2368204672
:1079E000DB6A98470A22014638460FF011FF134917
:1079F00038460FF02FFE0CE023685B699847C1B250
:107A0000384601910FF054FE336801991B683046E7
:107A1000984723682046DB6A984705462046002D94
:107A2000EAD104480FF048FE284603B0F0BD4FF0FD
:107A3000FF35F9E7D0720020483F0400783F04008A
:107A4000F8B5404E3368834285BF00233360C31AC4
:107A50000346642B044654D93B4B1B78002B51D072
:107A60003A4DA86900283DDDAF68B84218D0FF2123
:107A7000286A696113F012FC6969686A13F00EFCE8
:107A80006969A86A13F00AFC2B689F4246D06B68AC
:107A90009F4243D0AB689F4240D0A869002821DDB7
:107AA0002F68EB699C423CBF0023EB61B84205D0D4
:107AB000AA68904202D06A68904221D1EA681344D1
:107AC0009C421DD9D5E904311944FE29EC6133DC0F
:107AD0007F29DDBF08237F21C5E90431696113F0E7
:107AE000DDFBA86960B9FF21286A696113F0D6FB44
:107AF0006969686A13F0D2FB6969A86A13F0CEFB62
:107B00003460F8BD1248114D00F02EFD68B1A8692F
:107B10000028E7DD6F68B842C2D0A8E73223AF6122
:107B2000EB6010F06DFAE861B7E7A8690028D9DDCD
:107B30002F68B842B5D09AE76FF00703FF21C5E977
:107B40000431CCE7FC66002000670020A869002013
:107B500090700020F8B5AC480FF0D6FEE8B1AA4D01
:107B6000AA4CAB4E28460FF0CFFEB0B128460FF01E
:107B7000D3FE237CC0B283421DD0D4F81832E21861
:107B80000133B3F5007F507412DB00232846C4F89C
:107B900018320FF0B9FE0028E8D19E4B1B78002B5D
:107BA00040F0008110F02CFABDE8F840FFF748BF24
:107BB000C4F81832D6E7D4E985329342C3BFC3F57F
:107BC000FF770137BF18D71A042FD4F81C0240F3EF
:107BD0009080E218527C532A4CD15A1CB2F5007F97
:107BE000C0F2A680617C452940F0BA80012104EBF7
:107BF000010C9CF811C0BCF14E0F1BD101F1010C1E
:107C0000BCF5007F40F04281617C442912D1012102
:107C10002144497C20290DD105332046C4F8143273
:107C2000FFF710FDD4F814320020E218527C532ADA
:107C300020D15A1CB2F5007F80F29280A118497CB5
:107C4000452935D1511CB1F5007F40F0C180627CDF
:107C5000542A2DD101216218527C202A28D10433C4
:107C60002046C4F81432FFF7CFF9D4F81432E218E2
:107C70000020527C472A1BD15A1CB2F5007F4ADAF9
:107C80002244527C452A2FD1B3F5FF7F03F1020233
:107C900040F0AA80627C542A0AD101222244527CFC
:107CA000202A21D104332046C4F81432FEF7A8FB61
:107CB000062F19DDD4F81432E218527C562A13D15B
:107CC0005A1CB2F5007F54DA2244527C452A0BD16B
:107CD000B3F5FF7F03F1020240F0A680627C522AD6
:107CE00002D1A27C532A6BD0D4F81C3283420DD12E
:107CF00000E09AD04849E0680FF0ACFC4749E068E2
:107D00000FF0A8FC217CE0680FF0F6FCD4F81832E4
:107D1000C4F8143226E7627C452AE5D1A27C542AB5
:107D200008BF0222BAD0D4F81C328342EED1E1E778
:107D3000A118497C452981D1B3F5FF7F03F10201E8
:107D40007FF455AF617C4E297FF474AFA17C442948
:107D500008BF02213FF45CAFB2F5007FFFF66EAFC3
:107D6000627C452AA4D1A27C542A08BF02219FD15B
:107D700071E7627C452AB7D1A27C522AB4D1E27C59
:107D8000532AB1D1227D492AAED10422A118497CBF
:107D90004F29A9D10132B2F5007F5CD1627C4E2A15
:107DA0005ED0A1E718491E48FFF70AFE16491D4894
:107DB000FFF706FE10F024F9BDE8F840FFF740BEDB
:107DC000E27C492A90D1227D4F2A8DD1042242E0C3
:107DD0002144497C54297FF46BAFB2F5FF7F02F157
:107DE000020108BF002136E72244527C542A7FF466
:107DF0007BAFDA1CB2F5007F7FF450AF627C202AA3
:107E00003FF450AF70E700BF9C900020C863002093
:107E1000943D040000670020443D0400383F040006
:107E2000F8670020046700202244527C522A7FF425
:107E30005BAFDA1CB2F5007F36D1627C532A7FF447
:107E400053AFA27C492A7FF44FAFE27C4F2A08BF90
:107E500003227FF449AF2244527C4E2A7FF444AF80
:107E600007333146E068C4F814320FF0F3FB2349BE
:107E7000E0680FF0EFFB217CE0680FF03DFCD4F8E8
:107E80001C32002083427FF441AF33E7A4449CF8C6
:107E900011C0BCF1440F7FF4CDAEB1F5FF7F01F10D
:107EA000020108BF0021B3E62244527C532A7FF42A
:107EB0001BAFB3F5FE7F03F104020ED1627C492AA9
:107EC0007FF412AFA27C4F2A08BF0222C3D0D4F89D
:107ED0001C3283427FF41AAF0CE72244527C492AB9
:107EE0007FF402AF5A1DB2F5007F7FF44FAF627C82
:107EF0004F2A7FF4F9AE0122ADE700BF3440040001
:107F000010B5044B044640F8083B02F03BFD204608
:107F100010BD00BF8C40040010B5074B044640F86C
:107F2000183B00F005FD2046044B40F8083B02F0EA
:107F300029FD204610BD00BF7C4104008C40040098
:107F40002DE9F041474C4849484DDFF86081484FE2
:107F5000484E84B0684602F035FD69461822204636
:107F600001F01AF8684602F00DFD2A464249204603
:107F700018F0A6FB4149424C40460FF0EBFF2A4661
:107F80004049404618F09CFB384603F09DFB2A46CA
:107F90003D49384618F094FB204603F02FFC2A4652
:107FA0003A493B4F204618F08BFB30464FF4807126
:107FB00004F07AF8374B33604033B3612A463649D0
:107FC000364C304618F07CFB38464FF4807104F094
:107FD0006BF82A463249384618F072FB314A324B68
:107FE000DFF8CCE05E6007CA04F1200585E80700F1
:107FF00002260D2503221D74C3F82062C3F8242233
:10800000052563260E22C3F82C52C3F83062226085
:10801000042032256FF00706FF22DFF898C0C3F86E
:108020002802C4E9046201210C22E5600F2000252A
:10803000C3F81C12C3E985559F60C3F800E0C3F87C
:108040000CC06260A261A060206A13F0AFF9606AA0
:10805000012113F0ABF9A06A012113F0A7F904B0D4
:10806000BDE8F081D4690020046000200060002099
:10807000EC680020F8670020318902008C3F040082
:108080005C690020897F0300197F0200017F0200E4
:1080900004670020A83F040095630200A86900203F
:1080A0003DC1020004400400C86300202C6A002087
:1080B000284004009C9000202DE9F04F784EDFF816
:1080C0000C82784FDFF80892774C784D85B03046B7
:1080D000002103F075F93046042102F035FF00223B
:1080E0003046012102F060FF0421304603F01AF906
:1080F00013F054F8014640460FF04EFF40460B2166
:108100000FF074FF0C2103464046FB710FF06EFF29
:108110000D21034640463B720FF068FF0E210346D7
:1081200040467B720FF062FF394603463046BB7211
:1081300003F0D0F830465E4901F002FD5D4930465B
:1081400001F000FD5C4803F0E5FA48465B490C226B
:1081500003F050FB1A225A49484603F047FB4846B1
:1081600003F082FB574804F02DF85749684602F0A7
:1081700029FC6946204602F0F1FB684602F002FC49
:1081800029462B4651F826EF53F8327FD1F804A048
:10819000A96821632A46E9686163296932F82FCF0B
:1081A000A163A969D3F804802164AB8CE96992F8D2
:1081B00002902E7D95F82E20B5F816B06164A4F8D3
:1081C0004C30296AA4F857C005F13C03C4F852A00A
:1081D000C4F84EE084F85990C4F85E80C4F85A7030
:1081E00084F83C6084F85620A4F83EB0A16493E87B
:1081F000030084F89460AE69C4F8B270C4F8986063
:10820000AF68EE69C4F8887004F16403EF68C4F8DD
:108210009C602E6AC4F88C7083E803002F6995F87F
:108220004430C4F8A060AE8CA4F8AFC084F86C30C1
:10823000C4F8AAA084F8B190D5F84CA0D5F8509015
:10824000C4F8B680C4F8A6E0D5F85480C4F890709D
:1082500004F1BC0EA4F896B0A4F8A46084F8AE2093
:10826000AA6C8EE80300204684F8C430C4E91C2AB6
:10827000C4E9322AC4E91E98C4E9349803F0A2FF85
:108280002846102100F0CEFE28460022112100F0E1
:10829000E1FE284600F066FB05B0BDE8F08F00BFA8
:1082A000506A002014600020F8670020D469002084
:1082B000DD62020051630200EC68002010400400FF
:1082C0003440040004670020206000202C6A002055
:1082D0005C6900202F4838B50122044600210FF0C8
:1082E00083FD20464FF4E1310FF088FB4FF4FA7024
:1082F0000FF092FE01E00FF00FFB20460FF004FBA1
:1083000003462046002BF6D1234C2568A3699D42E5
:1083100038D0FF21206A616112F0C0FF6169606A94
:1083200012F0BCFF6169A06A12F0B8FF23689D4299
:1083300028D063689D4225D0A3689D4222D0FFF7D4
:10834000BBFE0621154800F0D5F8144800F0BAF835
:108350001349124800F072F8124800F085F80F48EF
:10836000012100F005F90D48F422202100F0F8F871
:108370000A481E2100F0F2F8BDE838400748002105
:1083800000F062B93223A561E3600FF039FEE061CD
:10839000D5E700BF9C900020A869002090700020C5
:1083A000F8670020D470002072DF704773DF7047D9
:1083B00074DF704777DF704738B5054608460C46CE
:1083C00002F00EFB102803D080280ED0012038BD0B
:1083D000EB7FA2881B2B0EDCE9180320E8544870C1
:1083E0004A80EB7F0433EB77F0E7A368002BEDD0F6
:1083F000E97F0D2901DD002038BD6A18112068547D
:108400000721517058681C689968DB68C2F80E3003
:10841000C2F80600C2F80240C2F80A10EB7F12331D
:10842000EB77012038BD00BF10B500210446C177AD
:108430001F2218F00DFA204610BD00BF30B5D1E95B
:10844000042485B0CD68074B00936946CDE902242A
:108450000195FFF7B1FF0446684602F093FA204603
:1084600005B030BDA4400400F0B589B00646202216
:108470001348694602F042FFF37FC2181D2A0CDD43
:10848000C3F11D04E4B2E2181D2A4FF00005D8BF65
:10849000082705DD284609B0F0BD04460125092757
:1084A000F218601CF05469465770901C224618F070
:1084B000A7F9F27F023214442846F47709B0F0BDE0
:1084C000506A002010B50446094802F075FFE37FAA
:1084D0001C2B01DD002010BDE2180221E1540A230B
:1084E00090705370E37F0333E377012010BD00BF2A
:1084F000506A0020C27F1C2A01DD0020704710B4A2
:1085000003469C18022098540120A1706070DA7F05
:108510000332DA775DF8044B704700BF0021C17762
:108520001F2218F095B900BF10B51F220446002184
:1085300018F08EF9064B0749074A23620023E377B8
:10854000C4E90C12C4E90E33E3622364204610BD73
:10855000FF0101002000F40020001E00C1867047CA
:10856000018681864286704790F82300704700BFDD
:1085700080F82210704700BFF0B502EB820389B08B
:10858000154603EB830390F821209B00044600204E
:10859000CDE90410ADF81430931E0290CDE9060029
:1085A0000E4603908DF80820092B09D8DFE803F068
:1085B0000505080808050805080504F124030393C8
:1085C0001D4B1A68D20709D41C491D4AC87FE77F92
:1085D000908101201460916097801860184902AA68
:1085E00004F12000FFF7E0FE10B1002009B0F0BD5B
:1085F00094F820101348019102F0DEFE0199024622
:108600000120FFF7D7FE0028EFD194F820000121C8
:10861000FFF7CCFE0028E8D10A4802F03DFF628F48
:10862000A686AA424FF0010094BF921A521B62879D
:1086300084F8230009B0F0BD386A0020D47000200F
:108640003C6A0020506A0020F0B5002361F30F035C
:10865000044661F31F4389B08363FA212F4802F077
:10866000B3FEE58E94F82110268E049605EB850363
:1086700003EB830300229B000592ADF814308B1EA0
:108680000292CDE9062203928DF80810092B09D831
:10869000DFE803F00505080808050805080504F1EA
:1086A000240303931E4B1A68D20709D41D491E4A9E
:1086B000C87FE77F908101201460916097801860E7
:1086C000194902AA04F12000FFF76EFE10B1002044
:1086D00009B0F0BD94F820101048019102F06CFE32
:1086E000019902460120FFF765FE0028EFD194F8BA
:1086F00020000121FFF75AFE0028E8D1074802F0C8
:10870000CBFE638FA6869D424FF0010094BF5B1B9A
:10871000DB1A638784F8230009B0F0BD506A00209B
:10872000386A0020D47000203C6A002010B504464E
:1087300090F82000FFF73CFE08B1002010BD84F83F
:108740002300024802F0BCFE012010BD506A002048
:1087500030B50B888D88112B85B0044605D0262BAB
:1087600033D0102B25D005B030BDC36AEB40DB07FA
:10877000F9D52E4801F0C4F90028F4D1E36A94F841
:108780002310012202FA05F523EA0503E36200291A
:10879000E9D194F82230002BE5D0238F234863875A
:1087A000FA2102F011FEE28E218E2046FFF7E4FE50
:1087B000D9E7CB7B012BD6D1C26A03FA05F5154365
:1087C0000023C56280F82330CDE70B7A012BCAD194
:1087D000002380F823304FF4FA71144802F0F4FDBE
:1087E000238F5BB1658F95B1236C0BB19847658F73
:1087F000618E2A462046FFF7BFFEB4E7236C03B123
:108800009847618E00222046FFF7B6FEABE7074887
:1088100002F056FEE26B002AA5D0009503AB294674
:108820002846039512F014FB9DE700BF506A002014
:1088300075DF704710B44FF010144FF44801002258
:10884000C0E90041C0E902225DF8044B704700BF57
:10885000014800F057BF00BF48710020F8B500255F
:108860000D4F2E4601E0142D14D0A9B2384602F067
:10887000FBFD013504460028F5D000F0E7FD002897
:10888000F1D0204600F0ECFD022804BF0136F6B21C
:10889000142DEAD13046F8BD506A002070B58E889C
:1088A0001B480C4694B0314602F0DEFD23881A2B9B
:1088B00005D01F2B1CD0102B0FD014B070BD054657
:1088C00000F0C6FD0028F8D0284600F0C3FD0028BF
:1088D000F3D1284600F02EFEEFE7694600F012FEC5
:1088E0000028EAD06A4631460A4801F0A1FCE4E7D4
:1088F00054F8080F61686B4603C33046BDF800307A
:10890000ADF802306946FFF793FF14B070BD00BFA9
:10891000506A0020706A0020AADF7047ABDF704702
:10892000ACDF7047ADDF7047AEDF7047B0DF704738
:1089300010B5044B044640F8043B02F023F82046EF
:1089400010BD00BF5C40040010B5054B044640F864
:10895000043B02F017F8204611F006FF204610BD38
:108960005C40040070B57B4B04461B68836196B085
:10897000043002F045F894F82E30A06913F032026A
:1089800008BF84F82F2013F00C0308BF84F83030A0
:108990000DF10102694601F0EBFF94F82F209DF8DC
:1089A000010015070DD09DF8001002F00F0301F033
:1089B0000F059D424FEA12126DD243EA021284F86B
:1089C0002F2094F8303019070BD003F00F0100F07E
:1089D0000F058D424FEA131369D241EA031384F85D
:1089E000303094F82E1011F0300340F096800FAD27
:1089F0000F93C5E90133C5E903338DF83C10AB6132
:108A00000021ADF809109DF80A10206A1493012383
:108A100063F342018DF808208DF80A1008B103783D
:108A200073BB94F8263013B104F12603129394F823
:108A300031200023D2070893079358BFE38AADF88B
:108A40001C3004F1080004F12F01CDE9050154BFE9
:108A50001846E08AADF82000294604F13203E569A2
:108A6000099505AA0020FFF757FF054628B994F895
:108A7000253043BB237D002B64D0284616B070BD43
:108A8000109018F0D8FD02AB80B2ADF84400ADF8FC
:108A900046001393C5E74FEA111101D191428CD3DF
:108AA0000A462B4643EA021284F82F2089E74FEA50
:108AB000101001D1984290D30346294641EA03138E
:108AC00084F830308DE7ADF80D009DF80E2094F855
:108AD0002F600C90012363F3420242F608118DF8D7
:108AE0000E208DF8123004AA0223ADF8101003A94D
:108AF0000D90ADF83030ADF834300A9204F1240313
:108B00000B910DF102020AA98DF80C600E93FFF78C
:108B100005FF0028AED00546AFE70F4B8DF80520C6
:108B20000FAD1B788DF80430022000230F938DF8D1
:108B30000600C5E90133C5E90333AB618DF83C108C
:108B400001AB5DE72146054800F09CFF284616B0C2
:108B500070BD00BF4C6A002050400400906E0020A1
:108B60002DE9F0410B888E88502B8AB00C460546C3
:108B700009D0512B04D18B79012B19D0022B26D08F
:108B80000AB0BDE8F081CB88428E9A4235D0EA8E99
:108B90009A42F5D16B6D002BF2D095F84420648A8F
:108BA000920700F18A802246294630469847E7E737
:108BB000836C002BE4D090F84420520701F10807A1
:108BC0006CD43A46294630469847A379D6E7A27B2B
:108BD000042A46D0062A20D0012AD1D1EB6C002BE2
:108BE000CED095F84420170704F1080400F1A580C1
:108BF0002246294630469847C2E7076D002FC6D067
:108C000090F84430D90768D404F11208238A424608
:108C100029463046B847E388B9E7EA6B002AAFD067
:108C2000002202A93046CDE90222CDE90422ADF8A6
:108C30000C208DF80830FFF779FE2C6D54B195F8B3
:108C40004430D80700F19280B5F84230EA6B3046E4
:108C50002946A047E86B0FF015FA0023C5E90F334A
:108C60008EE7E86B002878D0B5F84010278A628A32
:108C700007EB020C00234FF0020E8C45CDE90633C2
:108C8000CDE908338DF818E039DD40F20913ADF86D
:108C90001C3006A93046FFF749FE71E703211A464A
:108CA000009106AB08213846CDE90665089712F019
:108CB000CFF8002889D1AB6C83E7032000211A4646
:108CC000009006AB0846CDE90665089412F0C0F89E
:108CD00000287FF455AF6B6D65E7218A069604F195
:108CE0001208042300933A46404606ABCDE90881BA
:108CF000079512F0ADF800288DD12F6D86E79DF80D
:108D00001EC0ADF81C3004F114014CF001033844CE
:108D1000ADF822208DF81E300991ADF8207017F0C3
:108D20006FFD238A618AB5F842200B449BB29342BF
:108D300038BF1346A5F84230ABE703211A4600912D
:108D400006AB0E212046CDE90665089412F080F8A6
:108D500000287FF415AFEB6C4AE74FF480600FF00A
:108D600077F94FF48061C5E90F017FE7E86BB5F84B
:108D70004210069604230093224606ABCDE9075025
:108D8000099112F065F800287FF464AF2C6D5BE761
:108D90002DE9F04F0F464FF6FF718F4289B006461E
:108DA00015461C4626D0F18A96F82E308C4228BFF4
:108DB0000C46DB0615D40DF1100B8C4228BF0C4677
:108DC0004FF00008718EADF810405A464FF6FF7014
:108DD0000595ADF81280FFF7A3FD404609B0BDE848
:108DE000F08F3948394602F027FB08B1F18E31B9CE
:108DF000F18AE0E7344802F02BFB0746D3E7002076
:108E000002230DF1100BADF81200ADF810305A46E8
:108E10000DF10E0338460593FFF784FD43F201433D
:108E200098424FD000284AD19DF80E8008F00108E2
:108E3000B8F1000F46D02448394602F015FB8246AF
:108E4000A0B300F00FFB033883B2002CC5D0CDF8DF
:108E500004804FF00009984605E0BDF80E30E41A92
:108E6000A4B21D4444B3504600F01AFBA04503468B
:108E70004246594628BF22463846BBB1ADF80E20BF
:108E80004FF00102738E8DF812200DF10E02CDE924
:108E90000625CDF813908DF81790ADF81030FFF738
:108EA00043FD0028D9D0504600F004FB4FF00008E5
:108EB000404609B0BDE8F08FDDF804808DE700F092
:108EC0000108B5E7F18A78E7506A002010B5154B24
:108ED000044640F8043B01F05DFD134A002312787C
:108EE00084F8443014200321A384C4F82630C4F845
:108EF0002A3084F82E30E082C4E90F33C4E91233FB
:108F0000C4E9143384F831102375A3612362E3614B
:108F100063866363238784F82F2084F830202046FB
:108F200010BD00BF5C4004005040040070B44E68A7
:108F3000164A86600260D1E90262154B154D1C7815
:108F400045600261142500220321C0E90F22C0E917
:108F50001222C0E91422C660C58280F8311080F860
:108F600044200275826102628284C0F82620C0F823
:108F70002A2080F82E20C26142864263028780F850
:108F80002F4080F8304070BC704700BF5C40040048
:108F900050400400A440040070B480F82E20164A0B
:108FA0004260D1E90262154D154B05604D681C7891
:108FB00085600261142500220321C0E90F22C0E967
:108FC0001222C0E91422C660C58280F8311080F8F0
:108FD00044200275826102628284C0F82620C0F8B3
:108FE0002A20C26142864263028780F82F4080F8BF
:108FF000304070BC704700BFA44004005C400400D7
:109000005040040010B4D1E90142CB680361C0E9CB
:1090100002425DF8044B7047806970470123037575
:10902000704700BF80F82E10704700BFC1827047A4
:1090300041B190F83130C182002262F3000380F820
:109040003130704790F83130012262F3000380F82C
:109050003130704780F82F1080F83020704700BF03
:1090600090F84430016562F3000380F844307047A3
:1090700010B490F8443090F83140C164003918BF02
:10908000012161F3041462F3C30380F8314080F8D6
:1090900044305DF8044B70470162704751F8322F3D
:1090A000026049684160704730B5C48A83B0944219
:1090B00023460D4628BF1346418E019500246A467B
:1090C0004FF6FF70ADF80030ADF80240FFF728FC16
:1090D00018B9BDF8000003B030BD204603B030BD64
:1090E00030B5C38A85B00A46022B28BF0223418EC1
:1090F000ADF8062000240DF1060502AA4FF6FF7018
:10910000ADF80830ADF80A400395FFF709FC18B92F
:10911000BDF8080005B030BD204605B030BD00BF29
:1091200090F82E3013F0100301D11846704730B577
:10913000044685B011480D4602F07EF910B1E18E6B
:1091400011B9084605B030BD0DF1060328460024CC
:10915000022502AA0393ADF80A40ADF80850FFF7C4
:10916000E1FB43F20143984206D008B99DF806009E
:1091700000F0010005B030BD2046E3E7506A002052
:1091800010B490F82E4014F0100403D05DF8044B96
:10919000FFF7FEBD20465DF8044B7047A1DF704726
:1091A000A3DF7047A4DF704700238383704700BFAD
:1091B000006A00F0E3B800BF808B70472DE9F041F2
:1091C0000B88CE88382B86B00C46054606D0392B46
:1091D00066D0362B43D006B0BDE8F08100F12407FD
:1091E000002E36D10A8A3846314603F0AFF894F89B
:1091F0000C80B8F1010F2CD0B8F1040FEBD1286A24
:1092000000F0BCF801465C4802F02EF900F02AF9A3
:109210002A8E053883B2934228BF1346002B00F0F4
:109220009A80218AE289286AAC8B8DF80D600A4405
:10923000E96A05918DF80C80ADF81230ADF8102078
:10924000ADF80E4000F09AF803A9FFF7A9FF002837
:10925000C1D0384603F092F806B0BDE8F081006A4C
:1092600000F08CF80146444802F0FEF800F0FAF8ED
:1092700007466EBB05F12406E289304604F1100171
:1092800003F064F82B8E2BB1F81EE38980B201380D
:10929000834255DA304603F071F806B0BDE8F0813C
:1092A0000B7B012B1AD0022B95D1836B002B92D014
:1092B00090F83C208F8892071FD401F11006E289B4
:1092C00031462846984761893846FFF76BFF82E7A9
:1092D00005F12407384603F051F8BDE7436B002B36
:1092E0003FF479AF90F83C20D10717D404F1100671
:1092F000E2893146284698476DE7C989039004F111
:10930000100603201A46009003AB3046CDE90461F5
:1093100011F09EFD0028D6D1AB6BD0E7E189039018
:1093200004F1100603201A46009003AB3046CDE945
:10933000046111F08DFD00287FF44DAF6B6BD7E712
:10934000286A00F01BF86A8EA98B92B2FFF726FFFD
:1093500000289FD13FE7AA8B286AADF80E2040F283
:109360000511ADF80C10CDE9043300F007F803A99E
:10937000FFF716FF6DE700BF506A00208088704736
:1093800076DF70478FDF704790DF7047B1DF70473F
:10939000B5DF704710B5074B03600446806A0FF0D5
:1093A0001DFDE06A0FF01AFD206B08B10FF016FDED
:1093B000204610BD7440040010B5094B03600446FC
:1093C000806A0FF00BFDE06A0FF008FD206B08B11A
:1093D0000FF004FD204611F0C7F9204610BD00BF74
:1093E0007440040070B504460D4692E80300A58061
:1093F0000E0CA061A183144DA67717201B2156895E
:109400002560E0809589D089E181D179658101224B
:1094100022752274A08161741846194626819DF830
:1094200010500EF0F9FE2946A06228460EF0F4FE18
:109430004FF4885100234FF6FF72E182E0626282AE
:1094400023636375204670BD74400400007D70473F
:10945000407D7047C07D113818BF0120704700BFA4
:10946000407C7047C0887047008970474B7D10B4BE
:109470004BB11F310C688A888B79046082805DF85B
:10948000044B837170471831F4E700BF08B513210E
:109490008088FFF775FFB0FA80F0400908BD00BF73
:1094A00008B56621806A0FF011FB003818BF012053
:1094B00008BD00BF08B500231A461946806A0EF0A1
:1094C000DDFE003818BF012008BD00BF818800F113
:1094D0001F02407C02F098BF38B50A4605460C468C
:1094E0008188407C02F07CFF2146012051F8483FF2
:1094F000C5F81F308B888A7985F82520A5F8233098
:10950000687538BD38B50A4604460D4600F11801A5
:10951000407C02F0AFFF607550B1294651F8483FDA
:10952000C4F81F308B888A7984F82520A4F823306A
:1095300038BD00BF10B5447D24B100F11F01407C4F
:1095400002F076FF204610BD70B50B88113B82B04B
:109550000C460546462B2BD8DFE803F0383B2A2A79
:109560002A2A2A2A2A422A2A2A2A2A2A50585E6481
:109570002A2A2A2A2A2A2A2A2A2A2A2A2A2A2A2A4B
:109580002A2A2A2A2A672A942A2A2A2A2A2A2A2A94
:109590002A2A2A2A2A2A2A2A2A2A2A2A2A246A2AF1
:1095A000752C84000023A8881A461946FFF7EEFEA2
:1095B00002B070BD8B79002BFAD1006BAB7500281F
:1095C000F6D01A4619460EF059FEF1E7002303754E
:1095D000EEE74B8903818B894381CB898381E7E760
:1095E0000B7AC375112BE3D0818800F11F02407CF8
:1095F00002F0F8FF03460028DAD1D4E7002301A9DE
:109600008088ADF80430FFF7BDFED1E70B7A002B60
:10961000CED14B7A0374CBE7002211468088FFF746
:10962000B3FEC5E70B89C381C2E74B89C380BFE79F
:10963000006B0123AB750028BAD000231A461946E7
:109640000EF01CFEB4E7417C164801F005FFE388EC
:109650000146994228BF194689B2A888E980FFF7D8
:1096600097FEA5E78B79002BA2D0002600231A468F
:109670001946A86A0EF002FE0136A279F3B29A42A8
:10968000F4D895E78B7A002B92D0002600231A4657
:109690001946E86A0EF0F2FD0136A27AF3B29A4258
:1096A000F4D885E7506A002070B58AB086880B46EA
:1096B00006A84FF42851144605934FF6FF7501F0A4
:1096C00073F90120CDE90105059B0094314606AAF6
:1096D000044800F073F8044606A801F053F9204648
:1096E0000AB070BD906E002010B50446043002F040
:1096F000C9FD034B236000232375204610BD00BF26
:109700000100FFFF017D01B1704710B50446043030
:1097100002F0C2FD0123237510BD00BF007D70471C
:109720000B88322B10B504D0332B1ED0302B0FD02A
:1097300010BD4A8932B100230133DBB29342FBDB17
:10974000CB881BB3041D2046BDE8104002F016BEB6
:10975000CB88041D002BF6D14B89002BF3D00A31A6
:1097600020460A2202F0F2FDEDE7CB88002BE9D17A
:109770004A89002AE6D002EB42025200041D02325E
:1097800092B20A31204602F0E1FDDCE702EB8202F0
:10979000F3E700BFA0DF704710B5044600F5F8708E
:1097A00002F070FD2046F822002117F051F8F8224F
:1097B000A018002117F04CF8204610BD2DE9F04705
:1097C00082B00546BDF82C60BDF830402048ADF8A9
:1097D0000460BDF828A0ADF80640904699460F46B3
:1097E00001F042FE05F5F875064603E0FFF73CFE82
:1097F0000EF012FC284602F0A7FD04463046002C6D
:10980000F4D10121284602F047FD52464946284638
:1098100002F05EFD08F10401384601AAFFF7BAFF25
:1098200030B1284602F042FD204602B0BDE8F08784
:109830004FF4FA71284602F051FD20EAE074284600
:1098400002F034FDA4B2204602B0BDE8F08700BFAC
:10985000506A00202DE9F04F8F880D8885B088462A
:1098600004463946864801F0FFFDA5F11003012B9F
:10987000814640F2908094F854203AB30026334653
:109880001633502D54F823A069D0512D1AD198F8D1
:109890000630B8F808B0022B53D0BBF1000F11D03E
:1098A00051466846FFF7FAFBBDF800305B4559D0DA
:1098B000514602A8FFF7F2FBBDF80C305B4551D0D2
:1098C00094F854200136F3B29342D9D394F84C3132
:1098D000002B00F0D18004F5A679002604E094F86E
:1098E0004C310136B34220DD59F8040FFFF760FC1C
:1098F000B842F4D1382D03D0392D01D0362DEED118
:10990000B8F80AA0BAF1000FE9D0D9F800B058466B
:10991000FFF752FC5045E2D158464146FFF74EFC56
:1099200094F84C310136B342DEDC112D55D0352D83
:1099300004D1B8F80A30002B40F08F8005B0BDE8A4
:10994000F08F98F80E30062BA7D1DAF80030504689
:10995000DB68414698474846FFF77CFDB0E7B8F81A
:1099600006B09AE7DAF800305046DB68414698477F
:109970004846FFF76FFD0028A2D0502DA0D15146D8
:1099800002A8FFF78BFBBDF80C305B4598D1484629
:10999000FFF79CFD94E72378002B3FF46CAF002683
:1099A000112D33460CD004EB830339465868036805
:1099B0005B68984701362278F3B29A42F3D85AE7A7
:1099C00004EB83033946586803681B6898470136DF
:1099D0002278F3B29A42F3D84DE7D3B1002633464A
:1099E00005E094F84C210136F3B29A4211D904EB08
:1099F0008305D5F85001FFF7DBFBB842F1D1D5F86C
:109A00005001FFF7D1FB013694F84C21F3B29A4292
:109A1000EDD894F8F820002A90D000252B4604EBCE
:109A20008303D3F8FC008388BB420AD00135EBB234
:109A3000934283D204EB8303D3F8FC008388BB42B8
:109A4000F4D103681B689847013594F8F820EBB20D
:109A50009342E4D305B0BDE8F08F04F5F874B8F88C
:109A60000C20204608F1100102F070FC204605B0E1
:109A7000BDE8F04F02F082BC112D7FF458AFC8E76B
:109A8000506A002090F85420272A0CD810B40346BE
:109A900002F11604013280F8542043F8241001200A
:109AA0005DF8044B70470020704700BF0378132B0C
:109AB00006D800EB83020133037001205160704728
:109AC0000020704778DF70477ADF7047054A034609
:109AD00092E80300002283E80300C3E9022218464B
:109AE000704700BF7C40040008B5FFF7EDFF08B1E8
:109AF000002008BDFFF7E6FFB0FA80F0400908BD7E
:109B0000F8B500250D4F2E4601E0142D14D0A9B252
:109B1000384601F0A9FC013504460028F5D0FFF7CE
:109B200095FC0028F1D02046FFF79AFC012804BFDD
:109B30000136F6B2142DEAD13046F8BD506A002045
:109B400081607047C1607047704700BF8ADF70470F
:109B500030B40D4CC4621F25002250248584A025FA
:109B6000C0E91122C0E90F22A0F84650A0F84840F1
:109B7000006230BC8262028680F838204263C26490
:109B8000A0F85020704700BF000180002DE9F04F81
:109B900010468DB016460C4600F022FFC5B2102DBF
:109BA0004FD0B66807220623A16994F81C90019152
:109BB0008DF80D208DF80C30ED080DF10C080DF12D
:109BC0000E0A0027B9F1010F0A97CDE90477CDE914
:109BD0000677CDE90877CDF82B700ED998F80000FC
:109BE00001994B464A7882420FD00A78D4432344E5
:109BF000013213F0FF031144F4D108F10108C2450A
:109C0000E0D100200DB0BDE8F08F11F8024B013C0F
:109C1000E4B2224604A816F0F3FD0DF1100B1CB9B6
:109C2000EBE714F0FF04E8D058462A46314616F018
:109C3000D9FD641BAB440028F3D101200DB0BDE871
:109C4000F08F043603220223AEE700BF2DE9F04374
:109C50000B888E88103B87B00D4604460D2B2CD800
:109C6000DFE803F077072B2B2B2B2B2B2B2B2B84B5
:109C70002B2E836AF340DB071FD55648FEF7EEFD17
:109C8000D8B9A36A94F82C20012505FA06F623EA30
:109C90000606A6628AB994F82D3073B11F23246298
:109CA000A38404F1200104F14400FFF74FFF20B921
:109CB000494801F0F1FB84F82C5007B0BDE8F0836F
:109CC00090F92E2091F91B309A423ADC90F8383006
:109CD00001F108080BB3DFF80491002602E0D6B2C8
:109CE000B34218D9636BCDF8089003EB061302AAB0
:109CF00059680391D3E902734146204605930497BE
:109D0000FFF744FF074602A800F03CFE94F8383005
:109D1000721C002FE3D09E4213D094F82F30002BFA
:109D200049D095F82430012B0BD9296A4A78FF2AAB
:109D300030D00A78D0430344013213F0FF031144BA
:109D4000F4D104F120010020FFF700FF07B0BDE8C7
:109D5000F083CB7B022BB0D1836A012202FA06F694
:109D600033430022836280F82C20A6E70B7A012B74
:109D7000A3D1002580F82C50174801F0A1FB226CDC
:109D8000002A9AD0009502AB29462846029511F088
:109D90005FF892E711F8025B6A1ED2B2022A28BF6E
:109DA000022202A816F02CFD012DCAD0228EBDF889
:109DB00008309A42C5D1E26B002A3FF47EAF0123FE
:109DC0000093404602AB2421CDF8088011F040F802
:109DD00073E700BF606A0020506A0020A4400400BE
:109DE00046DF70477FDF704780DF704781DF704755
:109DF00085DF704786DF704738B51C460D46034641
:109E0000114628462246984734B10146002228468A
:109E1000BDE83840FFF7E8BF38BD00BF10B50C46BD
:109E200082B003466946204698476A46204601218B
:109E3000FFF7DAFF02B010BD10B50446083002F09B
:109E400019FE074B2360032200232271C4F810344B
:109E5000C4F81434C4F81834C4F81C34204610BDB7
:109E60003507100330B50446ADF55F7D00F10805F8
:109E70008F4802F093FD0821284602F0FFFD684656
:109E800002F006FE6846082102F006FE69462846F2
:109E900002F0A4FD04F54F714122684602F00AFE6B
:109EA000684602F003FE94F85C0394F85B2394F890
:109EB0003D1394F83E3384F83D0384F83E2394F830
:109EC0005A0394F8592394F83F5384F85C1384F8A8
:109ED0005B3394F8401394F8413384F83F0384F8DB
:109EE000402394F8580394F8572384F85A5384F87D
:109EF000591394F8425394F8431384F8410384F8B7
:109F0000583394F8560394F8443384F8422394F871
:109F1000552384F8575384F8430384F8442384F882
:109F2000553384F8561394F8451394F8540394F871
:109F3000532394F8463384F8450384F8462394F871
:109F4000520394F8512394F8475384F8541384F837
:109F5000533394F8481394F8493384F8470384F84A
:109F6000482394F8500394F84F2384F8525384F80C
:109F7000511394F84A5394F84B1384F8490384F826
:109F8000503394F84E0394F84C3384F84A2394F8F1
:109F90004D2384F84F5384F84B0384F84C2384F802
:109FA0004D3384F84E1394F85D1394F87C0394F8C1
:109FB0007B2394F85E3384F85D0384F85E2394F881
:109FC0007A0394F8792394F85F5384F87C1384F827
:109FD0007B3394F8601394F8613384F85F0384F85A
:109FE000602394F8780394F8772384F87A5384F8FC
:109FF000791394F8625394F8631384F8610384F836
:10A00000783394F8760394F8643384F8622394F8F0
:10A01000752384F8775384F8630384F8642384F801
:10A02000753384F8761394F8651394F8740394F8F0
:10A03000732394F8663384F8650384F8662394F8F0
:10A04000720394F8712394F8675384F8741384F8B6
:10A05000733394F8681394F8693384F8670384F8C9
:10A06000682394F8700394F86F2384F8725384F88B
:10A07000711394F86A5394F86B1384F8690384F8A5
:10A08000703394F86E0394F86C3384F86A2394F870
:10A090006D2384F86B03012084F86F5384F86E13EA
:10A0A00084F86C2384F86D330DF55F7D30BD00BFFF
:10A0B000E47100200B7803F0FE03042B01D0002094
:10A0C000704770B515468CB00C462022002104A8BC
:10A0D00016F0BEFB28686968AA68EB686D460FC574
:10A0E0009DF800109DF80F209DF801609DF80E501E
:10A0F0009DF802008DF80F1023469DF80D108DF885
:10A1000000209DF803208DF80E608DF801509DF819
:10A110000C609DF804508DF80D008DF802109DF82C
:10A120000B009DF805108DF80C209DF80A208DF885
:10A1300003608DF80B508DF804008DF805208DF824
:10A140000A109DF8061033F8042FADF810209B7804
:10A150009DF809209DF81D009DF810609DF81F5086
:10A160008DF809108DF806209DF811109DF81E201D
:10A170008DF81D309DF807308DF812008DF81F60A6
:10A180009DF808009DF813608DF810508DF81E1092
:10A190009DF81C509DF814108DF811208DF8083092
:10A1A0009DF81B209DF81A308DF807008DF81C6073
:10A1B0008DF813509DF815608DF81B108DF8142044
:10A1C00068468DF815309DF819109DF817209DF8F8
:10A1D00018309DF816508DF818208DF816108DF84F
:10A1E00017308DF81A608DF81950FFF7F9FD627875
:10A1F0009DF82F309DF82E009DF82D108DF8210030
:10A200009A428DF8221004F1010404D0012080F05C
:10A2100001000CB070BD6278C3B29A4204F101042F
:10A22000F4D16278CBB29A42F0D10020EFE700BFC0
:10A2300008B5137CDB0758BF1C32084602F1120137
:10A24000FFF7D6FDB0FA80F0400908BDF0B58F8861
:10A250000E46ADF56B7D04463946464801F004F9DB
:10A260003388133B0546072B2FD8DFE813F03E0059
:10A270005F006D002E002803870008003100337A4C
:10A28000B3B9737B9B070ED4294602A8FFF7EEF8FB
:10A290000299BDF80C209DF80E3084F80C34C4F8F7
:10A2A0000614A4F80A24284604F2BE31FFF714F974
:10A2B000D4F818244AB1307A0D900223002100937B
:10A2C00008460CAB0C9710F0C3FD0DF56B7DF0BD8F
:10A2D000D4F81C24002AF8D001230021009308465A
:10A2E0000CAB0C9710F0B4FDEFE704F2BE3304F2B0
:10A2F000DA320C9304F2F63300251092119304F233
:10A300003D3204F27E330F921393CDE90D55129531
:10A31000FFF7A6F801280CBF22462A460CAB2946B7
:10A320003846FFF75FFD0DF56B7DF0BD0CA9FFF71B
:10A33000E9F80346002800F0D2820CA93846002331
:10A340001AAAFFF757FDC0E7D4F810140029BCD0B3
:10A35000B37B094A03F001030F930423CDE90C17E3
:10A3600006F10800009306210CAB0E9010F070FD72
:10A37000ABE700BF506A0020F99D020094F87E33DD
:10A3800094F89D2394F87FC394F89C6394F88053C9
:10A3900094F89B0384F89D33042194F89A3384F84D
:10A3A0007D1384F87E2394F8811394F8822384F833
:10A3B0009CC384F87F6394F899C394F8836384F80A
:10A3C0009B5384F8800394F8985394F8840384F89A
:10A3D0009A1384F8813394F8971394F8853384F8AA
:10A3E000992394F8962384F882C384F8986384F8B8
:10A3F000835384F8970384F8841384F8852384F8BE
:10A40000963394F8862394F8953394F887C394F898
:10A41000946394F8885394F8930394F8891384F818
:10A42000952384F8863394F8922394F88A3384F839
:10A4300094C384F8876394F891C394F88B6384F889
:10A44000935384F8880394F8905394F88C0384F819
:10A45000921384F8892394F88F1394F88D2384F849
:10A46000913394F88E3384F88AC384F8906384F827
:10A470008B5384F88F0384F88C1384F88D3384F81D
:10A480008E2394F89E2394F8BD3394F89FC394F8D8
:10A49000BC6394F8A05394F8BB0394F8A11384F818
:10A4A000BD2384F89E3394F8BA2394F8A23384F839
:10A4B000BCC384F89F6394F8B9C394F8A36384F889
:10A4C000BB5384F8A00394F8B85394F8A40384F819
:10A4D000BA1384F8A12394F8B71394F8A52384F849
:10A4E000B93394F8B63384F8A2C384F8B86384F817
:10A4F000A35384F8A41384F8B62384F8A53384F80E
:10A50000B70394F8A60394F8B51394F8A72394F826
:10A51000B43394F8A86394F8B35384F8B50384F87B
:10A52000A61394F8A90394F8B21384F8B42384F81A
:10A53000A73394F8AA2394F8B13384F8B36384F86A
:10A54000A85394F8AB6394F8B05384F8B20384F83A
:10A55000A91394F8AC0394F8AF1384F8B12384F8EA
:10A56000AA3394F8AD2394F8AE3384F8AD3384F86D
:10A57000AE2384F8B06384F8AB5384F8AF0384F857
:10A58000AC130CA802F084FA0CA8082102F084FA9B
:10A5900004F27D310CA8412202F09EFA0CA904AA13
:10A5A000202304F1080002F047FA0CA802F07EFA1A
:10A5B0009DF810109DF82F009DF811309DF82E2069
:10A5C0009DF812609DF82D508DF810008DF82F1019
:10A5D0009DF813009DF82C108DF811208DF82E3069
:10A5E0009DF814209DF82B308DF812508DF82D60B9
:10A5F0009DF815509DF82A608DF813108DF82C00E9
:10A600009DF816109DF829008DF814308DF82B2038
:10A610009DF817309DF828208DF815608DF82A5088
:10A620008DF816008DF817208DF828308DF8291038
:10A630009DF818109DF827009DF819309DF82620E8
:10A640009DF81A609DF825508DF818008DF8271098
:10A650009DF81B009DF824108DF819208DF82630E8
:10A660009DF81C209DF823308DF81A508DF8256038
:10A670009DF81D509DF822608DF81B108DF8240068
:10A680009DF81E109DF821008DF81C308DF82320B8
:10A690009DF81F309DF820208DF81D608DF8225008
:10A6A0008DF821108DF81F208DF820308DF81E00B8
:10A6B00094F87E0394F89D1394F87F2394F89C33C8
:10A6C00094F8806394F89B5384F89D0384F87E1378
:10A6D00094F8810394F89A1384F89C2384F87F33C8
:10A6E00094F8822394F8993384F89B6384F8805318
:10A6F00094F8836394F8985384F89A0384F8811348
:10A7000094F8840394F8971384F8992384F8823397
:10A7100094F8852394F8963384F8986384F88353E7
:10A7200084F8841384F8962384F8853384F8970397
:10A7300094F8860394F8951394F8872394F8943347
:10A7400094F8886394F8935384F8950384F88613F7
:10A7500094F8890394F8921384F8942384F8873347
:10A7600094F88A2394F8913384F8936384F8885397
:10A7700094F88B6394F8905384F8920384F88913C7
:10A7800094F88C0394F88F1384F8912384F88A3317
:10A7900094F88D2394F88E3384F8906384F88B5367
:10A7A00084F88C1384F88E2384F88D3384F88F0317
:10A7B00094F89E0394F8BD1394F89F2394F8BC3347
:10A7C00094F8A06394F8BB5384F8BD0384F89E13F7
:10A7D00094F8A10394F8BA1384F8BC2384F89F3347
:10A7E00094F8A22394F8B93384F8BB6384F8A05397
:10A7F00094F8A36394F8B85384F8BA0384F8A113C7
:10A8000094F8A40394F8B71384F8B92384F8A23316
:10A8100094F8A52394F8B63384F8B86384F8B703A2
:10A8200084F8A41384F8B62384F8A53384F8A353DA
:10A8300094F8A65394F8A72394F8B43394F8B50386
:10A8400094F8A81394F8B36384F8B55384F8B42348
:10A8500094F8A95394F8AA2384F8A73394F8B13351
:10A8600094F8B0C384F8A60384F8B31394F8B20341
:10A8700094F8AB1384F8A86384F8B25394F8AC63EB
:10A8800094F8AF5384F8B12384F8AA3394F8AD2335
:10A8900094F8AE3384F8A90384F8B013384604A9B9
:10A8A00084F8ABC384F8AF6384F8AC5384F8AE2368
:10A8B00084F8AD33FFF79AFA0DF56B7DF0BDD4F84F
:10A8C0001424002A3FF401AD0223002100930C92CE
:10A8D0000CAB064A0D97084610F0BAFAF5E4384674
:10A8E0001A461946FFF786FAEFE400BF1D9E0200E4
:10A8F000A8DF7047704700BF30B5044683B008300A
:10A9000000F07EF804F10C010DF106020120FFF7C2
:10A91000EFFF054628B9044B04481C602146FFF7A9
:10A92000C5F8284603B030BD4C6A0020906E002068
:10A9300030B44C68C460D1E90241054A054D02605B
:10A94000054A8560C0E90441426030BC704700BFE1
:10A950008C400400A44004000000111110B4D1E99F
:10A960000142CB684361C0E903425DF8044B704784
:10A9700083790B70C3791370704700BF62DF704733
:10A9800063DF7047704700BF10B504460FF0ECFE60
:10A99000204610BD034A02600022C0E902228271F3
:10A9A00082807047A440040010B4054C81800022CE
:10A9B00001210460C0E902225DF8044B81717047F7
:10A9C000A4400400002210B4044C046081605DF8CF
:10A9D000044B82718280C260704700BFA4400400B3
:10A9E0008379012B0AD0826832B9C26822B9012B5F
:10A9F0008CBF802000207047802070471020704757
:10AA00002DE9F047857982B0002D47D1C768064609
:10AA1000002F47D010200DF01BFB8246384616F061
:10AA20000AFE441E30B3DFF88490A84604E00134E7
:10AA3000023C1FD4102D1DD017F804C0BCF12D0FFF
:10AA400007EB0402F3D099F80030ADF805808DF8DB
:10AA5000043012F8013C8DF804301022002101A8C6
:10AA60008DF805C016F0A2FE6B1C023C0AF805002A
:10AA7000DDB2DFD5C6F808A0BAF1000F0ED0B11DC7
:10AA80005046FFF77BFFB168321D1020FFF778FFBB
:10AA9000B0FA80F0400902B0BDE8F087012002B0B2
:10AAA000BDE8F087D0F808A0E6E700BF98400400B2
:10AAB0004DDF70474EDF70474FDF704750DF704704
:10AAC0004BDF704710DF70477CDF70477DDF7047DA
:10AAD00060DF704769DF704761DF704766DF70478E
:10AAE00067DF7047704700BF042010F001BD00BF52
:10AAF00030B5224C224D83B0D4F830074FF0FF31EF
:10AB00000DF0E4FF0028F7D0C5B101A8FFF7D8FF8A
:10AB10000528F1D00028F8D1019B032B1BD8012B6D
:10AB2000F3D918460CF004FDEFE70A2B04D0092BEB
:10AB300021D00B2B02D1012006F06EFB01A8FFF7FC
:10AB4000BFFF0528D8D00028F8D1019BA3F1090246
:10AB5000022AF3D8E9E7A3F10902022AD5D80A2B81
:10AB600004D0092B05D00B2BCFD1012006F054FBCC
:10AB7000CBE70220FAE70220DEE700BF506A0020A0
:10AB8000317503002DE9F04F2DED028B4FF4FA7073
:10AB900089B00DF05DFAB24E00F1080308EE103AEC
:10ABA000054606F5F16706F5C86AD6F82C074FF09A
:10ABB000FF310DF08BFF0028F7D04FF4FA730DF141
:10ABC00016012846ADF81630FFF786FF10B10528AC
:10ABD000F3D1EAE7B5F80490B9F1130F00F2398127
:10ABE00006EB8903D3F83C473CB129462046FEF7E3
:10ABF000ABFC9C482946FFF729FB2B88013B1B2B0C
:10AC00005AD8DFE813F016015900590059005900CD
:10AC1000590059005900590059005900590059006C
:10AC200059005900B4001C0059005900590059003E
:10AC3000590059005900590059005900A200DFF885
:10AC400038824FF0000B58F8040F30B1FEF7FEFBCE
:10AC500018B10BF1010B5FFA8BFBB845F3D1BBF1D7
:10AC6000000F06D196F838371BB15946042010F072
:10AC700021FC2046FEF7F4FB012800F0EC80F2698D
:10AC800062B10223002195F808C00093084606AB84
:10AC9000CDF81890CDF81CC010F0DAF809F5E77877
:10ACA00006EB8803586810B103685B68984706EBA9
:10ACB00088080023C8F8043029465046FDF748FDAF
:10ACC00069482946FEF7C2FFB6F83A374B452B884C
:10ACD00000F0B480102B1ED02CB32046FEF7C0FB32
:10ACE000012803D15E482946FEF72EFF2046FEF7D5
:10ACF000B7FB02281BD05D48FEF710FD00BB5C4887
:10AD00002946FEF7A7FDD6F89037002B3FF455AF44
:10AD10002846984751E7EB7B012BDDD1AB88A6F89D
:10AD20003A37002CD9D14E482946FEF70DFF51483D
:10AD30002946FDF7B3FD4D48FEF7F0FC0028DED0B4
:10AD40004A482946FEF7ECFCD9E7D6F88C27002ABA
:10AD5000B2D00223002195F908C00093084606AB43
:10AD6000CDF81890CDF81CC010F072F8A4E74FF0A1
:10AD70000008D6F83407CDF8008043464246032148
:10AD80003D4C0FF029FA54F8040F30B1FEF75EFB8A
:10AD900018B108F101085FFA88F8BC42F3D196F8BF
:10ADA00038376BB1B8F1000118BF0121042010F051
:10ADB00081FB96F838371BB10121042010F07AFB93
:10ADC00009F5E77806EB8804606820B103685B68E2
:10ADD000984700236360EB7B012B0BBF96F81A3773
:10ADE00096F8203796F81B4796F8214703933420AE
:10ADF0000FF0B8FC06EB8808039B009418EE102AAD
:10AE000004464946FEF7EEFA2046C8F80440FEF72D
:10AE100027FB012832D0B269002A3FF44DAF01234D
:10AE200000210093084606ABCDF8189010F010F8FA
:10AE300042E700214846FFF751FE3DE7102B3FF463
:10AE40006AAF112B7FF448AF4FF6FF73A6F83A377D
:10AE500042E70446D1E6F268002A7FF412AF1DE70C
:10AE6000506A0020706A0020F470002048710020B1
:10AE7000906E0020606A002088710020B268002A6D
:10AE80003FF41AAF0021009006AB0846CDF81890A9
:10AE90000FF0DEFF10E700BF38B50446FEF716FEE0
:10AEA00004F11000FDF7C6FC04F12000FEF7C4FF1A
:10AEB00004F58860FEF770FC04F5C860FDF734FB0C
:10AEC00004F28460FDF7B0FA04F2A460FEF740FEDD
:10AED00004F5DF60FEF708FC4FF480530025C4F84A
:10AEE000103716481649174AC4F8140740F20113E0
:10AEF000C4F81817C4F81C27A4F82037A4F8225760
:10AF000004F23C702946502215F0A2FC01224FF6B3
:10AF1000FF73A4F8245784F82657C4F82C57C4F8B4
:10AF20003057C4F83457C4F89057C4F88C5784F895
:10AF30003827A4F83A37204638BD00BF010A170069
:10AF4000030001011700030004290BD8DFE801F01A
:10AF50000B130B1B0300104BC0F8163740F2031302
:10AF6000A0F81A3770470D4BC0F8163740F201139E
:10AF7000A0F81A3770470A4BC0F8163740F2011391
:10AF8000A0F81A377047074BC0F816374FF4817393
:10AF9000A0F81A37704700BFF700640017000300DD
:10AFA0001700020080000600F0B5BF4E80F824179D
:10AFB0008DB080F8252704460FF052FC0FF058FCA6
:10AFC0000FF016FC3369B949039303A8FFF77AFD24
:10AFD00018B1002528460DB0F0BD0120FFF76AFD2D
:10AFE0000120FFF765FD0120FFF766FD09A8FFF7C7
:10AFF00065FD099B9B0705D5AD4BD3F80435002BA8
:10B0000000F0FE800023AB4A94F81557049209A97A
:10B010000120CDE909330B938DF82450FFF75AFD39
:10B020000028D6D194F825370B90CDE90900181ED9
:10B0300018BF012094F824578DF82700049A8DF842
:10B04000263009A940208DF82550FFF743FD002840
:10B05000BFD194F814170990034661F30003CDE9BA
:10B060000A00049A8DF8243009A9A020FFF732FDC8
:10B070000028AED1D4F810370A900B90049A0993A7
:10B0800009A9A120FFF726FD0028A2D194F82437B2
:10B09000002B40F0B98094F82537002B48D00023CE
:10B0A000B4F81C77049A0993022509A92320CDE955
:10B0B0000A338DF82450ADF82670FFF70BFD0028F9
:10B0C00087D1CDE9090094F82577B4F81E370B90A5
:10B0D000049A8DF8245009A920208DF82670ADF827
:10B0E0002830FFF7F7FC00287FF473AF0990CDE913
:10B0F0000A0094F82037049A8DF8245009A92220D8
:10B100008DF82630FFF7E6FC00287FF462AFCDE92A
:10B11000090094F821370B90049A8DF8245009A95E
:10B1200021208DF82630FFF7D5FC00287FF451AFA1
:10B1300004A8FFF7CDFC00287FF44BAFCDE9070052
:10B1400040F0010307A902208DF81C30FFF7C8FC6E
:10B1500000287FF43EAF2046FEF7C6FC05460028D7
:10B160003FF437AF04F12000FEF77CFE337D5249F7
:10B170008DF80830182202A8FFF7A6FC00287FF4FB
:10B1800028AF94F82537002B40F088800322002157
:10B1900001200CF0FFFFC4F82C0700283FF419AF82
:10B1A00005AB0326CDE900634449454800234FF42D
:10B1B000A0620DF0B1FF3246002101200CF0EAFF41
:10B1C000C4F8300700283FF404AF06ABCDE90063B4
:10B1D0003C493D480023C8220DF09EFF3B4B4FF4F5
:10B1E00080021A603A4B00930023184601224FF464
:10B1F00080710EF09BFFC4F8340701F0CBF8E9E64C
:10B20000022006F009F8FDE60990CDE90A00B4F83D
:10B210001637049AADF82630012509A923208DF8A8
:10B220002450FFF757FC00287FF4D3AECDE9090086
:10B2300094F82477B4F818370B90049A8DF82450BA
:10B2400009A920208DF82670ADF82830FFF742FCC0
:10B2500000287FF4BEAE0990CDE90A0094F81A37B1
:10B26000049A8DF8245009A922208DF82630FFF782
:10B2700031FC00287FF4ADAECDE9090094F81B370E
:10B280000B90049A8DF8245009A921208DF82630BE
:10B29000FFF720FC00283FF4FEAE9AE604F1100010
:10B2A000FDF7D6FA72E700BF0C410400E5AA0200E0
:10B2B0000070024000600020E840040004410400E7
:10B2C00085AB020008410400F1AA020000E100E0A1
:10B2D000E9AA020000B5084B85B01B7D0191084624
:10B2E0008DF80C3016F0A7F9019982B203A8FFF788
:10B2F000EBFB05B05DF804FB0C41040000B583B026
:10B3000008460DF10601ADF80620FFF7DFFB20B976
:10B310009DF8060003B05DF804FB002003B05DF863
:10B3200004FB00BF70B4234B0E4605460FCB85B01F
:10B330006C4607C49DF900202380B24234D09DF9A9
:10B340000130B34230D09DF90230B3422CD09DF988
:10B350000330B34228D09DF90430B34224D09DF984
:10B360000530B34220D0FEB19DF90730B3421BD067
:10B370009DF90830B34217D09DF90930B34213D07C
:10B380009DF90A30B3420FD09DF90B30B3420BD078
:10B390009DF90C30B34207D09DF90D30B34203D074
:10B3A000002005B070BC7047012085F8266705B005
:10B3B00070BC70472441040090F92607704700BF15
:10B3C00080F83817704700BF70B5044682B0D0F8D7
:10B3D00034070D460EF02CFF4FF47A720646002318
:10B3E000A90DA80214F0DCFF002302460421D4F8C2
:10B3F000340700930EF0F0FE0EB102B070BD00965F
:10B40000D4F834073346324603210EF0E5FE02B08D
:10B4100070BD00BF70B500F5E76400F5F16500266A
:10B4200054F8040F20B1FEF711F808B10136F6B256
:10B43000AC42F5D1304670BD132906D800EB81012E
:10B44000D1F83C0708B1FEF701B80020704700BFF3
:10B45000B0F83A07704700BF01290CBFB0F81607D3
:10B46000B0F81C07704700BF13299ABF00EB810199
:10B47000D1F83C070020704710B5064C0021D4F8E5
:10B4800030070DF097F9D4F82C070021BDE81040E3
:10B490000DF090B9506A002090F8383703B9704722
:10B4A00010B582B0D0F834470EF026F800230246DB
:10B4B0000093204601210EF08FFE02B010BD00BFA8
:10B4C000F0B583B0002405462346D0F83407009435
:10B4D000224603210EF080FE05F5E76605F5F167CB
:10B4E00056F8040F20B1FDF7B1FF08B10134E4B202
:10B4F000BE42F5D195F8383743B1211E18BF01215E
:10B50000042003B0BDE8F0400FF0D4BF03B0F0BD9D
:10B510000148FFF7C1BC00BF506A00203CDF704704
:10B520003DDF704711DF704713DF7047B0DF7047B2
:10B53000B2DF70472DE9F0419EB0074604A8158898
:10B5400014460E46FDF7AAFDBDF81030AB4202D0FE
:10B550001EB0BDE8F081A379043B022BF8D939462F
:10B560005248FFF781FF4FF0000802233946054695
:10B570003046CDE90688CDE908888DF81830FDF70A
:10B58000CFFD06A900286AD03846ADF81C80FFF729
:10B59000CDFF247B012CDBD1454E41463E22304677
:10B5A00015F056F923460DF10E024249384608249B
:10B5B000ADF80E40FFF7BCFF68462946FDF756FF81
:10B5C00000983060BDF804309DF80620B271B38059
:10B5D0002846FDF73FFF002849D1354936484FF648
:10B5E000FF740B4601311B7883EA142383EA13129C
:10B5F00042EA042283EA131382EA033282EA431303
:10B6000081429CB2EDD12A4B2C489C870021FCF74B
:10B61000AFFF2846FDF73AFFFF210020FFF780FF2C
:10B62000B1210020FFF77AFF002891D1FFF77AFFC0
:10B6300000288DD1224B4FF0FF324FF01024C3F879
:10B640008020C3F880216069FFF76EFF00287FF437
:10B650007FAF80F31488606901F082F978E740F2E7
:10B66000FD133846ADF81C30FFF760FF70E70AA9FC
:10B670002846FDF747FF0028AFD01EAB13E90300B3
:10B680000B0C3060B180B37118AC0FCC0D4FC6F805
:10B6900007000AAC7960BA60FB600FCC18360FC6A1
:10B6A00094E8070086E8070097E700BF506A00208B
:10B6B000807F0020B47F0020BC7F0020907000209D
:10B6C00000E100E0877F002030B585B004460E49D8
:10B6D0006846FFF777F969462046FFF729F92546BE
:10B6E0006846FFF74FF9094B45F8183B084968468B
:10B6F000FFF768F969462846FDF718FC6846FFF72A
:10B7000041F9204605B030BD344104007C410400BD
:10B710005441040030B5B3B00546FFF7EDF818B159
:10B720000446204633B030BD2D491CA8FFF74AF926
:10B730001CA906A8FDF7FAFB1CA8FFF723F906A829
:10B74000FDF76CFC06A80421FDF76CFC06A814218B
:10B75000FDF76CFC06A8FDF705F9044698B905F15C
:10B76000180018210190FDF75DFC01981721FDF7E5
:10B770005DFC01981B490122FDF77AFC0198FDF759
:10B78000F1F8044628B106A8FDF7D2F8204633B0F8
:10B7900030BD154902A8FFF715F902A91CA8FDF74D
:10B7A000C5FB02A8FFF7EEF81CA8FDF737FC022145
:10B7B0001CA8FDF737FC02211CA8FDF739FC1CA8CA
:10B7C000FDF7D0F8044618B901211CA8FDF788FC44
:10B7D0001CA8FDF7ADF806A8FDF7AAF8D6E700BF4C
:10B7E0004441040035B5020064410400C16180F8A1
:10B7F0003D207047016380F84220704770B584B0E7
:10B80000044641F60A016846FFF7CEF8694620462D
:10B81000FFF78EF86846FFF7B5F820460E4B40F864
:10B82000183B2422002115F013F80C4E0C480D4A49
:10B83000E06200232364E36384F844301825052183
:10B8400013232046E66184F83D5084F841102263BA
:10B8500084F8423004B070BDAC410400E8400400FC
:10B8600088410400904104002DE9F0479AB0064653
:10B87000FFF742F88046002846D1336A002B4ED0AD
:10B88000736A002B56D0C6F5275909F1270906F12E
:10B89000140406F1380706F13C0554F8043F04A8E7
:10B8A00073B3FDF713FB2268B36B09EB05019A42F2
:10B8B00089B2684608BF42F65021FFF775F869461D
:10B8C00004A8FDF79FFB6846FFF75CF804A8FDF7A6
:10B8D000A5FB022104A8FDF7A5FB297804A8FDF724
:10B8E000A7FB04A8FDF73EF8824604A8BAF1000FB2
:10B8F0000ED12A782168FDF7D7FB04A8FDF718F8C8
:10B90000BC4205F10105C8D140461AB0BDE8F08738
:10B91000FDF70EF8D04640461AB0BDE8F0870FF0AC
:10B920003DFC044615F087FE736A346286F83E00DB
:10B93000002BA8D10FF0F2FB044615F07CFE7462D8
:10B9400086F83F009FE700BFD0F8D830988980B2D2
:10B95000704700BF70B582B0064608461C4601928B
:10B96000FDF75AFB019905462246D0F8D8000FF0A2
:10B970002FFB844206D9D5F8F0301BB1211A89B2C9
:10B9800030469847D5F8E83023B1304602B0BDE8DC
:10B990007040184702B070BD08B592B2D0F8D80018
:10B9A0000FF064FB08BD00BF00B583B0D0F8D8002D
:10B9B0000DF1070200210FF095FB20B19DF8070063
:10B9C00003B05DF804FB4FF0FF30F9E7D0F8D80082
:10B9D0000FF0ECBAD0F8C030988980B2704700BF41
:10B9E000D0F8C0000FF0E2BA10B501680C4A8C69BB
:10B9F000944282B00BD1D0F8D80001220DF107019A
:10BA00000FF034FB40B19DF8070002B010BD0122D9
:10BA10000DF10701A047F5E74FF0FF30F5E700BF54
:10BA200099B9020000B583B0D0F8C0000DF107024B
:10BA300000210FF057FB20B19DF8070003B05DF81F
:10BA400004FB4FF0FF30F9E710B550F8181C0D4A11
:10BA50008C69944282B00CD0183801220DF1070194
:10BA6000A04718B19DF8070002B010BD4FF0FF309D
:10BA7000FAE701220DF10701D0F8C0000FF0F6FA45
:10BA8000EFE700BF99B902002DE9F04F50F8183CDC
:10BA900083B004463F48D3F828800F461646FFF788
:10BAA000D7FC3D4B9845054609D0A4F11800334614
:10BAB0003A462946C44603B0BDE8F04F6047014608
:10BAC0003448FFF7D1FC8346002850D004F1100918
:10BAD00048462946FDF724FB002848D094F8CC308E
